{
  "contractName": "HistoriaClinica",
  "abi": [
    {
      "inputs": [],
      "stateMutability": "nonpayable",
      "type": "constructor"
    },
    {
      "inputs": [
        {
          "internalType": "uint256",
          "name": "",
          "type": "uint256"
        }
      ],
      "name": "citas",
      "outputs": [
        {
          "components": [
            {
              "components": [
                {
                  "internalType": "address",
                  "name": "direccionPublica",
                  "type": "address"
                },
                {
                  "internalType": "string",
                  "name": "DNI",
                  "type": "string"
                }
              ],
              "internalType": "struct HistoriaClinica.Persona",
              "name": "datos",
              "type": "tuple"
            },
            {
              "internalType": "string",
              "name": "centro_sanitario",
              "type": "string"
            },
            {
              "internalType": "uint256",
              "name": "medico_asignado",
              "type": "uint256"
            },
            {
              "internalType": "string",
              "name": "datos_paciente",
              "type": "string"
            }
          ],
          "internalType": "struct HistoriaClinica.Paciente",
          "name": "paciente",
          "type": "tuple"
        },
        {
          "components": [
            {
              "components": [
                {
                  "internalType": "address",
                  "name": "direccionPublica",
                  "type": "address"
                },
                {
                  "internalType": "string",
                  "name": "DNI",
                  "type": "string"
                }
              ],
              "internalType": "struct HistoriaClinica.Persona",
              "name": "datos",
              "type": "tuple"
            },
            {
              "internalType": "string",
              "name": "especialidad",
              "type": "string"
            },
            {
              "internalType": "string",
              "name": "centro_sanitario",
              "type": "string"
            },
            {
              "internalType": "uint256",
              "name": "numero_pacientes",
              "type": "uint256"
            }
          ],
          "internalType": "struct HistoriaClinica.Medico",
          "name": "medico",
          "type": "tuple"
        },
        {
          "internalType": "uint256",
          "name": "fecha",
          "type": "uint256"
        },
        {
          "internalType": "uint8",
          "name": "hora",
          "type": "uint8"
        },
        {
          "internalType": "string",
          "name": "datos_cita",
          "type": "string"
        },
        {
          "internalType": "enum HistoriaClinica.tipo_consulta",
          "name": "tipoConsulta",
          "type": "uint8"
        }
      ],
      "stateMutability": "view",
      "type": "function",
      "constant": true
    },
    {
      "inputs": [
        {
          "internalType": "uint256",
          "name": "",
          "type": "uint256"
        }
      ],
      "name": "consultas",
      "outputs": [
        {
          "components": [
            {
              "components": [
                {
                  "internalType": "address",
                  "name": "direccionPublica",
                  "type": "address"
                },
                {
                  "internalType": "string",
                  "name": "DNI",
                  "type": "string"
                }
              ],
              "internalType": "struct HistoriaClinica.Persona",
              "name": "datos",
              "type": "tuple"
            },
            {
              "internalType": "string",
              "name": "centro_sanitario",
              "type": "string"
            },
            {
              "internalType": "uint256",
              "name": "medico_asignado",
              "type": "uint256"
            },
            {
              "internalType": "string",
              "name": "datos_paciente",
              "type": "string"
            }
          ],
          "internalType": "struct HistoriaClinica.Paciente",
          "name": "paciente",
          "type": "tuple"
        },
        {
          "components": [
            {
              "components": [
                {
                  "internalType": "address",
                  "name": "direccionPublica",
                  "type": "address"
                },
                {
                  "internalType": "string",
                  "name": "DNI",
                  "type": "string"
                }
              ],
              "internalType": "struct HistoriaClinica.Persona",
              "name": "datos",
              "type": "tuple"
            },
            {
              "internalType": "string",
              "name": "especialidad",
              "type": "string"
            },
            {
              "internalType": "string",
              "name": "centro_sanitario",
              "type": "string"
            },
            {
              "internalType": "uint256",
              "name": "numero_pacientes",
              "type": "uint256"
            }
          ],
          "internalType": "struct HistoriaClinica.Medico",
          "name": "medico",
          "type": "tuple"
        },
        {
          "internalType": "uint8",
          "name": "hora",
          "type": "uint8"
        },
        {
          "internalType": "uint256",
          "name": "fecha",
          "type": "uint256"
        },
        {
          "internalType": "string",
          "name": "datos_consulta",
          "type": "string"
        },
        {
          "internalType": "enum HistoriaClinica.estado_consulta",
          "name": "estado",
          "type": "uint8"
        },
        {
          "internalType": "enum HistoriaClinica.tipo_consulta",
          "name": "tipo",
          "type": "uint8"
        }
      ],
      "stateMutability": "view",
      "type": "function",
      "constant": true
    },
    {
      "inputs": [
        {
          "internalType": "uint256",
          "name": "",
          "type": "uint256"
        }
      ],
      "name": "enfermeros",
      "outputs": [
        {
          "components": [
            {
              "internalType": "address",
              "name": "direccionPublica",
              "type": "address"
            },
            {
              "internalType": "string",
              "name": "DNI",
              "type": "string"
            }
          ],
          "internalType": "struct HistoriaClinica.Persona",
          "name": "datos",
          "type": "tuple"
        },
        {
          "internalType": "string",
          "name": "especialidad",
          "type": "string"
        },
        {
          "internalType": "string",
          "name": "centro_sanitario",
          "type": "string"
        }
      ],
      "stateMutability": "view",
      "type": "function",
      "constant": true
    },
    {
      "inputs": [
        {
          "internalType": "uint256",
          "name": "",
          "type": "uint256"
        }
      ],
      "name": "medicos",
      "outputs": [
        {
          "components": [
            {
              "internalType": "address",
              "name": "direccionPublica",
              "type": "address"
            },
            {
              "internalType": "string",
              "name": "DNI",
              "type": "string"
            }
          ],
          "internalType": "struct HistoriaClinica.Persona",
          "name": "datos",
          "type": "tuple"
        },
        {
          "internalType": "string",
          "name": "especialidad",
          "type": "string"
        },
        {
          "internalType": "string",
          "name": "centro_sanitario",
          "type": "string"
        },
        {
          "internalType": "uint256",
          "name": "numero_pacientes",
          "type": "uint256"
        }
      ],
      "stateMutability": "view",
      "type": "function",
      "constant": true
    },
    {
      "inputs": [],
      "name": "owner",
      "outputs": [
        {
          "internalType": "address",
          "name": "",
          "type": "address"
        }
      ],
      "stateMutability": "view",
      "type": "function",
      "constant": true
    },
    {
      "inputs": [
        {
          "internalType": "string",
          "name": "",
          "type": "string"
        }
      ],
      "name": "pacientes",
      "outputs": [
        {
          "components": [
            {
              "internalType": "address",
              "name": "direccionPublica",
              "type": "address"
            },
            {
              "internalType": "string",
              "name": "DNI",
              "type": "string"
            }
          ],
          "internalType": "struct HistoriaClinica.Persona",
          "name": "datos",
          "type": "tuple"
        },
        {
          "internalType": "string",
          "name": "centro_sanitario",
          "type": "string"
        },
        {
          "internalType": "uint256",
          "name": "medico_asignado",
          "type": "uint256"
        },
        {
          "internalType": "string",
          "name": "datos_paciente",
          "type": "string"
        }
      ],
      "stateMutability": "view",
      "type": "function",
      "constant": true
    },
    {
      "inputs": [
        {
          "internalType": "string",
          "name": "_DNI",
          "type": "string"
        },
        {
          "internalType": "string",
          "name": "_centroSanitario",
          "type": "string"
        },
        {
          "internalType": "string",
          "name": "_datosPaciente",
          "type": "string"
        }
      ],
      "name": "registrarPaciente",
      "outputs": [],
      "stateMutability": "nonpayable",
      "type": "function"
    },
    {
      "inputs": [
        {
          "internalType": "address",
          "name": "_direccionMedico",
          "type": "address"
        },
        {
          "internalType": "string",
          "name": "_DNI",
          "type": "string"
        },
        {
          "internalType": "string",
          "name": "_especialidad",
          "type": "string"
        },
        {
          "internalType": "string",
          "name": "_centro_sanitario",
          "type": "string"
        }
      ],
      "name": "registrarMedico",
      "outputs": [],
      "stateMutability": "nonpayable",
      "type": "function"
    },
    {
      "inputs": [
        {
          "internalType": "address",
          "name": "_direccionEnfermero",
          "type": "address"
        },
        {
          "internalType": "string",
          "name": "_DNI",
          "type": "string"
        },
        {
          "internalType": "string",
          "name": "_especialidad",
          "type": "string"
        },
        {
          "internalType": "string",
          "name": "_centro_sanitario",
          "type": "string"
        }
      ],
      "name": "registrarEnfermero",
      "outputs": [],
      "stateMutability": "nonpayable",
      "type": "function"
    },
    {
      "inputs": [
        {
          "internalType": "string",
          "name": "_DNI",
          "type": "string"
        }
      ],
      "name": "asignarMedico",
      "outputs": [
        {
          "internalType": "uint256",
          "name": "",
          "type": "uint256"
        }
      ],
      "stateMutability": "nonpayable",
      "type": "function"
    },
    {
      "inputs": [
        {
          "internalType": "string",
          "name": "_DNI",
          "type": "string"
        },
        {
          "internalType": "uint256",
          "name": "_fecha",
          "type": "uint256"
        },
        {
          "internalType": "uint8",
          "name": "_hora",
          "type": "uint8"
        },
        {
          "internalType": "string",
          "name": "_datos_consulta",
          "type": "string"
        },
        {
          "internalType": "string",
          "name": "_datos_cita",
          "type": "string"
        },
        {
          "internalType": "enum HistoriaClinica.tipo_consulta",
          "name": "_tipoConsulta",
          "type": "uint8"
        }
      ],
      "name": "solicitarCita",
      "outputs": [],
      "stateMutability": "nonpayable",
      "type": "function"
    },
    {
      "inputs": [
        {
          "internalType": "string",
          "name": "_DNI",
          "type": "string"
        },
        {
          "internalType": "uint256",
          "name": "_fecha",
          "type": "uint256"
        },
        {
          "internalType": "uint256",
          "name": "_hora",
          "type": "uint256"
        },
        {
          "internalType": "string",
          "name": "_datos_consulta",
          "type": "string"
        }
      ],
      "name": "atenderConsulta",
      "outputs": [],
      "stateMutability": "nonpayable",
      "type": "function"
    },
    {
      "inputs": [
        {
          "internalType": "uint8",
          "name": "indice",
          "type": "uint8"
        },
        {
          "components": [
            {
              "components": [
                {
                  "internalType": "address",
                  "name": "direccionPublica",
                  "type": "address"
                },
                {
                  "internalType": "string",
                  "name": "DNI",
                  "type": "string"
                }
              ],
              "internalType": "struct HistoriaClinica.Persona",
              "name": "datos",
              "type": "tuple"
            },
            {
              "internalType": "string",
              "name": "especialidad",
              "type": "string"
            },
            {
              "internalType": "string",
              "name": "centro_sanitario",
              "type": "string"
            },
            {
              "internalType": "uint256",
              "name": "numero_pacientes",
              "type": "uint256"
            }
          ],
          "internalType": "struct HistoriaClinica.Medico",
          "name": "_medico",
          "type": "tuple"
        },
        {
          "internalType": "string",
          "name": "_datos_cita",
          "type": "string"
        },
        {
          "components": [
            {
              "components": [
                {
                  "internalType": "address",
                  "name": "direccionPublica",
                  "type": "address"
                },
                {
                  "internalType": "string",
                  "name": "DNI",
                  "type": "string"
                }
              ],
              "internalType": "struct HistoriaClinica.Persona",
              "name": "datos",
              "type": "tuple"
            },
            {
              "internalType": "string",
              "name": "centro_sanitario",
              "type": "string"
            },
            {
              "internalType": "uint256",
              "name": "medico_asignado",
              "type": "uint256"
            },
            {
              "internalType": "string",
              "name": "datos_paciente",
              "type": "string"
            }
          ],
          "internalType": "struct HistoriaClinica.Paciente",
          "name": "_paciente",
          "type": "tuple"
        },
        {
          "internalType": "uint256",
          "name": "_nuevaFecha",
          "type": "uint256"
        },
        {
          "internalType": "uint8",
          "name": "_nuevaHora",
          "type": "uint8"
        },
        {
          "internalType": "enum HistoriaClinica.tipo_consulta",
          "name": "_nuevoTipoConsulta",
          "type": "uint8"
        }
      ],
      "name": "modificarCita",
      "outputs": [],
      "stateMutability": "nonpayable",
      "type": "function"
    },
    {
      "inputs": [
        {
          "components": [
            {
              "components": [
                {
                  "components": [
                    {
                      "internalType": "address",
                      "name": "direccionPublica",
                      "type": "address"
                    },
                    {
                      "internalType": "string",
                      "name": "DNI",
                      "type": "string"
                    }
                  ],
                  "internalType": "struct HistoriaClinica.Persona",
                  "name": "datos",
                  "type": "tuple"
                },
                {
                  "internalType": "string",
                  "name": "centro_sanitario",
                  "type": "string"
                },
                {
                  "internalType": "uint256",
                  "name": "medico_asignado",
                  "type": "uint256"
                },
                {
                  "internalType": "string",
                  "name": "datos_paciente",
                  "type": "string"
                }
              ],
              "internalType": "struct HistoriaClinica.Paciente",
              "name": "paciente",
              "type": "tuple"
            },
            {
              "components": [
                {
                  "components": [
                    {
                      "internalType": "address",
                      "name": "direccionPublica",
                      "type": "address"
                    },
                    {
                      "internalType": "string",
                      "name": "DNI",
                      "type": "string"
                    }
                  ],
                  "internalType": "struct HistoriaClinica.Persona",
                  "name": "datos",
                  "type": "tuple"
                },
                {
                  "internalType": "string",
                  "name": "especialidad",
                  "type": "string"
                },
                {
                  "internalType": "string",
                  "name": "centro_sanitario",
                  "type": "string"
                },
                {
                  "internalType": "uint256",
                  "name": "numero_pacientes",
                  "type": "uint256"
                }
              ],
              "internalType": "struct HistoriaClinica.Medico",
              "name": "medico",
              "type": "tuple"
            },
            {
              "internalType": "uint8",
              "name": "hora",
              "type": "uint8"
            },
            {
              "internalType": "uint256",
              "name": "fecha",
              "type": "uint256"
            },
            {
              "internalType": "string",
              "name": "datos_consulta",
              "type": "string"
            },
            {
              "internalType": "enum HistoriaClinica.estado_consulta",
              "name": "estado",
              "type": "uint8"
            },
            {
              "internalType": "enum HistoriaClinica.tipo_consulta",
              "name": "tipo",
              "type": "uint8"
            }
          ],
          "internalType": "struct HistoriaClinica.Consulta",
          "name": "nuevaConsulta",
          "type": "tuple"
        }
      ],
      "name": "crearConsulta",
      "outputs": [],
      "stateMutability": "nonpayable",
      "type": "function"
    }
  ],
  "bytecode": "0x608060405234801561001057600080fd5b5033600560006101000a81548173ffffffffffffffffffffffffffffffffffffffff021916908373ffffffffffffffffffffffffffffffffffffffff160217905550614ce6806100616000396000f3fe608060405234801561001057600080fd5b50600436106100ea5760003560e01c80638da5cb5b1161008c578063db8a982011610066578063db8a982014610251578063de67678114610283578063f12591081461029f578063f6652a67146102cf576100ea565b80638da5cb5b146101fb578063a6e85a1f14610219578063ca1cde8f14610235576100ea565b8063358e64d0116100c8578063358e64d01461015a5780634fef72281461017657806352509b8d146101925780637513e79c146101c5576100ea565b80631b01921a146100ef5780632c1a929d1461010b5780633550242f1461013e575b600080fd5b610109600480360381019061010491906136b5565b610304565b005b61012560048036038101906101209190613754565b6107c0565b60405161013594939291906138e0565b60405180910390f35b61015860048036038101906101539190613966565b610a02565b005b610174600480360381019061016f9190613dba565b610bb9565b005b610190600480360381019061018b9190613e03565b610e0e565b005b6101ac60048036038101906101a79190613ef9565b610fd9565b6040516101bc9493929190613f42565b60405180910390f35b6101df60048036038101906101da9190613754565b611221565b6040516101f29796959493929190614198565b60405180910390f35b61020361178a565b604051610210919061422b565b60405180910390f35b610233600480360381019061022e9190614246565b6117b0565b005b61024f600480360381019061024a9190614327565b6124bb565b005b61026b60048036038101906102669190613754565b6126a6565b60405161027a939291906143ce565b60405180910390f35b61029d60048036038101906102989190613966565b6128e2565b005b6102b960048036038101906102b49190613ef9565b612aaa565b6040516102c6919061441a565b60405180910390f35b6102e960048036038101906102e49190613754565b612f2c565b6040516102fb96959493929190614435565b60405180910390f35b6000808560405161031591906144e7565b9081526020016040518091039020604051806080016040529081600082016040518060400160405290816000820160009054906101000a900473ffffffffffffffffffffffffffffffffffffffff1673ffffffffffffffffffffffffffffffffffffffff1673ffffffffffffffffffffffffffffffffffffffff1681526020016001820180546103a49061452d565b80601f01602080910402602001604051908101604052809291908181526020018280546103d09061452d565b801561041d5780601f106103f25761010080835404028352916020019161041d565b820191906000526020600020905b81548152906001019060200180831161040057829003601f168201915b505050505081525050815260200160028201805461043a9061452d565b80601f01602080910402602001604051908101604052809291908181526020018280546104669061452d565b80156104b35780601f10610488576101008083540402835291602001916104b3565b820191906000526020600020905b81548152906001019060200180831161049657829003601f168201915b50505050508152602001600382015481526020016004820180546104d69061452d565b80601f01602080910402602001604051908101604052809291908181526020018280546105029061452d565b801561054f5780601f106105245761010080835404028352916020019161054f565b820191906000526020600020905b81548152906001019060200180831161053257829003601f168201915b5050505050815250509050600160008660405161056c91906144e7565b9081526020016040518091039020600301548154811061058f5761058e61455e565b5b906000526020600020906005020160000160000160009054906101000a900473ffffffffffffffffffffffffffffffffffffffff1673ffffffffffffffffffffffffffffffffffffffff163373ffffffffffffffffffffffffffffffffffffffff1614610631576040517f08c379a0000000000000000000000000000000000000000000000000000000008152600401610628906145ff565b60405180910390fd5b6000805b6004805490508110156107705785600482815481106106575761065661455e565b5b90600052602060002090600e0201600b01541480156106aa575084600482815481106106865761068561455e565b5b90600052602060002090600e0201600a0160009054906101000a900460ff1660ff16145b80156106cb5750868051906020012083600001516020015180519060200120145b1561075d576001915083600482815481106106e9576106e861455e565b5b90600052602060002090600e0201600c01908051906020019061070d929190613482565b506002600482815481106107245761072361455e565b5b90600052602060002090600e0201600d0160006101000a81548160ff02191690836002811115610757576107566140d9565b5b02179055505b80806107689061464e565b915050610635565b5060011515811515146107b8576040517f08c379a00000000000000000000000000000000000000000000000000000000081526004016107af9061472e565b60405180910390fd5b505050505050565b600181815481106107d057600080fd5b9060005260206000209060050201600091509050806000016040518060400160405290816000820160009054906101000a900473ffffffffffffffffffffffffffffffffffffffff1673ffffffffffffffffffffffffffffffffffffffff1673ffffffffffffffffffffffffffffffffffffffff1681526020016001820180546108599061452d565b80601f01602080910402602001604051908101604052809291908181526020018280546108859061452d565b80156108d25780601f106108a7576101008083540402835291602001916108d2565b820191906000526020600020905b8154815290600101906020018083116108b557829003601f168201915b505050505081525050908060020180546108eb9061452d565b80601f01602080910402602001604051908101604052809291908181526020018280546109179061452d565b80156109645780601f1061093957610100808354040283529160200191610964565b820191906000526020600020905b81548152906001019060200180831161094757829003601f168201915b5050505050908060030180546109799061452d565b80601f01602080910402602001604051908101604052809291908181526020018280546109a59061452d565b80156109f25780601f106109c7576101008083540402835291602001916109f2565b820191906000526020600020905b8154815290600101906020018083116109d557829003601f168201915b5050505050908060040154905084565b600560009054906101000a900473ffffffffffffffffffffffffffffffffffffffff1673ffffffffffffffffffffffffffffffffffffffff163373ffffffffffffffffffffffffffffffffffffffff1614610a92576040517f08c379a0000000000000000000000000000000000000000000000000000000008152600401610a89906147c0565b60405180910390fd5b600060405180604001604052808673ffffffffffffffffffffffffffffffffffffffff1681526020018581525090506002604051806060016040528083815260200185815260200184815250908060018154018082558091505060019003906000526020600020906004020160009091909190915060008201518160000160008201518160000160006101000a81548173ffffffffffffffffffffffffffffffffffffffff021916908373ffffffffffffffffffffffffffffffffffffffff1602179055506020820151816001019080519060200190610b73929190613482565b5050506020820151816002019080519060200190610b92929190613482565b506040820151816003019080519060200190610baf929190613482565b5050505050505050565b60048190806001815401808255809150506001900390600052602060002090600e020160009091909190915060008201518160000160008201518160000160008201518160000160006101000a81548173ffffffffffffffffffffffffffffffffffffffff021916908373ffffffffffffffffffffffffffffffffffffffff1602179055506020820151816001019080519060200190610c5a929190613482565b5050506020820151816002019080519060200190610c79929190613482565b50604082015181600301556060820151816004019080519060200190610ca0929190613482565b50505060208201518160050160008201518160000160008201518160000160006101000a81548173ffffffffffffffffffffffffffffffffffffffff021916908373ffffffffffffffffffffffffffffffffffffffff1602179055506020820151816001019080519060200190610d18929190613482565b5050506020820151816002019080519060200190610d37929190613482565b506040820151816003019080519060200190610d54929190613482565b50606082015181600401555050604082015181600a0160006101000a81548160ff021916908360ff160217905550606082015181600b0155608082015181600c019080519060200190610da8929190613482565b5060a082015181600d0160006101000a81548160ff02191690836002811115610dd457610dd36140d9565b5b021790555060c082015181600d0160016101000a81548160ff02191690836001811115610e0457610e036140d9565b5b0217905550505050565b6003805490508760ff16108015610e96575085600001516000015173ffffffffffffffffffffffffffffffffffffffff163373ffffffffffffffffffffffffffffffffffffffff161480610e95575083600001516000015173ffffffffffffffffffffffffffffffffffffffff163373ffffffffffffffffffffffffffffffffffffffff16145b5b610ed5576040517f08c379a0000000000000000000000000000000000000000000000000000000008152600401610ecc90614852565b60405180910390fd5b8260038860ff1681548110610eed57610eec61455e565b5b90600052602060002090600e0201600a01819055508160038860ff1681548110610f1a57610f1961455e565b5b90600052602060002090600e0201600b0160006101000a81548160ff021916908360ff1602179055508460038860ff1681548110610f5b57610f5a61455e565b5b90600052602060002090600e0201600c019080519060200190610f7f929190613482565b508060038860ff1681548110610f9857610f9761455e565b5b90600052602060002090600e0201600d0160006101000a81548160ff02191690836001811115610fcb57610fca6140d9565b5b021790555050505050505050565b600081805160208101820180518482526020830160208501208183528095505050505050600091509050806000016040518060400160405290816000820160009054906101000a900473ffffffffffffffffffffffffffffffffffffffff1673ffffffffffffffffffffffffffffffffffffffff1673ffffffffffffffffffffffffffffffffffffffff1681526020016001820180546110789061452d565b80601f01602080910402602001604051908101604052809291908181526020018280546110a49061452d565b80156110f15780601f106110c6576101008083540402835291602001916110f1565b820191906000526020600020905b8154815290600101906020018083116110d457829003601f168201915b5050505050815250509080600201805461110a9061452d565b80601f01602080910402602001604051908101604052809291908181526020018280546111369061452d565b80156111835780601f1061115857610100808354040283529160200191611183565b820191906000526020600020905b81548152906001019060200180831161116657829003601f168201915b50505050509080600301549080600401805461119e9061452d565b80601f01602080910402602001604051908101604052809291908181526020018280546111ca9061452d565b80156112175780601f106111ec57610100808354040283529160200191611217565b820191906000526020600020905b8154815290600101906020018083116111fa57829003601f168201915b5050505050905084565b6004818154811061123157600080fd5b90600052602060002090600e020160009150905080600001604051806080016040529081600082016040518060400160405290816000820160009054906101000a900473ffffffffffffffffffffffffffffffffffffffff1673ffffffffffffffffffffffffffffffffffffffff1673ffffffffffffffffffffffffffffffffffffffff1681526020016001820180546112ca9061452d565b80601f01602080910402602001604051908101604052809291908181526020018280546112f69061452d565b80156113435780601f1061131857610100808354040283529160200191611343565b820191906000526020600020905b81548152906001019060200180831161132657829003601f168201915b50505050508152505081526020016002820180546113609061452d565b80601f016020809104026020016040519081016040528092919081815260200182805461138c9061452d565b80156113d95780601f106113ae576101008083540402835291602001916113d9565b820191906000526020600020905b8154815290600101906020018083116113bc57829003601f168201915b50505050508152602001600382015481526020016004820180546113fc9061452d565b80601f01602080910402602001604051908101604052809291908181526020018280546114289061452d565b80156114755780601f1061144a57610100808354040283529160200191611475565b820191906000526020600020905b81548152906001019060200180831161145857829003601f168201915b5050505050815250509080600501604051806080016040529081600082016040518060400160405290816000820160009054906101000a900473ffffffffffffffffffffffffffffffffffffffff1673ffffffffffffffffffffffffffffffffffffffff1673ffffffffffffffffffffffffffffffffffffffff1681526020016001820180546115049061452d565b80601f01602080910402602001604051908101604052809291908181526020018280546115309061452d565b801561157d5780601f106115525761010080835404028352916020019161157d565b820191906000526020600020905b81548152906001019060200180831161156057829003601f168201915b505050505081525050815260200160028201805461159a9061452d565b80601f01602080910402602001604051908101604052809291908181526020018280546115c69061452d565b80156116135780601f106115e857610100808354040283529160200191611613565b820191906000526020600020905b8154815290600101906020018083116115f657829003601f168201915b5050505050815260200160038201805461162c9061452d565b80601f01602080910402602001604051908101604052809291908181526020018280546116589061452d565b80156116a55780601f1061167a576101008083540402835291602001916116a5565b820191906000526020600020905b81548152906001019060200180831161168857829003601f168201915b505050505081526020016004820154815250509080600a0160009054906101000a900460ff169080600b01549080600c0180546116e19061452d565b80601f016020809104026020016040519081016040528092919081815260200182805461170d9061452d565b801561175a5780601f1061172f5761010080835404028352916020019161175a565b820191906000526020600020905b81548152906001019060200180831161173d57829003601f168201915b50505050509080600d0160009054906101000a900460ff169080600d0160019054906101000a900460ff16905087565b600560009054906101000a900473ffffffffffffffffffffffffffffffffffffffff1681565b7fffffffffffffffffffffffffffffffffffffffffffffffffffffffffffffffff6000876040516117e191906144e7565b90815260200160405180910390206003015410611833576040517f08c379a000000000000000000000000000000000000000000000000000000000815260040161182a906148e4565b60405180910390fd5b60088460ff161015801561184b575060128460ff1611155b61188a576040517f08c379a000000000000000000000000000000000000000000000000000000000815260040161188190614976565b60405180910390fd5b428510156118cd576040517f08c379a00000000000000000000000000000000000000000000000000000000081526004016118c490614a08565b60405180910390fd5b600060019050600080886040516118e491906144e7565b9081526020016040518091039020604051806080016040529081600082016040518060400160405290816000820160009054906101000a900473ffffffffffffffffffffffffffffffffffffffff1673ffffffffffffffffffffffffffffffffffffffff1673ffffffffffffffffffffffffffffffffffffffff1681526020016001820180546119739061452d565b80601f016020809104026020016040519081016040528092919081815260200182805461199f9061452d565b80156119ec5780601f106119c1576101008083540402835291602001916119ec565b820191906000526020600020905b8154815290600101906020018083116119cf57829003601f168201915b5050505050815250508152602001600282018054611a099061452d565b80601f0160208091040260200160405190810160405280929190818152602001828054611a359061452d565b8015611a825780601f10611a5757610100808354040283529160200191611a82565b820191906000526020600020905b815481529060010190602001808311611a6557829003601f168201915b5050505050815260200160038201548152602001600482018054611aa59061452d565b80601f0160208091040260200160405190810160405280929190818152602001828054611ad19061452d565b8015611b1e5780601f10611af357610100808354040283529160200191611b1e565b820191906000526020600020905b815481529060010190602001808311611b0157829003601f168201915b505050505081525050905060006001826040015181548110611b4357611b4261455e565b5b9060005260206000209060050201604051806080016040529081600082016040518060400160405290816000820160009054906101000a900473ffffffffffffffffffffffffffffffffffffffff1673ffffffffffffffffffffffffffffffffffffffff1673ffffffffffffffffffffffffffffffffffffffff168152602001600182018054611bd29061452d565b80601f0160208091040260200160405190810160405280929190818152602001828054611bfe9061452d565b8015611c4b5780601f10611c2057610100808354040283529160200191611c4b565b820191906000526020600020905b815481529060010190602001808311611c2e57829003601f168201915b5050505050815250508152602001600282018054611c689061452d565b80601f0160208091040260200160405190810160405280929190818152602001828054611c949061452d565b8015611ce15780601f10611cb657610100808354040283529160200191611ce1565b820191906000526020600020905b815481529060010190602001808311611cc457829003601f168201915b50505050508152602001600382018054611cfa9061452d565b80601f0160208091040260200160405190810160405280929190818152602001828054611d269061452d565b8015611d735780601f10611d4857610100808354040283529160200191611d73565b820191906000526020600020905b815481529060010190602001808311611d5657829003601f168201915b50505050508152602001600482015481525050905060005b60038054905081108015611dc357504260038281548110611daf57611dae61455e565b5b90600052602060002090600e0201600a0154115b15611f5a5781600001516000015173ffffffffffffffffffffffffffffffffffffffff1660038281548110611dfb57611dfa61455e565b5b90600052602060002090600e020160050160000160000160009054906101000a900473ffffffffffffffffffffffffffffffffffffffff1673ffffffffffffffffffffffffffffffffffffffff1603611f47578860038281548110611e6357611e6261455e565b5b90600052602060002090600e0201600a0154148015611eb957508760ff1660038281548110611e9557611e9461455e565b5b90600052602060002090600e0201600b0160009054906101000a900460ff1660ff16145b80611f3c57508860038281548110611ed457611ed361455e565b5b90600052602060002090600e0201600a0154148015611f3b57506103848860ff16611eff9190614a36565b61ffff1660038281548110611f1757611f1661455e565b5b90600052602060002090600e0201600b0160009054906101000a900460ff1660ff16115b5b15611f4657600093505b5b8080611f529061464e565b915050611d8b565b5082156124755760036040518060c001604052808481526020018381526020018a81526020018960ff168152602001878152602001866001811115611fa257611fa16140d9565b5b81525090806001815401808255809150506001900390600052602060002090600e020160009091909190915060008201518160000160008201518160000160008201518160000160006101000a81548173ffffffffffffffffffffffffffffffffffffffff021916908373ffffffffffffffffffffffffffffffffffffffff1602179055506020820151816001019080519060200190612043929190613482565b5050506020820151816002019080519060200190612062929190613482565b50604082015181600301556060820151816004019080519060200190612089929190613482565b50505060208201518160050160008201518160000160008201518160000160006101000a81548173ffffffffffffffffffffffffffffffffffffffff021916908373ffffffffffffffffffffffffffffffffffffffff1602179055506020820151816001019080519060200190612101929190613482565b5050506020820151816002019080519060200190612120929190613482565b50604082015181600301908051906020019061213d929190613482565b50606082015181600401555050604082015181600a0155606082015181600b0160006101000a81548160ff021916908360ff160217905550608082015181600c019080519060200190612191929190613482565b5060a082015181600d0160006101000a81548160ff021916908360018111156121bd576121bc6140d9565b5b0217905550505060046040518060e001604052808481526020018381526020018960ff1681526020018a815260200188815260200160006002811115612206576122056140d9565b5b815260200186600181111561221e5761221d6140d9565b5b81525090806001815401808255809150506001900390600052602060002090600e020160009091909190915060008201518160000160008201518160000160008201518160000160006101000a81548173ffffffffffffffffffffffffffffffffffffffff021916908373ffffffffffffffffffffffffffffffffffffffff16021790555060208201518160010190805190602001906122bf929190613482565b50505060208201518160020190805190602001906122de929190613482565b50604082015181600301556060820151816004019080519060200190612305929190613482565b50505060208201518160050160008201518160000160008201518160000160006101000a81548173ffffffffffffffffffffffffffffffffffffffff021916908373ffffffffffffffffffffffffffffffffffffffff160217905550602082015181600101908051906020019061237d929190613482565b505050602082015181600201908051906020019061239c929190613482565b5060408201518160030190805190602001906123b9929190613482565b50606082015181600401555050604082015181600a0160006101000a81548160ff021916908360ff160217905550606082015181600b0155608082015181600c01908051906020019061240d929190613482565b5060a082015181600d0160006101000a81548160ff02191690836002811115612439576124386140d9565b5b021790555060c082015181600d0160016101000a81548160ff02191690836001811115612469576124686140d9565b5b021790555050506124b0565b6040517f08c379a00000000000000000000000000000000000000000000000000000000081526004016124a790614b02565b60405180910390fd5b505050505050505050565b600073ffffffffffffffffffffffffffffffffffffffff166000846040516124e391906144e7565b908152602001604051809103902060000160000160009054906101000a900473ffffffffffffffffffffffffffffffffffffffff1673ffffffffffffffffffffffffffffffffffffffff161461256e576040517f08c379a000000000000000000000000000000000000000000000000000000000815260040161256590614b6e565b60405180910390fd5b600060405180604001604052803373ffffffffffffffffffffffffffffffffffffffff1681526020018581525090506040518060800160405280828152602001848152602001633b9aca008152602001838152506000856040516125d291906144e7565b908152602001604051809103902060008201518160000160008201518160000160006101000a81548173ffffffffffffffffffffffffffffffffffffffff021916908373ffffffffffffffffffffffffffffffffffffffff160217905550602082015181600101908051906020019061264c929190613482565b505050602082015181600201908051906020019061266b929190613482565b50604082015181600301556060820151816004019080519060200190612692929190613482565b5090505061269f84612aaa565b5050505050565b600281815481106126b657600080fd5b9060005260206000209060040201600091509050806000016040518060400160405290816000820160009054906101000a900473ffffffffffffffffffffffffffffffffffffffff1673ffffffffffffffffffffffffffffffffffffffff1673ffffffffffffffffffffffffffffffffffffffff16815260200160018201805461273f9061452d565b80601f016020809104026020016040519081016040528092919081815260200182805461276b9061452d565b80156127b85780601f1061278d576101008083540402835291602001916127b8565b820191906000526020600020905b81548152906001019060200180831161279b57829003601f168201915b505050505081525050908060020180546127d19061452d565b80601f01602080910402602001604051908101604052809291908181526020018280546127fd9061452d565b801561284a5780601f1061281f5761010080835404028352916020019161284a565b820191906000526020600020905b81548152906001019060200180831161282d57829003601f168201915b50505050509080600301805461285f9061452d565b80601f016020809104026020016040519081016040528092919081815260200182805461288b9061452d565b80156128d85780601f106128ad576101008083540402835291602001916128d8565b820191906000526020600020905b8154815290600101906020018083116128bb57829003601f168201915b5050505050905083565b600560009054906101000a900473ffffffffffffffffffffffffffffffffffffffff1673ffffffffffffffffffffffffffffffffffffffff163373ffffffffffffffffffffffffffffffffffffffff1614612972576040517f08c379a0000000000000000000000000000000000000000000000000000000008152600401612969906147c0565b60405180910390fd5b600060405180604001604052808673ffffffffffffffffffffffffffffffffffffffff168152602001858152509050600160405180608001604052808381526020018581526020018481526020016000815250908060018154018082558091505060019003906000526020600020906005020160009091909190915060008201518160000160008201518160000160006101000a81548173ffffffffffffffffffffffffffffffffffffffff021916908373ffffffffffffffffffffffffffffffffffffffff1602179055506020820151816001019080519060200190612a5a929190613482565b5050506020820151816002019080519060200190612a79929190613482565b506040820151816003019080519060200190612a96929190613482565b506060820151816004015550505050505050565b60008060018054905011612af3576040517f08c379a0000000000000000000000000000000000000000000000000000000008152600401612aea90614bda565b60405180910390fd5b6000808084604051612b0591906144e7565b9081526020016040518091039020604051806080016040529081600082016040518060400160405290816000820160009054906101000a900473ffffffffffffffffffffffffffffffffffffffff1673ffffffffffffffffffffffffffffffffffffffff1673ffffffffffffffffffffffffffffffffffffffff168152602001600182018054612b949061452d565b80601f0160208091040260200160405190810160405280929190818152602001828054612bc09061452d565b8015612c0d5780601f10612be257610100808354040283529160200191612c0d565b820191906000526020600020905b815481529060010190602001808311612bf057829003601f168201915b5050505050815250508152602001600282018054612c2a9061452d565b80601f0160208091040260200160405190810160405280929190818152602001828054612c569061452d565b8015612ca35780601f10612c7857610100808354040283529160200191612ca3565b820191906000526020600020905b815481529060010190602001808311612c8657829003601f168201915b5050505050815260200160038201548152602001600482018054612cc69061452d565b80601f0160208091040260200160405190810160405280929190818152602001828054612cf29061452d565b8015612d3f5780601f10612d1457610100808354040283529160200191612d3f565b820191906000526020600020905b815481529060010190602001808311612d2257829003601f168201915b50505050508152505090506000816020015190506000807fffffffffffffffffffffffffffffffffffffffffffffffffffffffffffffffff90505b600180549050851015612ebe576040518060400160405280600781526020017f47656e6572616c000000000000000000000000000000000000000000000000008152508051906020012060018681548110612dd857612dd761455e565b5b9060005260206000209060050201600201604051612df69190614c99565b6040518091039020148015612e4a5750828051906020012060018681548110612e2257612e2161455e565b5b9060005260206000209060050201600301604051612e409190614c99565b6040518091039020145b8015612e7a57508060018681548110612e6657612e6561455e565b5b906000526020600020906005020160040154105b15612eab5760018581548110612e9357612e9261455e565b5b90600052602060002090600502016004015490508491505b8480612eb69061464e565b955050612d7a565b60018281548110612ed257612ed161455e565b5b90600052602060002090600502016004016000815480929190612ef49061464e565b919050555081600088604051612f0a91906144e7565b9081526020016040518091039020600301819055508195505050505050919050565b60038181548110612f3c57600080fd5b90600052602060002090600e020160009150905080600001604051806080016040529081600082016040518060400160405290816000820160009054906101000a900473ffffffffffffffffffffffffffffffffffffffff1673ffffffffffffffffffffffffffffffffffffffff1673ffffffffffffffffffffffffffffffffffffffff168152602001600182018054612fd59061452d565b80601f01602080910402602001604051908101604052809291908181526020018280546130019061452d565b801561304e5780601f106130235761010080835404028352916020019161304e565b820191906000526020600020905b81548152906001019060200180831161303157829003601f168201915b505050505081525050815260200160028201805461306b9061452d565b80601f01602080910402602001604051908101604052809291908181526020018280546130979061452d565b80156130e45780601f106130b9576101008083540402835291602001916130e4565b820191906000526020600020905b8154815290600101906020018083116130c757829003601f168201915b50505050508152602001600382015481526020016004820180546131079061452d565b80601f01602080910402602001604051908101604052809291908181526020018280546131339061452d565b80156131805780601f1061315557610100808354040283529160200191613180565b820191906000526020600020905b81548152906001019060200180831161316357829003601f168201915b5050505050815250509080600501604051806080016040529081600082016040518060400160405290816000820160009054906101000a900473ffffffffffffffffffffffffffffffffffffffff1673ffffffffffffffffffffffffffffffffffffffff1673ffffffffffffffffffffffffffffffffffffffff16815260200160018201805461320f9061452d565b80601f016020809104026020016040519081016040528092919081815260200182805461323b9061452d565b80156132885780601f1061325d57610100808354040283529160200191613288565b820191906000526020600020905b81548152906001019060200180831161326b57829003601f168201915b50505050508152505081526020016002820180546132a59061452d565b80601f01602080910402602001604051908101604052809291908181526020018280546132d19061452d565b801561331e5780601f106132f35761010080835404028352916020019161331e565b820191906000526020600020905b81548152906001019060200180831161330157829003601f168201915b505050505081526020016003820180546133379061452d565b80601f01602080910402602001604051908101604052809291908181526020018280546133639061452d565b80156133b05780601f10613385576101008083540402835291602001916133b0565b820191906000526020600020905b81548152906001019060200180831161339357829003601f168201915b505050505081526020016004820154815250509080600a01549080600b0160009054906101000a900460ff169080600c0180546133ec9061452d565b80601f01602080910402602001604051908101604052809291908181526020018280546134189061452d565b80156134655780601f1061343a57610100808354040283529160200191613465565b820191906000526020600020905b81548152906001019060200180831161344857829003601f168201915b50505050509080600d0160009054906101000a900460ff16905086565b82805461348e9061452d565b90600052602060002090601f0160209004810192826134b057600085556134f7565b82601f106134c957805160ff19168380011785556134f7565b828001600101855582156134f7579182015b828111156134f65782518255916020019190600101906134db565b5b5090506135049190613508565b5090565b5b80821115613521576000816000905550600101613509565b5090565b6000604051905090565b600080fd5b600080fd5b600080fd5b600080fd5b6000601f19601f8301169050919050565b7f4e487b7100000000000000000000000000000000000000000000000000000000600052604160045260246000fd5b61358c82613543565b810181811067ffffffffffffffff821117156135ab576135aa613554565b5b80604052505050565b60006135be613525565b90506135ca8282613583565b919050565b600067ffffffffffffffff8211156135ea576135e9613554565b5b6135f382613543565b9050602081019050919050565b82818337600083830152505050565b600061362261361d846135cf565b6135b4565b90508281526020810184848401111561363e5761363d61353e565b5b613649848285613600565b509392505050565b600082601f83011261366657613665613539565b5b813561367684826020860161360f565b91505092915050565b6000819050919050565b6136928161367f565b811461369d57600080fd5b50565b6000813590506136af81613689565b92915050565b600080600080608085870312156136cf576136ce61352f565b5b600085013567ffffffffffffffff8111156136ed576136ec613534565b5b6136f987828801613651565b945050602061370a878288016136a0565b935050604061371b878288016136a0565b925050606085013567ffffffffffffffff81111561373c5761373b613534565b5b61374887828801613651565b91505092959194509250565b60006020828403121561376a5761376961352f565b5b6000613778848285016136a0565b91505092915050565b600073ffffffffffffffffffffffffffffffffffffffff82169050919050565b60006137ac82613781565b9050919050565b6137bc816137a1565b82525050565b600081519050919050565b600082825260208201905092915050565b60005b838110156137fc5780820151818401526020810190506137e1565b8381111561380b576000848401525b50505050565b600061381c826137c2565b61382681856137cd565b93506138368185602086016137de565b61383f81613543565b840191505092915050565b600060408301600083015161386260008601826137b3565b506020830151848203602086015261387a8282613811565b9150508091505092915050565b600082825260208201905092915050565b60006138a3826137c2565b6138ad8185613887565b93506138bd8185602086016137de565b6138c681613543565b840191505092915050565b6138da8161367f565b82525050565b600060808201905081810360008301526138fa818761384a565b9050818103602083015261390e8186613898565b905081810360408301526139228185613898565b905061393160608301846138d1565b95945050505050565b613943816137a1565b811461394e57600080fd5b50565b6000813590506139608161393a565b92915050565b600080600080608085870312156139805761397f61352f565b5b600061398e87828801613951565b945050602085013567ffffffffffffffff8111156139af576139ae613534565b5b6139bb87828801613651565b935050604085013567ffffffffffffffff8111156139dc576139db613534565b5b6139e887828801613651565b925050606085013567ffffffffffffffff811115613a0957613a08613534565b5b613a1587828801613651565b91505092959194509250565b600080fd5b600080fd5b600060408284031215613a4157613a40613a21565b5b613a4b60406135b4565b90506000613a5b84828501613951565b600083015250602082013567ffffffffffffffff811115613a7f57613a7e613a26565b5b613a8b84828501613651565b60208301525092915050565b600060808284031215613aad57613aac613a21565b5b613ab760806135b4565b9050600082013567ffffffffffffffff811115613ad757613ad6613a26565b5b613ae384828501613a2b565b600083015250602082013567ffffffffffffffff811115613b0757613b06613a26565b5b613b1384828501613651565b6020830152506040613b27848285016136a0565b604083015250606082013567ffffffffffffffff811115613b4b57613b4a613a26565b5b613b5784828501613651565b60608301525092915050565b600060808284031215613b7957613b78613a21565b5b613b8360806135b4565b9050600082013567ffffffffffffffff811115613ba357613ba2613a26565b5b613baf84828501613a2b565b600083015250602082013567ffffffffffffffff811115613bd357613bd2613a26565b5b613bdf84828501613651565b602083015250604082013567ffffffffffffffff811115613c0357613c02613a26565b5b613c0f84828501613651565b6040830152506060613c23848285016136a0565b60608301525092915050565b600060ff82169050919050565b613c4581613c2f565b8114613c5057600080fd5b50565b600081359050613c6281613c3c565b92915050565b60038110613c7557600080fd5b50565b600081359050613c8781613c68565b92915050565b60028110613c9a57600080fd5b50565b600081359050613cac81613c8d565b92915050565b600060e08284031215613cc857613cc7613a21565b5b613cd260e06135b4565b9050600082013567ffffffffffffffff811115613cf257613cf1613a26565b5b613cfe84828501613a97565b600083015250602082013567ffffffffffffffff811115613d2257613d21613a26565b5b613d2e84828501613b63565b6020830152506040613d4284828501613c53565b6040830152506060613d56848285016136a0565b606083015250608082013567ffffffffffffffff811115613d7a57613d79613a26565b5b613d8684828501613651565b60808301525060a0613d9a84828501613c78565b60a08301525060c0613dae84828501613c9d565b60c08301525092915050565b600060208284031215613dd057613dcf61352f565b5b600082013567ffffffffffffffff811115613dee57613ded613534565b5b613dfa84828501613cb2565b91505092915050565b600080600080600080600060e0888a031215613e2257613e2161352f565b5b6000613e308a828b01613c53565b975050602088013567ffffffffffffffff811115613e5157613e50613534565b5b613e5d8a828b01613b63565b965050604088013567ffffffffffffffff811115613e7e57613e7d613534565b5b613e8a8a828b01613651565b955050606088013567ffffffffffffffff811115613eab57613eaa613534565b5b613eb78a828b01613a97565b9450506080613ec88a828b016136a0565b93505060a0613ed98a828b01613c53565b92505060c0613eea8a828b01613c9d565b91505092959891949750929550565b600060208284031215613f0f57613f0e61352f565b5b600082013567ffffffffffffffff811115613f2d57613f2c613534565b5b613f3984828501613651565b91505092915050565b60006080820190508181036000830152613f5c818761384a565b90508181036020830152613f708186613898565b9050613f7f60408301856138d1565b8181036060830152613f918184613898565b905095945050505050565b6000604083016000830151613fb460008601826137b3565b5060208301518482036020860152613fcc8282613811565b9150508091505092915050565b613fe28161367f565b82525050565b600060808301600083015184820360008601526140058282613f9c565b9150506020830151848203602086015261401f8282613811565b91505060408301516140346040860182613fd9565b506060830151848203606086015261404c8282613811565b9150508091505092915050565b600060808301600083015184820360008601526140768282613f9c565b915050602083015184820360208601526140908282613811565b915050604083015184820360408601526140aa8282613811565b91505060608301516140bf6060860182613fd9565b508091505092915050565b6140d381613c2f565b82525050565b7f4e487b7100000000000000000000000000000000000000000000000000000000600052602160045260246000fd5b60038110614119576141186140d9565b5b50565b600081905061412a82614108565b919050565b600061413a8261411c565b9050919050565b61414a8161412f565b82525050565b60028110614161576141606140d9565b5b50565b600081905061417282614150565b919050565b600061418282614164565b9050919050565b61419281614177565b82525050565b600060e08201905081810360008301526141b2818a613fe8565b905081810360208301526141c68189614059565b90506141d560408301886140ca565b6141e260608301876138d1565b81810360808301526141f48186613898565b905061420360a0830185614141565b61421060c0830184614189565b98975050505050505050565b614225816137a1565b82525050565b6000602082019050614240600083018461421c565b92915050565b60008060008060008060c087890312156142635761426261352f565b5b600087013567ffffffffffffffff81111561428157614280613534565b5b61428d89828a01613651565b965050602061429e89828a016136a0565b95505060406142af89828a01613c53565b945050606087013567ffffffffffffffff8111156142d0576142cf613534565b5b6142dc89828a01613651565b935050608087013567ffffffffffffffff8111156142fd576142fc613534565b5b61430989828a01613651565b92505060a061431a89828a01613c9d565b9150509295509295509295565b6000806000606084860312156143405761433f61352f565b5b600084013567ffffffffffffffff81111561435e5761435d613534565b5b61436a86828701613651565b935050602084013567ffffffffffffffff81111561438b5761438a613534565b5b61439786828701613651565b925050604084013567ffffffffffffffff8111156143b8576143b7613534565b5b6143c486828701613651565b9150509250925092565b600060608201905081810360008301526143e8818661384a565b905081810360208301526143fc8185613898565b905081810360408301526144108184613898565b9050949350505050565b600060208201905061442f60008301846138d1565b92915050565b600060c082019050818103600083015261444f8189613fe8565b905081810360208301526144638188614059565b905061447260408301876138d1565b61447f60608301866140ca565b81810360808301526144918185613898565b90506144a060a0830184614189565b979650505050505050565b600081905092915050565b60006144c1826137c2565b6144cb81856144ab565b93506144db8185602086016137de565b80840191505092915050565b60006144f382846144b6565b915081905092915050565b7f4e487b7100000000000000000000000000000000000000000000000000000000600052602260045260246000fd5b6000600282049050600182168061454557607f821691505b602082108103614558576145576144fe565b5b50919050565b7f4e487b7100000000000000000000000000000000000000000000000000000000600052603260045260246000fd5b7f536f6c6f20656c206d656469636f207075656465206174656e646572206c612060008201527f636f6e73756c7461000000000000000000000000000000000000000000000000602082015250565b60006145e9602883613887565b91506145f48261458d565b604082019050919050565b60006020820190508181036000830152614618816145dc565b9050919050565b7f4e487b7100000000000000000000000000000000000000000000000000000000600052601160045260246000fd5b60006146598261367f565b91507fffffffffffffffffffffffffffffffffffffffffffffffffffffffffffffffff820361468b5761468a61461f565b5b600182019050919050565b7f4e6f20736520656e636f6e74726f20756e6120636f6e73756c74612070726f6760008201527f72616d61646120636f6e206c6f73206461746f7320657370656369666963616460208201527f6f73000000000000000000000000000000000000000000000000000000000000604082015250565b6000614718604283613887565b915061472382614696565b606082019050919050565b600060208201905081810360008301526147478161470b565b9050919050565b7f536f6c6f20656c2061646d696e6973747261646f72207469656e65207065726d60008201527f69736f73207061726120656a65637574617220657374612066756e63696f6e00602082015250565b60006147aa603f83613887565b91506147b58261474e565b604082019050919050565b600060208201905081810360008301526147d98161479d565b9050919050565b7f6c612063697461206e6f20657869737465206f206e6f20686179207065726d6960008201527f736f7320737566696369656e7465730000000000000000000000000000000000602082015250565b600061483c602f83613887565b9150614847826147e0565b604082019050919050565b6000602082019050818103600083015261486b8161482f565b9050919050565b7f456c2070616369656e7465206e6f207469656e6520756e206d656469636f206160008201527f7369676e61646f00000000000000000000000000000000000000000000000000602082015250565b60006148ce602783613887565b91506148d982614872565b604082019050919050565b600060208201905081810360008301526148fd816148c1565b9050919050565b7f4c6120636c696e69636120736f6c6f20617469656e646520656e747265206c6160008201527f7320383a30302079206c61732031383a30302e00000000000000000000000000602082015250565b6000614960603383613887565b915061496b82614904565b604082019050919050565b6000602082019050818103600083015261498f81614953565b9050919050565b7f4e6f2073652070756564656e2070726f6772616d617220636974617320616e7460008201527f6572696f72657320612065737465206d6f6d656e746f2e000000000000000000602082015250565b60006149f2603783613887565b91506149fd82614996565b604082019050919050565b60006020820190508181036000830152614a21816149e5565b9050919050565b600061ffff82169050919050565b6000614a4182614a28565b9150614a4c83614a28565b925082821015614a5f57614a5e61461f565b5b828203905092915050565b7f4e6f2068617920687565636f206c696272652070617261206c6120636974612060008201527f656e20656c20686f726172696f20736f6c6963697461646f207061726120656c60208201527f2070616369656e746520737567657269646f2e00000000000000000000000000604082015250565b6000614aec605383613887565b9150614af782614a6a565b606082019050919050565b60006020820190508181036000830152614b1b81614adf565b9050919050565b7f457374652070616369656e74652079612065737461207265676973747261646f600082015250565b6000614b58602083613887565b9150614b6382614b22565b602082019050919050565b60006020820190508181036000830152614b8781614b4b565b9050919050565b7f4e6f20686179206d656469636f7320646973706f6e69626c6573000000000000600082015250565b6000614bc4601a83613887565b9150614bcf82614b8e565b602082019050919050565b60006020820190508181036000830152614bf381614bb7565b9050919050565b600081905092915050565b60008190508160005260206000209050919050565b60008154614c278161452d565b614c318186614bfa565b94506001821660008114614c4c5760018114614c5d57614c90565b60ff19831686528186019350614c90565b614c6685614c05565b60005b83811015614c8857815481890152600182019150602081019050614c69565b838801955050505b50505092915050565b6000614ca58284614c1a565b91508190509291505056fea264697066735822122026166797c10394d4603c384480619f5d50d75a1b5918fd5677ad67defd149a6f64736f6c634300080d0033",
  "immutableReferences": {},
  "source": "// SPDX-License-Identifier: MIT\r\npragma solidity >=0.4.22 <0.9.0;\r\n\r\ncontract HistoriaClinica {\r\n    mapping(string => Paciente) public pacientes;\r\n    Medico[] public medicos;\r\n    Enfermero[] public enfermeros;\r\n     Cita[] public citas;\r\n    Consulta[] public consultas;\r\n\r\n    address public owner;\r\n\r\n    constructor() {\r\n        owner = msg.sender; // el primer usuario en crear el contrato se convierte en el owner o admin\r\n    }\r\n\r\n    enum tipo_consulta {\r\n        urgencias,\r\n        especialidad\r\n    }\r\n    enum tipo_organizacion {\r\n        publica,\r\n        privada\r\n    }\r\n    enum estado_consulta {\r\n        programada,cancelada,cerrada\r\n    }\r\n\r\n    struct Persona {\r\n        address direccionPublica;\r\n        string DNI;\r\n    }\r\n\r\n    struct Paciente {\r\n        Persona datos;\r\n        string centro_sanitario;\r\n        uint medico_asignado;\r\n        string datos_paciente;\r\n    }\r\n\r\n    struct Medico {\r\n        Persona datos; //Herencia\r\n        string especialidad;\r\n        string centro_sanitario;\r\n        uint numero_pacientes;\r\n    }\r\n\r\n    struct Enfermero {\r\n        Persona datos; //Herencia\r\n        string especialidad;\r\n        string centro_sanitario;\r\n    }\r\n    \r\n    struct Consulta {\r\n        Paciente paciente;\r\n        Medico medico;\r\n        uint8 hora;\r\n        uint256 fecha;\r\n        string datos_consulta;\r\n        estado_consulta estado;\r\n        tipo_consulta tipo;\r\n    }\r\n\r\n    struct Cita {\r\n        Paciente paciente;\r\n        Medico medico;\r\n        uint fecha;\r\n        uint8 hora;\r\n        string datos_cita;\r\n        tipo_consulta tipoConsulta;\r\n    }\r\n\r\nfunction registrarPaciente(string memory _DNI, string memory _centroSanitario, string memory _datosPaciente) public {\r\n    require(pacientes[_DNI].datos.direccionPublica == address(0), \"Este paciente ya esta registrado\");\r\n    Persona memory datosPersonales = Persona({\r\n    direccionPublica: msg.sender,\r\n    DNI: _DNI\r\n});\r\n\r\npacientes[_DNI] = Paciente({\r\n    centro_sanitario: _centroSanitario,\r\n    datos: datosPersonales,\r\n    medico_asignado: 1000000000,//type(uint256).max, //an no tiene mdico asignado\r\n    datos_paciente: _datosPaciente\r\n});\r\nasignarMedico(_DNI);\r\n\r\n}\r\n\r\n    function registrarMedico(address _direccionMedico, string memory _DNI, string memory _especialidad, string memory _centro_sanitario) public {\r\n    require(msg.sender == owner, \"Solo el administrador tiene permisos para ejecutar esta funcion\");\r\n        Persona memory datosPersonales = Persona(_direccionMedico,_DNI);\r\n        medicos.push(Medico({\r\n        centro_sanitario: _centro_sanitario,\r\n        datos:datosPersonales,\r\n        especialidad: _especialidad,\r\n        numero_pacientes:0\r\n    }));\r\n}\r\n\r\n function registrarEnfermero(address _direccionEnfermero ,string memory _DNI, string memory _especialidad, string memory _centro_sanitario) public {\r\n        require(msg.sender == owner, \"Solo el administrador tiene permisos para ejecutar esta funcion\");\r\n        Persona memory datosPersonales = Persona (_direccionEnfermero,_DNI);\r\n        enfermeros.push(Enfermero({\r\n        especialidad: _especialidad,\r\n        centro_sanitario: _centro_sanitario,\r\n        datos : datosPersonales\r\n    }));\r\n\r\n    }\r\n\r\n    function asignarMedico(string memory _DNI) public returns (uint) {\r\n        // Comprobamos si hay mdicos disponibles\r\n         require(medicos.length > 0, \"No hay medicos disponibles\");\r\n        uint i = 0;\r\n        Paciente memory p = pacientes[_DNI]; //Buscamos el indice del paciente por DNI\r\n        string memory nombreCentroSanitario = p.centro_sanitario; // Obtenemos centro sanitario del paciente\r\n        uint indiceMedicoConMenosPacientes; //Posicion del array del medico con menos pacientes\r\n        uint256 minimoPacientes = type(uint256).max;\r\n        while (i < medicos.length) {\r\n            //Comprobamos especialidad, centro sanitario, y obtenemos el mdico con menos pacientes asignados\r\n            if (\r\n                keccak256(bytes(medicos[i].especialidad)) ==\r\n                keccak256(bytes(\"General\")) &&\r\n                keccak256(bytes(medicos[i].centro_sanitario)) ==\r\n                keccak256(bytes(nombreCentroSanitario)) &&\r\n                medicos[i].numero_pacientes < minimoPacientes\r\n            ) {\r\n                minimoPacientes = medicos[i].numero_pacientes;\r\n                indiceMedicoConMenosPacientes = i; //Mdico vlido encontrado\r\n            }\r\n            i++;\r\n        }\r\n        medicos[indiceMedicoConMenosPacientes].numero_pacientes++; //Aumentamos pacientes de ese mdico\r\n        pacientes[_DNI].medico_asignado=indiceMedicoConMenosPacientes; //Asignamos mdico al paciente\r\n        return indiceMedicoConMenosPacientes;\r\n    }\r\n\r\n    \r\n //Paciente pide una cita\r\nfunction solicitarCita(string memory _DNI, uint256 _fecha, uint8 _hora, string memory _datos_consulta, string memory _datos_cita, tipo_consulta _tipoConsulta) public {\r\n    require(pacientes[_DNI].medico_asignado < type(uint256).max, \"El paciente no tiene un medico asignado\");\r\n    require(_hora >= 8 && _hora <= 18, \"La clinica solo atiende entre las 8:00 y las 18:00.\");\r\n    require(_fecha >= block.timestamp, \"No se pueden programar citas anteriores a este momento.\");\r\n\r\n    bool huecoLibre = true;\r\n    Paciente memory paciente = pacientes[_DNI];\r\n    Medico memory medico = medicos[paciente.medico_asignado]; //Medico que el paciente tiene asignado\r\n    for (uint i = 0; i < citas.length && citas[i].fecha>block.timestamp; i++) { \r\n        //Comprobamos que sea el medico que tiene asignado el paciente \r\n        if(citas[i].medico.datos.direccionPublica == medico.datos.direccionPublica){ \r\n        //Comprobamos que haya un rango de 15 minutos disponibles despues de la cita\r\n        if (citas[i].fecha == _fecha && citas[i].hora == _hora || citas[i].fecha == _fecha && citas[i].hora > _hora - 15 minutes) {\r\n            huecoLibre = false;\r\n            }\r\n            }\r\n    }\r\n        if (huecoLibre) {\r\n    //Asignamos la nueva cita\r\n        citas.push(\r\n        Cita({\r\n            medico: medico,\r\n            paciente: paciente,\r\n            fecha: _fecha,\r\n            hora: _hora,\r\n            datos_cita:_datos_cita,\r\n            tipoConsulta: _tipoConsulta\r\n        }));\r\n\r\n    //Creamos la consulta\r\n        consultas.push(\r\n        Consulta({\r\n        paciente:paciente,\r\n        medico:medico,\r\n        fecha: _fecha,\r\n        hora:_hora,\r\n        datos_consulta:_datos_consulta,\r\n        estado: estado_consulta.programada,\r\n        tipo: _tipoConsulta\r\n    }));\r\n\r\n    } else {\r\n        revert(\"No hay hueco libre para la cita en el horario solicitado para el paciente sugerido.\");\r\n    }\r\n\r\n}\r\n \r\nfunction atenderConsulta (string memory _DNI, uint _fecha, uint _hora, string memory _datos_consulta) public {\r\n    Paciente memory paciente = pacientes[_DNI];\r\n    require(msg.sender ==  medicos[pacientes[_DNI].medico_asignado].datos.direccionPublica, \"Solo el medico puede atender la consulta\"); \r\n    bool consultaEncontrada = false;\r\n    for(uint i = 0; i < consultas.length; i++) {\r\n        if(consultas[i].fecha == _fecha && consultas[i].hora == _hora && keccak256(bytes(paciente.datos.DNI)) == keccak256(bytes(_DNI))) {\r\n            consultaEncontrada = true;\r\n            consultas[i].datos_consulta = _datos_consulta;\r\n            consultas[i].estado = estado_consulta.cerrada; //consulta cerrada\r\n        }\r\n    }\r\n    require(consultaEncontrada == true, \"No se encontro una consulta programada con los datos especificados\");\r\n}\r\n\r\nfunction modificarCita(uint8 indice, Medico memory _medico, string memory _datos_cita, Paciente memory _paciente, uint _nuevaFecha, uint8 _nuevaHora, tipo_consulta _nuevoTipoConsulta) public {\r\n    require((indice < citas.length) && (msg.sender == _medico.datos.direccionPublica || msg.sender == _paciente.datos.direccionPublica), \"la cita no existe o no hay permisos suficientes\");\r\n    citas[indice].fecha=_nuevaFecha;\r\n    citas[indice].hora=_nuevaHora;\r\n    citas[indice].datos_cita=_datos_cita;\r\n    citas[indice].tipoConsulta = _nuevoTipoConsulta;\r\n}\r\n\r\n//Medico crea consulta\r\nfunction crearConsulta(Consulta memory nuevaConsulta) public {\r\n    consultas.push(nuevaConsulta);\r\n}\r\n}\r\n\r\n",
  "sourcePath": "C:\\Users\\pablo\\OneDrive - Universidad de Castilla-La Mancha\\4\\TFG\\ProyectoHistoriaClinica\\HistoriaClinica\\contracts\\HistoriaClinica.sol",
  "compiler": {
    "name": "solc",
    "version": "0.8.13+commit.abaa5c0e.Emscripten.clang"
  },
  "schemaVersion": "3.4.15",
  "updatedAt": "2023-09-25T00:19:36.230Z",
  "networkType": "ethereum",
  "devdoc": {
    "kind": "dev",
    "methods": {},
    "version": 1
  },
  "userdoc": {
    "kind": "user",
    "methods": {},
    "version": 1
  }
}