{
  "contractName": "HistoriaClinica",
  "abi": [
    {
      "inputs": [],
      "stateMutability": "nonpayable",
      "type": "constructor"
    },
    {
      "inputs": [
        {
          "internalType": "uint256",
          "name": "",
          "type": "uint256"
        }
      ],
      "name": "enfermeros",
      "outputs": [
        {
          "components": [
            {
              "internalType": "address",
              "name": "direccionPublica",
              "type": "address"
            },
            {
              "internalType": "string",
              "name": "DNI",
              "type": "string"
            }
          ],
          "internalType": "struct HistoriaClinica.Persona",
          "name": "datos",
          "type": "tuple"
        },
        {
          "internalType": "string",
          "name": "especialidad",
          "type": "string"
        },
        {
          "internalType": "string",
          "name": "centro_sanitario",
          "type": "string"
        }
      ],
      "stateMutability": "view",
      "type": "function",
      "constant": true
    },
    {
      "inputs": [
        {
          "internalType": "uint256",
          "name": "",
          "type": "uint256"
        }
      ],
      "name": "medicos",
      "outputs": [
        {
          "components": [
            {
              "internalType": "address",
              "name": "direccionPublica",
              "type": "address"
            },
            {
              "internalType": "string",
              "name": "DNI",
              "type": "string"
            }
          ],
          "internalType": "struct HistoriaClinica.Persona",
          "name": "datos",
          "type": "tuple"
        },
        {
          "internalType": "string",
          "name": "especialidad",
          "type": "string"
        },
        {
          "internalType": "string",
          "name": "centro_sanitario",
          "type": "string"
        },
        {
          "internalType": "uint256",
          "name": "numero_pacientes",
          "type": "uint256"
        }
      ],
      "stateMutability": "view",
      "type": "function",
      "constant": true
    },
    {
      "inputs": [],
      "name": "owner",
      "outputs": [
        {
          "internalType": "address",
          "name": "",
          "type": "address"
        }
      ],
      "stateMutability": "view",
      "type": "function",
      "constant": true
    },
    {
      "inputs": [
        {
          "internalType": "string",
          "name": "",
          "type": "string"
        }
      ],
      "name": "pacientes",
      "outputs": [
        {
          "components": [
            {
              "internalType": "address",
              "name": "direccionPublica",
              "type": "address"
            },
            {
              "internalType": "string",
              "name": "DNI",
              "type": "string"
            }
          ],
          "internalType": "struct HistoriaClinica.Persona",
          "name": "datos",
          "type": "tuple"
        },
        {
          "internalType": "string",
          "name": "centro_sanitario",
          "type": "string"
        },
        {
          "internalType": "uint256",
          "name": "medico_asignado",
          "type": "uint256"
        },
        {
          "internalType": "string",
          "name": "datos_paciente",
          "type": "string"
        }
      ],
      "stateMutability": "view",
      "type": "function",
      "constant": true
    },
    {
      "inputs": [
        {
          "internalType": "string",
          "name": "_DNI",
          "type": "string"
        },
        {
          "internalType": "string",
          "name": "_centroSanitario",
          "type": "string"
        },
        {
          "internalType": "string",
          "name": "_datosPaciente",
          "type": "string"
        }
      ],
      "name": "registrarPaciente",
      "outputs": [],
      "stateMutability": "nonpayable",
      "type": "function"
    },
    {
      "inputs": [
        {
          "internalType": "address",
          "name": "_direccionMedico",
          "type": "address"
        },
        {
          "internalType": "string",
          "name": "_DNI",
          "type": "string"
        },
        {
          "internalType": "string",
          "name": "_especialidad",
          "type": "string"
        },
        {
          "internalType": "string",
          "name": "_centro_sanitario",
          "type": "string"
        }
      ],
      "name": "registrarMedico",
      "outputs": [],
      "stateMutability": "nonpayable",
      "type": "function"
    },
    {
      "inputs": [
        {
          "internalType": "address",
          "name": "_direccionEnfermero",
          "type": "address"
        },
        {
          "internalType": "string",
          "name": "_DNI",
          "type": "string"
        },
        {
          "internalType": "string",
          "name": "_especialidad",
          "type": "string"
        },
        {
          "internalType": "string",
          "name": "_centro_sanitario",
          "type": "string"
        }
      ],
      "name": "registrarEnfermero",
      "outputs": [],
      "stateMutability": "nonpayable",
      "type": "function"
    },
    {
      "inputs": [
        {
          "internalType": "string",
          "name": "_DNI",
          "type": "string"
        }
      ],
      "name": "asignarMedico",
      "outputs": [
        {
          "internalType": "uint256",
          "name": "",
          "type": "uint256"
        }
      ],
      "stateMutability": "nonpayable",
      "type": "function"
    },
    {
      "inputs": [
        {
          "internalType": "string",
          "name": "_DNI",
          "type": "string"
        },
        {
          "internalType": "uint256",
          "name": "_fecha",
          "type": "uint256"
        },
        {
          "internalType": "uint8",
          "name": "_hora",
          "type": "uint8"
        },
        {
          "internalType": "string",
          "name": "_datos_consulta",
          "type": "string"
        },
        {
          "internalType": "string",
          "name": "_datos_cita",
          "type": "string"
        },
        {
          "internalType": "enum HistoriaClinica.tipo_consulta",
          "name": "_tipoConsulta",
          "type": "uint8"
        }
      ],
      "name": "solicitarCita",
      "outputs": [],
      "stateMutability": "nonpayable",
      "type": "function"
    },
    {
      "inputs": [
        {
          "internalType": "string",
          "name": "_DNI",
          "type": "string"
        },
        {
          "internalType": "uint256",
          "name": "_fecha",
          "type": "uint256"
        },
        {
          "internalType": "uint256",
          "name": "_hora",
          "type": "uint256"
        },
        {
          "internalType": "string",
          "name": "_datos_consulta",
          "type": "string"
        }
      ],
      "name": "atenderConsulta",
      "outputs": [],
      "stateMutability": "nonpayable",
      "type": "function"
    },
    {
      "inputs": [
        {
          "internalType": "uint8",
          "name": "indice",
          "type": "uint8"
        },
        {
          "components": [
            {
              "components": [
                {
                  "internalType": "address",
                  "name": "direccionPublica",
                  "type": "address"
                },
                {
                  "internalType": "string",
                  "name": "DNI",
                  "type": "string"
                }
              ],
              "internalType": "struct HistoriaClinica.Persona",
              "name": "datos",
              "type": "tuple"
            },
            {
              "internalType": "string",
              "name": "especialidad",
              "type": "string"
            },
            {
              "internalType": "string",
              "name": "centro_sanitario",
              "type": "string"
            },
            {
              "internalType": "uint256",
              "name": "numero_pacientes",
              "type": "uint256"
            }
          ],
          "internalType": "struct HistoriaClinica.Medico",
          "name": "_medico",
          "type": "tuple"
        },
        {
          "internalType": "string",
          "name": "_datos_cita",
          "type": "string"
        },
        {
          "components": [
            {
              "components": [
                {
                  "internalType": "address",
                  "name": "direccionPublica",
                  "type": "address"
                },
                {
                  "internalType": "string",
                  "name": "DNI",
                  "type": "string"
                }
              ],
              "internalType": "struct HistoriaClinica.Persona",
              "name": "datos",
              "type": "tuple"
            },
            {
              "internalType": "string",
              "name": "centro_sanitario",
              "type": "string"
            },
            {
              "internalType": "uint256",
              "name": "medico_asignado",
              "type": "uint256"
            },
            {
              "internalType": "string",
              "name": "datos_paciente",
              "type": "string"
            }
          ],
          "internalType": "struct HistoriaClinica.Paciente",
          "name": "_paciente",
          "type": "tuple"
        },
        {
          "internalType": "uint256",
          "name": "_nuevaFecha",
          "type": "uint256"
        },
        {
          "internalType": "uint8",
          "name": "_nuevaHora",
          "type": "uint8"
        },
        {
          "internalType": "enum HistoriaClinica.tipo_consulta",
          "name": "_nuevoTipoConsulta",
          "type": "uint8"
        }
      ],
      "name": "modificarCita",
      "outputs": [],
      "stateMutability": "nonpayable",
      "type": "function"
    },
    {
      "inputs": [
        {
          "components": [
            {
              "components": [
                {
                  "components": [
                    {
                      "internalType": "address",
                      "name": "direccionPublica",
                      "type": "address"
                    },
                    {
                      "internalType": "string",
                      "name": "DNI",
                      "type": "string"
                    }
                  ],
                  "internalType": "struct HistoriaClinica.Persona",
                  "name": "datos",
                  "type": "tuple"
                },
                {
                  "internalType": "string",
                  "name": "centro_sanitario",
                  "type": "string"
                },
                {
                  "internalType": "uint256",
                  "name": "medico_asignado",
                  "type": "uint256"
                },
                {
                  "internalType": "string",
                  "name": "datos_paciente",
                  "type": "string"
                }
              ],
              "internalType": "struct HistoriaClinica.Paciente",
              "name": "paciente",
              "type": "tuple"
            },
            {
              "components": [
                {
                  "components": [
                    {
                      "internalType": "address",
                      "name": "direccionPublica",
                      "type": "address"
                    },
                    {
                      "internalType": "string",
                      "name": "DNI",
                      "type": "string"
                    }
                  ],
                  "internalType": "struct HistoriaClinica.Persona",
                  "name": "datos",
                  "type": "tuple"
                },
                {
                  "internalType": "string",
                  "name": "especialidad",
                  "type": "string"
                },
                {
                  "internalType": "string",
                  "name": "centro_sanitario",
                  "type": "string"
                },
                {
                  "internalType": "uint256",
                  "name": "numero_pacientes",
                  "type": "uint256"
                }
              ],
              "internalType": "struct HistoriaClinica.Medico",
              "name": "medico",
              "type": "tuple"
            },
            {
              "internalType": "uint8",
              "name": "hora",
              "type": "uint8"
            },
            {
              "internalType": "uint256",
              "name": "fecha",
              "type": "uint256"
            },
            {
              "internalType": "string",
              "name": "datos_consulta",
              "type": "string"
            },
            {
              "internalType": "enum HistoriaClinica.estado_consulta",
              "name": "estado",
              "type": "uint8"
            },
            {
              "internalType": "enum HistoriaClinica.tipo_consulta",
              "name": "tipo",
              "type": "uint8"
            }
          ],
          "internalType": "struct HistoriaClinica.Consulta",
          "name": "nuevaConsulta",
          "type": "tuple"
        }
      ],
      "name": "crearConsulta",
      "outputs": [],
      "stateMutability": "nonpayable",
      "type": "function"
    }
  ],
  "bytecode": "0x608060405234801561001057600080fd5b5033600560006101000a81548173ffffffffffffffffffffffffffffffffffffffff021916908373ffffffffffffffffffffffffffffffffffffffff160217905550613edb806100616000396000f3fe608060405234801561001057600080fd5b50600436106100b45760003560e01c80638da5cb5b116100715780638da5cb5b1461018f578063a6e85a1f146101ad578063ca1cde8f146101c9578063db8a9820146101e5578063de67678114610217578063f125910814610233576100b4565b80631b01921a146100b95780632c1a929d146100d55780633550242f14610108578063358e64d0146101245780634fef72281461014057806352509b8d1461015c575b600080fd5b6100d360048036038101906100ce9190612b71565b610263565b005b6100ef60048036038101906100ea9190612c10565b61071f565b6040516100ff9493929190612d9c565b60405180910390f35b610122600480360381019061011d9190612e22565b610961565b005b61013e60048036038101906101399190613276565b610b18565b005b61015a600480360381019061015591906132bf565b610d6d565b005b610176600480360381019061017191906133b5565b610f38565b60405161018694939291906133fe565b60405180910390f35b610197611180565b6040516101a49190613467565b60405180910390f35b6101c760048036038101906101c29190613482565b6111a6565b005b6101e360048036038101906101de9190613563565b611eb1565b005b6101ff60048036038101906101fa9190612c10565b6120b8565b60405161020e9392919061360a565b60405180910390f35b610231600480360381019061022c9190612e22565b6122f4565b005b61024d600480360381019061024891906133b5565b6124bc565b60405161025a9190613656565b60405180910390f35b6000808560405161027491906136ad565b9081526020016040518091039020604051806080016040529081600082016040518060400160405290816000820160009054906101000a900473ffffffffffffffffffffffffffffffffffffffff1673ffffffffffffffffffffffffffffffffffffffff1673ffffffffffffffffffffffffffffffffffffffff168152602001600182018054610303906136f3565b80601f016020809104026020016040519081016040528092919081815260200182805461032f906136f3565b801561037c5780601f106103515761010080835404028352916020019161037c565b820191906000526020600020905b81548152906001019060200180831161035f57829003601f168201915b5050505050815250508152602001600282018054610399906136f3565b80601f01602080910402602001604051908101604052809291908181526020018280546103c5906136f3565b80156104125780601f106103e757610100808354040283529160200191610412565b820191906000526020600020905b8154815290600101906020018083116103f557829003601f168201915b5050505050815260200160038201548152602001600482018054610435906136f3565b80601f0160208091040260200160405190810160405280929190818152602001828054610461906136f3565b80156104ae5780601f10610483576101008083540402835291602001916104ae565b820191906000526020600020905b81548152906001019060200180831161049157829003601f168201915b505050505081525050905060016000866040516104cb91906136ad565b908152602001604051809103902060030154815481106104ee576104ed613724565b5b906000526020600020906005020160000160000160009054906101000a900473ffffffffffffffffffffffffffffffffffffffff1673ffffffffffffffffffffffffffffffffffffffff163373ffffffffffffffffffffffffffffffffffffffff1614610590576040517f08c379a0000000000000000000000000000000000000000000000000000000008152600401610587906137c5565b60405180910390fd5b6000805b6004805490508110156106cf5785600482815481106105b6576105b5613724565b5b90600052602060002090600e0201600b0154148015610609575084600482815481106105e5576105e4613724565b5b90600052602060002090600e0201600a0160009054906101000a900460ff1660ff16145b801561062a5750868051906020012083600001516020015180519060200120145b156106bc5760019150836004828154811061064857610647613724565b5b90600052602060002090600e0201600c01908051906020019061066c92919061293e565b5060026004828154811061068357610682613724565b5b90600052602060002090600e0201600d0160006101000a81548160ff021916908360028111156106b6576106b56137e5565b5b02179055505b80806106c790613843565b915050610594565b506001151581151514610717576040517f08c379a000000000000000000000000000000000000000000000000000000000815260040161070e90613923565b60405180910390fd5b505050505050565b6001818154811061072f57600080fd5b9060005260206000209060050201600091509050806000016040518060400160405290816000820160009054906101000a900473ffffffffffffffffffffffffffffffffffffffff1673ffffffffffffffffffffffffffffffffffffffff1673ffffffffffffffffffffffffffffffffffffffff1681526020016001820180546107b8906136f3565b80601f01602080910402602001604051908101604052809291908181526020018280546107e4906136f3565b80156108315780601f1061080657610100808354040283529160200191610831565b820191906000526020600020905b81548152906001019060200180831161081457829003601f168201915b5050505050815250509080600201805461084a906136f3565b80601f0160208091040260200160405190810160405280929190818152602001828054610876906136f3565b80156108c35780601f10610898576101008083540402835291602001916108c3565b820191906000526020600020905b8154815290600101906020018083116108a657829003601f168201915b5050505050908060030180546108d8906136f3565b80601f0160208091040260200160405190810160405280929190818152602001828054610904906136f3565b80156109515780601f1061092657610100808354040283529160200191610951565b820191906000526020600020905b81548152906001019060200180831161093457829003601f168201915b5050505050908060040154905084565b600560009054906101000a900473ffffffffffffffffffffffffffffffffffffffff1673ffffffffffffffffffffffffffffffffffffffff163373ffffffffffffffffffffffffffffffffffffffff16146109f1576040517f08c379a00000000000000000000000000000000000000000000000000000000081526004016109e8906139b5565b60405180910390fd5b600060405180604001604052808673ffffffffffffffffffffffffffffffffffffffff1681526020018581525090506002604051806060016040528083815260200185815260200184815250908060018154018082558091505060019003906000526020600020906004020160009091909190915060008201518160000160008201518160000160006101000a81548173ffffffffffffffffffffffffffffffffffffffff021916908373ffffffffffffffffffffffffffffffffffffffff1602179055506020820151816001019080519060200190610ad292919061293e565b5050506020820151816002019080519060200190610af192919061293e565b506040820151816003019080519060200190610b0e92919061293e565b5050505050505050565b60048190806001815401808255809150506001900390600052602060002090600e020160009091909190915060008201518160000160008201518160000160008201518160000160006101000a81548173ffffffffffffffffffffffffffffffffffffffff021916908373ffffffffffffffffffffffffffffffffffffffff1602179055506020820151816001019080519060200190610bb992919061293e565b5050506020820151816002019080519060200190610bd892919061293e565b50604082015181600301556060820151816004019080519060200190610bff92919061293e565b50505060208201518160050160008201518160000160008201518160000160006101000a81548173ffffffffffffffffffffffffffffffffffffffff021916908373ffffffffffffffffffffffffffffffffffffffff1602179055506020820151816001019080519060200190610c7792919061293e565b5050506020820151816002019080519060200190610c9692919061293e565b506040820151816003019080519060200190610cb392919061293e565b50606082015181600401555050604082015181600a0160006101000a81548160ff021916908360ff160217905550606082015181600b0155608082015181600c019080519060200190610d0792919061293e565b5060a082015181600d0160006101000a81548160ff02191690836002811115610d3357610d326137e5565b5b021790555060c082015181600d0160016101000a81548160ff02191690836001811115610d6357610d626137e5565b5b0217905550505050565b6003805490508760ff16108015610df5575085600001516000015173ffffffffffffffffffffffffffffffffffffffff163373ffffffffffffffffffffffffffffffffffffffff161480610df4575083600001516000015173ffffffffffffffffffffffffffffffffffffffff163373ffffffffffffffffffffffffffffffffffffffff16145b5b610e34576040517f08c379a0000000000000000000000000000000000000000000000000000000008152600401610e2b90613a47565b60405180910390fd5b8260038860ff1681548110610e4c57610e4b613724565b5b90600052602060002090600e0201600a01819055508160038860ff1681548110610e7957610e78613724565b5b90600052602060002090600e0201600b0160006101000a81548160ff021916908360ff1602179055508460038860ff1681548110610eba57610eb9613724565b5b90600052602060002090600e0201600c019080519060200190610ede92919061293e565b508060038860ff1681548110610ef757610ef6613724565b5b90600052602060002090600e0201600d0160006101000a81548160ff02191690836001811115610f2a57610f296137e5565b5b021790555050505050505050565b600081805160208101820180518482526020830160208501208183528095505050505050600091509050806000016040518060400160405290816000820160009054906101000a900473ffffffffffffffffffffffffffffffffffffffff1673ffffffffffffffffffffffffffffffffffffffff1673ffffffffffffffffffffffffffffffffffffffff168152602001600182018054610fd7906136f3565b80601f0160208091040260200160405190810160405280929190818152602001828054611003906136f3565b80156110505780601f1061102557610100808354040283529160200191611050565b820191906000526020600020905b81548152906001019060200180831161103357829003601f168201915b50505050508152505090806002018054611069906136f3565b80601f0160208091040260200160405190810160405280929190818152602001828054611095906136f3565b80156110e25780601f106110b7576101008083540402835291602001916110e2565b820191906000526020600020905b8154815290600101906020018083116110c557829003601f168201915b5050505050908060030154908060040180546110fd906136f3565b80601f0160208091040260200160405190810160405280929190818152602001828054611129906136f3565b80156111765780601f1061114b57610100808354040283529160200191611176565b820191906000526020600020905b81548152906001019060200180831161115957829003601f168201915b5050505050905084565b600560009054906101000a900473ffffffffffffffffffffffffffffffffffffffff1681565b7fffffffffffffffffffffffffffffffffffffffffffffffffffffffffffffffff6000876040516111d791906136ad565b90815260200160405180910390206003015410611229576040517f08c379a000000000000000000000000000000000000000000000000000000000815260040161122090613ad9565b60405180910390fd5b60088460ff1610158015611241575060128460ff1611155b611280576040517f08c379a000000000000000000000000000000000000000000000000000000000815260040161127790613b6b565b60405180910390fd5b428510156112c3576040517f08c379a00000000000000000000000000000000000000000000000000000000081526004016112ba90613bfd565b60405180910390fd5b600060019050600080886040516112da91906136ad565b9081526020016040518091039020604051806080016040529081600082016040518060400160405290816000820160009054906101000a900473ffffffffffffffffffffffffffffffffffffffff1673ffffffffffffffffffffffffffffffffffffffff1673ffffffffffffffffffffffffffffffffffffffff168152602001600182018054611369906136f3565b80601f0160208091040260200160405190810160405280929190818152602001828054611395906136f3565b80156113e25780601f106113b7576101008083540402835291602001916113e2565b820191906000526020600020905b8154815290600101906020018083116113c557829003601f168201915b50505050508152505081526020016002820180546113ff906136f3565b80601f016020809104026020016040519081016040528092919081815260200182805461142b906136f3565b80156114785780601f1061144d57610100808354040283529160200191611478565b820191906000526020600020905b81548152906001019060200180831161145b57829003601f168201915b505050505081526020016003820154815260200160048201805461149b906136f3565b80601f01602080910402602001604051908101604052809291908181526020018280546114c7906136f3565b80156115145780601f106114e957610100808354040283529160200191611514565b820191906000526020600020905b8154815290600101906020018083116114f757829003601f168201915b50505050508152505090506000600182604001518154811061153957611538613724565b5b9060005260206000209060050201604051806080016040529081600082016040518060400160405290816000820160009054906101000a900473ffffffffffffffffffffffffffffffffffffffff1673ffffffffffffffffffffffffffffffffffffffff1673ffffffffffffffffffffffffffffffffffffffff1681526020016001820180546115c8906136f3565b80601f01602080910402602001604051908101604052809291908181526020018280546115f4906136f3565b80156116415780601f1061161657610100808354040283529160200191611641565b820191906000526020600020905b81548152906001019060200180831161162457829003601f168201915b505050505081525050815260200160028201805461165e906136f3565b80601f016020809104026020016040519081016040528092919081815260200182805461168a906136f3565b80156116d75780601f106116ac576101008083540402835291602001916116d7565b820191906000526020600020905b8154815290600101906020018083116116ba57829003601f168201915b505050505081526020016003820180546116f0906136f3565b80601f016020809104026020016040519081016040528092919081815260200182805461171c906136f3565b80156117695780601f1061173e57610100808354040283529160200191611769565b820191906000526020600020905b81548152906001019060200180831161174c57829003601f168201915b50505050508152602001600482015481525050905060005b600380549050811080156117b9575042600382815481106117a5576117a4613724565b5b90600052602060002090600e0201600a0154115b156119505781600001516000015173ffffffffffffffffffffffffffffffffffffffff16600382815481106117f1576117f0613724565b5b90600052602060002090600e020160050160000160000160009054906101000a900473ffffffffffffffffffffffffffffffffffffffff1673ffffffffffffffffffffffffffffffffffffffff160361193d57886003828154811061185957611858613724565b5b90600052602060002090600e0201600a01541480156118af57508760ff166003828154811061188b5761188a613724565b5b90600052602060002090600e0201600b0160009054906101000a900460ff1660ff16145b80611932575088600382815481106118ca576118c9613724565b5b90600052602060002090600e0201600a015414801561193157506103848860ff166118f59190613c2b565b61ffff166003828154811061190d5761190c613724565b5b90600052602060002090600e0201600b0160009054906101000a900460ff1660ff16115b5b1561193c57600093505b5b808061194890613843565b915050611781565b508215611e6b5760036040518060c001604052808481526020018381526020018a81526020018960ff168152602001878152602001866001811115611998576119976137e5565b5b81525090806001815401808255809150506001900390600052602060002090600e020160009091909190915060008201518160000160008201518160000160008201518160000160006101000a81548173ffffffffffffffffffffffffffffffffffffffff021916908373ffffffffffffffffffffffffffffffffffffffff1602179055506020820151816001019080519060200190611a3992919061293e565b5050506020820151816002019080519060200190611a5892919061293e565b50604082015181600301556060820151816004019080519060200190611a7f92919061293e565b50505060208201518160050160008201518160000160008201518160000160006101000a81548173ffffffffffffffffffffffffffffffffffffffff021916908373ffffffffffffffffffffffffffffffffffffffff1602179055506020820151816001019080519060200190611af792919061293e565b5050506020820151816002019080519060200190611b1692919061293e565b506040820151816003019080519060200190611b3392919061293e565b50606082015181600401555050604082015181600a0155606082015181600b0160006101000a81548160ff021916908360ff160217905550608082015181600c019080519060200190611b8792919061293e565b5060a082015181600d0160006101000a81548160ff02191690836001811115611bb357611bb26137e5565b5b0217905550505060046040518060e001604052808481526020018381526020018960ff1681526020018a815260200188815260200160006002811115611bfc57611bfb6137e5565b5b8152602001866001811115611c1457611c136137e5565b5b81525090806001815401808255809150506001900390600052602060002090600e020160009091909190915060008201518160000160008201518160000160008201518160000160006101000a81548173ffffffffffffffffffffffffffffffffffffffff021916908373ffffffffffffffffffffffffffffffffffffffff1602179055506020820151816001019080519060200190611cb592919061293e565b5050506020820151816002019080519060200190611cd492919061293e565b50604082015181600301556060820151816004019080519060200190611cfb92919061293e565b50505060208201518160050160008201518160000160008201518160000160006101000a81548173ffffffffffffffffffffffffffffffffffffffff021916908373ffffffffffffffffffffffffffffffffffffffff1602179055506020820151816001019080519060200190611d7392919061293e565b5050506020820151816002019080519060200190611d9292919061293e565b506040820151816003019080519060200190611daf92919061293e565b50606082015181600401555050604082015181600a0160006101000a81548160ff021916908360ff160217905550606082015181600b0155608082015181600c019080519060200190611e0392919061293e565b5060a082015181600d0160006101000a81548160ff02191690836002811115611e2f57611e2e6137e5565b5b021790555060c082015181600d0160016101000a81548160ff02191690836001811115611e5f57611e5e6137e5565b5b02179055505050611ea6565b6040517f08c379a0000000000000000000000000000000000000000000000000000000008152600401611e9d90613cf7565b60405180910390fd5b505050505050505050565b600073ffffffffffffffffffffffffffffffffffffffff16600084604051611ed991906136ad565b908152602001604051809103902060000160000160009054906101000a900473ffffffffffffffffffffffffffffffffffffffff1673ffffffffffffffffffffffffffffffffffffffff1614611f64576040517f08c379a0000000000000000000000000000000000000000000000000000000008152600401611f5b90613d63565b60405180910390fd5b600060405180604001604052803373ffffffffffffffffffffffffffffffffffffffff16815260200185815250905060405180608001604052808281526020018481526020017fffffffffffffffffffffffffffffffffffffffffffffffffffffffffffffffff815260200183815250600085604051611fe491906136ad565b908152602001604051809103902060008201518160000160008201518160000160006101000a81548173ffffffffffffffffffffffffffffffffffffffff021916908373ffffffffffffffffffffffffffffffffffffffff160217905550602082015181600101908051906020019061205e92919061293e565b505050602082015181600201908051906020019061207d92919061293e565b506040820151816003015560608201518160040190805190602001906120a492919061293e565b509050506120b1846124bc565b5050505050565b600281815481106120c857600080fd5b9060005260206000209060040201600091509050806000016040518060400160405290816000820160009054906101000a900473ffffffffffffffffffffffffffffffffffffffff1673ffffffffffffffffffffffffffffffffffffffff1673ffffffffffffffffffffffffffffffffffffffff168152602001600182018054612151906136f3565b80601f016020809104026020016040519081016040528092919081815260200182805461217d906136f3565b80156121ca5780601f1061219f576101008083540402835291602001916121ca565b820191906000526020600020905b8154815290600101906020018083116121ad57829003601f168201915b505050505081525050908060020180546121e3906136f3565b80601f016020809104026020016040519081016040528092919081815260200182805461220f906136f3565b801561225c5780601f106122315761010080835404028352916020019161225c565b820191906000526020600020905b81548152906001019060200180831161223f57829003601f168201915b505050505090806003018054612271906136f3565b80601f016020809104026020016040519081016040528092919081815260200182805461229d906136f3565b80156122ea5780601f106122bf576101008083540402835291602001916122ea565b820191906000526020600020905b8154815290600101906020018083116122cd57829003601f168201915b5050505050905083565b600560009054906101000a900473ffffffffffffffffffffffffffffffffffffffff1673ffffffffffffffffffffffffffffffffffffffff163373ffffffffffffffffffffffffffffffffffffffff1614612384576040517f08c379a000000000000000000000000000000000000000000000000000000000815260040161237b906139b5565b60405180910390fd5b600060405180604001604052808673ffffffffffffffffffffffffffffffffffffffff168152602001858152509050600160405180608001604052808381526020018581526020018481526020016000815250908060018154018082558091505060019003906000526020600020906005020160009091909190915060008201518160000160008201518160000160006101000a81548173ffffffffffffffffffffffffffffffffffffffff021916908373ffffffffffffffffffffffffffffffffffffffff160217905550602082015181600101908051906020019061246c92919061293e565b505050602082015181600201908051906020019061248b92919061293e565b5060408201518160030190805190602001906124a892919061293e565b506060820151816004015550505050505050565b60008060018054905011612505576040517f08c379a00000000000000000000000000000000000000000000000000000000081526004016124fc90613dcf565b60405180910390fd5b600080808460405161251791906136ad565b9081526020016040518091039020604051806080016040529081600082016040518060400160405290816000820160009054906101000a900473ffffffffffffffffffffffffffffffffffffffff1673ffffffffffffffffffffffffffffffffffffffff1673ffffffffffffffffffffffffffffffffffffffff1681526020016001820180546125a6906136f3565b80601f01602080910402602001604051908101604052809291908181526020018280546125d2906136f3565b801561261f5780601f106125f45761010080835404028352916020019161261f565b820191906000526020600020905b81548152906001019060200180831161260257829003601f168201915b505050505081525050815260200160028201805461263c906136f3565b80601f0160208091040260200160405190810160405280929190818152602001828054612668906136f3565b80156126b55780601f1061268a576101008083540402835291602001916126b5565b820191906000526020600020905b81548152906001019060200180831161269857829003601f168201915b50505050508152602001600382015481526020016004820180546126d8906136f3565b80601f0160208091040260200160405190810160405280929190818152602001828054612704906136f3565b80156127515780601f1061272657610100808354040283529160200191612751565b820191906000526020600020905b81548152906001019060200180831161273457829003601f168201915b50505050508152505090506000816020015190506000807fffffffffffffffffffffffffffffffffffffffffffffffffffffffffffffffff90505b6001805490508510156128d0576040518060400160405280600781526020017f47656e6572616c0000000000000000000000000000000000000000000000000081525080519060200120600186815481106127ea576127e9613724565b5b90600052602060002090600502016002016040516128089190613e8e565b604051809103902014801561285c575082805190602001206001868154811061283457612833613724565b5b90600052602060002090600502016003016040516128529190613e8e565b6040518091039020145b801561288c5750806001868154811061287857612877613724565b5b906000526020600020906005020160040154105b156128bd57600185815481106128a5576128a4613724565b5b90600052602060002090600502016004015490508491505b84806128c890613843565b95505061278c565b600182815481106128e4576128e3613724565b5b9060005260206000209060050201600401600081548092919061290690613843565b91905055508160008860405161291c91906136ad565b9081526020016040518091039020600301819055508195505050505050919050565b82805461294a906136f3565b90600052602060002090601f01602090048101928261296c57600085556129b3565b82601f1061298557805160ff19168380011785556129b3565b828001600101855582156129b3579182015b828111156129b2578251825591602001919060010190612997565b5b5090506129c091906129c4565b5090565b5b808211156129dd5760008160009055506001016129c5565b5090565b6000604051905090565b600080fd5b600080fd5b600080fd5b600080fd5b6000601f19601f8301169050919050565b7f4e487b7100000000000000000000000000000000000000000000000000000000600052604160045260246000fd5b612a48826129ff565b810181811067ffffffffffffffff82111715612a6757612a66612a10565b5b80604052505050565b6000612a7a6129e1565b9050612a868282612a3f565b919050565b600067ffffffffffffffff821115612aa657612aa5612a10565b5b612aaf826129ff565b9050602081019050919050565b82818337600083830152505050565b6000612ade612ad984612a8b565b612a70565b905082815260208101848484011115612afa57612af96129fa565b5b612b05848285612abc565b509392505050565b600082601f830112612b2257612b216129f5565b5b8135612b32848260208601612acb565b91505092915050565b6000819050919050565b612b4e81612b3b565b8114612b5957600080fd5b50565b600081359050612b6b81612b45565b92915050565b60008060008060808587031215612b8b57612b8a6129eb565b5b600085013567ffffffffffffffff811115612ba957612ba86129f0565b5b612bb587828801612b0d565b9450506020612bc687828801612b5c565b9350506040612bd787828801612b5c565b925050606085013567ffffffffffffffff811115612bf857612bf76129f0565b5b612c0487828801612b0d565b91505092959194509250565b600060208284031215612c2657612c256129eb565b5b6000612c3484828501612b5c565b91505092915050565b600073ffffffffffffffffffffffffffffffffffffffff82169050919050565b6000612c6882612c3d565b9050919050565b612c7881612c5d565b82525050565b600081519050919050565b600082825260208201905092915050565b60005b83811015612cb8578082015181840152602081019050612c9d565b83811115612cc7576000848401525b50505050565b6000612cd882612c7e565b612ce28185612c89565b9350612cf2818560208601612c9a565b612cfb816129ff565b840191505092915050565b6000604083016000830151612d1e6000860182612c6f565b5060208301518482036020860152612d368282612ccd565b9150508091505092915050565b600082825260208201905092915050565b6000612d5f82612c7e565b612d698185612d43565b9350612d79818560208601612c9a565b612d82816129ff565b840191505092915050565b612d9681612b3b565b82525050565b60006080820190508181036000830152612db68187612d06565b90508181036020830152612dca8186612d54565b90508181036040830152612dde8185612d54565b9050612ded6060830184612d8d565b95945050505050565b612dff81612c5d565b8114612e0a57600080fd5b50565b600081359050612e1c81612df6565b92915050565b60008060008060808587031215612e3c57612e3b6129eb565b5b6000612e4a87828801612e0d565b945050602085013567ffffffffffffffff811115612e6b57612e6a6129f0565b5b612e7787828801612b0d565b935050604085013567ffffffffffffffff811115612e9857612e976129f0565b5b612ea487828801612b0d565b925050606085013567ffffffffffffffff811115612ec557612ec46129f0565b5b612ed187828801612b0d565b91505092959194509250565b600080fd5b600080fd5b600060408284031215612efd57612efc612edd565b5b612f076040612a70565b90506000612f1784828501612e0d565b600083015250602082013567ffffffffffffffff811115612f3b57612f3a612ee2565b5b612f4784828501612b0d565b60208301525092915050565b600060808284031215612f6957612f68612edd565b5b612f736080612a70565b9050600082013567ffffffffffffffff811115612f9357612f92612ee2565b5b612f9f84828501612ee7565b600083015250602082013567ffffffffffffffff811115612fc357612fc2612ee2565b5b612fcf84828501612b0d565b6020830152506040612fe384828501612b5c565b604083015250606082013567ffffffffffffffff81111561300757613006612ee2565b5b61301384828501612b0d565b60608301525092915050565b60006080828403121561303557613034612edd565b5b61303f6080612a70565b9050600082013567ffffffffffffffff81111561305f5761305e612ee2565b5b61306b84828501612ee7565b600083015250602082013567ffffffffffffffff81111561308f5761308e612ee2565b5b61309b84828501612b0d565b602083015250604082013567ffffffffffffffff8111156130bf576130be612ee2565b5b6130cb84828501612b0d565b60408301525060606130df84828501612b5c565b60608301525092915050565b600060ff82169050919050565b613101816130eb565b811461310c57600080fd5b50565b60008135905061311e816130f8565b92915050565b6003811061313157600080fd5b50565b60008135905061314381613124565b92915050565b6002811061315657600080fd5b50565b60008135905061316881613149565b92915050565b600060e0828403121561318457613183612edd565b5b61318e60e0612a70565b9050600082013567ffffffffffffffff8111156131ae576131ad612ee2565b5b6131ba84828501612f53565b600083015250602082013567ffffffffffffffff8111156131de576131dd612ee2565b5b6131ea8482850161301f565b60208301525060406131fe8482850161310f565b604083015250606061321284828501612b5c565b606083015250608082013567ffffffffffffffff81111561323657613235612ee2565b5b61324284828501612b0d565b60808301525060a061325684828501613134565b60a08301525060c061326a84828501613159565b60c08301525092915050565b60006020828403121561328c5761328b6129eb565b5b600082013567ffffffffffffffff8111156132aa576132a96129f0565b5b6132b68482850161316e565b91505092915050565b600080600080600080600060e0888a0312156132de576132dd6129eb565b5b60006132ec8a828b0161310f565b975050602088013567ffffffffffffffff81111561330d5761330c6129f0565b5b6133198a828b0161301f565b965050604088013567ffffffffffffffff81111561333a576133396129f0565b5b6133468a828b01612b0d565b955050606088013567ffffffffffffffff811115613367576133666129f0565b5b6133738a828b01612f53565b94505060806133848a828b01612b5c565b93505060a06133958a828b0161310f565b92505060c06133a68a828b01613159565b91505092959891949750929550565b6000602082840312156133cb576133ca6129eb565b5b600082013567ffffffffffffffff8111156133e9576133e86129f0565b5b6133f584828501612b0d565b91505092915050565b600060808201905081810360008301526134188187612d06565b9050818103602083015261342c8186612d54565b905061343b6040830185612d8d565b818103606083015261344d8184612d54565b905095945050505050565b61346181612c5d565b82525050565b600060208201905061347c6000830184613458565b92915050565b60008060008060008060c0878903121561349f5761349e6129eb565b5b600087013567ffffffffffffffff8111156134bd576134bc6129f0565b5b6134c989828a01612b0d565b96505060206134da89828a01612b5c565b95505060406134eb89828a0161310f565b945050606087013567ffffffffffffffff81111561350c5761350b6129f0565b5b61351889828a01612b0d565b935050608087013567ffffffffffffffff811115613539576135386129f0565b5b61354589828a01612b0d565b92505060a061355689828a01613159565b9150509295509295509295565b60008060006060848603121561357c5761357b6129eb565b5b600084013567ffffffffffffffff81111561359a576135996129f0565b5b6135a686828701612b0d565b935050602084013567ffffffffffffffff8111156135c7576135c66129f0565b5b6135d386828701612b0d565b925050604084013567ffffffffffffffff8111156135f4576135f36129f0565b5b61360086828701612b0d565b9150509250925092565b600060608201905081810360008301526136248186612d06565b905081810360208301526136388185612d54565b9050818103604083015261364c8184612d54565b9050949350505050565b600060208201905061366b6000830184612d8d565b92915050565b600081905092915050565b600061368782612c7e565b6136918185613671565b93506136a1818560208601612c9a565b80840191505092915050565b60006136b9828461367c565b915081905092915050565b7f4e487b7100000000000000000000000000000000000000000000000000000000600052602260045260246000fd5b6000600282049050600182168061370b57607f821691505b60208210810361371e5761371d6136c4565b5b50919050565b7f4e487b7100000000000000000000000000000000000000000000000000000000600052603260045260246000fd5b7f536f6c6f20656c206d656469636f207075656465206174656e646572206c612060008201527f636f6e73756c7461000000000000000000000000000000000000000000000000602082015250565b60006137af602883612d43565b91506137ba82613753565b604082019050919050565b600060208201905081810360008301526137de816137a2565b9050919050565b7f4e487b7100000000000000000000000000000000000000000000000000000000600052602160045260246000fd5b7f4e487b7100000000000000000000000000000000000000000000000000000000600052601160045260246000fd5b600061384e82612b3b565b91507fffffffffffffffffffffffffffffffffffffffffffffffffffffffffffffffff82036138805761387f613814565b5b600182019050919050565b7f4e6f20736520656e636f6e74726f20756e6120636f6e73756c74612070726f6760008201527f72616d61646120636f6e206c6f73206461746f7320657370656369666963616460208201527f6f73000000000000000000000000000000000000000000000000000000000000604082015250565b600061390d604283612d43565b91506139188261388b565b606082019050919050565b6000602082019050818103600083015261393c81613900565b9050919050565b7f536f6c6f20656c2061646d696e6973747261646f72207469656e65207065726d60008201527f69736f73207061726120656a65637574617220657374612066756e63696f6e00602082015250565b600061399f603f83612d43565b91506139aa82613943565b604082019050919050565b600060208201905081810360008301526139ce81613992565b9050919050565b7f6c612063697461206e6f20657869737465206f206e6f20686179207065726d6960008201527f736f7320737566696369656e7465730000000000000000000000000000000000602082015250565b6000613a31602f83612d43565b9150613a3c826139d5565b604082019050919050565b60006020820190508181036000830152613a6081613a24565b9050919050565b7f456c2070616369656e7465206e6f207469656e6520756e206d656469636f206160008201527f7369676e61646f00000000000000000000000000000000000000000000000000602082015250565b6000613ac3602783612d43565b9150613ace82613a67565b604082019050919050565b60006020820190508181036000830152613af281613ab6565b9050919050565b7f4c6120636c696e69636120736f6c6f20617469656e646520656e747265206c6160008201527f7320383a30302079206c61732031383a30302e00000000000000000000000000602082015250565b6000613b55603383612d43565b9150613b6082613af9565b604082019050919050565b60006020820190508181036000830152613b8481613b48565b9050919050565b7f4e6f2073652070756564656e2070726f6772616d617220636974617320616e7460008201527f6572696f72657320612065737465206d6f6d656e746f2e000000000000000000602082015250565b6000613be7603783612d43565b9150613bf282613b8b565b604082019050919050565b60006020820190508181036000830152613c1681613bda565b9050919050565b600061ffff82169050919050565b6000613c3682613c1d565b9150613c4183613c1d565b925082821015613c5457613c53613814565b5b828203905092915050565b7f4e6f2068617920687565636f206c696272652070617261206c6120636974612060008201527f656e20656c20686f726172696f20736f6c6963697461646f207061726120656c60208201527f2070616369656e746520737567657269646f2e00000000000000000000000000604082015250565b6000613ce1605383612d43565b9150613cec82613c5f565b606082019050919050565b60006020820190508181036000830152613d1081613cd4565b9050919050565b7f457374652070616369656e74652079612065737461207265676973747261646f600082015250565b6000613d4d602083612d43565b9150613d5882613d17565b602082019050919050565b60006020820190508181036000830152613d7c81613d40565b9050919050565b7f4e6f20686179206d656469636f7320646973706f6e69626c6573000000000000600082015250565b6000613db9601a83612d43565b9150613dc482613d83565b602082019050919050565b60006020820190508181036000830152613de881613dac565b9050919050565b600081905092915050565b60008190508160005260206000209050919050565b60008154613e1c816136f3565b613e268186613def565b94506001821660008114613e415760018114613e5257613e85565b60ff19831686528186019350613e85565b613e5b85613dfa565b60005b83811015613e7d57815481890152600182019150602081019050613e5e565b838801955050505b50505092915050565b6000613e9a8284613e0f565b91508190509291505056fea26469706673582212201db977e47285941be48436be4dbdf0242a2ae7b6e77377ada8b7df37c38edc4864736f6c634300080d0033",
  "immutableReferences": {},
  "source": "// SPDX-License-Identifier: MIT\r\npragma solidity >=0.4.22 <0.9.0;\r\n\r\ncontract HistoriaClinica {\r\n    mapping(string => Paciente) public pacientes;\r\n    Medico[] public medicos;\r\n    Enfermero[] public enfermeros;\r\n     Cita[] private citas;\r\n    Consulta[] private consultas;\r\n\r\n    address public owner;\r\n\r\n    constructor() {\r\n        owner = msg.sender; // el primer usuario en crear el contrato se convierte en el owner o admin\r\n    }\r\n\r\n    enum tipo_consulta {\r\n        urgencias,\r\n        especialidad\r\n    }\r\n    enum tipo_organizacion {\r\n        publica,\r\n        privada\r\n    }\r\n    enum estado_consulta {\r\n        programada,cancelada,cerrada\r\n    }\r\n\r\n    struct Persona {\r\n        address direccionPublica;\r\n        string DNI;\r\n    }\r\n\r\n    struct Paciente {\r\n        Persona datos;\r\n        string centro_sanitario;\r\n        uint medico_asignado;\r\n        string datos_paciente;\r\n    }\r\n\r\n    struct Medico {\r\n        Persona datos; //Herencia\r\n        string especialidad;\r\n        string centro_sanitario;\r\n        uint numero_pacientes;\r\n    }\r\n\r\n    struct Enfermero {\r\n        Persona datos; //Herencia\r\n        string especialidad;\r\n        string centro_sanitario;\r\n    }\r\n    \r\n    struct Consulta {\r\n        Paciente paciente;\r\n        Medico medico;\r\n        uint8 hora;\r\n        uint256 fecha;\r\n        string datos_consulta;\r\n        estado_consulta estado;\r\n        tipo_consulta tipo;\r\n    }\r\n\r\n    struct Cita {\r\n        Paciente paciente;\r\n        Medico medico;\r\n        uint fecha;\r\n        uint8 hora;\r\n        string datos_cita;\r\n        tipo_consulta tipoConsulta;\r\n    }\r\n\r\nfunction registrarPaciente(string memory _DNI, string memory _centroSanitario, string memory _datosPaciente) public {\r\n    require(pacientes[_DNI].datos.direccionPublica == address(0), \"Este paciente ya esta registrado\");\r\n    Persona memory datosPersonales = Persona({\r\n    direccionPublica: msg.sender,\r\n    DNI: _DNI\r\n});\r\n\r\npacientes[_DNI] = Paciente({\r\n    centro_sanitario: _centroSanitario,\r\n    datos: datosPersonales,\r\n    medico_asignado: type(uint256).max, //an no tiene mdico asignado\r\n    datos_paciente: _datosPaciente\r\n});\r\nasignarMedico(_DNI);\r\n\r\n}\r\n\r\n    function registrarMedico(address _direccionMedico, string memory _DNI, string memory _especialidad, string memory _centro_sanitario) public {\r\n    require(msg.sender == owner, \"Solo el administrador tiene permisos para ejecutar esta funcion\");\r\n        Persona memory datosPersonales = Persona(_direccionMedico,_DNI);\r\n        medicos.push(Medico({\r\n        centro_sanitario: _centro_sanitario,\r\n        datos:datosPersonales,\r\n        especialidad: _especialidad,\r\n        numero_pacientes:0\r\n    }));\r\n}\r\n\r\n function registrarEnfermero(address _direccionEnfermero ,string memory _DNI, string memory _especialidad, string memory _centro_sanitario) public {\r\n        require(msg.sender == owner, \"Solo el administrador tiene permisos para ejecutar esta funcion\");\r\n        Persona memory datosPersonales = Persona (_direccionEnfermero,_DNI);\r\n        enfermeros.push(Enfermero({\r\n        especialidad: _especialidad,\r\n        centro_sanitario: _centro_sanitario,\r\n        datos : datosPersonales\r\n    }));\r\n\r\n    }\r\n\r\n    function asignarMedico(string memory _DNI) public returns (uint) {\r\n        // Comprobamos si hay mdicos disponibles\r\n         require(medicos.length > 0, \"No hay medicos disponibles\");\r\n        uint i = 0;\r\n        Paciente memory p = pacientes[_DNI]; //Buscamos el indice del paciente por DNI\r\n        string memory nombreCentroSanitario = p.centro_sanitario; // Obtenemos centro sanitario del paciente\r\n        uint indiceMedicoConMenosPacientes; //Posicion del array del medico con menos pacientes\r\n        uint256 minimoPacientes = type(uint256).max;\r\n        while (i < medicos.length) {\r\n            //Comprobamos especialidad, centro sanitario, y obtenemos el mdico con menos pacientes asignados\r\n            if (\r\n                keccak256(bytes(medicos[i].especialidad)) ==\r\n                keccak256(bytes(\"General\")) &&\r\n                keccak256(bytes(medicos[i].centro_sanitario)) ==\r\n                keccak256(bytes(nombreCentroSanitario)) &&\r\n                medicos[i].numero_pacientes < minimoPacientes\r\n            ) {\r\n                minimoPacientes = medicos[i].numero_pacientes;\r\n                indiceMedicoConMenosPacientes = i; //Mdico vlido encontrado\r\n            }\r\n            i++;\r\n        }\r\n        medicos[indiceMedicoConMenosPacientes].numero_pacientes++; //Aumentamos pacientes de ese mdico\r\n        pacientes[_DNI].medico_asignado=indiceMedicoConMenosPacientes; //Asignamos mdico al paciente\r\n        return indiceMedicoConMenosPacientes;\r\n    }\r\n\r\n    \r\n //Paciente pide una cita\r\nfunction solicitarCita(string memory _DNI, uint256 _fecha, uint8 _hora, string memory _datos_consulta, string memory _datos_cita, tipo_consulta _tipoConsulta) public {\r\n    require(pacientes[_DNI].medico_asignado < type(uint256).max, \"El paciente no tiene un medico asignado\");\r\n    require(_hora >= 8 && _hora <= 18, \"La clinica solo atiende entre las 8:00 y las 18:00.\");\r\n    require(_fecha >= block.timestamp, \"No se pueden programar citas anteriores a este momento.\");\r\n\r\n    bool huecoLibre = true;\r\n    Paciente memory paciente = pacientes[_DNI];\r\n    Medico memory medico = medicos[paciente.medico_asignado]; //Medico que el paciente tiene asignado\r\n    for (uint i = 0; i < citas.length && citas[i].fecha>block.timestamp; i++) { \r\n        //Comprobamos que sea el medico que tiene asignado el paciente \r\n        if(citas[i].medico.datos.direccionPublica == medico.datos.direccionPublica){ \r\n        //Comprobamos que haya un rango de 15 minutos disponibles despues de la cita\r\n        if (citas[i].fecha == _fecha && citas[i].hora == _hora || citas[i].fecha == _fecha && citas[i].hora > _hora - 15 minutes) {\r\n            huecoLibre = false;\r\n            }\r\n            }\r\n    }\r\n        if (huecoLibre) {\r\n    //Asignamos la nueva cita\r\n        citas.push(\r\n        Cita({\r\n            medico: medico,\r\n            paciente: paciente,\r\n            fecha: _fecha,\r\n            hora: _hora,\r\n            datos_cita:_datos_cita,\r\n            tipoConsulta: _tipoConsulta\r\n        }));\r\n\r\n    //Creamos la consulta\r\n        consultas.push(\r\n        Consulta({\r\n        paciente:paciente,\r\n        medico:medico,\r\n        fecha: _fecha,\r\n        hora:_hora,\r\n        datos_consulta:_datos_consulta,\r\n        estado: estado_consulta.programada,\r\n        tipo: _tipoConsulta\r\n    }));\r\n\r\n    } else {\r\n        revert(\"No hay hueco libre para la cita en el horario solicitado para el paciente sugerido.\");\r\n    }\r\n\r\n}\r\n \r\nfunction atenderConsulta (string memory _DNI, uint _fecha, uint _hora, string memory _datos_consulta) public {\r\n    Paciente memory paciente = pacientes[_DNI];\r\n    require(msg.sender ==  medicos[pacientes[_DNI].medico_asignado].datos.direccionPublica, \"Solo el medico puede atender la consulta\"); \r\n    bool consultaEncontrada = false;\r\n    for(uint i = 0; i < consultas.length; i++) {\r\n        if(consultas[i].fecha == _fecha && consultas[i].hora == _hora && keccak256(bytes(paciente.datos.DNI)) == keccak256(bytes(_DNI))) {\r\n            consultaEncontrada = true;\r\n            consultas[i].datos_consulta = _datos_consulta;\r\n            consultas[i].estado = estado_consulta.cerrada; //consulta cerrada\r\n        }\r\n    }\r\n    require(consultaEncontrada == true, \"No se encontro una consulta programada con los datos especificados\");\r\n}\r\n\r\nfunction modificarCita(uint8 indice, Medico memory _medico, string memory _datos_cita, Paciente memory _paciente, uint _nuevaFecha, uint8 _nuevaHora, tipo_consulta _nuevoTipoConsulta) public {\r\n    require((indice < citas.length) && (msg.sender == _medico.datos.direccionPublica || msg.sender == _paciente.datos.direccionPublica), \"la cita no existe o no hay permisos suficientes\");\r\n    citas[indice].fecha=_nuevaFecha;\r\n    citas[indice].hora=_nuevaHora;\r\n    citas[indice].datos_cita=_datos_cita;\r\n    citas[indice].tipoConsulta = _nuevoTipoConsulta;\r\n}\r\n\r\n//Medico crea consulta\r\nfunction crearConsulta(Consulta memory nuevaConsulta) public {\r\n    consultas.push(nuevaConsulta);\r\n}\r\n}\r\n\r\n",
  "sourcePath": "C:\\Users\\pablo\\OneDrive - Universidad de Castilla-La Mancha\\4\\TFG\\ProyectoHistoriaClinica\\HistoriaClinica\\contracts\\HistoriaClinica.sol",
  "compiler": {
    "name": "solc",
    "version": "0.8.13+commit.abaa5c0e.Emscripten.clang"
  },
  "schemaVersion": "3.4.15",
  "updatedAt": "2023-09-24T23:26:48.988Z",
  "networkType": "ethereum",
  "devdoc": {
    "kind": "dev",
    "methods": {},
    "version": 1
  },
  "userdoc": {
    "kind": "user",
    "methods": {},
    "version": 1
  }
}