{
  "contractName": "HistoriaClinica",
  "abi": [
    {
      "inputs": [],
      "stateMutability": "nonpayable",
      "type": "constructor"
    },
    {
      "inputs": [
        {
          "internalType": "uint256",
          "name": "",
          "type": "uint256"
        }
      ],
      "name": "enfermeros",
      "outputs": [
        {
          "components": [
            {
              "internalType": "address",
              "name": "direccionPublica",
              "type": "address"
            },
            {
              "internalType": "string",
              "name": "DNI",
              "type": "string"
            }
          ],
          "internalType": "struct HistoriaClinica.Persona",
          "name": "datos",
          "type": "tuple"
        },
        {
          "internalType": "string",
          "name": "especialidad",
          "type": "string"
        },
        {
          "internalType": "string",
          "name": "centro_sanitario",
          "type": "string"
        }
      ],
      "stateMutability": "view",
      "type": "function",
      "constant": true
    },
    {
      "inputs": [
        {
          "internalType": "uint256",
          "name": "",
          "type": "uint256"
        }
      ],
      "name": "medicos",
      "outputs": [
        {
          "components": [
            {
              "internalType": "address",
              "name": "direccionPublica",
              "type": "address"
            },
            {
              "internalType": "string",
              "name": "DNI",
              "type": "string"
            }
          ],
          "internalType": "struct HistoriaClinica.Persona",
          "name": "datos",
          "type": "tuple"
        },
        {
          "internalType": "string",
          "name": "especialidad",
          "type": "string"
        },
        {
          "internalType": "string",
          "name": "centro_sanitario",
          "type": "string"
        },
        {
          "internalType": "uint256",
          "name": "numero_pacientes",
          "type": "uint256"
        }
      ],
      "stateMutability": "view",
      "type": "function",
      "constant": true
    },
    {
      "inputs": [],
      "name": "owner",
      "outputs": [
        {
          "internalType": "address",
          "name": "",
          "type": "address"
        }
      ],
      "stateMutability": "view",
      "type": "function",
      "constant": true
    },
    {
      "inputs": [
        {
          "internalType": "string",
          "name": "",
          "type": "string"
        }
      ],
      "name": "pacientes",
      "outputs": [
        {
          "components": [
            {
              "internalType": "address",
              "name": "direccionPublica",
              "type": "address"
            },
            {
              "internalType": "string",
              "name": "DNI",
              "type": "string"
            }
          ],
          "internalType": "struct HistoriaClinica.Persona",
          "name": "datos",
          "type": "tuple"
        },
        {
          "internalType": "string",
          "name": "centro_sanitario",
          "type": "string"
        },
        {
          "internalType": "uint256",
          "name": "medico_asignado",
          "type": "uint256"
        }
      ],
      "stateMutability": "view",
      "type": "function",
      "constant": true
    },
    {
      "inputs": [
        {
          "internalType": "string[2]",
          "name": "_datos_paciente",
          "type": "string[2]"
        }
      ],
      "name": "registrarPaciente",
      "outputs": [],
      "stateMutability": "nonpayable",
      "type": "function"
    },
    {
      "inputs": [
        {
          "internalType": "address",
          "name": "_direccionMedico",
          "type": "address"
        },
        {
          "internalType": "string",
          "name": "_DNI",
          "type": "string"
        },
        {
          "internalType": "string",
          "name": "_especialidad",
          "type": "string"
        },
        {
          "internalType": "string",
          "name": "_centro_sanitario",
          "type": "string"
        }
      ],
      "name": "registrarMedico",
      "outputs": [],
      "stateMutability": "nonpayable",
      "type": "function"
    },
    {
      "inputs": [
        {
          "internalType": "address",
          "name": "_direccionEnfermero",
          "type": "address"
        },
        {
          "internalType": "string",
          "name": "_DNI",
          "type": "string"
        },
        {
          "internalType": "string",
          "name": "_especialidad",
          "type": "string"
        },
        {
          "internalType": "string",
          "name": "_centro_sanitario",
          "type": "string"
        }
      ],
      "name": "registrarEnfermero",
      "outputs": [],
      "stateMutability": "nonpayable",
      "type": "function"
    },
    {
      "inputs": [
        {
          "internalType": "string",
          "name": "_DNI",
          "type": "string"
        }
      ],
      "name": "asignarMedico",
      "outputs": [
        {
          "internalType": "uint256",
          "name": "",
          "type": "uint256"
        }
      ],
      "stateMutability": "nonpayable",
      "type": "function"
    },
    {
      "inputs": [
        {
          "internalType": "string",
          "name": "_DNI",
          "type": "string"
        },
        {
          "internalType": "uint256",
          "name": "_fecha",
          "type": "uint256"
        },
        {
          "internalType": "uint8",
          "name": "_hora",
          "type": "uint8"
        },
        {
          "internalType": "string",
          "name": "_datos_consulta",
          "type": "string"
        },
        {
          "internalType": "string",
          "name": "_datos_cita",
          "type": "string"
        },
        {
          "internalType": "enum HistoriaClinica.tipo_consulta",
          "name": "_tipoConsulta",
          "type": "uint8"
        }
      ],
      "name": "solicitarCita",
      "outputs": [],
      "stateMutability": "nonpayable",
      "type": "function"
    },
    {
      "inputs": [
        {
          "internalType": "string",
          "name": "_DNI",
          "type": "string"
        },
        {
          "internalType": "uint256",
          "name": "_fecha",
          "type": "uint256"
        },
        {
          "internalType": "uint256",
          "name": "_hora",
          "type": "uint256"
        },
        {
          "internalType": "string",
          "name": "_datos_consulta",
          "type": "string"
        }
      ],
      "name": "atenderConsulta",
      "outputs": [],
      "stateMutability": "nonpayable",
      "type": "function"
    },
    {
      "inputs": [
        {
          "internalType": "uint8",
          "name": "indice",
          "type": "uint8"
        },
        {
          "components": [
            {
              "components": [
                {
                  "internalType": "address",
                  "name": "direccionPublica",
                  "type": "address"
                },
                {
                  "internalType": "string",
                  "name": "DNI",
                  "type": "string"
                }
              ],
              "internalType": "struct HistoriaClinica.Persona",
              "name": "datos",
              "type": "tuple"
            },
            {
              "internalType": "string",
              "name": "especialidad",
              "type": "string"
            },
            {
              "internalType": "string",
              "name": "centro_sanitario",
              "type": "string"
            },
            {
              "internalType": "uint256",
              "name": "numero_pacientes",
              "type": "uint256"
            }
          ],
          "internalType": "struct HistoriaClinica.Medico",
          "name": "_medico",
          "type": "tuple"
        },
        {
          "internalType": "string",
          "name": "_datos_cita",
          "type": "string"
        },
        {
          "components": [
            {
              "components": [
                {
                  "internalType": "address",
                  "name": "direccionPublica",
                  "type": "address"
                },
                {
                  "internalType": "string",
                  "name": "DNI",
                  "type": "string"
                }
              ],
              "internalType": "struct HistoriaClinica.Persona",
              "name": "datos",
              "type": "tuple"
            },
            {
              "internalType": "string",
              "name": "centro_sanitario",
              "type": "string"
            },
            {
              "internalType": "uint256",
              "name": "medico_asignado",
              "type": "uint256"
            }
          ],
          "internalType": "struct HistoriaClinica.Paciente",
          "name": "_paciente",
          "type": "tuple"
        },
        {
          "internalType": "uint256",
          "name": "_nuevaFecha",
          "type": "uint256"
        },
        {
          "internalType": "uint8",
          "name": "_nuevaHora",
          "type": "uint8"
        },
        {
          "internalType": "enum HistoriaClinica.tipo_consulta",
          "name": "_nuevoTipoConsulta",
          "type": "uint8"
        }
      ],
      "name": "modificarCita",
      "outputs": [],
      "stateMutability": "nonpayable",
      "type": "function"
    },
    {
      "inputs": [
        {
          "components": [
            {
              "components": [
                {
                  "components": [
                    {
                      "internalType": "address",
                      "name": "direccionPublica",
                      "type": "address"
                    },
                    {
                      "internalType": "string",
                      "name": "DNI",
                      "type": "string"
                    }
                  ],
                  "internalType": "struct HistoriaClinica.Persona",
                  "name": "datos",
                  "type": "tuple"
                },
                {
                  "internalType": "string",
                  "name": "centro_sanitario",
                  "type": "string"
                },
                {
                  "internalType": "uint256",
                  "name": "medico_asignado",
                  "type": "uint256"
                }
              ],
              "internalType": "struct HistoriaClinica.Paciente",
              "name": "paciente",
              "type": "tuple"
            },
            {
              "components": [
                {
                  "components": [
                    {
                      "internalType": "address",
                      "name": "direccionPublica",
                      "type": "address"
                    },
                    {
                      "internalType": "string",
                      "name": "DNI",
                      "type": "string"
                    }
                  ],
                  "internalType": "struct HistoriaClinica.Persona",
                  "name": "datos",
                  "type": "tuple"
                },
                {
                  "internalType": "string",
                  "name": "especialidad",
                  "type": "string"
                },
                {
                  "internalType": "string",
                  "name": "centro_sanitario",
                  "type": "string"
                },
                {
                  "internalType": "uint256",
                  "name": "numero_pacientes",
                  "type": "uint256"
                }
              ],
              "internalType": "struct HistoriaClinica.Medico",
              "name": "medico",
              "type": "tuple"
            },
            {
              "internalType": "uint8",
              "name": "hora",
              "type": "uint8"
            },
            {
              "internalType": "uint256",
              "name": "fecha",
              "type": "uint256"
            },
            {
              "internalType": "string",
              "name": "datos_consulta",
              "type": "string"
            },
            {
              "internalType": "enum HistoriaClinica.estado_consulta",
              "name": "estado",
              "type": "uint8"
            },
            {
              "internalType": "enum HistoriaClinica.tipo_consulta",
              "name": "tipo",
              "type": "uint8"
            }
          ],
          "internalType": "struct HistoriaClinica.Consulta",
          "name": "nuevaConsulta",
          "type": "tuple"
        }
      ],
      "name": "crearConsulta",
      "outputs": [],
      "stateMutability": "nonpayable",
      "type": "function"
    }
  ],
  "bytecode": "0x608060405234801561001057600080fd5b5033600560006101000a81548173ffffffffffffffffffffffffffffffffffffffff021916908373ffffffffffffffffffffffffffffffffffffffff160217905550613b32806100616000396000f3fe608060405234801561001057600080fd5b50600436106100b45760003560e01c8063736eb44d11610071578063736eb44d1461018e5780638da5cb5b146101aa578063a6e85a1f146101c8578063db8a9820146101e4578063de67678114610216578063f125910814610232576100b4565b806308bbb1bc146100b95780631b01921a146100d55780632a76f31a146100f15780632c1a929d1461010d5780633550242f1461014057806352509b8d1461015c575b600080fd5b6100d360048036038101906100ce9190612bbc565b610262565b005b6100ef60048036038101906100ea9190612c05565b61049a565b005b61010b60048036038101906101069190612d78565b6108c4565b005b61012760048036038101906101229190612dc1565b610a22565b6040516101379493929190612f1b565b60405180910390f35b61015a60048036038101906101559190612f75565b610c64565b005b61017660048036038101906101719190613030565b610e1b565b60405161018593929190613079565b60405180910390f35b6101a860048036038101906101a391906130be565b610fd5565b005b6101b26111a0565b6040516101bf91906131c3565b60405180910390f35b6101e260048036038101906101dd91906131de565b6111c6565b005b6101fe60048036038101906101f99190612dc1565b611df4565b60405161020d939291906132bf565b60405180910390f35b610230600480360381019061022b9190612f75565b612030565b005b61024c60048036038101906102479190613030565b6121f8565b604051610259919061330b565b60405180910390f35b60048190806001815401808255809150506001900390600052602060002090600d020160009091909190915060008201518160000160008201518160000160008201518160000160006101000a81548173ffffffffffffffffffffffffffffffffffffffff021916908373ffffffffffffffffffffffffffffffffffffffff16021790555060208201518160010190805190602001906103039291906125c2565b50505060208201518160020190805190602001906103229291906125c2565b5060408201518160030155505060208201518160040160008201518160000160008201518160000160006101000a81548173ffffffffffffffffffffffffffffffffffffffff021916908373ffffffffffffffffffffffffffffffffffffffff16021790555060208201518160010190805190602001906103a49291906125c2565b50505060208201518160020190805190602001906103c39291906125c2565b5060408201518160030190805190602001906103e09291906125c2565b5060608201518160040155505060408201518160090160006101000a81548160ff021916908360ff160217905550606082015181600a0155608082015181600b0190805190602001906104349291906125c2565b5060a082015181600c0160006101000a81548160ff021916908360028111156104605761045f613326565b5b021790555060c082015181600c0160016101000a81548160ff021916908360018111156104905761048f613326565b5b0217905550505050565b600080856040516104ab9190613391565b9081526020016040518091039020604051806060016040529081600082016040518060400160405290816000820160009054906101000a900473ffffffffffffffffffffffffffffffffffffffff1673ffffffffffffffffffffffffffffffffffffffff1673ffffffffffffffffffffffffffffffffffffffff16815260200160018201805461053a906133d7565b80601f0160208091040260200160405190810160405280929190818152602001828054610566906133d7565b80156105b35780601f10610588576101008083540402835291602001916105b3565b820191906000526020600020905b81548152906001019060200180831161059657829003601f168201915b50505050508152505081526020016002820180546105d0906133d7565b80601f01602080910402602001604051908101604052809291908181526020018280546105fc906133d7565b80156106495780601f1061061e57610100808354040283529160200191610649565b820191906000526020600020905b81548152906001019060200180831161062c57829003601f168201915b50505050508152602001600382015481525050905060016000866040516106709190613391565b9081526020016040518091039020600301548154811061069357610692613408565b5b906000526020600020906005020160000160000160009054906101000a900473ffffffffffffffffffffffffffffffffffffffff1673ffffffffffffffffffffffffffffffffffffffff163373ffffffffffffffffffffffffffffffffffffffff1614610735576040517f08c379a000000000000000000000000000000000000000000000000000000000815260040161072c906134a9565b60405180910390fd5b6000805b60048054905081101561087457856004828154811061075b5761075a613408565b5b90600052602060002090600d0201600a01541480156107ae5750846004828154811061078a57610789613408565b5b90600052602060002090600d020160090160009054906101000a900460ff1660ff16145b80156107cf5750868051906020012083600001516020015180519060200120145b15610861576001915083600482815481106107ed576107ec613408565b5b90600052602060002090600d0201600b0190805190602001906108119291906125c2565b5060026004828154811061082857610827613408565b5b90600052602060002090600d0201600c0160006101000a81548160ff0219169083600281111561085b5761085a613326565b5b02179055505b808061086c906134f8565b915050610739565b5060011515811515146108bc576040517f08c379a00000000000000000000000000000000000000000000000000000000081526004016108b3906135d8565b60405180910390fd5b505050505050565b6000816000600281106108da576108d9613408565b5b60200201519050600060405180604001604052803373ffffffffffffffffffffffffffffffffffffffff1681526020018460006002811061091e5761091d613408565b5b6020020151815250905060405180606001604052808281526020018460016002811061094d5761094c613408565b5b60200201518152602001600081525060008360405161096c9190613391565b908152602001604051809103902060008201518160000160008201518160000160006101000a81548173ffffffffffffffffffffffffffffffffffffffff021916908373ffffffffffffffffffffffffffffffffffffffff16021790555060208201518160010190805190602001906109e69291906125c2565b5050506020820151816002019080519060200190610a059291906125c2565b5060408201518160030155905050610a1c826121f8565b50505050565b60018181548110610a3257600080fd5b9060005260206000209060050201600091509050806000016040518060400160405290816000820160009054906101000a900473ffffffffffffffffffffffffffffffffffffffff1673ffffffffffffffffffffffffffffffffffffffff1673ffffffffffffffffffffffffffffffffffffffff168152602001600182018054610abb906133d7565b80601f0160208091040260200160405190810160405280929190818152602001828054610ae7906133d7565b8015610b345780601f10610b0957610100808354040283529160200191610b34565b820191906000526020600020905b815481529060010190602001808311610b1757829003601f168201915b50505050508152505090806002018054610b4d906133d7565b80601f0160208091040260200160405190810160405280929190818152602001828054610b79906133d7565b8015610bc65780601f10610b9b57610100808354040283529160200191610bc6565b820191906000526020600020905b815481529060010190602001808311610ba957829003601f168201915b505050505090806003018054610bdb906133d7565b80601f0160208091040260200160405190810160405280929190818152602001828054610c07906133d7565b8015610c545780601f10610c2957610100808354040283529160200191610c54565b820191906000526020600020905b815481529060010190602001808311610c3757829003601f168201915b5050505050908060040154905084565b600560009054906101000a900473ffffffffffffffffffffffffffffffffffffffff1673ffffffffffffffffffffffffffffffffffffffff163373ffffffffffffffffffffffffffffffffffffffff1614610cf4576040517f08c379a0000000000000000000000000000000000000000000000000000000008152600401610ceb9061366a565b60405180910390fd5b600060405180604001604052808673ffffffffffffffffffffffffffffffffffffffff1681526020018581525090506002604051806060016040528083815260200185815260200184815250908060018154018082558091505060019003906000526020600020906004020160009091909190915060008201518160000160008201518160000160006101000a81548173ffffffffffffffffffffffffffffffffffffffff021916908373ffffffffffffffffffffffffffffffffffffffff1602179055506020820151816001019080519060200190610dd59291906125c2565b5050506020820151816002019080519060200190610df49291906125c2565b506040820151816003019080519060200190610e119291906125c2565b5050505050505050565b600081805160208101820180518482526020830160208501208183528095505050505050600091509050806000016040518060400160405290816000820160009054906101000a900473ffffffffffffffffffffffffffffffffffffffff1673ffffffffffffffffffffffffffffffffffffffff1673ffffffffffffffffffffffffffffffffffffffff168152602001600182018054610eba906133d7565b80601f0160208091040260200160405190810160405280929190818152602001828054610ee6906133d7565b8015610f335780601f10610f0857610100808354040283529160200191610f33565b820191906000526020600020905b815481529060010190602001808311610f1657829003601f168201915b50505050508152505090806002018054610f4c906133d7565b80601f0160208091040260200160405190810160405280929190818152602001828054610f78906133d7565b8015610fc55780601f10610f9a57610100808354040283529160200191610fc5565b820191906000526020600020905b815481529060010190602001808311610fa857829003601f168201915b5050505050908060030154905083565b6003805490508760ff1610801561105d575085600001516000015173ffffffffffffffffffffffffffffffffffffffff163373ffffffffffffffffffffffffffffffffffffffff16148061105c575083600001516000015173ffffffffffffffffffffffffffffffffffffffff163373ffffffffffffffffffffffffffffffffffffffff16145b5b61109c576040517f08c379a0000000000000000000000000000000000000000000000000000000008152600401611093906136fc565b60405180910390fd5b8260038860ff16815481106110b4576110b3613408565b5b90600052602060002090600d0201600901819055508160038860ff16815481106110e1576110e0613408565b5b90600052602060002090600d0201600a0160006101000a81548160ff021916908360ff1602179055508460038860ff168154811061112257611121613408565b5b90600052602060002090600d0201600b0190805190602001906111469291906125c2565b508060038860ff168154811061115f5761115e613408565b5b90600052602060002090600d0201600c0160006101000a81548160ff0219169083600181111561119257611191613326565b5b021790555050505050505050565b600560009054906101000a900473ffffffffffffffffffffffffffffffffffffffff1681565b600080876040516111d79190613391565b90815260200160405180910390206003015411611229576040517f08c379a00000000000000000000000000000000000000000000000000000000081526004016112209061378e565b60405180910390fd5b60088460ff1610158015611241575060128460ff1611155b611280576040517f08c379a000000000000000000000000000000000000000000000000000000000815260040161127790613820565b60405180910390fd5b428510156112c3576040517f08c379a00000000000000000000000000000000000000000000000000000000081526004016112ba906138b2565b60405180910390fd5b600060019050600080886040516112da9190613391565b9081526020016040518091039020604051806060016040529081600082016040518060400160405290816000820160009054906101000a900473ffffffffffffffffffffffffffffffffffffffff1673ffffffffffffffffffffffffffffffffffffffff1673ffffffffffffffffffffffffffffffffffffffff168152602001600182018054611369906133d7565b80601f0160208091040260200160405190810160405280929190818152602001828054611395906133d7565b80156113e25780601f106113b7576101008083540402835291602001916113e2565b820191906000526020600020905b8154815290600101906020018083116113c557829003601f168201915b50505050508152505081526020016002820180546113ff906133d7565b80601f016020809104026020016040519081016040528092919081815260200182805461142b906133d7565b80156114785780601f1061144d57610100808354040283529160200191611478565b820191906000526020600020905b81548152906001019060200180831161145b57829003601f168201915b505050505081526020016003820154815250509050600060018260400151815481106114a7576114a6613408565b5b9060005260206000209060050201604051806080016040529081600082016040518060400160405290816000820160009054906101000a900473ffffffffffffffffffffffffffffffffffffffff1673ffffffffffffffffffffffffffffffffffffffff1673ffffffffffffffffffffffffffffffffffffffff168152602001600182018054611536906133d7565b80601f0160208091040260200160405190810160405280929190818152602001828054611562906133d7565b80156115af5780601f10611584576101008083540402835291602001916115af565b820191906000526020600020905b81548152906001019060200180831161159257829003601f168201915b50505050508152505081526020016002820180546115cc906133d7565b80601f01602080910402602001604051908101604052809291908181526020018280546115f8906133d7565b80156116455780601f1061161a57610100808354040283529160200191611645565b820191906000526020600020905b81548152906001019060200180831161162857829003601f168201915b5050505050815260200160038201805461165e906133d7565b80601f016020809104026020016040519081016040528092919081815260200182805461168a906133d7565b80156116d75780601f106116ac576101008083540402835291602001916116d7565b820191906000526020600020905b8154815290600101906020018083116116ba57829003601f168201915b50505050508152602001600482015481525050905060005b600380549050811080156117275750426003828154811061171357611712613408565b5b90600052602060002090600d020160090154115b156118be5781600001516000015173ffffffffffffffffffffffffffffffffffffffff166003828154811061175f5761175e613408565b5b90600052602060002090600d020160040160000160000160009054906101000a900473ffffffffffffffffffffffffffffffffffffffff1673ffffffffffffffffffffffffffffffffffffffff16036118ab5788600382815481106117c7576117c6613408565b5b90600052602060002090600d02016009015414801561181d57508760ff16600382815481106117f9576117f8613408565b5b90600052602060002090600d0201600a0160009054906101000a900460ff1660ff16145b806118a05750886003828154811061183857611837613408565b5b90600052602060002090600d02016009015414801561189f57506103848860ff1661186391906138e0565b61ffff166003828154811061187b5761187a613408565b5b90600052602060002090600d0201600a0160009054906101000a900460ff1660ff16115b5b156118aa57600093505b5b80806118b6906134f8565b9150506116ef565b508215611dae5760006040518060c001604052808481526020018381526020018a81526020018960ff16815260200187815260200186600181111561190657611905613326565b5b815250905080600360016003805490506119209190613914565b8154811061193157611930613408565b5b90600052602060002090600d020160008201518160000160008201518160000160008201518160000160006101000a81548173ffffffffffffffffffffffffffffffffffffffff021916908373ffffffffffffffffffffffffffffffffffffffff16021790555060208201518160010190805190602001906119b49291906125c2565b50505060208201518160020190805190602001906119d39291906125c2565b5060408201518160030155505060208201518160040160008201518160000160008201518160000160006101000a81548173ffffffffffffffffffffffffffffffffffffffff021916908373ffffffffffffffffffffffffffffffffffffffff1602179055506020820151816001019080519060200190611a559291906125c2565b5050506020820151816002019080519060200190611a749291906125c2565b506040820151816003019080519060200190611a919291906125c2565b5060608201518160040155505060408201518160090155606082015181600a0160006101000a81548160ff021916908360ff160217905550608082015181600b019080519060200190611ae59291906125c2565b5060a082015181600c0160006101000a81548160ff02191690836001811115611b1157611b10613326565b5b021790555090505060046040518060e001604052808581526020018481526020018a60ff1681526020018b815260200189815260200160006002811115611b5b57611b5a613326565b5b8152602001876001811115611b7357611b72613326565b5b81525090806001815401808255809150506001900390600052602060002090600d020160009091909190915060008201518160000160008201518160000160008201518160000160006101000a81548173ffffffffffffffffffffffffffffffffffffffff021916908373ffffffffffffffffffffffffffffffffffffffff1602179055506020820151816001019080519060200190611c149291906125c2565b5050506020820151816002019080519060200190611c339291906125c2565b5060408201518160030155505060208201518160040160008201518160000160008201518160000160006101000a81548173ffffffffffffffffffffffffffffffffffffffff021916908373ffffffffffffffffffffffffffffffffffffffff1602179055506020820151816001019080519060200190611cb59291906125c2565b5050506020820151816002019080519060200190611cd49291906125c2565b506040820151816003019080519060200190611cf19291906125c2565b5060608201518160040155505060408201518160090160006101000a81548160ff021916908360ff160217905550606082015181600a0155608082015181600b019080519060200190611d459291906125c2565b5060a082015181600c0160006101000a81548160ff02191690836002811115611d7157611d70613326565b5b021790555060c082015181600c0160016101000a81548160ff02191690836001811115611da157611da0613326565b5b0217905550505050611de9565b6040517f08c379a0000000000000000000000000000000000000000000000000000000008152600401611de0906139ba565b60405180910390fd5b505050505050505050565b60028181548110611e0457600080fd5b9060005260206000209060040201600091509050806000016040518060400160405290816000820160009054906101000a900473ffffffffffffffffffffffffffffffffffffffff1673ffffffffffffffffffffffffffffffffffffffff1673ffffffffffffffffffffffffffffffffffffffff168152602001600182018054611e8d906133d7565b80601f0160208091040260200160405190810160405280929190818152602001828054611eb9906133d7565b8015611f065780601f10611edb57610100808354040283529160200191611f06565b820191906000526020600020905b815481529060010190602001808311611ee957829003601f168201915b50505050508152505090806002018054611f1f906133d7565b80601f0160208091040260200160405190810160405280929190818152602001828054611f4b906133d7565b8015611f985780601f10611f6d57610100808354040283529160200191611f98565b820191906000526020600020905b815481529060010190602001808311611f7b57829003601f168201915b505050505090806003018054611fad906133d7565b80601f0160208091040260200160405190810160405280929190818152602001828054611fd9906133d7565b80156120265780601f10611ffb57610100808354040283529160200191612026565b820191906000526020600020905b81548152906001019060200180831161200957829003601f168201915b5050505050905083565b600560009054906101000a900473ffffffffffffffffffffffffffffffffffffffff1673ffffffffffffffffffffffffffffffffffffffff163373ffffffffffffffffffffffffffffffffffffffff16146120c0576040517f08c379a00000000000000000000000000000000000000000000000000000000081526004016120b79061366a565b60405180910390fd5b600060405180604001604052808673ffffffffffffffffffffffffffffffffffffffff168152602001858152509050600160405180608001604052808381526020018581526020018481526020016000815250908060018154018082558091505060019003906000526020600020906005020160009091909190915060008201518160000160008201518160000160006101000a81548173ffffffffffffffffffffffffffffffffffffffff021916908373ffffffffffffffffffffffffffffffffffffffff16021790555060208201518160010190805190602001906121a89291906125c2565b50505060208201518160020190805190602001906121c79291906125c2565b5060408201518160030190805190602001906121e49291906125c2565b506060820151816004015550505050505050565b60008060018054905011612241576040517f08c379a000000000000000000000000000000000000000000000000000000000815260040161223890613a26565b60405180910390fd5b60008080846040516122539190613391565b9081526020016040518091039020604051806060016040529081600082016040518060400160405290816000820160009054906101000a900473ffffffffffffffffffffffffffffffffffffffff1673ffffffffffffffffffffffffffffffffffffffff1673ffffffffffffffffffffffffffffffffffffffff1681526020016001820180546122e2906133d7565b80601f016020809104026020016040519081016040528092919081815260200182805461230e906133d7565b801561235b5780601f106123305761010080835404028352916020019161235b565b820191906000526020600020905b81548152906001019060200180831161233e57829003601f168201915b5050505050815250508152602001600282018054612378906133d7565b80601f01602080910402602001604051908101604052809291908181526020018280546123a4906133d7565b80156123f15780601f106123c6576101008083540402835291602001916123f1565b820191906000526020600020905b8154815290600101906020018083116123d457829003601f168201915b5050505050815260200160038201548152505090506000816020015190506000807fffffffffffffffffffffffffffffffffffffffffffffffffffffffffffffffff90505b60018054905085101561257a576040518060400160405280600781526020017f47656e6572616c00000000000000000000000000000000000000000000000000815250805190602001206001868154811061249457612493613408565b5b90600052602060002090600502016002016040516124b29190613ae5565b604051809103902014801561250657508280519060200120600186815481106124de576124dd613408565b5b90600052602060002090600502016002016040516124fc9190613ae5565b6040518091039020145b80156125365750806001868154811061252257612521613408565b5b906000526020600020906005020160040154105b15612567576001858154811061254f5761254e613408565b5b90600052602060002090600502016004015490508491505b8480612572906134f8565b955050612436565b6001828154811061258e5761258d613408565b5b906000526020600020906005020160040160008154809291906125b0906134f8565b91905055508195505050505050919050565b8280546125ce906133d7565b90600052602060002090601f0160209004810192826125f05760008555612637565b82601f1061260957805160ff1916838001178555612637565b82800160010185558215612637579182015b8281111561263657825182559160200191906001019061261b565b5b5090506126449190612648565b5090565b5b80821115612661576000816000905550600101612649565b5090565b6000604051905090565b600080fd5b600080fd5b600080fd5b6000601f19601f8301169050919050565b7f4e487b7100000000000000000000000000000000000000000000000000000000600052604160045260246000fd5b6126c78261267e565b810181811067ffffffffffffffff821117156126e6576126e561268f565b5b80604052505050565b60006126f9612665565b905061270582826126be565b919050565b600080fd5b600073ffffffffffffffffffffffffffffffffffffffff82169050919050565b600061273a8261270f565b9050919050565b61274a8161272f565b811461275557600080fd5b50565b60008135905061276781612741565b92915050565b600080fd5b600080fd5b600067ffffffffffffffff8211156127925761279161268f565b5b61279b8261267e565b9050602081019050919050565b82818337600083830152505050565b60006127ca6127c584612777565b6126ef565b9050828152602081018484840111156127e6576127e5612772565b5b6127f18482856127a8565b509392505050565b600082601f83011261280e5761280d61276d565b5b813561281e8482602086016127b7565b91505092915050565b60006040828403121561283d5761283c612679565b5b61284760406126ef565b9050600061285784828501612758565b600083015250602082013567ffffffffffffffff81111561287b5761287a61270a565b5b612887848285016127f9565b60208301525092915050565b6000819050919050565b6128a681612893565b81146128b157600080fd5b50565b6000813590506128c38161289d565b92915050565b6000606082840312156128df576128de612679565b5b6128e960606126ef565b9050600082013567ffffffffffffffff8111156129095761290861270a565b5b61291584828501612827565b600083015250602082013567ffffffffffffffff8111156129395761293861270a565b5b612945848285016127f9565b6020830152506040612959848285016128b4565b60408301525092915050565b60006080828403121561297b5761297a612679565b5b61298560806126ef565b9050600082013567ffffffffffffffff8111156129a5576129a461270a565b5b6129b184828501612827565b600083015250602082013567ffffffffffffffff8111156129d5576129d461270a565b5b6129e1848285016127f9565b602083015250604082013567ffffffffffffffff811115612a0557612a0461270a565b5b612a11848285016127f9565b6040830152506060612a25848285016128b4565b60608301525092915050565b600060ff82169050919050565b612a4781612a31565b8114612a5257600080fd5b50565b600081359050612a6481612a3e565b92915050565b60038110612a7757600080fd5b50565b600081359050612a8981612a6a565b92915050565b60028110612a9c57600080fd5b50565b600081359050612aae81612a8f565b92915050565b600060e08284031215612aca57612ac9612679565b5b612ad460e06126ef565b9050600082013567ffffffffffffffff811115612af457612af361270a565b5b612b00848285016128c9565b600083015250602082013567ffffffffffffffff811115612b2457612b2361270a565b5b612b3084828501612965565b6020830152506040612b4484828501612a55565b6040830152506060612b58848285016128b4565b606083015250608082013567ffffffffffffffff811115612b7c57612b7b61270a565b5b612b88848285016127f9565b60808301525060a0612b9c84828501612a7a565b60a08301525060c0612bb084828501612a9f565b60c08301525092915050565b600060208284031215612bd257612bd161266f565b5b600082013567ffffffffffffffff811115612bf057612bef612674565b5b612bfc84828501612ab4565b91505092915050565b60008060008060808587031215612c1f57612c1e61266f565b5b600085013567ffffffffffffffff811115612c3d57612c3c612674565b5b612c49878288016127f9565b9450506020612c5a878288016128b4565b9350506040612c6b878288016128b4565b925050606085013567ffffffffffffffff811115612c8c57612c8b612674565b5b612c98878288016127f9565b91505092959194509250565b600067ffffffffffffffff821115612cbf57612cbe61268f565b5b602082029050919050565b600080fd5b6000612ce2612cdd84612ca4565b6126ef565b90508060208402830185811115612cfc57612cfb612cca565b5b835b81811015612d4357803567ffffffffffffffff811115612d2157612d2061276d565b5b808601612d2e89826127f9565b85526020850194505050602081019050612cfe565b5050509392505050565b600082601f830112612d6257612d6161276d565b5b6002612d6f848285612ccf565b91505092915050565b600060208284031215612d8e57612d8d61266f565b5b600082013567ffffffffffffffff811115612dac57612dab612674565b5b612db884828501612d4d565b91505092915050565b600060208284031215612dd757612dd661266f565b5b6000612de5848285016128b4565b91505092915050565b612df78161272f565b82525050565b600081519050919050565b600082825260208201905092915050565b60005b83811015612e37578082015181840152602081019050612e1c565b83811115612e46576000848401525b50505050565b6000612e5782612dfd565b612e618185612e08565b9350612e71818560208601612e19565b612e7a8161267e565b840191505092915050565b6000604083016000830151612e9d6000860182612dee565b5060208301518482036020860152612eb58282612e4c565b9150508091505092915050565b600082825260208201905092915050565b6000612ede82612dfd565b612ee88185612ec2565b9350612ef8818560208601612e19565b612f018161267e565b840191505092915050565b612f1581612893565b82525050565b60006080820190508181036000830152612f358187612e85565b90508181036020830152612f498186612ed3565b90508181036040830152612f5d8185612ed3565b9050612f6c6060830184612f0c565b95945050505050565b60008060008060808587031215612f8f57612f8e61266f565b5b6000612f9d87828801612758565b945050602085013567ffffffffffffffff811115612fbe57612fbd612674565b5b612fca878288016127f9565b935050604085013567ffffffffffffffff811115612feb57612fea612674565b5b612ff7878288016127f9565b925050606085013567ffffffffffffffff81111561301857613017612674565b5b613024878288016127f9565b91505092959194509250565b6000602082840312156130465761304561266f565b5b600082013567ffffffffffffffff81111561306457613063612674565b5b613070848285016127f9565b91505092915050565b600060608201905081810360008301526130938186612e85565b905081810360208301526130a78185612ed3565b90506130b66040830184612f0c565b949350505050565b600080600080600080600060e0888a0312156130dd576130dc61266f565b5b60006130eb8a828b01612a55565b975050602088013567ffffffffffffffff81111561310c5761310b612674565b5b6131188a828b01612965565b965050604088013567ffffffffffffffff81111561313957613138612674565b5b6131458a828b016127f9565b955050606088013567ffffffffffffffff81111561316657613165612674565b5b6131728a828b016128c9565b94505060806131838a828b016128b4565b93505060a06131948a828b01612a55565b92505060c06131a58a828b01612a9f565b91505092959891949750929550565b6131bd8161272f565b82525050565b60006020820190506131d860008301846131b4565b92915050565b60008060008060008060c087890312156131fb576131fa61266f565b5b600087013567ffffffffffffffff81111561321957613218612674565b5b61322589828a016127f9565b965050602061323689828a016128b4565b955050604061324789828a01612a55565b945050606087013567ffffffffffffffff81111561326857613267612674565b5b61327489828a016127f9565b935050608087013567ffffffffffffffff81111561329557613294612674565b5b6132a189828a016127f9565b92505060a06132b289828a01612a9f565b9150509295509295509295565b600060608201905081810360008301526132d98186612e85565b905081810360208301526132ed8185612ed3565b905081810360408301526133018184612ed3565b9050949350505050565b60006020820190506133206000830184612f0c565b92915050565b7f4e487b7100000000000000000000000000000000000000000000000000000000600052602160045260246000fd5b600081905092915050565b600061336b82612dfd565b6133758185613355565b9350613385818560208601612e19565b80840191505092915050565b600061339d8284613360565b915081905092915050565b7f4e487b7100000000000000000000000000000000000000000000000000000000600052602260045260246000fd5b600060028204905060018216806133ef57607f821691505b602082108103613402576134016133a8565b5b50919050565b7f4e487b7100000000000000000000000000000000000000000000000000000000600052603260045260246000fd5b7f536f6c6f20656c206d656469636f207075656465206174656e646572206c612060008201527f636f6e73756c7461000000000000000000000000000000000000000000000000602082015250565b6000613493602883612ec2565b915061349e82613437565b604082019050919050565b600060208201905081810360008301526134c281613486565b9050919050565b7f4e487b7100000000000000000000000000000000000000000000000000000000600052601160045260246000fd5b600061350382612893565b91507fffffffffffffffffffffffffffffffffffffffffffffffffffffffffffffffff8203613535576135346134c9565b5b600182019050919050565b7f4e6f20736520656e636f6e74726f20756e6120636f6e73756c74612070726f6760008201527f72616d61646120636f6e206c6f73206461746f7320657370656369666963616460208201527f6f73000000000000000000000000000000000000000000000000000000000000604082015250565b60006135c2604283612ec2565b91506135cd82613540565b606082019050919050565b600060208201905081810360008301526135f1816135b5565b9050919050565b7f536f6c6f20656c2061646d696e6973747261646f72207469656e65207065726d60008201527f69736f73207061726120656a65637574617220657374612066756e63696f6e00602082015250565b6000613654603f83612ec2565b915061365f826135f8565b604082019050919050565b6000602082019050818103600083015261368381613647565b9050919050565b7f6c612063697461206e6f20657869737465206f206e6f20686179207065726d6960008201527f736f7320737566696369656e7465730000000000000000000000000000000000602082015250565b60006136e6602f83612ec2565b91506136f18261368a565b604082019050919050565b60006020820190508181036000830152613715816136d9565b9050919050565b7f456c2070616369656e7465206e6f207469656e6520756e206d656469636f206160008201527f7369676e61646f00000000000000000000000000000000000000000000000000602082015250565b6000613778602783612ec2565b91506137838261371c565b604082019050919050565b600060208201905081810360008301526137a78161376b565b9050919050565b7f4c6120636c696e69636120736f6c6f20617469656e646520656e747265206c6160008201527f7320383a30302079206c61732031383a30302e00000000000000000000000000602082015250565b600061380a603383612ec2565b9150613815826137ae565b604082019050919050565b60006020820190508181036000830152613839816137fd565b9050919050565b7f4e6f2073652070756564656e2070726f6772616d617220636974617320616e7460008201527f6572696f72657320612065737465206d6f6d656e746f2e000000000000000000602082015250565b600061389c603783612ec2565b91506138a782613840565b604082019050919050565b600060208201905081810360008301526138cb8161388f565b9050919050565b600061ffff82169050919050565b60006138eb826138d2565b91506138f6836138d2565b925082821015613909576139086134c9565b5b828203905092915050565b600061391f82612893565b915061392a83612893565b92508282101561393d5761393c6134c9565b5b828203905092915050565b7f4e6f2068617920687565636f206c696272652070617261206c6120636974612060008201527f656e20656c20686f726172696f20736f6c6963697461646f2e00000000000000602082015250565b60006139a4603983612ec2565b91506139af82613948565b604082019050919050565b600060208201905081810360008301526139d381613997565b9050919050565b7f4e6f20686179206d656469636f7320646973706f6e69626c6573000000000000600082015250565b6000613a10601a83612ec2565b9150613a1b826139da565b602082019050919050565b60006020820190508181036000830152613a3f81613a03565b9050919050565b600081905092915050565b60008190508160005260206000209050919050565b60008154613a73816133d7565b613a7d8186613a46565b94506001821660008114613a985760018114613aa957613adc565b60ff19831686528186019350613adc565b613ab285613a51565b60005b83811015613ad457815481890152600182019150602081019050613ab5565b838801955050505b50505092915050565b6000613af18284613a66565b91508190509291505056fea2646970667358221220ff11951904f057306f43ceca1c102d9efedbfa25de9210529124012c37fa99c664736f6c634300080d0033",
  "immutableReferences": {},
  "source": "// SPDX-License-Identifier: MIT\r\npragma solidity >=0.4.22 <0.9.0;\r\n\r\ncontract HistoriaClinica {\r\n    mapping(string => Paciente) public pacientes;\r\n    Medico[] public medicos;\r\n    Enfermero[] public enfermeros;\r\n     Cita[] private citas;\r\n    Consulta[] private consultas;\r\n\r\n    address public owner;\r\n\r\n    constructor() {\r\n        owner = msg.sender; // el primer usuario en crear el contrato se convierte en el owner o admin\r\n    }\r\n\r\n    enum tipo_consulta {\r\n        urgencias,\r\n        especialidad\r\n    }\r\n    enum tipo_organizacion {\r\n        publica,\r\n        privada\r\n    }\r\n    enum estado_consulta {\r\n        programada,cancelada,cerrada\r\n    }\r\n\r\n    struct Persona {\r\n        address direccionPublica;\r\n        string DNI;\r\n    }\r\n\r\n    struct Paciente {\r\n        Persona datos;\r\n        string centro_sanitario;\r\n        uint medico_asignado;\r\n    }\r\n\r\n    struct Medico {\r\n        Persona datos; //Herencia\r\n        string especialidad;\r\n        string centro_sanitario;\r\n        uint numero_pacientes;\r\n    }\r\n\r\n    struct Enfermero {\r\n        Persona datos; //Herencia\r\n        string especialidad;\r\n        string centro_sanitario;\r\n    }\r\n    \r\n    struct Consulta {\r\n        Paciente paciente;\r\n        Medico medico;\r\n        uint8 hora;\r\n        uint256 fecha;\r\n        string datos_consulta;\r\n        estado_consulta estado;\r\n        tipo_consulta tipo;\r\n    }\r\n\r\n    struct Cita {\r\n        Paciente paciente;\r\n        Medico medico;\r\n        uint fecha;\r\n        uint8 hora;\r\n        string datos_cita;\r\n        tipo_consulta tipoConsulta;\r\n    }\r\n\r\nfunction registrarPaciente(string [2] memory _datos_paciente) public {\r\n    string memory DNI = _datos_paciente[0]; //Almacenamos el DNI temporalmente para mayor comodidad\r\n    Persona memory datosPersonales = Persona({\r\n    direccionPublica: msg.sender,\r\n    DNI: _datos_paciente[0]\r\n});\r\n\r\npacientes[DNI] = Paciente({\r\n    centro_sanitario: _datos_paciente[1],\r\n    datos: datosPersonales, // Asignamos directamente los datosPersonales como parte del paciente\r\n    medico_asignado: 0\r\n});\r\nasignarMedico(DNI);\r\n\r\n}\r\n\r\n    function registrarMedico(address _direccionMedico, string memory _DNI, string memory _especialidad, string memory _centro_sanitario) public {\r\n    require(msg.sender == owner, \"Solo el administrador tiene permisos para ejecutar esta funcion\");\r\n        Persona memory datosPersonales = Persona(_direccionMedico,_DNI);\r\n        medicos.push(Medico({\r\n        centro_sanitario: _centro_sanitario,\r\n        datos:datosPersonales,\r\n        especialidad: _especialidad,\r\n        numero_pacientes:0\r\n    }));\r\n}\r\n\r\n function registrarEnfermero(address _direccionEnfermero ,string memory _DNI, string memory _especialidad, string memory _centro_sanitario) public {\r\n        require(msg.sender == owner, \"Solo el administrador tiene permisos para ejecutar esta funcion\");\r\n        Persona memory datosPersonales = Persona (_direccionEnfermero,_DNI);\r\n        enfermeros.push(Enfermero({\r\n        especialidad: _especialidad,\r\n        centro_sanitario: _centro_sanitario,\r\n        datos : datosPersonales\r\n    }));\r\n\r\n    }\r\n\r\n    function asignarMedico(string memory _DNI) public returns (uint) {\r\n        // Comprobamos si hay mdicos disponibles\r\n         require(medicos.length > 0, \"No hay medicos disponibles\");\r\n        uint i = 0;\r\n        Paciente memory p = pacientes[_DNI]; //Buscamos el indice del paciente por DNI\r\n        string memory nombreCentroSanitario = p.centro_sanitario; // Obtenemos centro sanitario del paciente\r\n        uint indiceMedicoConMenosPacientes; //Posicion del array del medico con menos pacientes\r\n        uint256 minimoPacientes = type(uint256).max;\r\n        while (i < medicos.length) {\r\n            //Comprobamos especialidad, centro sanitario, y obtenemos el mdico con menos pacientes asignados\r\n            if (\r\n                keccak256(bytes(medicos[i].especialidad)) ==\r\n                keccak256(bytes(\"General\")) &&\r\n                keccak256(bytes(medicos[i].especialidad)) ==\r\n                keccak256(bytes(nombreCentroSanitario)) &&\r\n                medicos[i].numero_pacientes < minimoPacientes\r\n            ) {\r\n                minimoPacientes = medicos[i].numero_pacientes;\r\n                indiceMedicoConMenosPacientes = i; //Mdico vlido encontrado\r\n            }\r\n            i++;\r\n        }\r\n        medicos[indiceMedicoConMenosPacientes].numero_pacientes++; //Aumentamos pacientes de ese mdico\r\n        return indiceMedicoConMenosPacientes;\r\n    }\r\n\r\n    \r\n //Paciente pide una cita\r\nfunction solicitarCita(string memory _DNI, uint256 _fecha, uint8 _hora, string memory _datos_consulta, string memory _datos_cita, tipo_consulta _tipoConsulta) public {\r\n    require(pacientes[_DNI].medico_asignado > 0 , \"El paciente no tiene un medico asignado\");\r\n    require(_hora >= 8 && _hora <= 18, \"La clinica solo atiende entre las 8:00 y las 18:00.\");\r\n    require(_fecha >= block.timestamp, \"No se pueden programar citas anteriores a este momento.\");\r\n\r\n    bool huecoLibre = true;\r\n    Paciente memory paciente = pacientes[_DNI];\r\n    Medico memory medico = medicos[paciente.medico_asignado]; //Medico que el paciente tiene asignado\r\n    for (uint i = 0; i < citas.length && citas[i].fecha>block.timestamp; i++) { \r\n        //Comprobamos que sea el medico que tiene asignado el paciente \r\n        if(citas[i].medico.datos.direccionPublica == medico.datos.direccionPublica){ \r\n        //Comprobamos que haya un rango de 15 minutos disponibles despues de la cita\r\n        if (citas[i].fecha == _fecha && citas[i].hora == _hora || citas[i].fecha == _fecha && citas[i].hora > _hora - 15 minutes) {\r\n            huecoLibre = false;\r\n            }\r\n            }\r\n    }\r\n        if (huecoLibre) {\r\n        Cita memory cita = Cita({\r\n            medico: medico,\r\n            paciente: paciente,\r\n            fecha: _fecha,\r\n            hora: _hora,\r\n            datos_cita:_datos_cita,\r\n            tipoConsulta: _tipoConsulta\r\n        });\r\n\r\n        citas[citas.length-1] = cita; //Asignamos la nueva cita\r\n        consultas.push(\r\n        Consulta({\r\n        paciente:paciente,\r\n        medico:medico,\r\n        fecha: _fecha,\r\n        hora:_hora,\r\n        datos_consulta:_datos_consulta,\r\n        estado: estado_consulta.programada,\r\n        tipo: _tipoConsulta\r\n    }));\r\n\r\n    } else {\r\n        revert(\"No hay hueco libre para la cita en el horario solicitado.\");\r\n    }\r\n\r\n}\r\n \r\nfunction atenderConsulta (string memory _DNI, uint _fecha, uint _hora, string memory _datos_consulta) public {\r\n    Paciente memory paciente = pacientes[_DNI];\r\n    require(msg.sender ==  medicos[pacientes[_DNI].medico_asignado].datos.direccionPublica, \"Solo el medico puede atender la consulta\"); \r\n    bool consultaEncontrada = false;\r\n    for(uint i = 0; i < consultas.length; i++) {\r\n        if(consultas[i].fecha == _fecha && consultas[i].hora == _hora && keccak256(bytes(paciente.datos.DNI)) == keccak256(bytes(_DNI))) {\r\n            consultaEncontrada = true;\r\n            consultas[i].datos_consulta = _datos_consulta;\r\n            consultas[i].estado = estado_consulta.cerrada; //consulta cerrada\r\n        }\r\n    }\r\n    require(consultaEncontrada == true, \"No se encontro una consulta programada con los datos especificados\");\r\n}\r\n\r\nfunction modificarCita(uint8 indice, Medico memory _medico, string memory _datos_cita, Paciente memory _paciente, uint _nuevaFecha, uint8 _nuevaHora, tipo_consulta _nuevoTipoConsulta) public {\r\n    require((indice < citas.length) && (msg.sender == _medico.datos.direccionPublica || msg.sender == _paciente.datos.direccionPublica), \"la cita no existe o no hay permisos suficientes\");\r\n    citas[indice].fecha=_nuevaFecha;\r\n    citas[indice].hora=_nuevaHora;\r\n    citas[indice].datos_cita=_datos_cita;\r\n    citas[indice].tipoConsulta = _nuevoTipoConsulta;\r\n}\r\n\r\n//Medico crea consulta\r\nfunction crearConsulta(Consulta memory nuevaConsulta) public {\r\n    consultas.push(nuevaConsulta);\r\n}\r\n}\r\n\r\n",
  "sourcePath": "C:\\Users\\pablo\\OneDrive - Universidad de Castilla-La Mancha\\4\\TFG\\ProyectoHistoriaClinica\\HistoriaClinica\\contracts\\HistoriaClinica.sol",
  "compiler": {
    "name": "solc",
    "version": "0.8.13+commit.abaa5c0e.Emscripten.clang"
  },
  "schemaVersion": "3.4.15",
  "updatedAt": "2023-09-24T18:20:25.513Z",
  "networkType": "ethereum",
  "devdoc": {
    "kind": "dev",
    "methods": {},
    "version": 1
  },
  "userdoc": {
    "kind": "user",
    "methods": {},
    "version": 1
  }
}