{
  "contractName": "HistoriaClinica",
  "abi": [
    {
      "inputs": [],
      "stateMutability": "nonpayable",
      "type": "constructor"
    },
    {
      "inputs": [
        {
          "internalType": "uint256",
          "name": "",
          "type": "uint256"
        }
      ],
      "name": "citas",
      "outputs": [
        {
          "components": [
            {
              "components": [
                {
                  "internalType": "address",
                  "name": "direccionPublica",
                  "type": "address"
                },
                {
                  "internalType": "string",
                  "name": "DNI",
                  "type": "string"
                }
              ],
              "internalType": "struct HistoriaClinica.Persona",
              "name": "datos",
              "type": "tuple"
            },
            {
              "internalType": "string",
              "name": "centro_sanitario",
              "type": "string"
            },
            {
              "internalType": "uint64",
              "name": "medico_asignado",
              "type": "uint64"
            },
            {
              "internalType": "string",
              "name": "datos_paciente",
              "type": "string"
            }
          ],
          "internalType": "struct HistoriaClinica.Paciente",
          "name": "paciente",
          "type": "tuple"
        },
        {
          "components": [
            {
              "components": [
                {
                  "internalType": "address",
                  "name": "direccionPublica",
                  "type": "address"
                },
                {
                  "internalType": "string",
                  "name": "DNI",
                  "type": "string"
                }
              ],
              "internalType": "struct HistoriaClinica.Persona",
              "name": "datos",
              "type": "tuple"
            },
            {
              "internalType": "string",
              "name": "especialidad",
              "type": "string"
            },
            {
              "internalType": "string",
              "name": "centro_sanitario",
              "type": "string"
            },
            {
              "internalType": "uint64",
              "name": "numero_pacientes",
              "type": "uint64"
            }
          ],
          "internalType": "struct HistoriaClinica.Medico",
          "name": "medico",
          "type": "tuple"
        },
        {
          "internalType": "uint256",
          "name": "fecha",
          "type": "uint256"
        },
        {
          "internalType": "uint8",
          "name": "hora",
          "type": "uint8"
        },
        {
          "internalType": "string",
          "name": "datos_cita",
          "type": "string"
        },
        {
          "internalType": "enum HistoriaClinica.tipo_consulta",
          "name": "tipoConsulta",
          "type": "uint8"
        }
      ],
      "stateMutability": "view",
      "type": "function",
      "constant": true
    },
    {
      "inputs": [
        {
          "internalType": "uint256",
          "name": "",
          "type": "uint256"
        }
      ],
      "name": "consultas",
      "outputs": [
        {
          "components": [
            {
              "components": [
                {
                  "internalType": "address",
                  "name": "direccionPublica",
                  "type": "address"
                },
                {
                  "internalType": "string",
                  "name": "DNI",
                  "type": "string"
                }
              ],
              "internalType": "struct HistoriaClinica.Persona",
              "name": "datos",
              "type": "tuple"
            },
            {
              "internalType": "string",
              "name": "centro_sanitario",
              "type": "string"
            },
            {
              "internalType": "uint64",
              "name": "medico_asignado",
              "type": "uint64"
            },
            {
              "internalType": "string",
              "name": "datos_paciente",
              "type": "string"
            }
          ],
          "internalType": "struct HistoriaClinica.Paciente",
          "name": "paciente",
          "type": "tuple"
        },
        {
          "components": [
            {
              "components": [
                {
                  "internalType": "address",
                  "name": "direccionPublica",
                  "type": "address"
                },
                {
                  "internalType": "string",
                  "name": "DNI",
                  "type": "string"
                }
              ],
              "internalType": "struct HistoriaClinica.Persona",
              "name": "datos",
              "type": "tuple"
            },
            {
              "internalType": "string",
              "name": "especialidad",
              "type": "string"
            },
            {
              "internalType": "string",
              "name": "centro_sanitario",
              "type": "string"
            },
            {
              "internalType": "uint64",
              "name": "numero_pacientes",
              "type": "uint64"
            }
          ],
          "internalType": "struct HistoriaClinica.Medico",
          "name": "medico",
          "type": "tuple"
        },
        {
          "internalType": "uint8",
          "name": "hora",
          "type": "uint8"
        },
        {
          "internalType": "uint256",
          "name": "fecha",
          "type": "uint256"
        },
        {
          "internalType": "string",
          "name": "datos_consulta",
          "type": "string"
        },
        {
          "internalType": "enum HistoriaClinica.estado_consulta",
          "name": "estado",
          "type": "uint8"
        },
        {
          "internalType": "enum HistoriaClinica.tipo_consulta",
          "name": "tipo",
          "type": "uint8"
        }
      ],
      "stateMutability": "view",
      "type": "function",
      "constant": true
    },
    {
      "inputs": [
        {
          "internalType": "uint256",
          "name": "",
          "type": "uint256"
        }
      ],
      "name": "enfermeros",
      "outputs": [
        {
          "components": [
            {
              "internalType": "address",
              "name": "direccionPublica",
              "type": "address"
            },
            {
              "internalType": "string",
              "name": "DNI",
              "type": "string"
            }
          ],
          "internalType": "struct HistoriaClinica.Persona",
          "name": "datos",
          "type": "tuple"
        },
        {
          "internalType": "string",
          "name": "especialidad",
          "type": "string"
        },
        {
          "internalType": "string",
          "name": "centro_sanitario",
          "type": "string"
        }
      ],
      "stateMutability": "view",
      "type": "function",
      "constant": true
    },
    {
      "inputs": [
        {
          "internalType": "uint256",
          "name": "",
          "type": "uint256"
        }
      ],
      "name": "medicos",
      "outputs": [
        {
          "components": [
            {
              "internalType": "address",
              "name": "direccionPublica",
              "type": "address"
            },
            {
              "internalType": "string",
              "name": "DNI",
              "type": "string"
            }
          ],
          "internalType": "struct HistoriaClinica.Persona",
          "name": "datos",
          "type": "tuple"
        },
        {
          "internalType": "string",
          "name": "especialidad",
          "type": "string"
        },
        {
          "internalType": "string",
          "name": "centro_sanitario",
          "type": "string"
        },
        {
          "internalType": "uint64",
          "name": "numero_pacientes",
          "type": "uint64"
        }
      ],
      "stateMutability": "view",
      "type": "function",
      "constant": true
    },
    {
      "inputs": [],
      "name": "owner",
      "outputs": [
        {
          "internalType": "address",
          "name": "",
          "type": "address"
        }
      ],
      "stateMutability": "view",
      "type": "function",
      "constant": true
    },
    {
      "inputs": [
        {
          "internalType": "string",
          "name": "",
          "type": "string"
        }
      ],
      "name": "pacientes",
      "outputs": [
        {
          "components": [
            {
              "internalType": "address",
              "name": "direccionPublica",
              "type": "address"
            },
            {
              "internalType": "string",
              "name": "DNI",
              "type": "string"
            }
          ],
          "internalType": "struct HistoriaClinica.Persona",
          "name": "datos",
          "type": "tuple"
        },
        {
          "internalType": "string",
          "name": "centro_sanitario",
          "type": "string"
        },
        {
          "internalType": "uint64",
          "name": "medico_asignado",
          "type": "uint64"
        },
        {
          "internalType": "string",
          "name": "datos_paciente",
          "type": "string"
        }
      ],
      "stateMutability": "view",
      "type": "function",
      "constant": true
    },
    {
      "inputs": [
        {
          "internalType": "string",
          "name": "_DNI",
          "type": "string"
        },
        {
          "internalType": "string",
          "name": "_centroSanitario",
          "type": "string"
        },
        {
          "internalType": "string",
          "name": "_datosPaciente",
          "type": "string"
        }
      ],
      "name": "registrarPaciente",
      "outputs": [],
      "stateMutability": "nonpayable",
      "type": "function"
    },
    {
      "inputs": [
        {
          "internalType": "address",
          "name": "_direccionMedico",
          "type": "address"
        },
        {
          "internalType": "string",
          "name": "_DNI",
          "type": "string"
        },
        {
          "internalType": "string",
          "name": "_especialidad",
          "type": "string"
        },
        {
          "internalType": "string",
          "name": "_centro_sanitario",
          "type": "string"
        }
      ],
      "name": "registrarMedico",
      "outputs": [],
      "stateMutability": "nonpayable",
      "type": "function"
    },
    {
      "inputs": [
        {
          "internalType": "address",
          "name": "_direccionEnfermero",
          "type": "address"
        },
        {
          "internalType": "string",
          "name": "_DNI",
          "type": "string"
        },
        {
          "internalType": "string",
          "name": "_especialidad",
          "type": "string"
        },
        {
          "internalType": "string",
          "name": "_centro_sanitario",
          "type": "string"
        }
      ],
      "name": "registrarEnfermero",
      "outputs": [],
      "stateMutability": "nonpayable",
      "type": "function"
    },
    {
      "inputs": [
        {
          "internalType": "string",
          "name": "_DNI",
          "type": "string"
        }
      ],
      "name": "asignarMedico",
      "outputs": [
        {
          "internalType": "uint64",
          "name": "",
          "type": "uint64"
        }
      ],
      "stateMutability": "nonpayable",
      "type": "function"
    },
    {
      "inputs": [
        {
          "internalType": "string",
          "name": "_DNI",
          "type": "string"
        },
        {
          "internalType": "uint256",
          "name": "_fecha",
          "type": "uint256"
        },
        {
          "internalType": "uint8",
          "name": "_hora",
          "type": "uint8"
        },
        {
          "internalType": "string",
          "name": "_datos_cita",
          "type": "string"
        },
        {
          "internalType": "enum HistoriaClinica.tipo_consulta",
          "name": "_tipoConsulta",
          "type": "uint8"
        }
      ],
      "name": "solicitarCita",
      "outputs": [],
      "stateMutability": "nonpayable",
      "type": "function"
    },
    {
      "inputs": [
        {
          "internalType": "string",
          "name": "_DNI",
          "type": "string"
        },
        {
          "internalType": "uint256",
          "name": "_fecha",
          "type": "uint256"
        },
        {
          "internalType": "uint8",
          "name": "_hora",
          "type": "uint8"
        },
        {
          "internalType": "string",
          "name": "_datos_consulta",
          "type": "string"
        }
      ],
      "name": "atenderConsulta",
      "outputs": [],
      "stateMutability": "nonpayable",
      "type": "function"
    },
    {
      "inputs": [
        {
          "internalType": "uint64",
          "name": "indice",
          "type": "uint64"
        },
        {
          "internalType": "string",
          "name": "_datos_cita",
          "type": "string"
        },
        {
          "components": [
            {
              "components": [
                {
                  "internalType": "address",
                  "name": "direccionPublica",
                  "type": "address"
                },
                {
                  "internalType": "string",
                  "name": "DNI",
                  "type": "string"
                }
              ],
              "internalType": "struct HistoriaClinica.Persona",
              "name": "datos",
              "type": "tuple"
            },
            {
              "internalType": "string",
              "name": "centro_sanitario",
              "type": "string"
            },
            {
              "internalType": "uint64",
              "name": "medico_asignado",
              "type": "uint64"
            },
            {
              "internalType": "string",
              "name": "datos_paciente",
              "type": "string"
            }
          ],
          "internalType": "struct HistoriaClinica.Paciente",
          "name": "_paciente",
          "type": "tuple"
        },
        {
          "internalType": "uint256",
          "name": "_nuevaFecha",
          "type": "uint256"
        },
        {
          "internalType": "uint8",
          "name": "_nuevaHora",
          "type": "uint8"
        },
        {
          "internalType": "enum HistoriaClinica.tipo_consulta",
          "name": "_nuevoTipoConsulta",
          "type": "uint8"
        }
      ],
      "name": "modificarCita",
      "outputs": [],
      "stateMutability": "nonpayable",
      "type": "function"
    },
    {
      "inputs": [],
      "name": "obtenerCitas",
      "outputs": [
        {
          "components": [
            {
              "components": [
                {
                  "components": [
                    {
                      "internalType": "address",
                      "name": "direccionPublica",
                      "type": "address"
                    },
                    {
                      "internalType": "string",
                      "name": "DNI",
                      "type": "string"
                    }
                  ],
                  "internalType": "struct HistoriaClinica.Persona",
                  "name": "datos",
                  "type": "tuple"
                },
                {
                  "internalType": "string",
                  "name": "centro_sanitario",
                  "type": "string"
                },
                {
                  "internalType": "uint64",
                  "name": "medico_asignado",
                  "type": "uint64"
                },
                {
                  "internalType": "string",
                  "name": "datos_paciente",
                  "type": "string"
                }
              ],
              "internalType": "struct HistoriaClinica.Paciente",
              "name": "paciente",
              "type": "tuple"
            },
            {
              "components": [
                {
                  "components": [
                    {
                      "internalType": "address",
                      "name": "direccionPublica",
                      "type": "address"
                    },
                    {
                      "internalType": "string",
                      "name": "DNI",
                      "type": "string"
                    }
                  ],
                  "internalType": "struct HistoriaClinica.Persona",
                  "name": "datos",
                  "type": "tuple"
                },
                {
                  "internalType": "string",
                  "name": "especialidad",
                  "type": "string"
                },
                {
                  "internalType": "string",
                  "name": "centro_sanitario",
                  "type": "string"
                },
                {
                  "internalType": "uint64",
                  "name": "numero_pacientes",
                  "type": "uint64"
                }
              ],
              "internalType": "struct HistoriaClinica.Medico",
              "name": "medico",
              "type": "tuple"
            },
            {
              "internalType": "uint256",
              "name": "fecha",
              "type": "uint256"
            },
            {
              "internalType": "uint8",
              "name": "hora",
              "type": "uint8"
            },
            {
              "internalType": "string",
              "name": "datos_cita",
              "type": "string"
            },
            {
              "internalType": "enum HistoriaClinica.tipo_consulta",
              "name": "tipoConsulta",
              "type": "uint8"
            }
          ],
          "internalType": "struct HistoriaClinica.Cita[]",
          "name": "",
          "type": "tuple[]"
        }
      ],
      "stateMutability": "view",
      "type": "function",
      "constant": true
    },
    {
      "inputs": [],
      "name": "obtenerConsultas",
      "outputs": [
        {
          "components": [
            {
              "components": [
                {
                  "components": [
                    {
                      "internalType": "address",
                      "name": "direccionPublica",
                      "type": "address"
                    },
                    {
                      "internalType": "string",
                      "name": "DNI",
                      "type": "string"
                    }
                  ],
                  "internalType": "struct HistoriaClinica.Persona",
                  "name": "datos",
                  "type": "tuple"
                },
                {
                  "internalType": "string",
                  "name": "centro_sanitario",
                  "type": "string"
                },
                {
                  "internalType": "uint64",
                  "name": "medico_asignado",
                  "type": "uint64"
                },
                {
                  "internalType": "string",
                  "name": "datos_paciente",
                  "type": "string"
                }
              ],
              "internalType": "struct HistoriaClinica.Paciente",
              "name": "paciente",
              "type": "tuple"
            },
            {
              "components": [
                {
                  "components": [
                    {
                      "internalType": "address",
                      "name": "direccionPublica",
                      "type": "address"
                    },
                    {
                      "internalType": "string",
                      "name": "DNI",
                      "type": "string"
                    }
                  ],
                  "internalType": "struct HistoriaClinica.Persona",
                  "name": "datos",
                  "type": "tuple"
                },
                {
                  "internalType": "string",
                  "name": "especialidad",
                  "type": "string"
                },
                {
                  "internalType": "string",
                  "name": "centro_sanitario",
                  "type": "string"
                },
                {
                  "internalType": "uint64",
                  "name": "numero_pacientes",
                  "type": "uint64"
                }
              ],
              "internalType": "struct HistoriaClinica.Medico",
              "name": "medico",
              "type": "tuple"
            },
            {
              "internalType": "uint8",
              "name": "hora",
              "type": "uint8"
            },
            {
              "internalType": "uint256",
              "name": "fecha",
              "type": "uint256"
            },
            {
              "internalType": "string",
              "name": "datos_consulta",
              "type": "string"
            },
            {
              "internalType": "enum HistoriaClinica.estado_consulta",
              "name": "estado",
              "type": "uint8"
            },
            {
              "internalType": "enum HistoriaClinica.tipo_consulta",
              "name": "tipo",
              "type": "uint8"
            }
          ],
          "internalType": "struct HistoriaClinica.Consulta[]",
          "name": "",
          "type": "tuple[]"
        }
      ],
      "stateMutability": "view",
      "type": "function",
      "constant": true
    },
    {
      "inputs": [
        {
          "internalType": "string",
          "name": "_DNI",
          "type": "string"
        }
      ],
      "name": "obtenerDatosPaciente",
      "outputs": [
        {
          "components": [
            {
              "components": [
                {
                  "internalType": "address",
                  "name": "direccionPublica",
                  "type": "address"
                },
                {
                  "internalType": "string",
                  "name": "DNI",
                  "type": "string"
                }
              ],
              "internalType": "struct HistoriaClinica.Persona",
              "name": "datos",
              "type": "tuple"
            },
            {
              "internalType": "string",
              "name": "centro_sanitario",
              "type": "string"
            },
            {
              "internalType": "uint64",
              "name": "medico_asignado",
              "type": "uint64"
            },
            {
              "internalType": "string",
              "name": "datos_paciente",
              "type": "string"
            }
          ],
          "internalType": "struct HistoriaClinica.Paciente",
          "name": "",
          "type": "tuple"
        }
      ],
      "stateMutability": "view",
      "type": "function",
      "constant": true
    }
  ],
  "bytecode": "0x608060405234801561001057600080fd5b50600580546001600160a01b03191633179055614d1b806100326000396000f3fe608060405234801561001057600080fd5b50600436106101005760003560e01c8063c90df63911610097578063db8a982011610066578063db8a982014610250578063de67678114610272578063f125910814610285578063f6652a67146102b157600080fd5b8063c90df639146101f5578063ca1cde8f1461020a578063cbcc336d1461021d578063cdafc91a1461023057600080fd5b806366422b7d116100d357806366422b7d1461017c5780637513e79c146101915780638da5cb5b146101b7578063c48ce02b146101e257600080fd5b80632c1a929d146101055780633550242f1461013157806340baea2a1461014657806352509b8d14610159575b600080fd5b610118610113366004614074565b6102d6565b6040516101289493929190614137565b60405180910390f35b61014461013f3660046142ce565b6104db565b005b610144610154366004614378565b610672565b61016c6101673660046143c7565b610b5c565b60405161012894939291906143fc565b610184610d62565b6040516101289190614571565b6101a461019f366004614074565b6112db565b6040516101289796959493929190614671565b6005546101ca906001600160a01b031681565b6040516001600160a01b039091168152602001610128565b6101446101f0366004614709565b6117b4565b6101fd611c9a565b604051610128919061486f565b61014461021836600461494e565b6121d1565b61014461022b3660046149d6565b612369565b61024361023e3660046143c7565b612f5d565b6040516101289190614a65565b61026361025e366004614074565b6131b2565b60405161012893929190614a7f565b6101446102803660046142ce565b6133a7565b6102986102933660046143c7565b613566565b60405167ffffffffffffffff9091168152602001610128565b6102c46102bf366004614074565b613b0b565b60405161012896959493929190614ac2565b600181815481106102e657600080fd5b60009182526020918290206040805180820190915260059092020180546001600160a01b03168252600181018054919450919284929084019161032890614b1a565b80601f016020809104026020016040519081016040528092919081815260200182805461035490614b1a565b80156103a15780601f10610376576101008083540402835291602001916103a1565b820191906000526020600020905b81548152906001019060200180831161038457829003601f168201915b505050505081525050908060020180546103ba90614b1a565b80601f01602080910402602001604051908101604052809291908181526020018280546103e690614b1a565b80156104335780601f1061040857610100808354040283529160200191610433565b820191906000526020600020905b81548152906001019060200180831161041657829003601f168201915b50505050509080600301805461044890614b1a565b80601f016020809104026020016040519081016040528092919081815260200182805461047490614b1a565b80156104c15780601f10610496576101008083540402835291602001916104c1565b820191906000526020600020905b8154815290600101906020018083116104a457829003601f168201915b5050506004909301549192505067ffffffffffffffff1684565b6005546001600160a01b031633146105605760405162461bcd60e51b815260206004820152603f60248201527f536f6c6f20656c2061646d696e6973747261646f72207469656e65207065726d60448201527f69736f73207061726120656a65637574617220657374612066756e63696f6e0060648201526084015b60405180910390fd5b6040805180820182526001600160a01b0386811682526020808301879052835160608101855283815280820187905293840185905260028054600181018255600091909152845180517f405787fa12a823e0f2b7631cc41b3ba8828b3321ca811111fa75cd3aa3bb5ace6004909302928301805473ffffffffffffffffffffffffffffffffffffffff19169190951617845580830151805195969591938593610631937f405787fa12a823e0f2b7631cc41b3ba8828b3321ca811111fa75cd3aa3bb5acf9091019290910190613fdb565b505050602082810151805161064c9260028501920190613fdb565b5060408201518051610668916003840191602090910190613fdb565b5050505050505050565b600080856040516106839190614b6d565b9081526040805191829003602001822060c0830190915280546001600160a01b031660808301908152600182018054849291849160a0850191906106c690614b1a565b80601f01602080910402602001604051908101604052809291908181526020018280546106f290614b1a565b801561073f5780601f106107145761010080835404028352916020019161073f565b820191906000526020600020905b81548152906001019060200180831161072257829003601f168201915b505050505081525050815260200160028201805461075c90614b1a565b80601f016020809104026020016040519081016040528092919081815260200182805461078890614b1a565b80156107d55780601f106107aa576101008083540402835291602001916107d5565b820191906000526020600020905b8154815290600101906020018083116107b857829003601f168201915b5050509183525050600382015467ffffffffffffffff16602082015260048201805460409092019161080690614b1a565b80601f016020809104026020016040519081016040528092919081815260200182805461083290614b1a565b801561087f5780601f106108545761010080835404028352916020019161087f565b820191906000526020600020905b81548152906001019060200180831161086257829003601f168201915b5050505050815250509050600160008660405161089c9190614b6d565b90815260405190819003602001902060030154815467ffffffffffffffff9091169081106108cc576108cc614b89565b60009182526020909120600590910201546001600160a01b0316331461095a5760405162461bcd60e51b815260206004820152602860248201527f536f6c6f20656c206d656469636f207075656465206174656e646572206c612060448201527f636f6e73756c74610000000000000000000000000000000000000000000000006064820152608401610557565b6000805b60045467ffffffffffffffff82161015610ab5578560048267ffffffffffffffff168154811061099057610990614b89565b90600052602060002090600e0201600b01541480156109e457508460ff1660048267ffffffffffffffff16815481106109cb576109cb614b89565b60009182526020909120600a600e90920201015460ff16145b8015610a055750868051906020012083600001516020015180519060200120145b15610aa357600191508360048267ffffffffffffffff1681548110610a2c57610a2c614b89565b90600052602060002090600e0201600c019080519060200190610a50929190613fdb565b50600260048267ffffffffffffffff1681548110610a7057610a70614b89565b60009182526020909120600d600e9092020101805460ff19166001836002811115610a9d57610a9d61451e565b02179055505b80610aad81614be7565b91505061095e565b50600181151514610b545760405162461bcd60e51b815260206004820152604260248201527f4e6f20736520656e636f6e74726f20756e6120636f6e73756c74612070726f6760448201527f72616d61646120636f6e206c6f73206461746f7320657370656369666963616460648201527f6f73000000000000000000000000000000000000000000000000000000000000608482015260a401610557565b505050505050565b80516020818301810180516000825292820193820193909320919092526040805180820190915281546001600160a01b0316815260018201805492939192849284019190610ba990614b1a565b80601f0160208091040260200160405190810160405280929190818152602001828054610bd590614b1a565b8015610c225780601f10610bf757610100808354040283529160200191610c22565b820191906000526020600020905b815481529060010190602001808311610c0557829003601f168201915b50505050508152505090806002018054610c3b90614b1a565b80601f0160208091040260200160405190810160405280929190818152602001828054610c6790614b1a565b8015610cb45780601f10610c8957610100808354040283529160200191610cb4565b820191906000526020600020905b815481529060010190602001808311610c9757829003601f168201915b5050506003840154600485018054949567ffffffffffffffff909216949193509150610cdf90614b1a565b80601f0160208091040260200160405190810160405280929190818152602001828054610d0b90614b1a565b8015610d585780601f10610d2d57610100808354040283529160200191610d58565b820191906000526020600020905b815481529060010190602001808311610d3b57829003601f168201915b5050505050905084565b60606004805480602002602001604051908101604052809291908181526020016000905b828210156112d257600084815260209020604080516101a08101909152600e840290910180546001600160a01b03166101608301908152600182018054849260e08401928592849291849161018088019190610de190614b1a565b80601f0160208091040260200160405190810160405280929190818152602001828054610e0d90614b1a565b8015610e5a5780601f10610e2f57610100808354040283529160200191610e5a565b820191906000526020600020905b815481529060010190602001808311610e3d57829003601f168201915b5050505050815250508152602001600282018054610e7790614b1a565b80601f0160208091040260200160405190810160405280929190818152602001828054610ea390614b1a565b8015610ef05780601f10610ec557610100808354040283529160200191610ef0565b820191906000526020600020905b815481529060010190602001808311610ed357829003601f168201915b5050509183525050600382015467ffffffffffffffff166020820152600482018054604090920191610f2190614b1a565b80601f0160208091040260200160405190810160405280929190818152602001828054610f4d90614b1a565b8015610f9a5780601f10610f6f57610100808354040283529160200191610f9a565b820191906000526020600020905b815481529060010190602001808311610f7d57829003601f168201915b5050509190925250505081526040805160c081019091526005830180546001600160a01b031660808301908152600685018054602090950194849291849160a085019190610fe790614b1a565b80601f016020809104026020016040519081016040528092919081815260200182805461101390614b1a565b80156110605780601f1061103557610100808354040283529160200191611060565b820191906000526020600020905b81548152906001019060200180831161104357829003601f168201915b505050505081525050815260200160028201805461107d90614b1a565b80601f01602080910402602001604051908101604052809291908181526020018280546110a990614b1a565b80156110f65780601f106110cb576101008083540402835291602001916110f6565b820191906000526020600020905b8154815290600101906020018083116110d957829003601f168201915b5050505050815260200160038201805461110f90614b1a565b80601f016020809104026020016040519081016040528092919081815260200182805461113b90614b1a565b80156111885780601f1061115d57610100808354040283529160200191611188565b820191906000526020600020905b81548152906001019060200180831161116b57829003601f168201915b50505091835250506004919091015467ffffffffffffffff16602091820152908252600a83015460ff1690820152600b8201546040820152600c820180546060909201916111d590614b1a565b80601f016020809104026020016040519081016040528092919081815260200182805461120190614b1a565b801561124e5780601f106112235761010080835404028352916020019161124e565b820191906000526020600020905b81548152906001019060200180831161123157829003601f168201915b5050509183525050600d82015460209091019060ff1660028111156112755761127561451e565b60028111156112865761128661451e565b8152602001600d820160019054906101000a900460ff1660018111156112ae576112ae61451e565b60018111156112bf576112bf61451e565b8152505081526020019060010190610d86565b50505050905090565b600481815481106112eb57600080fd5b600091825260209091206040805160c08101909152600e9092020180546001600160a01b0316608083019081526001820180549294508492849291849160a08501919061133790614b1a565b80601f016020809104026020016040519081016040528092919081815260200182805461136390614b1a565b80156113b05780601f10611385576101008083540402835291602001916113b0565b820191906000526020600020905b81548152906001019060200180831161139357829003601f168201915b50505050508152505081526020016002820180546113cd90614b1a565b80601f01602080910402602001604051908101604052809291908181526020018280546113f990614b1a565b80156114465780601f1061141b57610100808354040283529160200191611446565b820191906000526020600020905b81548152906001019060200180831161142957829003601f168201915b5050509183525050600382015467ffffffffffffffff16602082015260048201805460409092019161147790614b1a565b80601f01602080910402602001604051908101604052809291908181526020018280546114a390614b1a565b80156114f05780601f106114c5576101008083540402835291602001916114f0565b820191906000526020600020905b8154815290600101906020018083116114d357829003601f168201915b5050509190925250506040805160c081019091526005840180546001600160a01b03166080830190815260068601805495969593945091928492849160a08501919061153b90614b1a565b80601f016020809104026020016040519081016040528092919081815260200182805461156790614b1a565b80156115b45780601f10611589576101008083540402835291602001916115b4565b820191906000526020600020905b81548152906001019060200180831161159757829003601f168201915b50505050508152505081526020016002820180546115d190614b1a565b80601f01602080910402602001604051908101604052809291908181526020018280546115fd90614b1a565b801561164a5780601f1061161f5761010080835404028352916020019161164a565b820191906000526020600020905b81548152906001019060200180831161162d57829003601f168201915b5050505050815260200160038201805461166390614b1a565b80601f016020809104026020016040519081016040528092919081815260200182805461168f90614b1a565b80156116dc5780601f106116b1576101008083540402835291602001916116dc565b820191906000526020600020905b8154815290600101906020018083116116bf57829003601f168201915b50505091835250506004919091015467ffffffffffffffff16602090910152600a820154600b830154600c84018054939460ff9093169391929161171f90614b1a565b80601f016020809104026020016040519081016040528092919081815260200182805461174b90614b1a565b80156117985780601f1061176d57610100808354040283529160200191611798565b820191906000526020600020905b81548152906001019060200180831161177b57829003601f168201915b505050600d909301549192505060ff8082169161010090041687565b60035467ffffffffffffffff871610801561181c57506001846040015167ffffffffffffffff16815481106117eb576117eb614b89565b60009182526020909120600590910201546001600160a01b031633148061181c57508351516001600160a01b031633145b61188e5760405162461bcd60e51b815260206004820152602f60248201527f6c612063697461206e6f20657869737465206f206e6f20686179207065726d6960448201527f736f7320737566696369656e74657300000000000000000000000000000000006064820152608401610557565b428310156119045760405162461bcd60e51b815260206004820152603760248201527f4e6f2073652070756564656e2070726f6772616d617220636974617320616e7460448201527f6572696f72657320612065737465206d6f6d656e746f2e0000000000000000006064820152608401610557565b60005b60045467ffffffffffffffff82161015611b855760038767ffffffffffffffff168154811061193857611938614b89565b90600052602060002090600e0201600a015460048267ffffffffffffffff168154811061196757611967614b89565b90600052602060002090600e0201600b01541480156119ef575060038767ffffffffffffffff168154811061199e5761199e614b89565b60009182526020909120600b600e9092020101546004805460ff9092169167ffffffffffffffff84169081106119d6576119d6614b89565b60009182526020909120600a600e90920201015460ff16145b8015611a5157508460000151602001518051906020012060048267ffffffffffffffff1681548110611a2357611a23614b89565b90600052602060002090600e0201600001600001600101604051611a479190614c0e565b6040518091039020145b15611b73578360048267ffffffffffffffff1681548110611a7457611a74614b89565b90600052602060002090600e0201600b01819055508260048267ffffffffffffffff1681548110611aa757611aa7614b89565b90600052602060002090600e0201600a0160006101000a81548160ff021916908360ff1602179055508360048267ffffffffffffffff1681548110611aee57611aee614b89565b90600052602060002090600e0201600b01819055508160048267ffffffffffffffff1681548110611b2157611b21614b89565b60009182526020909120600d600e909202010180547fffffffffffffffffffffffffffffffffffffffffffffffffffffffffffff00ff16610100836001811115611b6d57611b6d61451e565b02179055505b80611b7d81614be7565b915050611907565b508260038767ffffffffffffffff1681548110611ba457611ba4614b89565b90600052602060002090600e0201600a01819055508160038767ffffffffffffffff1681548110611bd757611bd7614b89565b90600052602060002090600e0201600b0160006101000a81548160ff021916908360ff1602179055508460038767ffffffffffffffff1681548110611c1e57611c1e614b89565b90600052602060002090600e0201600c019080519060200190611c42929190613fdb565b508060038767ffffffffffffffff1681548110611c6157611c61614b89565b60009182526020909120600d600e9092020101805460ff191660018381811115611c8d57611c8d61451e565b0217905550505050505050565b60606003805480602002602001604051908101604052809291908181526020016000905b828210156112d257600084815260209020604080516101808101909152600e840290910180546001600160a01b03166101408301908152600182018054849260c08401928592849291849161016088019190611d1990614b1a565b80601f0160208091040260200160405190810160405280929190818152602001828054611d4590614b1a565b8015611d925780601f10611d6757610100808354040283529160200191611d92565b820191906000526020600020905b815481529060010190602001808311611d7557829003601f168201915b5050505050815250508152602001600282018054611daf90614b1a565b80601f0160208091040260200160405190810160405280929190818152602001828054611ddb90614b1a565b8015611e285780601f10611dfd57610100808354040283529160200191611e28565b820191906000526020600020905b815481529060010190602001808311611e0b57829003601f168201915b5050509183525050600382015467ffffffffffffffff166020820152600482018054604090920191611e5990614b1a565b80601f0160208091040260200160405190810160405280929190818152602001828054611e8590614b1a565b8015611ed25780601f10611ea757610100808354040283529160200191611ed2565b820191906000526020600020905b815481529060010190602001808311611eb557829003601f168201915b5050509190925250505081526040805160c081019091526005830180546001600160a01b031660808301908152600685018054602090950194849291849160a085019190611f1f90614b1a565b80601f0160208091040260200160405190810160405280929190818152602001828054611f4b90614b1a565b8015611f985780601f10611f6d57610100808354040283529160200191611f98565b820191906000526020600020905b815481529060010190602001808311611f7b57829003601f168201915b5050505050815250508152602001600282018054611fb590614b1a565b80601f0160208091040260200160405190810160405280929190818152602001828054611fe190614b1a565b801561202e5780601f106120035761010080835404028352916020019161202e565b820191906000526020600020905b81548152906001019060200180831161201157829003601f168201915b5050505050815260200160038201805461204790614b1a565b80601f016020809104026020016040519081016040528092919081815260200182805461207390614b1a565b80156120c05780601f10612095576101008083540402835291602001916120c0565b820191906000526020600020905b8154815290600101906020018083116120a357829003601f168201915b50505091835250506004919091015467ffffffffffffffff16602091820152908252600a83015490820152600b82015460ff166040820152600c8201805460609092019161210d90614b1a565b80601f016020809104026020016040519081016040528092919081815260200182805461213990614b1a565b80156121865780601f1061215b57610100808354040283529160200191612186565b820191906000526020600020905b81548152906001019060200180831161216957829003601f168201915b5050509183525050600d82015460209091019060ff1660018111156121ad576121ad61451e565b60018111156121be576121be61451e565b8152505081526020019060010190611cbe565b60006001600160a01b03166000846040516121ec9190614b6d565b908152604051908190036020019020546001600160a01b0316146122525760405162461bcd60e51b815260206004820181905260248201527f457374652070616369656e74652079612065737461207265676973747261646f6044820152606401610557565b6040805180820182523381526020808201869052825160808101845282815290810185905267ffffffffffffffff8184015260608101849052915190919060009061229e908790614b6d565b9081526040516020918190038201902082518051825473ffffffffffffffffffffffffffffffffffffffff19166001600160a01b039091161782558083015180519293919284926122f6926001850192910190613fdb565b50505060208281015180516123119260028501920190613fdb565b50604082015160038201805467ffffffffffffffff191667ffffffffffffffff90921691909117905560608201518051612355916004840191602090910190613fdb565b5090505061236284613566565b5050505050565b67ffffffffffffffff80166000866040516123849190614b6d565b9081526040519081900360200190206003015467ffffffffffffffff16106124145760405162461bcd60e51b815260206004820152602760248201527f456c2070616369656e7465206e6f207469656e6520756e206d656469636f206160448201527f7369676e61646f000000000000000000000000000000000000000000000000006064820152608401610557565b4284101561248a5760405162461bcd60e51b815260206004820152603760248201527f4e6f2073652070756564656e2070726f6772616d617220636974617320616e7460448201527f6572696f72657320612065737465206d6f6d656e746f2e0000000000000000006064820152608401610557565b600060019050600080876040516124a19190614b6d565b9081526040805191829003602001822060c0830190915280546001600160a01b031660808301908152600182018054849291849160a0850191906124e490614b1a565b80601f016020809104026020016040519081016040528092919081815260200182805461251090614b1a565b801561255d5780601f106125325761010080835404028352916020019161255d565b820191906000526020600020905b81548152906001019060200180831161254057829003601f168201915b505050505081525050815260200160028201805461257a90614b1a565b80601f01602080910402602001604051908101604052809291908181526020018280546125a690614b1a565b80156125f35780601f106125c8576101008083540402835291602001916125f3565b820191906000526020600020905b8154815290600101906020018083116125d657829003601f168201915b5050509183525050600382015467ffffffffffffffff16602082015260048201805460409092019161262490614b1a565b80601f016020809104026020016040519081016040528092919081815260200182805461265090614b1a565b801561269d5780601f106126725761010080835404028352916020019161269d565b820191906000526020600020905b81548152906001019060200180831161268057829003601f168201915b505050505081525050905060006001826040015167ffffffffffffffff16815481106126cb576126cb614b89565b600091825260209091206040805160c0810190915260059092020180546001600160a01b031660808301908152600182018054849291849160a08501919061271290614b1a565b80601f016020809104026020016040519081016040528092919081815260200182805461273e90614b1a565b801561278b5780601f106127605761010080835404028352916020019161278b565b820191906000526020600020905b81548152906001019060200180831161276e57829003601f168201915b50505050508152505081526020016002820180546127a890614b1a565b80601f01602080910402602001604051908101604052809291908181526020018280546127d490614b1a565b80156128215780601f106127f657610100808354040283529160200191612821565b820191906000526020600020905b81548152906001019060200180831161280457829003601f168201915b5050505050815260200160038201805461283a90614b1a565b80601f016020809104026020016040519081016040528092919081815260200182805461286690614b1a565b80156128b35780601f10612888576101008083540402835291602001916128b3565b820191906000526020600020905b81548152906001019060200180831161289657829003601f168201915b50505091835250506004919091015467ffffffffffffffff16602090910152905060005b60035467ffffffffffffffff821610801561291f57504260038267ffffffffffffffff168154811061290b5761290b614b89565b90600052602060002090600e0201600a0154115b15612a8a578160000151600001516001600160a01b031660038267ffffffffffffffff168154811061295357612953614b89565b600091825260209091206005600e9092020101546001600160a01b031603612a78578760038267ffffffffffffffff168154811061299357612993614b89565b90600052602060002090600e0201600a01541480156129e757508660ff1660038267ffffffffffffffff16815481106129ce576129ce614b89565b60009182526020909120600b600e90920201015460ff16145b80612a6e57508760038267ffffffffffffffff1681548110612a0b57612a0b614b89565b90600052602060002090600e0201600a0154148015612a6e5750612a3461038460ff8916614cc2565b61ffff1660038267ffffffffffffffff1681548110612a5557612a55614b89565b60009182526020909120600b600e90920201015460ff16115b15612a7857600093505b80612a8281614be7565b9150506128d7565b5082156106685760036040518060c001604052808481526020018381526020018981526020018860ff168152602001878152602001866001811115612ad157612ad161451e565b90528154600180820184556000938452602093849020835180518051600e909502909201805473ffffffffffffffffffffffffffffffffffffffff19166001600160a01b0390951694909417845581860151805195969495919486948593612b4193918501929190910190613fdb565b5050506020828101518051612b5c9260028501920190613fdb565b50604082015160038201805467ffffffffffffffff191667ffffffffffffffff90921691909117905560608201518051612ba0916004840191602090910190613fdb565b5050506020828101518051805160058501805473ffffffffffffffffffffffffffffffffffffffff19166001600160a01b03909216919091178155818401518051939491938492612bf8926006890192910190613fdb565b5050506020828101518051612c139260028501920190613fdb565b5060408201518051612c2f916003840191602090910190613fdb565b50606091820151600491909101805467ffffffffffffffff191667ffffffffffffffff9092169190911790556040830151600a830155820151600b8201805460ff191660ff90921691909117905560808201518051612c9891600c840191602090910190613fdb565b5060a0820151600d8201805460ff191660018381811115612cbb57612cbb61451e565b0217905550505060046040518060e001604052808481526020018381526020018860ff16815260200189815260200187815260200160006002811115612d0357612d0361451e565b8152602001866001811115612d1a57612d1a61451e565b90528154600180820184556000938452602093849020835180518051600e909502909201805473ffffffffffffffffffffffffffffffffffffffff19166001600160a01b0390951694909417845581860151805195969495919486948593612d8a93918501929190910190613fdb565b5050506020828101518051612da59260028501920190613fdb565b50604082015160038201805467ffffffffffffffff191667ffffffffffffffff90921691909117905560608201518051612de9916004840191602090910190613fdb565b5050506020828101518051805160058501805473ffffffffffffffffffffffffffffffffffffffff19166001600160a01b03909216919091178155818401518051939491938492612e41926006890192910190613fdb565b5050506020828101518051612e5c9260028501920190613fdb565b5060408201518051612e78916003840191602090910190613fdb565b50606091820151600491909101805467ffffffffffffffff191667ffffffffffffffff9092169190911790556040830151600a8301805460ff191660ff909216919091179055820151600b82015560808201518051612ee191600c840191602090910190613fdb565b5060a0820151600d8201805460ff19166001836002811115612f0557612f0561451e565b021790555060c0820151600d820180547fffffffffffffffffffffffffffffffffffffffffffffffffffffffffffff00ff16610100836001811115612f4c57612f4c61451e565b021790555050505050505050505050565b612f966040805160c08101909152600060808201908152606060a083015281908152606060208201819052600060408301529081015290565b600082604051612fa69190614b6d565b9081526040805191829003602001822060c0830190915280546001600160a01b031660808301908152600182018054849291849160a085019190612fe990614b1a565b80601f016020809104026020016040519081016040528092919081815260200182805461301590614b1a565b80156130625780601f1061303757610100808354040283529160200191613062565b820191906000526020600020905b81548152906001019060200180831161304557829003601f168201915b505050505081525050815260200160028201805461307f90614b1a565b80601f01602080910402602001604051908101604052809291908181526020018280546130ab90614b1a565b80156130f85780601f106130cd576101008083540402835291602001916130f8565b820191906000526020600020905b8154815290600101906020018083116130db57829003601f168201915b5050509183525050600382015467ffffffffffffffff16602082015260048201805460409092019161312990614b1a565b80601f016020809104026020016040519081016040528092919081815260200182805461315590614b1a565b80156131a25780601f10613177576101008083540402835291602001916131a2565b820191906000526020600020905b81548152906001019060200180831161318557829003601f168201915b5050505050815250509050919050565b600281815481106131c257600080fd5b60009182526020918290206040805180820190915260049092020180546001600160a01b03168252600181018054919450919284929084019161320490614b1a565b80601f016020809104026020016040519081016040528092919081815260200182805461323090614b1a565b801561327d5780601f106132525761010080835404028352916020019161327d565b820191906000526020600020905b81548152906001019060200180831161326057829003601f168201915b5050505050815250509080600201805461329690614b1a565b80601f01602080910402602001604051908101604052809291908181526020018280546132c290614b1a565b801561330f5780601f106132e45761010080835404028352916020019161330f565b820191906000526020600020905b8154815290600101906020018083116132f257829003601f168201915b50505050509080600301805461332490614b1a565b80601f016020809104026020016040519081016040528092919081815260200182805461335090614b1a565b801561339d5780601f106133725761010080835404028352916020019161339d565b820191906000526020600020905b81548152906001019060200180831161338057829003601f168201915b5050505050905083565b6005546001600160a01b031633146134275760405162461bcd60e51b815260206004820152603f60248201527f536f6c6f20656c2061646d696e6973747261646f72207469656e65207065726d60448201527f69736f73207061726120656a65637574617220657374612066756e63696f6e006064820152608401610557565b6040805180820182526001600160a01b038681168252602080830187905283516080810185528381528082018790529384018590526000606085018190526001805480820182559152845180517fb10e2d527612073b26eecdfd717e6a320cf44b4afac2b0732d9fcbe2b7fa0cf66005909302928301805473ffffffffffffffffffffffffffffffffffffffff191691909516178455808301518051959695919385936134fc937fb10e2d527612073b26eecdfd717e6a320cf44b4afac2b0732d9fcbe2b7fa0cf79091019290910190613fdb565b50505060208281015180516135179260028501920190613fdb565b5060408201518051613533916003840191602090910190613fdb565b50606091909101516004909101805467ffffffffffffffff191667ffffffffffffffff9092169190911790555050505050565b6001546000906135b85760405162461bcd60e51b815260206004820152601a60248201527f4e6f20686179206d656469636f7320646973706f6e69626c65730000000000006044820152606401610557565b60008080846040516135ca9190614b6d565b9081526040805191829003602001822060c0830190915280546001600160a01b031660808301908152600182018054849291849160a08501919061360d90614b1a565b80601f016020809104026020016040519081016040528092919081815260200182805461363990614b1a565b80156136865780601f1061365b57610100808354040283529160200191613686565b820191906000526020600020905b81548152906001019060200180831161366957829003601f168201915b50505050508152505081526020016002820180546136a390614b1a565b80601f01602080910402602001604051908101604052809291908181526020018280546136cf90614b1a565b801561371c5780601f106136f15761010080835404028352916020019161371c565b820191906000526020600020905b8154815290600101906020018083116136ff57829003601f168201915b5050509183525050600382015467ffffffffffffffff16602082015260048201805460409092019161374d90614b1a565b80601f016020809104026020016040519081016040528092919081815260200182805461377990614b1a565b80156137c65780601f1061379b576101008083540402835291602001916137c6565b820191906000526020600020905b8154815290600101906020018083116137a957829003601f168201915b505050919092525050506020810151909150600067ffffffffffffffff5b60015467ffffffffffffffff861610156139905760408051808201909152600781527f47656e6572616c00000000000000000000000000000000000000000000000000602090910152600180547f5a238724f4923a504a7bc7b1da49b8ad37187664eb292980fef19a3441928b2c919067ffffffffffffffff881690811061386e5761386e614b89565b906000526020600020906005020160020160405161388c9190614c0e565b60405180910390201480156138e95750828051906020012060018667ffffffffffffffff16815481106138c1576138c1614b89565b90600052602060002090600502016003016040516138df9190614c0e565b6040518091039020145b801561393857508067ffffffffffffffff1660018667ffffffffffffffff168154811061391857613918614b89565b600091825260209091206004600590920201015467ffffffffffffffff16105b1561397e5760018567ffffffffffffffff168154811061395a5761395a614b89565b600091825260209091206004600590920201015485925067ffffffffffffffff1690505b8461398881614be7565b9550506137e4565b828051906020012060018367ffffffffffffffff16815481106139b5576139b5614b89565b90600052602060002090600502016003016040516139d39190614c0e565b604051809103902014613a50576040805162461bcd60e51b81526020600482015260248101919091527f456c206d656469636f206e6f2070657274656e65636520616c206d69736d6f2060448201527f63656e74726f2073616e69746172696f2071756520656c2070616369656e74656064820152608401610557565b60018267ffffffffffffffff1681548110613a6d57613a6d614b89565b600091825260208220600460059092020101805467ffffffffffffffff1691613a9583614be7565b91906101000a81548167ffffffffffffffff021916908367ffffffffffffffff1602179055505081600088604051613acd9190614b6d565b908152604051908190036020019020600301805467ffffffffffffffff9290921667ffffffffffffffff199092169190911790555095945050505050565b60038181548110613b1b57600080fd5b600091825260209091206040805160c08101909152600e9092020180546001600160a01b0316608083019081526001820180549294508492849291849160a085019190613b6790614b1a565b80601f0160208091040260200160405190810160405280929190818152602001828054613b9390614b1a565b8015613be05780601f10613bb557610100808354040283529160200191613be0565b820191906000526020600020905b815481529060010190602001808311613bc357829003601f168201915b5050505050815250508152602001600282018054613bfd90614b1a565b80601f0160208091040260200160405190810160405280929190818152602001828054613c2990614b1a565b8015613c765780601f10613c4b57610100808354040283529160200191613c76565b820191906000526020600020905b815481529060010190602001808311613c5957829003601f168201915b5050509183525050600382015467ffffffffffffffff166020820152600482018054604090920191613ca790614b1a565b80601f0160208091040260200160405190810160405280929190818152602001828054613cd390614b1a565b8015613d205780601f10613cf557610100808354040283529160200191613d20565b820191906000526020600020905b815481529060010190602001808311613d0357829003601f168201915b5050509190925250506040805160c081019091526005840180546001600160a01b03166080830190815260068601805495969593945091928492849160a085019190613d6b90614b1a565b80601f0160208091040260200160405190810160405280929190818152602001828054613d9790614b1a565b8015613de45780601f10613db957610100808354040283529160200191613de4565b820191906000526020600020905b815481529060010190602001808311613dc757829003601f168201915b5050505050815250508152602001600282018054613e0190614b1a565b80601f0160208091040260200160405190810160405280929190818152602001828054613e2d90614b1a565b8015613e7a5780601f10613e4f57610100808354040283529160200191613e7a565b820191906000526020600020905b815481529060010190602001808311613e5d57829003601f168201915b50505050508152602001600382018054613e9390614b1a565b80601f0160208091040260200160405190810160405280929190818152602001828054613ebf90614b1a565b8015613f0c5780601f10613ee157610100808354040283529160200191613f0c565b820191906000526020600020905b815481529060010190602001808311613eef57829003601f168201915b50505091835250506004919091015467ffffffffffffffff16602090910152600a820154600b830154600c840180549394929360ff9092169291613f4f90614b1a565b80601f0160208091040260200160405190810160405280929190818152602001828054613f7b90614b1a565b8015613fc85780601f10613f9d57610100808354040283529160200191613fc8565b820191906000526020600020905b815481529060010190602001808311613fab57829003601f168201915b505050600d909301549192505060ff1686565b828054613fe790614b1a565b90600052602060002090601f016020900481019282614009576000855561404f565b82601f1061402257805160ff191683800117855561404f565b8280016001018555821561404f579182015b8281111561404f578251825591602001919060010190614034565b5061405b92915061405f565b5090565b5b8082111561405b5760008155600101614060565b60006020828403121561408657600080fd5b5035919050565b60005b838110156140a8578181015183820152602001614090565b838111156140b7576000848401525b50505050565b600081518084526140d581602086016020860161408d565b601f017fffffffffffffffffffffffffffffffffffffffffffffffffffffffffffffffe0169290920160200192915050565b6001600160a01b038151168252600060208201516040602085015261412f60408501826140bd565b949350505050565b60808152600061414a6080830187614107565b828103602084015261415c81876140bd565b9050828103604084015261417081866140bd565b91505067ffffffffffffffff8316606083015295945050505050565b80356001600160a01b03811681146141a357600080fd5b919050565b7f4e487b7100000000000000000000000000000000000000000000000000000000600052604160045260246000fd5b6040516080810167ffffffffffffffff811182821017156141fa576141fa6141a8565b60405290565b6040805190810167ffffffffffffffff811182821017156141fa576141fa6141a8565b600082601f83011261423457600080fd5b813567ffffffffffffffff8082111561424f5761424f6141a8565b604051601f83017fffffffffffffffffffffffffffffffffffffffffffffffffffffffffffffffe0908116603f01168101908282118183101715614295576142956141a8565b816040528381528660208588010111156142ae57600080fd5b836020870160208301376000602085830101528094505050505092915050565b600080600080608085870312156142e457600080fd5b6142ed8561418c565b9350602085013567ffffffffffffffff8082111561430a57600080fd5b61431688838901614223565b9450604087013591508082111561432c57600080fd5b61433888838901614223565b9350606087013591508082111561434e57600080fd5b5061435b87828801614223565b91505092959194509250565b803560ff811681146141a357600080fd5b6000806000806080858703121561438e57600080fd5b843567ffffffffffffffff808211156143a657600080fd5b6143b288838901614223565b95506020870135945061433860408801614367565b6000602082840312156143d957600080fd5b813567ffffffffffffffff8111156143f057600080fd5b61412f84828501614223565b60808152600061440f6080830187614107565b828103602084015261442181876140bd565b905067ffffffffffffffff85166040840152828103606084015261444581856140bd565b979650505050505050565b60008151608084526144656080850182614107565b90506020830151848203602086015261447e82826140bd565b91505067ffffffffffffffff6040840151166040850152606083015184820360608601526144ac82826140bd565b95945050505050565b60008151608084526144ca6080850182614107565b9050602083015184820360208601526144e382826140bd565b915050604083015184820360408601526144fd82826140bd565b91505067ffffffffffffffff60608401511660608501528091505092915050565b7f4e487b7100000000000000000000000000000000000000000000000000000000600052602160045260246000fd5b6003811061455d5761455d61451e565b9052565b6002811061455d5761455d61451e565b60006020808301818452808551808352604092508286019150828160051b87010184880160005b83811015614663577fffffffffffffffffffffffffffffffffffffffffffffffffffffffffffffffc0898403018552815160e081518186526145dc82870182614450565b915050888201518582038a8701526145f482826144b5565b91505060ff88830151168886015260608083015181870152506080808301518683038288015261462483826140bd565b9250505060a08083015161463a8288018261454d565b505060c0918201519161464f86820184614561565b509588019593505090860190600101614598565b509098975050505050505050565b60e08152600061468460e083018a614450565b8281036020840152614696818a6144b5565b905060ff8816604084015286606084015282810360808401526146b981876140bd565b9150506146c960a083018561454d565b6146d660c0830184614561565b98975050505050505050565b803567ffffffffffffffff811681146141a357600080fd5b8035600281106141a357600080fd5b60008060008060008060c0878903121561472257600080fd5b61472b876146e2565b9550602087013567ffffffffffffffff8082111561474857600080fd5b6147548a838b01614223565b9650604089013591508082111561476a57600080fd5b908801906080828b03121561477e57600080fd5b6147866141d7565b82358281111561479557600080fd5b83016040818d0312156147a757600080fd5b6147af614200565b6147b88261418c565b81526020820135848111156147cc57600080fd5b6147d88e828501614223565b60208301525080835250506020830135828111156147f557600080fd5b6148018c828601614223565b602083015250614813604084016146e2565b604082015260608301358281111561482a57600080fd5b6148368c828601614223565b6060830152508096505050506060870135925061485560808801614367565b915061486360a088016146fa565b90509295509295509295565b60006020808301818452808551808352604092508286019150828160051b87010184880160005b83811015614663577fffffffffffffffffffffffffffffffffffffffffffffffffffffffffffffffc0898403018552815160c081518186526148da82870182614450565b915050888201518582038a8701526148f282826144b5565b9150508782015188860152606060ff818401511681870152506080808301518683038288015261492283826140bd565b9250505060a080830151925061493a81870184614561565b509588019593505090860190600101614896565b60008060006060848603121561496357600080fd5b833567ffffffffffffffff8082111561497b57600080fd5b61498787838801614223565b9450602086013591508082111561499d57600080fd5b6149a987838801614223565b935060408601359150808211156149bf57600080fd5b506149cc86828701614223565b9150509250925092565b600080600080600060a086880312156149ee57600080fd5b853567ffffffffffffffff80821115614a0657600080fd5b614a1289838a01614223565b965060208801359550614a2760408901614367565b94506060880135915080821115614a3d57600080fd5b50614a4a88828901614223565b925050614a59608087016146fa565b90509295509295909350565b602081526000614a786020830184614450565b9392505050565b606081526000614a926060830186614107565b8281036020840152614aa481866140bd565b90508281036040840152614ab881856140bd565b9695505050505050565b60c081526000614ad560c0830189614450565b8281036020840152614ae781896144b5565b905086604084015260ff861660608401528281036080840152614b0a81866140bd565b91505061444560a0830184614561565b600181811c90821680614b2e57607f821691505b602082108103614b67577f4e487b7100000000000000000000000000000000000000000000000000000000600052602260045260246000fd5b50919050565b60008251614b7f81846020870161408d565b9190910192915050565b7f4e487b7100000000000000000000000000000000000000000000000000000000600052603260045260246000fd5b7f4e487b7100000000000000000000000000000000000000000000000000000000600052601160045260246000fd5b600067ffffffffffffffff808316818103614c0457614c04614bb8565b6001019392505050565b600080835481600182811c915080831680614c2a57607f831692505b60208084108203614c62577f4e487b710000000000000000000000000000000000000000000000000000000086526022600452602486fd5b818015614c765760018114614c8757614cb4565b60ff19861689528489019650614cb4565b60008a81526020902060005b86811015614cac5781548b820152908501908301614c93565b505084890196505b509498975050505050505050565b600061ffff83811690831681811015614cdd57614cdd614bb8565b03939250505056fea2646970667358221220d9526651ec5afbc0d1f457b26be3ceacfde81e57613552e14ce63234ccabaa6264736f6c634300080d0033",
  "immutableReferences": {},
  "source": "// SPDX-License-Identifier: MIT\r\npragma solidity >=0.4.22 <0.9.0;\r\n\r\ncontract HistoriaClinica {\r\n    mapping(string => Paciente) public pacientes;\r\n    Medico[] public medicos;\r\n    Enfermero[] public enfermeros;\r\n     Cita[] public citas;\r\n    Consulta[] public consultas;\r\n\r\n    address public owner;\r\n\r\n    constructor() {\r\n        owner = msg.sender; // el primer usuario en crear el contrato se convierte en el owner o admin\r\n    }\r\n    enum tipo_consulta {\r\n        urgencias,\r\n        especialidad\r\n    }\r\n    enum estado_consulta {\r\n        programada,cancelada,cerrada\r\n    }\r\n\r\n    struct Persona {\r\n        address direccionPublica;\r\n        string DNI;\r\n    }\r\n\r\n    struct Paciente {\r\n        Persona datos;\r\n        string centro_sanitario;\r\n        uint64 medico_asignado;\r\n        string datos_paciente;\r\n    }\r\n\r\n    struct Medico {\r\n        Persona datos; //Herencia\r\n        string especialidad;\r\n        string centro_sanitario;\r\n        uint64 numero_pacientes;\r\n    }\r\n\r\n    struct Enfermero {\r\n        Persona datos; //Herencia\r\n        string especialidad;\r\n        string centro_sanitario;\r\n    }\r\n    \r\n    struct Consulta {\r\n        Paciente paciente;\r\n        Medico medico;\r\n        uint8 hora;\r\n        uint256 fecha;\r\n        string datos_consulta;\r\n        estado_consulta estado;\r\n        tipo_consulta tipo;\r\n    }\r\n\r\n    struct Cita {\r\n        Paciente paciente;\r\n        Medico medico;\r\n        uint fecha;\r\n        uint8 hora;\r\n        string datos_cita;\r\n        tipo_consulta tipoConsulta;\r\n    }\r\n    modifier soloAdmin() {\r\n        require(msg.sender == owner, \"Solo el administrador tiene permisos para ejecutar esta funcion\");\r\n        _;\r\n    }\r\nfunction registrarPaciente(string memory _DNI, string memory _centroSanitario, string memory _datosPaciente) public {\r\n    require(pacientes[_DNI].datos.direccionPublica == address(0), \"Este paciente ya esta registrado\");\r\n    Persona memory datosPersonales = Persona({\r\n    direccionPublica: msg.sender,\r\n    DNI: _DNI\r\n});\r\n\r\npacientes[_DNI] = Paciente({\r\n    centro_sanitario: _centroSanitario,\r\n    datos: datosPersonales,\r\n    medico_asignado: type(uint64).max, //an no tiene mdico asignado\r\n    datos_paciente: _datosPaciente\r\n});\r\nasignarMedico(_DNI);\r\n\r\n}\r\n    function registrarMedico(address _direccionMedico, string memory _DNI, string memory _especialidad, string memory _centro_sanitario) public soloAdmin() {\r\n        Persona memory datosPersonales = Persona(_direccionMedico,_DNI);\r\n        medicos.push(Medico({\r\n        centro_sanitario: _centro_sanitario,\r\n        datos:datosPersonales,\r\n        especialidad: _especialidad,\r\n        numero_pacientes:0\r\n    }));\r\n}\r\n\r\n function registrarEnfermero(address _direccionEnfermero ,string memory _DNI, string memory _especialidad, string memory _centro_sanitario) public soloAdmin() {\r\n        Persona memory datosPersonales = Persona (_direccionEnfermero,_DNI);\r\n        enfermeros.push(Enfermero({\r\n        especialidad: _especialidad,\r\n        centro_sanitario: _centro_sanitario,\r\n        datos : datosPersonales\r\n    }));\r\n\r\n    }\r\n\r\n    function asignarMedico(string memory _DNI) public returns (uint64) {\r\n        // Comprobamos si hay mdicos disponibles\r\n         require(medicos.length > 0, \"No hay medicos disponibles\");\r\n        uint64 i = 0;\r\n        Paciente memory p = pacientes[_DNI]; //Buscamos el indice del paciente por DNI\r\n        string memory nombreCentroSanitario = p.centro_sanitario; // Obtenemos centro sanitario del paciente\r\n        uint64 indiceMedicoConMenosPacientes; //Posicion del array del medico con menos pacientes\r\n        uint64 minimoPacientes = type(uint64).max;\r\n        while (i < medicos.length) {\r\n            //Comprobamos especialidad, centro sanitario, y obtenemos el mdico con menos pacientes asignados\r\n            if (\r\n                keccak256(bytes(medicos[i].especialidad)) ==\r\n                keccak256(bytes(\"General\")) &&\r\n                keccak256(bytes(medicos[i].centro_sanitario)) ==\r\n                keccak256(bytes(nombreCentroSanitario)) &&\r\n                medicos[i].numero_pacientes < minimoPacientes\r\n            ) {\r\n                minimoPacientes = medicos[i].numero_pacientes;\r\n                indiceMedicoConMenosPacientes = i; //Mdico vlido encontrado\r\n            }\r\n            i++;\r\n        }\r\n        require(\r\n        keccak256(bytes(medicos[indiceMedicoConMenosPacientes].centro_sanitario)) == \r\n        keccak256(bytes(nombreCentroSanitario)),\r\n        \"El medico no pertenece al mismo centro sanitario que el paciente\"\r\n    );\r\n        medicos[indiceMedicoConMenosPacientes].numero_pacientes++; //Aumentamos pacientes de ese mdico\r\n        pacientes[_DNI].medico_asignado=indiceMedicoConMenosPacientes; //Asignamos mdico al paciente\r\n        return indiceMedicoConMenosPacientes;\r\n    }\r\n\r\n    function solicitarCita(string memory _DNI, uint256 _fecha, uint8 _hora, string memory _datos_cita, tipo_consulta _tipoConsulta) public {\r\n    require(pacientes[_DNI].medico_asignado < type(uint64).max, \"El paciente no tiene un medico asignado\");\r\n    require(_fecha >= block.timestamp, \"No se pueden programar citas anteriores a este momento.\");\r\n\r\n    bool huecoLibre = true;\r\n    Paciente memory paciente = pacientes[_DNI];\r\n    Medico memory medico = medicos[paciente.medico_asignado]; //Medico que el paciente tiene asignado\r\n    for (uint64 i = 0; i < citas.length && citas[i].fecha>block.timestamp; i++) { \r\n        //Comprobamos que sea el medico que tiene asignado el paciente \r\n        if(citas[i].medico.datos.direccionPublica == medico.datos.direccionPublica){ \r\n        //Comprobamos que haya un rango de 15 minutos disponibles despues de la cita\r\n        if (citas[i].fecha == _fecha && citas[i].hora == _hora || citas[i].fecha == _fecha && citas[i].hora > _hora - 15 minutes) {\r\n            huecoLibre = false;\r\n            }\r\n            }\r\n    }\r\n        if (huecoLibre) {\r\n    //Asignamos la nueva cita\r\n        citas.push(\r\n        Cita({\r\n            medico: medico,\r\n            paciente: paciente,\r\n            fecha: _fecha,\r\n            hora: _hora,\r\n            datos_cita:_datos_cita,\r\n            tipoConsulta: _tipoConsulta\r\n        }));\r\n\r\n    //Creamos la consulta\r\n        consultas.push(\r\n        Consulta({\r\n        paciente:paciente,\r\n        medico:medico,\r\n        fecha: _fecha,\r\n        hora:_hora,\r\n        datos_consulta:_datos_cita,\r\n        estado: estado_consulta.programada,\r\n        tipo: _tipoConsulta\r\n    }));\r\n}\r\n    }\r\nfunction atenderConsulta (string memory _DNI, uint _fecha, uint8 _hora, string memory _datos_consulta) public {\r\n    Paciente memory paciente = pacientes[_DNI];\r\n    require(msg.sender ==  medicos[pacientes[_DNI].medico_asignado].datos.direccionPublica, \"Solo el medico puede atender la consulta\"); \r\n    bool consultaEncontrada = false;\r\n    for(uint64 i = 0; i < consultas.length; i++) {\r\n        if(consultas[i].fecha == _fecha && consultas[i].hora == _hora && keccak256(bytes(paciente.datos.DNI)) == keccak256(bytes(_DNI))) {\r\n            consultaEncontrada = true;\r\n            consultas[i].datos_consulta = _datos_consulta;\r\n            consultas[i].estado = estado_consulta.cerrada; //consulta cerrada\r\n        }\r\n    }\r\n    require(consultaEncontrada == true, \"No se encontro una consulta programada con los datos especificados\");\r\n}\r\n\r\nfunction modificarCita(uint64 indice, string memory _datos_cita, Paciente memory _paciente, uint _nuevaFecha, uint8 _nuevaHora, tipo_consulta _nuevoTipoConsulta) public {\r\n    require((indice < citas.length) && (msg.sender == medicos[_paciente.medico_asignado].datos.direccionPublica || msg.sender == _paciente.datos.direccionPublica), \"la cita no existe o no hay permisos suficientes\");\r\n    require(_nuevaFecha >= block.timestamp, \"No se pueden programar citas anteriores a este momento.\");\r\n    //Actualizamos datos de la futura consulta mdica\r\n     for (uint64 i = 0; i < consultas.length; i++) {\r\n        if (consultas[i].fecha == citas[indice].fecha &&\r\n            consultas[i].hora == citas[indice].hora &&\r\n            keccak256(bytes(consultas[i].paciente.datos.DNI)) == keccak256(bytes(_paciente.datos.DNI))) {\r\n            consultas[i].fecha= _nuevaFecha;\r\n            consultas[i].hora= _nuevaHora;\r\n            consultas[i].fecha= _nuevaFecha;\r\n            consultas[i].tipo= _nuevoTipoConsulta;\r\n}\r\n     }\r\n    citas[indice].fecha=_nuevaFecha;\r\n    citas[indice].hora=_nuevaHora;\r\n    citas[indice].datos_cita=_datos_cita;\r\n    citas[indice].tipoConsulta = _nuevoTipoConsulta;\r\n}\r\nfunction obtenerCitas() public view returns (Cita[] memory) {\r\n        return citas;\r\n    }\r\n    function obtenerConsultas() public view returns (Consulta[] memory) {\r\n        return consultas;\r\n    }\r\nfunction obtenerDatosPaciente(string memory _DNI) public view returns (Paciente memory) {\r\n    return pacientes[_DNI];\r\n}\r\n}",
  "sourcePath": "C:\\Users\\pablo\\OneDrive - Universidad de Castilla-La Mancha\\4\\TFG\\ProyectoHistoriaClinica\\contracts\\HistoriaClinica.sol",
  "compiler": {
    "name": "solc",
    "version": "0.8.13+commit.abaa5c0e.Emscripten.clang"
  },
  "schemaVersion": "3.4.15",
  "updatedAt": "2023-11-21T22:30:56.171Z",
  "networkType": "ethereum",
  "devdoc": {
    "kind": "dev",
    "methods": {},
    "version": 1
  },
  "userdoc": {
    "kind": "user",
    "methods": {},
    "version": 1
  }
}