{
  "contractName": "HistoriaClinica",
  "abi": [
    {
      "inputs": [],
      "stateMutability": "nonpayable",
      "type": "constructor"
    },
    {
      "inputs": [
        {
          "internalType": "uint256",
          "name": "",
          "type": "uint256"
        }
      ],
      "name": "citas",
      "outputs": [
        {
          "components": [
            {
              "components": [
                {
                  "internalType": "address",
                  "name": "direccionPublica",
                  "type": "address"
                },
                {
                  "internalType": "string",
                  "name": "DNI",
                  "type": "string"
                }
              ],
              "internalType": "struct HistoriaClinica.Persona",
              "name": "datos",
              "type": "tuple"
            },
            {
              "internalType": "string",
              "name": "centro_sanitario",
              "type": "string"
            },
            {
              "internalType": "uint256",
              "name": "medico_asignado",
              "type": "uint256"
            },
            {
              "internalType": "string",
              "name": "datos_paciente",
              "type": "string"
            }
          ],
          "internalType": "struct HistoriaClinica.Paciente",
          "name": "paciente",
          "type": "tuple"
        },
        {
          "components": [
            {
              "components": [
                {
                  "internalType": "address",
                  "name": "direccionPublica",
                  "type": "address"
                },
                {
                  "internalType": "string",
                  "name": "DNI",
                  "type": "string"
                }
              ],
              "internalType": "struct HistoriaClinica.Persona",
              "name": "datos",
              "type": "tuple"
            },
            {
              "internalType": "string",
              "name": "especialidad",
              "type": "string"
            },
            {
              "internalType": "string",
              "name": "centro_sanitario",
              "type": "string"
            },
            {
              "internalType": "uint256",
              "name": "numero_pacientes",
              "type": "uint256"
            }
          ],
          "internalType": "struct HistoriaClinica.Medico",
          "name": "medico",
          "type": "tuple"
        },
        {
          "internalType": "uint256",
          "name": "fecha",
          "type": "uint256"
        },
        {
          "internalType": "uint8",
          "name": "hora",
          "type": "uint8"
        },
        {
          "internalType": "string",
          "name": "datos_cita",
          "type": "string"
        },
        {
          "internalType": "enum HistoriaClinica.tipo_consulta",
          "name": "tipoConsulta",
          "type": "uint8"
        }
      ],
      "stateMutability": "view",
      "type": "function",
      "constant": true
    },
    {
      "inputs": [
        {
          "internalType": "uint256",
          "name": "",
          "type": "uint256"
        }
      ],
      "name": "consultas",
      "outputs": [
        {
          "components": [
            {
              "components": [
                {
                  "internalType": "address",
                  "name": "direccionPublica",
                  "type": "address"
                },
                {
                  "internalType": "string",
                  "name": "DNI",
                  "type": "string"
                }
              ],
              "internalType": "struct HistoriaClinica.Persona",
              "name": "datos",
              "type": "tuple"
            },
            {
              "internalType": "string",
              "name": "centro_sanitario",
              "type": "string"
            },
            {
              "internalType": "uint256",
              "name": "medico_asignado",
              "type": "uint256"
            },
            {
              "internalType": "string",
              "name": "datos_paciente",
              "type": "string"
            }
          ],
          "internalType": "struct HistoriaClinica.Paciente",
          "name": "paciente",
          "type": "tuple"
        },
        {
          "components": [
            {
              "components": [
                {
                  "internalType": "address",
                  "name": "direccionPublica",
                  "type": "address"
                },
                {
                  "internalType": "string",
                  "name": "DNI",
                  "type": "string"
                }
              ],
              "internalType": "struct HistoriaClinica.Persona",
              "name": "datos",
              "type": "tuple"
            },
            {
              "internalType": "string",
              "name": "especialidad",
              "type": "string"
            },
            {
              "internalType": "string",
              "name": "centro_sanitario",
              "type": "string"
            },
            {
              "internalType": "uint256",
              "name": "numero_pacientes",
              "type": "uint256"
            }
          ],
          "internalType": "struct HistoriaClinica.Medico",
          "name": "medico",
          "type": "tuple"
        },
        {
          "internalType": "uint8",
          "name": "hora",
          "type": "uint8"
        },
        {
          "internalType": "uint256",
          "name": "fecha",
          "type": "uint256"
        },
        {
          "internalType": "string",
          "name": "datos_consulta",
          "type": "string"
        },
        {
          "internalType": "enum HistoriaClinica.estado_consulta",
          "name": "estado",
          "type": "uint8"
        },
        {
          "internalType": "enum HistoriaClinica.tipo_consulta",
          "name": "tipo",
          "type": "uint8"
        }
      ],
      "stateMutability": "view",
      "type": "function",
      "constant": true
    },
    {
      "inputs": [
        {
          "internalType": "uint256",
          "name": "",
          "type": "uint256"
        }
      ],
      "name": "enfermeros",
      "outputs": [
        {
          "components": [
            {
              "internalType": "address",
              "name": "direccionPublica",
              "type": "address"
            },
            {
              "internalType": "string",
              "name": "DNI",
              "type": "string"
            }
          ],
          "internalType": "struct HistoriaClinica.Persona",
          "name": "datos",
          "type": "tuple"
        },
        {
          "internalType": "string",
          "name": "especialidad",
          "type": "string"
        },
        {
          "internalType": "string",
          "name": "centro_sanitario",
          "type": "string"
        }
      ],
      "stateMutability": "view",
      "type": "function",
      "constant": true
    },
    {
      "inputs": [
        {
          "internalType": "uint256",
          "name": "",
          "type": "uint256"
        }
      ],
      "name": "medicos",
      "outputs": [
        {
          "components": [
            {
              "internalType": "address",
              "name": "direccionPublica",
              "type": "address"
            },
            {
              "internalType": "string",
              "name": "DNI",
              "type": "string"
            }
          ],
          "internalType": "struct HistoriaClinica.Persona",
          "name": "datos",
          "type": "tuple"
        },
        {
          "internalType": "string",
          "name": "especialidad",
          "type": "string"
        },
        {
          "internalType": "string",
          "name": "centro_sanitario",
          "type": "string"
        },
        {
          "internalType": "uint256",
          "name": "numero_pacientes",
          "type": "uint256"
        }
      ],
      "stateMutability": "view",
      "type": "function",
      "constant": true
    },
    {
      "inputs": [],
      "name": "owner",
      "outputs": [
        {
          "internalType": "address",
          "name": "",
          "type": "address"
        }
      ],
      "stateMutability": "view",
      "type": "function",
      "constant": true
    },
    {
      "inputs": [
        {
          "internalType": "string",
          "name": "",
          "type": "string"
        }
      ],
      "name": "pacientes",
      "outputs": [
        {
          "components": [
            {
              "internalType": "address",
              "name": "direccionPublica",
              "type": "address"
            },
            {
              "internalType": "string",
              "name": "DNI",
              "type": "string"
            }
          ],
          "internalType": "struct HistoriaClinica.Persona",
          "name": "datos",
          "type": "tuple"
        },
        {
          "internalType": "string",
          "name": "centro_sanitario",
          "type": "string"
        },
        {
          "internalType": "uint256",
          "name": "medico_asignado",
          "type": "uint256"
        },
        {
          "internalType": "string",
          "name": "datos_paciente",
          "type": "string"
        }
      ],
      "stateMutability": "view",
      "type": "function",
      "constant": true
    },
    {
      "inputs": [
        {
          "internalType": "string",
          "name": "_DNI",
          "type": "string"
        },
        {
          "internalType": "string",
          "name": "_centroSanitario",
          "type": "string"
        },
        {
          "internalType": "string",
          "name": "_datosPaciente",
          "type": "string"
        }
      ],
      "name": "registrarPaciente",
      "outputs": [],
      "stateMutability": "nonpayable",
      "type": "function"
    },
    {
      "inputs": [
        {
          "internalType": "address",
          "name": "_direccionMedico",
          "type": "address"
        },
        {
          "internalType": "string",
          "name": "_DNI",
          "type": "string"
        },
        {
          "internalType": "string",
          "name": "_especialidad",
          "type": "string"
        },
        {
          "internalType": "string",
          "name": "_centro_sanitario",
          "type": "string"
        }
      ],
      "name": "registrarMedico",
      "outputs": [],
      "stateMutability": "nonpayable",
      "type": "function"
    },
    {
      "inputs": [
        {
          "internalType": "address",
          "name": "_direccionEnfermero",
          "type": "address"
        },
        {
          "internalType": "string",
          "name": "_DNI",
          "type": "string"
        },
        {
          "internalType": "string",
          "name": "_especialidad",
          "type": "string"
        },
        {
          "internalType": "string",
          "name": "_centro_sanitario",
          "type": "string"
        }
      ],
      "name": "registrarEnfermero",
      "outputs": [],
      "stateMutability": "nonpayable",
      "type": "function"
    },
    {
      "inputs": [
        {
          "internalType": "string",
          "name": "_DNI",
          "type": "string"
        }
      ],
      "name": "asignarMedico",
      "outputs": [
        {
          "internalType": "uint256",
          "name": "",
          "type": "uint256"
        }
      ],
      "stateMutability": "nonpayable",
      "type": "function"
    },
    {
      "inputs": [
        {
          "internalType": "string",
          "name": "_DNI",
          "type": "string"
        },
        {
          "internalType": "uint256",
          "name": "_fecha",
          "type": "uint256"
        },
        {
          "internalType": "uint8",
          "name": "_hora",
          "type": "uint8"
        },
        {
          "internalType": "string",
          "name": "_datos_consulta",
          "type": "string"
        },
        {
          "internalType": "string",
          "name": "_datos_cita",
          "type": "string"
        },
        {
          "internalType": "enum HistoriaClinica.tipo_consulta",
          "name": "_tipoConsulta",
          "type": "uint8"
        }
      ],
      "name": "solicitarCita",
      "outputs": [],
      "stateMutability": "nonpayable",
      "type": "function"
    },
    {
      "inputs": [
        {
          "internalType": "string",
          "name": "_DNI",
          "type": "string"
        },
        {
          "internalType": "uint256",
          "name": "_fecha",
          "type": "uint256"
        },
        {
          "internalType": "uint256",
          "name": "_hora",
          "type": "uint256"
        },
        {
          "internalType": "string",
          "name": "_datos_consulta",
          "type": "string"
        }
      ],
      "name": "atenderConsulta",
      "outputs": [],
      "stateMutability": "nonpayable",
      "type": "function"
    },
    {
      "inputs": [
        {
          "internalType": "uint8",
          "name": "indice",
          "type": "uint8"
        },
        {
          "components": [
            {
              "components": [
                {
                  "internalType": "address",
                  "name": "direccionPublica",
                  "type": "address"
                },
                {
                  "internalType": "string",
                  "name": "DNI",
                  "type": "string"
                }
              ],
              "internalType": "struct HistoriaClinica.Persona",
              "name": "datos",
              "type": "tuple"
            },
            {
              "internalType": "string",
              "name": "especialidad",
              "type": "string"
            },
            {
              "internalType": "string",
              "name": "centro_sanitario",
              "type": "string"
            },
            {
              "internalType": "uint256",
              "name": "numero_pacientes",
              "type": "uint256"
            }
          ],
          "internalType": "struct HistoriaClinica.Medico",
          "name": "_medico",
          "type": "tuple"
        },
        {
          "internalType": "string",
          "name": "_datos_cita",
          "type": "string"
        },
        {
          "components": [
            {
              "components": [
                {
                  "internalType": "address",
                  "name": "direccionPublica",
                  "type": "address"
                },
                {
                  "internalType": "string",
                  "name": "DNI",
                  "type": "string"
                }
              ],
              "internalType": "struct HistoriaClinica.Persona",
              "name": "datos",
              "type": "tuple"
            },
            {
              "internalType": "string",
              "name": "centro_sanitario",
              "type": "string"
            },
            {
              "internalType": "uint256",
              "name": "medico_asignado",
              "type": "uint256"
            },
            {
              "internalType": "string",
              "name": "datos_paciente",
              "type": "string"
            }
          ],
          "internalType": "struct HistoriaClinica.Paciente",
          "name": "_paciente",
          "type": "tuple"
        },
        {
          "internalType": "uint256",
          "name": "_nuevaFecha",
          "type": "uint256"
        },
        {
          "internalType": "uint8",
          "name": "_nuevaHora",
          "type": "uint8"
        },
        {
          "internalType": "enum HistoriaClinica.tipo_consulta",
          "name": "_nuevoTipoConsulta",
          "type": "uint8"
        }
      ],
      "name": "modificarCita",
      "outputs": [],
      "stateMutability": "nonpayable",
      "type": "function"
    },
    {
      "inputs": [
        {
          "components": [
            {
              "components": [
                {
                  "components": [
                    {
                      "internalType": "address",
                      "name": "direccionPublica",
                      "type": "address"
                    },
                    {
                      "internalType": "string",
                      "name": "DNI",
                      "type": "string"
                    }
                  ],
                  "internalType": "struct HistoriaClinica.Persona",
                  "name": "datos",
                  "type": "tuple"
                },
                {
                  "internalType": "string",
                  "name": "centro_sanitario",
                  "type": "string"
                },
                {
                  "internalType": "uint256",
                  "name": "medico_asignado",
                  "type": "uint256"
                },
                {
                  "internalType": "string",
                  "name": "datos_paciente",
                  "type": "string"
                }
              ],
              "internalType": "struct HistoriaClinica.Paciente",
              "name": "paciente",
              "type": "tuple"
            },
            {
              "components": [
                {
                  "components": [
                    {
                      "internalType": "address",
                      "name": "direccionPublica",
                      "type": "address"
                    },
                    {
                      "internalType": "string",
                      "name": "DNI",
                      "type": "string"
                    }
                  ],
                  "internalType": "struct HistoriaClinica.Persona",
                  "name": "datos",
                  "type": "tuple"
                },
                {
                  "internalType": "string",
                  "name": "especialidad",
                  "type": "string"
                },
                {
                  "internalType": "string",
                  "name": "centro_sanitario",
                  "type": "string"
                },
                {
                  "internalType": "uint256",
                  "name": "numero_pacientes",
                  "type": "uint256"
                }
              ],
              "internalType": "struct HistoriaClinica.Medico",
              "name": "medico",
              "type": "tuple"
            },
            {
              "internalType": "uint8",
              "name": "hora",
              "type": "uint8"
            },
            {
              "internalType": "uint256",
              "name": "fecha",
              "type": "uint256"
            },
            {
              "internalType": "string",
              "name": "datos_consulta",
              "type": "string"
            },
            {
              "internalType": "enum HistoriaClinica.estado_consulta",
              "name": "estado",
              "type": "uint8"
            },
            {
              "internalType": "enum HistoriaClinica.tipo_consulta",
              "name": "tipo",
              "type": "uint8"
            }
          ],
          "internalType": "struct HistoriaClinica.Consulta",
          "name": "nuevaConsulta",
          "type": "tuple"
        }
      ],
      "name": "crearConsulta",
      "outputs": [],
      "stateMutability": "nonpayable",
      "type": "function"
    },
    {
      "inputs": [],
      "name": "obtenerMedicos",
      "outputs": [
        {
          "components": [
            {
              "components": [
                {
                  "internalType": "address",
                  "name": "direccionPublica",
                  "type": "address"
                },
                {
                  "internalType": "string",
                  "name": "DNI",
                  "type": "string"
                }
              ],
              "internalType": "struct HistoriaClinica.Persona",
              "name": "datos",
              "type": "tuple"
            },
            {
              "internalType": "string",
              "name": "especialidad",
              "type": "string"
            },
            {
              "internalType": "string",
              "name": "centro_sanitario",
              "type": "string"
            },
            {
              "internalType": "uint256",
              "name": "numero_pacientes",
              "type": "uint256"
            }
          ],
          "internalType": "struct HistoriaClinica.Medico[]",
          "name": "",
          "type": "tuple[]"
        }
      ],
      "stateMutability": "view",
      "type": "function",
      "constant": true
    },
    {
      "inputs": [],
      "name": "obtenerEnfermeros",
      "outputs": [
        {
          "components": [
            {
              "components": [
                {
                  "internalType": "address",
                  "name": "direccionPublica",
                  "type": "address"
                },
                {
                  "internalType": "string",
                  "name": "DNI",
                  "type": "string"
                }
              ],
              "internalType": "struct HistoriaClinica.Persona",
              "name": "datos",
              "type": "tuple"
            },
            {
              "internalType": "string",
              "name": "especialidad",
              "type": "string"
            },
            {
              "internalType": "string",
              "name": "centro_sanitario",
              "type": "string"
            }
          ],
          "internalType": "struct HistoriaClinica.Enfermero[]",
          "name": "",
          "type": "tuple[]"
        }
      ],
      "stateMutability": "view",
      "type": "function",
      "constant": true
    },
    {
      "inputs": [
        {
          "internalType": "string",
          "name": "_DNI",
          "type": "string"
        }
      ],
      "name": "obtenerDatosPaciente",
      "outputs": [
        {
          "components": [
            {
              "components": [
                {
                  "internalType": "address",
                  "name": "direccionPublica",
                  "type": "address"
                },
                {
                  "internalType": "string",
                  "name": "DNI",
                  "type": "string"
                }
              ],
              "internalType": "struct HistoriaClinica.Persona",
              "name": "datos",
              "type": "tuple"
            },
            {
              "internalType": "string",
              "name": "centro_sanitario",
              "type": "string"
            },
            {
              "internalType": "uint256",
              "name": "medico_asignado",
              "type": "uint256"
            },
            {
              "internalType": "string",
              "name": "datos_paciente",
              "type": "string"
            }
          ],
          "internalType": "struct HistoriaClinica.Paciente",
          "name": "",
          "type": "tuple"
        }
      ],
      "stateMutability": "view",
      "type": "function",
      "constant": true
    }
  ],
  "bytecode": "0x608060405234801561001057600080fd5b5033600560006101000a81548173ffffffffffffffffffffffffffffffffffffffff021916908373ffffffffffffffffffffffffffffffffffffffff160217905550615e5580620000626000396000f3fe608060405234801561001057600080fd5b506004361061010b5760003560e01c806394ee77bd116100a2578063cdafc91a11610071578063cdafc91a146102ae578063db8a9820146102de578063de67678114610310578063f12591081461032c578063f6652a671461035c5761010b565b806394ee77bd1461023a578063a6e85a1f14610258578063bdb7990014610274578063ca1cde8f146102925761010b565b80634fef7228116100de5780634fef72281461019757806352509b8d146101b35780637513e79c146101e65780638da5cb5b1461021c5761010b565b80631b01921a146101105780632c1a929d1461012c5780633550242f1461015f578063358e64d01461017b575b600080fd5b61012a600480360381019061012591906144b3565b610391565b005b61014660048036038101906101419190614552565b61084d565b60405161015694939291906146de565b60405180910390f35b61017960048036038101906101749190614764565b610a8f565b005b61019560048036038101906101909190614bb8565b610c46565b005b6101b160048036038101906101ac9190614c01565b610e9b565b005b6101cd60048036038101906101c89190614cf7565b61132a565b6040516101dd9493929190614d40565b60405180910390f35b61020060048036038101906101fb9190614552565b611572565b6040516102139796959493929190614f96565b60405180910390f35b610224611adb565b6040516102319190615029565b60405180910390f35b610242611b01565b60405161024f9190615177565b60405180910390f35b610272600480360381019061026d9190615199565b611e1a565b005b61027c612b25565b604051610289919061539a565b60405180910390f35b6102ac60048036038101906102a791906153bc565b612e34565b005b6102c860048036038101906102c39190614cf7565b61303b565b6040516102d59190615463565b60405180910390f35b6102f860048036038101906102f39190614552565b613446565b60405161030793929190615485565b60405180910390f35b61032a60048036038101906103259190614764565b613682565b005b61034660048036038101906103419190614cf7565b61384a565b60405161035391906154d1565b60405180910390f35b61037660048036038101906103719190614552565b613ccc565b604051610388969594939291906154ec565b60405180910390f35b600080856040516103a2919061559e565b9081526020016040518091039020604051806080016040529081600082016040518060400160405290816000820160009054906101000a900473ffffffffffffffffffffffffffffffffffffffff1673ffffffffffffffffffffffffffffffffffffffff1673ffffffffffffffffffffffffffffffffffffffff168152602001600182018054610431906155e4565b80601f016020809104026020016040519081016040528092919081815260200182805461045d906155e4565b80156104aa5780601f1061047f576101008083540402835291602001916104aa565b820191906000526020600020905b81548152906001019060200180831161048d57829003601f168201915b50505050508152505081526020016002820180546104c7906155e4565b80601f01602080910402602001604051908101604052809291908181526020018280546104f3906155e4565b80156105405780601f1061051557610100808354040283529160200191610540565b820191906000526020600020905b81548152906001019060200180831161052357829003601f168201915b5050505050815260200160038201548152602001600482018054610563906155e4565b80601f016020809104026020016040519081016040528092919081815260200182805461058f906155e4565b80156105dc5780601f106105b1576101008083540402835291602001916105dc565b820191906000526020600020905b8154815290600101906020018083116105bf57829003601f168201915b505050505081525050905060016000866040516105f9919061559e565b9081526020016040518091039020600301548154811061061c5761061b615615565b5b906000526020600020906005020160000160000160009054906101000a900473ffffffffffffffffffffffffffffffffffffffff1673ffffffffffffffffffffffffffffffffffffffff163373ffffffffffffffffffffffffffffffffffffffff16146106be576040517f08c379a00000000000000000000000000000000000000000000000000000000081526004016106b5906156b6565b60405180910390fd5b6000805b6004805490508110156107fd5785600482815481106106e4576106e3615615565b5b90600052602060002090600e0201600b01541480156107375750846004828154811061071357610712615615565b5b90600052602060002090600e0201600a0160009054906101000a900460ff1660ff16145b80156107585750868051906020012083600001516020015180519060200120145b156107ea5760019150836004828154811061077657610775615615565b5b90600052602060002090600e0201600c01908051906020019061079a929190614222565b506002600482815481106107b1576107b0615615565b5b90600052602060002090600e0201600d0160006101000a81548160ff021916908360028111156107e4576107e3614ed7565b5b02179055505b80806107f590615705565b9150506106c2565b506001151581151514610845576040517f08c379a000000000000000000000000000000000000000000000000000000000815260040161083c906157e5565b60405180910390fd5b505050505050565b6001818154811061085d57600080fd5b9060005260206000209060050201600091509050806000016040518060400160405290816000820160009054906101000a900473ffffffffffffffffffffffffffffffffffffffff1673ffffffffffffffffffffffffffffffffffffffff1673ffffffffffffffffffffffffffffffffffffffff1681526020016001820180546108e6906155e4565b80601f0160208091040260200160405190810160405280929190818152602001828054610912906155e4565b801561095f5780601f106109345761010080835404028352916020019161095f565b820191906000526020600020905b81548152906001019060200180831161094257829003601f168201915b50505050508152505090806002018054610978906155e4565b80601f01602080910402602001604051908101604052809291908181526020018280546109a4906155e4565b80156109f15780601f106109c6576101008083540402835291602001916109f1565b820191906000526020600020905b8154815290600101906020018083116109d457829003601f168201915b505050505090806003018054610a06906155e4565b80601f0160208091040260200160405190810160405280929190818152602001828054610a32906155e4565b8015610a7f5780601f10610a5457610100808354040283529160200191610a7f565b820191906000526020600020905b815481529060010190602001808311610a6257829003601f168201915b5050505050908060040154905084565b600560009054906101000a900473ffffffffffffffffffffffffffffffffffffffff1673ffffffffffffffffffffffffffffffffffffffff163373ffffffffffffffffffffffffffffffffffffffff1614610b1f576040517f08c379a0000000000000000000000000000000000000000000000000000000008152600401610b1690615877565b60405180910390fd5b600060405180604001604052808673ffffffffffffffffffffffffffffffffffffffff1681526020018581525090506002604051806060016040528083815260200185815260200184815250908060018154018082558091505060019003906000526020600020906004020160009091909190915060008201518160000160008201518160000160006101000a81548173ffffffffffffffffffffffffffffffffffffffff021916908373ffffffffffffffffffffffffffffffffffffffff1602179055506020820151816001019080519060200190610c00929190614222565b5050506020820151816002019080519060200190610c1f929190614222565b506040820151816003019080519060200190610c3c929190614222565b5050505050505050565b60048190806001815401808255809150506001900390600052602060002090600e020160009091909190915060008201518160000160008201518160000160008201518160000160006101000a81548173ffffffffffffffffffffffffffffffffffffffff021916908373ffffffffffffffffffffffffffffffffffffffff1602179055506020820151816001019080519060200190610ce7929190614222565b5050506020820151816002019080519060200190610d06929190614222565b50604082015181600301556060820151816004019080519060200190610d2d929190614222565b50505060208201518160050160008201518160000160008201518160000160006101000a81548173ffffffffffffffffffffffffffffffffffffffff021916908373ffffffffffffffffffffffffffffffffffffffff1602179055506020820151816001019080519060200190610da5929190614222565b5050506020820151816002019080519060200190610dc4929190614222565b506040820151816003019080519060200190610de1929190614222565b50606082015181600401555050604082015181600a0160006101000a81548160ff021916908360ff160217905550606082015181600b0155608082015181600c019080519060200190610e35929190614222565b5060a082015181600d0160006101000a81548160ff02191690836002811115610e6157610e60614ed7565b5b021790555060c082015181600d0160016101000a81548160ff02191690836001811115610e9157610e90614ed7565b5b0217905550505050565b6003805490508760ff16108015610f23575085600001516000015173ffffffffffffffffffffffffffffffffffffffff163373ffffffffffffffffffffffffffffffffffffffff161480610f22575083600001516000015173ffffffffffffffffffffffffffffffffffffffff163373ffffffffffffffffffffffffffffffffffffffff16145b5b610f62576040517f08c379a0000000000000000000000000000000000000000000000000000000008152600401610f5990615909565b60405180910390fd5b60088260ff1610158015610f7a575060128260ff1611155b610fb9576040517f08c379a0000000000000000000000000000000000000000000000000000000008152600401610fb09061599b565b60405180910390fd5b42831015610ffc576040517f08c379a0000000000000000000000000000000000000000000000000000000008152600401610ff390615a2d565b60405180910390fd5b60005b6004805490508110156112255760038860ff168154811061102357611022615615565b5b90600052602060002090600e0201600a01546004828154811061104957611048615615565b5b90600052602060002090600e0201600b01541480156110d4575060038860ff168154811061107a57611079615615565b5b90600052602060002090600e0201600b0160009054906101000a900460ff1660ff16600482815481106110b0576110af615615565b5b90600052602060002090600e0201600a0160009054906101000a900460ff1660ff16145b801561112d575084600001516020015180519060200120600482815481106110ff576110fe615615565b5b90600052602060002090600e02016000016000016001016040516111239190615aec565b6040518091039020145b1561121257836004828154811061114757611146615615565b5b90600052602060002090600e0201600b0181905550826004828154811061117157611170615615565b5b90600052602060002090600e0201600a0160006101000a81548160ff021916908360ff16021790555083600482815481106111af576111ae615615565b5b90600052602060002090600e0201600b018190555081600482815481106111d9576111d8615615565b5b90600052602060002090600e0201600d0160016101000a81548160ff0219169083600181111561120c5761120b614ed7565b5b02179055505b808061121d90615705565b915050610fff565b508260038860ff168154811061123e5761123d615615565b5b90600052602060002090600e0201600a01819055508160038860ff168154811061126b5761126a615615565b5b90600052602060002090600e0201600b0160006101000a81548160ff021916908360ff1602179055508460038860ff16815481106112ac576112ab615615565b5b90600052602060002090600e0201600c0190805190602001906112d0929190614222565b508060038860ff16815481106112e9576112e8615615565b5b90600052602060002090600e0201600d0160006101000a81548160ff0219169083600181111561131c5761131b614ed7565b5b021790555050505050505050565b600081805160208101820180518482526020830160208501208183528095505050505050600091509050806000016040518060400160405290816000820160009054906101000a900473ffffffffffffffffffffffffffffffffffffffff1673ffffffffffffffffffffffffffffffffffffffff1673ffffffffffffffffffffffffffffffffffffffff1681526020016001820180546113c9906155e4565b80601f01602080910402602001604051908101604052809291908181526020018280546113f5906155e4565b80156114425780601f1061141757610100808354040283529160200191611442565b820191906000526020600020905b81548152906001019060200180831161142557829003601f168201915b5050505050815250509080600201805461145b906155e4565b80601f0160208091040260200160405190810160405280929190818152602001828054611487906155e4565b80156114d45780601f106114a9576101008083540402835291602001916114d4565b820191906000526020600020905b8154815290600101906020018083116114b757829003601f168201915b5050505050908060030154908060040180546114ef906155e4565b80601f016020809104026020016040519081016040528092919081815260200182805461151b906155e4565b80156115685780601f1061153d57610100808354040283529160200191611568565b820191906000526020600020905b81548152906001019060200180831161154b57829003601f168201915b5050505050905084565b6004818154811061158257600080fd5b90600052602060002090600e020160009150905080600001604051806080016040529081600082016040518060400160405290816000820160009054906101000a900473ffffffffffffffffffffffffffffffffffffffff1673ffffffffffffffffffffffffffffffffffffffff1673ffffffffffffffffffffffffffffffffffffffff16815260200160018201805461161b906155e4565b80601f0160208091040260200160405190810160405280929190818152602001828054611647906155e4565b80156116945780601f1061166957610100808354040283529160200191611694565b820191906000526020600020905b81548152906001019060200180831161167757829003601f168201915b50505050508152505081526020016002820180546116b1906155e4565b80601f01602080910402602001604051908101604052809291908181526020018280546116dd906155e4565b801561172a5780601f106116ff5761010080835404028352916020019161172a565b820191906000526020600020905b81548152906001019060200180831161170d57829003601f168201915b505050505081526020016003820154815260200160048201805461174d906155e4565b80601f0160208091040260200160405190810160405280929190818152602001828054611779906155e4565b80156117c65780601f1061179b576101008083540402835291602001916117c6565b820191906000526020600020905b8154815290600101906020018083116117a957829003601f168201915b5050505050815250509080600501604051806080016040529081600082016040518060400160405290816000820160009054906101000a900473ffffffffffffffffffffffffffffffffffffffff1673ffffffffffffffffffffffffffffffffffffffff1673ffffffffffffffffffffffffffffffffffffffff168152602001600182018054611855906155e4565b80601f0160208091040260200160405190810160405280929190818152602001828054611881906155e4565b80156118ce5780601f106118a3576101008083540402835291602001916118ce565b820191906000526020600020905b8154815290600101906020018083116118b157829003601f168201915b50505050508152505081526020016002820180546118eb906155e4565b80601f0160208091040260200160405190810160405280929190818152602001828054611917906155e4565b80156119645780601f1061193957610100808354040283529160200191611964565b820191906000526020600020905b81548152906001019060200180831161194757829003601f168201915b5050505050815260200160038201805461197d906155e4565b80601f01602080910402602001604051908101604052809291908181526020018280546119a9906155e4565b80156119f65780601f106119cb576101008083540402835291602001916119f6565b820191906000526020600020905b8154815290600101906020018083116119d957829003601f168201915b505050505081526020016004820154815250509080600a0160009054906101000a900460ff169080600b01549080600c018054611a32906155e4565b80601f0160208091040260200160405190810160405280929190818152602001828054611a5e906155e4565b8015611aab5780601f10611a8057610100808354040283529160200191611aab565b820191906000526020600020905b815481529060010190602001808311611a8e57829003601f168201915b50505050509080600d0160009054906101000a900460ff169080600d0160019054906101000a900460ff16905087565b600560009054906101000a900473ffffffffffffffffffffffffffffffffffffffff1681565b6060600560009054906101000a900473ffffffffffffffffffffffffffffffffffffffff1673ffffffffffffffffffffffffffffffffffffffff163373ffffffffffffffffffffffffffffffffffffffff1614611b93576040517f08c379a0000000000000000000000000000000000000000000000000000000008152600401611b8a90615877565b60405180910390fd5b6001805480602002602001604051908101604052809291908181526020016000905b82821015611e115783829060005260206000209060050201604051806080016040529081600082016040518060400160405290816000820160009054906101000a900473ffffffffffffffffffffffffffffffffffffffff1673ffffffffffffffffffffffffffffffffffffffff1673ffffffffffffffffffffffffffffffffffffffff168152602001600182018054611c4e906155e4565b80601f0160208091040260200160405190810160405280929190818152602001828054611c7a906155e4565b8015611cc75780601f10611c9c57610100808354040283529160200191611cc7565b820191906000526020600020905b815481529060010190602001808311611caa57829003601f168201915b5050505050815250508152602001600282018054611ce4906155e4565b80601f0160208091040260200160405190810160405280929190818152602001828054611d10906155e4565b8015611d5d5780601f10611d3257610100808354040283529160200191611d5d565b820191906000526020600020905b815481529060010190602001808311611d4057829003601f168201915b50505050508152602001600382018054611d76906155e4565b80601f0160208091040260200160405190810160405280929190818152602001828054611da2906155e4565b8015611def5780601f10611dc457610100808354040283529160200191611def565b820191906000526020600020905b815481529060010190602001808311611dd257829003601f168201915b5050505050815260200160048201548152505081526020019060010190611bb5565b50505050905090565b7fffffffffffffffffffffffffffffffffffffffffffffffffffffffffffffffff600087604051611e4b919061559e565b90815260200160405180910390206003015410611e9d576040517f08c379a0000000000000000000000000000000000000000000000000000000008152600401611e9490615b75565b60405180910390fd5b60088460ff1610158015611eb5575060128460ff1611155b611ef4576040517f08c379a0000000000000000000000000000000000000000000000000000000008152600401611eeb9061599b565b60405180910390fd5b42851015611f37576040517f08c379a0000000000000000000000000000000000000000000000000000000008152600401611f2e90615a2d565b60405180910390fd5b60006001905060008088604051611f4e919061559e565b9081526020016040518091039020604051806080016040529081600082016040518060400160405290816000820160009054906101000a900473ffffffffffffffffffffffffffffffffffffffff1673ffffffffffffffffffffffffffffffffffffffff1673ffffffffffffffffffffffffffffffffffffffff168152602001600182018054611fdd906155e4565b80601f0160208091040260200160405190810160405280929190818152602001828054612009906155e4565b80156120565780601f1061202b57610100808354040283529160200191612056565b820191906000526020600020905b81548152906001019060200180831161203957829003601f168201915b5050505050815250508152602001600282018054612073906155e4565b80601f016020809104026020016040519081016040528092919081815260200182805461209f906155e4565b80156120ec5780601f106120c1576101008083540402835291602001916120ec565b820191906000526020600020905b8154815290600101906020018083116120cf57829003601f168201915b505050505081526020016003820154815260200160048201805461210f906155e4565b80601f016020809104026020016040519081016040528092919081815260200182805461213b906155e4565b80156121885780601f1061215d57610100808354040283529160200191612188565b820191906000526020600020905b81548152906001019060200180831161216b57829003601f168201915b5050505050815250509050600060018260400151815481106121ad576121ac615615565b5b9060005260206000209060050201604051806080016040529081600082016040518060400160405290816000820160009054906101000a900473ffffffffffffffffffffffffffffffffffffffff1673ffffffffffffffffffffffffffffffffffffffff1673ffffffffffffffffffffffffffffffffffffffff16815260200160018201805461223c906155e4565b80601f0160208091040260200160405190810160405280929190818152602001828054612268906155e4565b80156122b55780601f1061228a576101008083540402835291602001916122b5565b820191906000526020600020905b81548152906001019060200180831161229857829003601f168201915b50505050508152505081526020016002820180546122d2906155e4565b80601f01602080910402602001604051908101604052809291908181526020018280546122fe906155e4565b801561234b5780601f106123205761010080835404028352916020019161234b565b820191906000526020600020905b81548152906001019060200180831161232e57829003601f168201915b50505050508152602001600382018054612364906155e4565b80601f0160208091040260200160405190810160405280929190818152602001828054612390906155e4565b80156123dd5780601f106123b2576101008083540402835291602001916123dd565b820191906000526020600020905b8154815290600101906020018083116123c057829003601f168201915b50505050508152602001600482015481525050905060005b6003805490508110801561242d5750426003828154811061241957612418615615565b5b90600052602060002090600e0201600a0154115b156125c45781600001516000015173ffffffffffffffffffffffffffffffffffffffff166003828154811061246557612464615615565b5b90600052602060002090600e020160050160000160000160009054906101000a900473ffffffffffffffffffffffffffffffffffffffff1673ffffffffffffffffffffffffffffffffffffffff16036125b15788600382815481106124cd576124cc615615565b5b90600052602060002090600e0201600a015414801561252357508760ff16600382815481106124ff576124fe615615565b5b90600052602060002090600e0201600b0160009054906101000a900460ff1660ff16145b806125a65750886003828154811061253e5761253d615615565b5b90600052602060002090600e0201600a01541480156125a557506103848860ff166125699190615ba3565b61ffff166003828154811061258157612580615615565b5b90600052602060002090600e0201600b0160009054906101000a900460ff1660ff16115b5b156125b057600093505b5b80806125bc90615705565b9150506123f5565b508215612adf5760036040518060c001604052808481526020018381526020018a81526020018960ff16815260200187815260200186600181111561260c5761260b614ed7565b5b81525090806001815401808255809150506001900390600052602060002090600e020160009091909190915060008201518160000160008201518160000160008201518160000160006101000a81548173ffffffffffffffffffffffffffffffffffffffff021916908373ffffffffffffffffffffffffffffffffffffffff16021790555060208201518160010190805190602001906126ad929190614222565b50505060208201518160020190805190602001906126cc929190614222565b506040820151816003015560608201518160040190805190602001906126f3929190614222565b50505060208201518160050160008201518160000160008201518160000160006101000a81548173ffffffffffffffffffffffffffffffffffffffff021916908373ffffffffffffffffffffffffffffffffffffffff160217905550602082015181600101908051906020019061276b929190614222565b505050602082015181600201908051906020019061278a929190614222565b5060408201518160030190805190602001906127a7929190614222565b50606082015181600401555050604082015181600a0155606082015181600b0160006101000a81548160ff021916908360ff160217905550608082015181600c0190805190602001906127fb929190614222565b5060a082015181600d0160006101000a81548160ff0219169083600181111561282757612826614ed7565b5b0217905550505060046040518060e001604052808481526020018381526020018960ff1681526020018a8152602001888152602001600060028111156128705761286f614ed7565b5b815260200186600181111561288857612887614ed7565b5b81525090806001815401808255809150506001900390600052602060002090600e020160009091909190915060008201518160000160008201518160000160008201518160000160006101000a81548173ffffffffffffffffffffffffffffffffffffffff021916908373ffffffffffffffffffffffffffffffffffffffff1602179055506020820151816001019080519060200190612929929190614222565b5050506020820151816002019080519060200190612948929190614222565b5060408201518160030155606082015181600401908051906020019061296f929190614222565b50505060208201518160050160008201518160000160008201518160000160006101000a81548173ffffffffffffffffffffffffffffffffffffffff021916908373ffffffffffffffffffffffffffffffffffffffff16021790555060208201518160010190805190602001906129e7929190614222565b5050506020820151816002019080519060200190612a06929190614222565b506040820151816003019080519060200190612a23929190614222565b50606082015181600401555050604082015181600a0160006101000a81548160ff021916908360ff160217905550606082015181600b0155608082015181600c019080519060200190612a77929190614222565b5060a082015181600d0160006101000a81548160ff02191690836002811115612aa357612aa2614ed7565b5b021790555060c082015181600d0160016101000a81548160ff02191690836001811115612ad357612ad2614ed7565b5b02179055505050612b1a565b6040517f08c379a0000000000000000000000000000000000000000000000000000000008152600401612b1190615c6f565b60405180910390fd5b505050505050505050565b6060600560009054906101000a900473ffffffffffffffffffffffffffffffffffffffff1673ffffffffffffffffffffffffffffffffffffffff163373ffffffffffffffffffffffffffffffffffffffff1614612bb7576040517f08c379a0000000000000000000000000000000000000000000000000000000008152600401612bae90615877565b60405180910390fd5b6002805480602002602001604051908101604052809291908181526020016000905b82821015612e2b5783829060005260206000209060040201604051806060016040529081600082016040518060400160405290816000820160009054906101000a900473ffffffffffffffffffffffffffffffffffffffff1673ffffffffffffffffffffffffffffffffffffffff1673ffffffffffffffffffffffffffffffffffffffff168152602001600182018054612c72906155e4565b80601f0160208091040260200160405190810160405280929190818152602001828054612c9e906155e4565b8015612ceb5780601f10612cc057610100808354040283529160200191612ceb565b820191906000526020600020905b815481529060010190602001808311612cce57829003601f168201915b5050505050815250508152602001600282018054612d08906155e4565b80601f0160208091040260200160405190810160405280929190818152602001828054612d34906155e4565b8015612d815780601f10612d5657610100808354040283529160200191612d81565b820191906000526020600020905b815481529060010190602001808311612d6457829003601f168201915b50505050508152602001600382018054612d9a906155e4565b80601f0160208091040260200160405190810160405280929190818152602001828054612dc6906155e4565b8015612e135780601f10612de857610100808354040283529160200191612e13565b820191906000526020600020905b815481529060010190602001808311612df657829003601f168201915b50505050508152505081526020019060010190612bd9565b50505050905090565b600073ffffffffffffffffffffffffffffffffffffffff16600084604051612e5c919061559e565b908152602001604051809103902060000160000160009054906101000a900473ffffffffffffffffffffffffffffffffffffffff1673ffffffffffffffffffffffffffffffffffffffff1614612ee7576040517f08c379a0000000000000000000000000000000000000000000000000000000008152600401612ede90615cdb565b60405180910390fd5b600060405180604001604052803373ffffffffffffffffffffffffffffffffffffffff16815260200185815250905060405180608001604052808281526020018481526020017fffffffffffffffffffffffffffffffffffffffffffffffffffffffffffffffff815260200183815250600085604051612f67919061559e565b908152602001604051809103902060008201518160000160008201518160000160006101000a81548173ffffffffffffffffffffffffffffffffffffffff021916908373ffffffffffffffffffffffffffffffffffffffff1602179055506020820151816001019080519060200190612fe1929190614222565b5050506020820151816002019080519060200190613000929190614222565b50604082015181600301556060820151816004019080519060200190613027929190614222565b509050506130348461384a565b5050505050565b6130436142a8565b600560009054906101000a900473ffffffffffffffffffffffffffffffffffffffff1673ffffffffffffffffffffffffffffffffffffffff163373ffffffffffffffffffffffffffffffffffffffff16148061310e57506000826040516130aa919061559e565b908152602001604051809103902060000160000160009054906101000a900473ffffffffffffffffffffffffffffffffffffffff1673ffffffffffffffffffffffffffffffffffffffff163373ffffffffffffffffffffffffffffffffffffffff16145b806131ad57506001600083604051613126919061559e565b9081526020016040518091039020600301548154811061314957613148615615565b5b906000526020600020906005020160000160000160009054906101000a900473ffffffffffffffffffffffffffffffffffffffff1673ffffffffffffffffffffffffffffffffffffffff163373ffffffffffffffffffffffffffffffffffffffff16145b6131ec576040517f08c379a00000000000000000000000000000000000000000000000000000000081526004016131e390615d93565b60405180910390fd5b6000826040516131fc919061559e565b9081526020016040518091039020604051806080016040529081600082016040518060400160405290816000820160009054906101000a900473ffffffffffffffffffffffffffffffffffffffff1673ffffffffffffffffffffffffffffffffffffffff1673ffffffffffffffffffffffffffffffffffffffff16815260200160018201805461328b906155e4565b80601f01602080910402602001604051908101604052809291908181526020018280546132b7906155e4565b80156133045780601f106132d957610100808354040283529160200191613304565b820191906000526020600020905b8154815290600101906020018083116132e757829003601f168201915b5050505050815250508152602001600282018054613321906155e4565b80601f016020809104026020016040519081016040528092919081815260200182805461334d906155e4565b801561339a5780601f1061336f5761010080835404028352916020019161339a565b820191906000526020600020905b81548152906001019060200180831161337d57829003601f168201915b50505050508152602001600382015481526020016004820180546133bd906155e4565b80601f01602080910402602001604051908101604052809291908181526020018280546133e9906155e4565b80156134365780601f1061340b57610100808354040283529160200191613436565b820191906000526020600020905b81548152906001019060200180831161341957829003601f168201915b5050505050815250509050919050565b6002818154811061345657600080fd5b9060005260206000209060040201600091509050806000016040518060400160405290816000820160009054906101000a900473ffffffffffffffffffffffffffffffffffffffff1673ffffffffffffffffffffffffffffffffffffffff1673ffffffffffffffffffffffffffffffffffffffff1681526020016001820180546134df906155e4565b80601f016020809104026020016040519081016040528092919081815260200182805461350b906155e4565b80156135585780601f1061352d57610100808354040283529160200191613558565b820191906000526020600020905b81548152906001019060200180831161353b57829003601f168201915b50505050508152505090806002018054613571906155e4565b80601f016020809104026020016040519081016040528092919081815260200182805461359d906155e4565b80156135ea5780601f106135bf576101008083540402835291602001916135ea565b820191906000526020600020905b8154815290600101906020018083116135cd57829003601f168201915b5050505050908060030180546135ff906155e4565b80601f016020809104026020016040519081016040528092919081815260200182805461362b906155e4565b80156136785780601f1061364d57610100808354040283529160200191613678565b820191906000526020600020905b81548152906001019060200180831161365b57829003601f168201915b5050505050905083565b600560009054906101000a900473ffffffffffffffffffffffffffffffffffffffff1673ffffffffffffffffffffffffffffffffffffffff163373ffffffffffffffffffffffffffffffffffffffff1614613712576040517f08c379a000000000000000000000000000000000000000000000000000000000815260040161370990615877565b60405180910390fd5b600060405180604001604052808673ffffffffffffffffffffffffffffffffffffffff168152602001858152509050600160405180608001604052808381526020018581526020018481526020016000815250908060018154018082558091505060019003906000526020600020906005020160009091909190915060008201518160000160008201518160000160006101000a81548173ffffffffffffffffffffffffffffffffffffffff021916908373ffffffffffffffffffffffffffffffffffffffff16021790555060208201518160010190805190602001906137fa929190614222565b5050506020820151816002019080519060200190613819929190614222565b506040820151816003019080519060200190613836929190614222565b506060820151816004015550505050505050565b60008060018054905011613893576040517f08c379a000000000000000000000000000000000000000000000000000000000815260040161388a90615dff565b60405180910390fd5b60008080846040516138a5919061559e565b9081526020016040518091039020604051806080016040529081600082016040518060400160405290816000820160009054906101000a900473ffffffffffffffffffffffffffffffffffffffff1673ffffffffffffffffffffffffffffffffffffffff1673ffffffffffffffffffffffffffffffffffffffff168152602001600182018054613934906155e4565b80601f0160208091040260200160405190810160405280929190818152602001828054613960906155e4565b80156139ad5780601f10613982576101008083540402835291602001916139ad565b820191906000526020600020905b81548152906001019060200180831161399057829003601f168201915b50505050508152505081526020016002820180546139ca906155e4565b80601f01602080910402602001604051908101604052809291908181526020018280546139f6906155e4565b8015613a435780601f10613a1857610100808354040283529160200191613a43565b820191906000526020600020905b815481529060010190602001808311613a2657829003601f168201915b5050505050815260200160038201548152602001600482018054613a66906155e4565b80601f0160208091040260200160405190810160405280929190818152602001828054613a92906155e4565b8015613adf5780601f10613ab457610100808354040283529160200191613adf565b820191906000526020600020905b815481529060010190602001808311613ac257829003601f168201915b50505050508152505090506000816020015190506000807fffffffffffffffffffffffffffffffffffffffffffffffffffffffffffffffff90505b600180549050851015613c5e576040518060400160405280600781526020017f47656e6572616c000000000000000000000000000000000000000000000000008152508051906020012060018681548110613b7857613b77615615565b5b9060005260206000209060050201600201604051613b969190615aec565b6040518091039020148015613bea5750828051906020012060018681548110613bc257613bc1615615565b5b9060005260206000209060050201600301604051613be09190615aec565b6040518091039020145b8015613c1a57508060018681548110613c0657613c05615615565b5b906000526020600020906005020160040154105b15613c4b5760018581548110613c3357613c32615615565b5b90600052602060002090600502016004015490508491505b8480613c5690615705565b955050613b1a565b60018281548110613c7257613c71615615565b5b90600052602060002090600502016004016000815480929190613c9490615705565b919050555081600088604051613caa919061559e565b9081526020016040518091039020600301819055508195505050505050919050565b60038181548110613cdc57600080fd5b90600052602060002090600e020160009150905080600001604051806080016040529081600082016040518060400160405290816000820160009054906101000a900473ffffffffffffffffffffffffffffffffffffffff1673ffffffffffffffffffffffffffffffffffffffff1673ffffffffffffffffffffffffffffffffffffffff168152602001600182018054613d75906155e4565b80601f0160208091040260200160405190810160405280929190818152602001828054613da1906155e4565b8015613dee5780601f10613dc357610100808354040283529160200191613dee565b820191906000526020600020905b815481529060010190602001808311613dd157829003601f168201915b5050505050815250508152602001600282018054613e0b906155e4565b80601f0160208091040260200160405190810160405280929190818152602001828054613e37906155e4565b8015613e845780601f10613e5957610100808354040283529160200191613e84565b820191906000526020600020905b815481529060010190602001808311613e6757829003601f168201915b5050505050815260200160038201548152602001600482018054613ea7906155e4565b80601f0160208091040260200160405190810160405280929190818152602001828054613ed3906155e4565b8015613f205780601f10613ef557610100808354040283529160200191613f20565b820191906000526020600020905b815481529060010190602001808311613f0357829003601f168201915b5050505050815250509080600501604051806080016040529081600082016040518060400160405290816000820160009054906101000a900473ffffffffffffffffffffffffffffffffffffffff1673ffffffffffffffffffffffffffffffffffffffff1673ffffffffffffffffffffffffffffffffffffffff168152602001600182018054613faf906155e4565b80601f0160208091040260200160405190810160405280929190818152602001828054613fdb906155e4565b80156140285780601f10613ffd57610100808354040283529160200191614028565b820191906000526020600020905b81548152906001019060200180831161400b57829003601f168201915b5050505050815250508152602001600282018054614045906155e4565b80601f0160208091040260200160405190810160405280929190818152602001828054614071906155e4565b80156140be5780601f10614093576101008083540402835291602001916140be565b820191906000526020600020905b8154815290600101906020018083116140a157829003601f168201915b505050505081526020016003820180546140d7906155e4565b80601f0160208091040260200160405190810160405280929190818152602001828054614103906155e4565b80156141505780601f1061412557610100808354040283529160200191614150565b820191906000526020600020905b81548152906001019060200180831161413357829003601f168201915b505050505081526020016004820154815250509080600a01549080600b0160009054906101000a900460ff169080600c01805461418c906155e4565b80601f01602080910402602001604051908101604052809291908181526020018280546141b8906155e4565b80156142055780601f106141da57610100808354040283529160200191614205565b820191906000526020600020905b8154815290600101906020018083116141e857829003601f168201915b50505050509080600d0160009054906101000a900460ff16905086565b82805461422e906155e4565b90600052602060002090601f0160209004810192826142505760008555614297565b82601f1061426957805160ff1916838001178555614297565b82800160010185558215614297579182015b8281111561429657825182559160200191906001019061427b565b5b5090506142a491906142d6565b5090565b60405180608001604052806142bb6142f3565b81526020016060815260200160008152602001606081525090565b5b808211156142ef5760008160009055506001016142d7565b5090565b6040518060400160405280600073ffffffffffffffffffffffffffffffffffffffff168152602001606081525090565b6000604051905090565b600080fd5b600080fd5b600080fd5b600080fd5b6000601f19601f8301169050919050565b7f4e487b7100000000000000000000000000000000000000000000000000000000600052604160045260246000fd5b61438a82614341565b810181811067ffffffffffffffff821117156143a9576143a8614352565b5b80604052505050565b60006143bc614323565b90506143c88282614381565b919050565b600067ffffffffffffffff8211156143e8576143e7614352565b5b6143f182614341565b9050602081019050919050565b82818337600083830152505050565b600061442061441b846143cd565b6143b2565b90508281526020810184848401111561443c5761443b61433c565b5b6144478482856143fe565b509392505050565b600082601f83011261446457614463614337565b5b813561447484826020860161440d565b91505092915050565b6000819050919050565b6144908161447d565b811461449b57600080fd5b50565b6000813590506144ad81614487565b92915050565b600080600080608085870312156144cd576144cc61432d565b5b600085013567ffffffffffffffff8111156144eb576144ea614332565b5b6144f78782880161444f565b94505060206145088782880161449e565b93505060406145198782880161449e565b925050606085013567ffffffffffffffff81111561453a57614539614332565b5b6145468782880161444f565b91505092959194509250565b6000602082840312156145685761456761432d565b5b60006145768482850161449e565b91505092915050565b600073ffffffffffffffffffffffffffffffffffffffff82169050919050565b60006145aa8261457f565b9050919050565b6145ba8161459f565b82525050565b600081519050919050565b600082825260208201905092915050565b60005b838110156145fa5780820151818401526020810190506145df565b83811115614609576000848401525b50505050565b600061461a826145c0565b61462481856145cb565b93506146348185602086016145dc565b61463d81614341565b840191505092915050565b600060408301600083015161466060008601826145b1565b5060208301518482036020860152614678828261460f565b9150508091505092915050565b600082825260208201905092915050565b60006146a1826145c0565b6146ab8185614685565b93506146bb8185602086016145dc565b6146c481614341565b840191505092915050565b6146d88161447d565b82525050565b600060808201905081810360008301526146f88187614648565b9050818103602083015261470c8186614696565b905081810360408301526147208185614696565b905061472f60608301846146cf565b95945050505050565b6147418161459f565b811461474c57600080fd5b50565b60008135905061475e81614738565b92915050565b6000806000806080858703121561477e5761477d61432d565b5b600061478c8782880161474f565b945050602085013567ffffffffffffffff8111156147ad576147ac614332565b5b6147b98782880161444f565b935050604085013567ffffffffffffffff8111156147da576147d9614332565b5b6147e68782880161444f565b925050606085013567ffffffffffffffff81111561480757614806614332565b5b6148138782880161444f565b91505092959194509250565b600080fd5b600080fd5b60006040828403121561483f5761483e61481f565b5b61484960406143b2565b905060006148598482850161474f565b600083015250602082013567ffffffffffffffff81111561487d5761487c614824565b5b6148898482850161444f565b60208301525092915050565b6000608082840312156148ab576148aa61481f565b5b6148b560806143b2565b9050600082013567ffffffffffffffff8111156148d5576148d4614824565b5b6148e184828501614829565b600083015250602082013567ffffffffffffffff81111561490557614904614824565b5b6149118482850161444f565b60208301525060406149258482850161449e565b604083015250606082013567ffffffffffffffff81111561494957614948614824565b5b6149558482850161444f565b60608301525092915050565b6000608082840312156149775761497661481f565b5b61498160806143b2565b9050600082013567ffffffffffffffff8111156149a1576149a0614824565b5b6149ad84828501614829565b600083015250602082013567ffffffffffffffff8111156149d1576149d0614824565b5b6149dd8482850161444f565b602083015250604082013567ffffffffffffffff811115614a0157614a00614824565b5b614a0d8482850161444f565b6040830152506060614a218482850161449e565b60608301525092915050565b600060ff82169050919050565b614a4381614a2d565b8114614a4e57600080fd5b50565b600081359050614a6081614a3a565b92915050565b60038110614a7357600080fd5b50565b600081359050614a8581614a66565b92915050565b60028110614a9857600080fd5b50565b600081359050614aaa81614a8b565b92915050565b600060e08284031215614ac657614ac561481f565b5b614ad060e06143b2565b9050600082013567ffffffffffffffff811115614af057614aef614824565b5b614afc84828501614895565b600083015250602082013567ffffffffffffffff811115614b2057614b1f614824565b5b614b2c84828501614961565b6020830152506040614b4084828501614a51565b6040830152506060614b548482850161449e565b606083015250608082013567ffffffffffffffff811115614b7857614b77614824565b5b614b848482850161444f565b60808301525060a0614b9884828501614a76565b60a08301525060c0614bac84828501614a9b565b60c08301525092915050565b600060208284031215614bce57614bcd61432d565b5b600082013567ffffffffffffffff811115614bec57614beb614332565b5b614bf884828501614ab0565b91505092915050565b600080600080600080600060e0888a031215614c2057614c1f61432d565b5b6000614c2e8a828b01614a51565b975050602088013567ffffffffffffffff811115614c4f57614c4e614332565b5b614c5b8a828b01614961565b965050604088013567ffffffffffffffff811115614c7c57614c7b614332565b5b614c888a828b0161444f565b955050606088013567ffffffffffffffff811115614ca957614ca8614332565b5b614cb58a828b01614895565b9450506080614cc68a828b0161449e565b93505060a0614cd78a828b01614a51565b92505060c0614ce88a828b01614a9b565b91505092959891949750929550565b600060208284031215614d0d57614d0c61432d565b5b600082013567ffffffffffffffff811115614d2b57614d2a614332565b5b614d378482850161444f565b91505092915050565b60006080820190508181036000830152614d5a8187614648565b90508181036020830152614d6e8186614696565b9050614d7d60408301856146cf565b8181036060830152614d8f8184614696565b905095945050505050565b6000604083016000830151614db260008601826145b1565b5060208301518482036020860152614dca828261460f565b9150508091505092915050565b614de08161447d565b82525050565b60006080830160008301518482036000860152614e038282614d9a565b91505060208301518482036020860152614e1d828261460f565b9150506040830151614e326040860182614dd7565b5060608301518482036060860152614e4a828261460f565b9150508091505092915050565b60006080830160008301518482036000860152614e748282614d9a565b91505060208301518482036020860152614e8e828261460f565b91505060408301518482036040860152614ea8828261460f565b9150506060830151614ebd6060860182614dd7565b508091505092915050565b614ed181614a2d565b82525050565b7f4e487b7100000000000000000000000000000000000000000000000000000000600052602160045260246000fd5b60038110614f1757614f16614ed7565b5b50565b6000819050614f2882614f06565b919050565b6000614f3882614f1a565b9050919050565b614f4881614f2d565b82525050565b60028110614f5f57614f5e614ed7565b5b50565b6000819050614f7082614f4e565b919050565b6000614f8082614f62565b9050919050565b614f9081614f75565b82525050565b600060e0820190508181036000830152614fb0818a614de6565b90508181036020830152614fc48189614e57565b9050614fd36040830188614ec8565b614fe060608301876146cf565b8181036080830152614ff28186614696565b905061500160a0830185614f3f565b61500e60c0830184614f87565b98975050505050505050565b6150238161459f565b82525050565b600060208201905061503e600083018461501a565b92915050565b600081519050919050565b600082825260208201905092915050565b6000819050602082019050919050565b6000608083016000830151848203600086015261508d8282614d9a565b915050602083015184820360208601526150a7828261460f565b915050604083015184820360408601526150c1828261460f565b91505060608301516150d66060860182614dd7565b508091505092915050565b60006150ed8383615070565b905092915050565b6000602082019050919050565b600061510d82615044565b615117818561504f565b93508360208202850161512985615060565b8060005b85811015615165578484038952815161514685826150e1565b9450615151836150f5565b925060208a0199505060018101905061512d565b50829750879550505050505092915050565b600060208201905081810360008301526151918184615102565b905092915050565b60008060008060008060c087890312156151b6576151b561432d565b5b600087013567ffffffffffffffff8111156151d4576151d3614332565b5b6151e089828a0161444f565b96505060206151f189828a0161449e565b955050604061520289828a01614a51565b945050606087013567ffffffffffffffff81111561522357615222614332565b5b61522f89828a0161444f565b935050608087013567ffffffffffffffff8111156152505761524f614332565b5b61525c89828a0161444f565b92505060a061526d89828a01614a9b565b9150509295509295509295565b600081519050919050565b600082825260208201905092915050565b6000819050602082019050919050565b600060608301600083015184820360008601526152c38282614d9a565b915050602083015184820360208601526152dd828261460f565b915050604083015184820360408601526152f7828261460f565b9150508091505092915050565b600061531083836152a6565b905092915050565b6000602082019050919050565b60006153308261527a565b61533a8185615285565b93508360208202850161534c85615296565b8060005b8581101561538857848403895281516153698582615304565b945061537483615318565b925060208a01995050600181019050615350565b50829750879550505050505092915050565b600060208201905081810360008301526153b48184615325565b905092915050565b6000806000606084860312156153d5576153d461432d565b5b600084013567ffffffffffffffff8111156153f3576153f2614332565b5b6153ff8682870161444f565b935050602084013567ffffffffffffffff8111156154205761541f614332565b5b61542c8682870161444f565b925050604084013567ffffffffffffffff81111561544d5761544c614332565b5b6154598682870161444f565b9150509250925092565b6000602082019050818103600083015261547d8184614de6565b905092915050565b6000606082019050818103600083015261549f8186614648565b905081810360208301526154b38185614696565b905081810360408301526154c78184614696565b9050949350505050565b60006020820190506154e660008301846146cf565b92915050565b600060c08201905081810360008301526155068189614de6565b9050818103602083015261551a8188614e57565b905061552960408301876146cf565b6155366060830186614ec8565b81810360808301526155488185614696565b905061555760a0830184614f87565b979650505050505050565b600081905092915050565b6000615578826145c0565b6155828185615562565b93506155928185602086016145dc565b80840191505092915050565b60006155aa828461556d565b915081905092915050565b7f4e487b7100000000000000000000000000000000000000000000000000000000600052602260045260246000fd5b600060028204905060018216806155fc57607f821691505b60208210810361560f5761560e6155b5565b5b50919050565b7f4e487b7100000000000000000000000000000000000000000000000000000000600052603260045260246000fd5b7f536f6c6f20656c206d656469636f207075656465206174656e646572206c612060008201527f636f6e73756c7461000000000000000000000000000000000000000000000000602082015250565b60006156a0602883614685565b91506156ab82615644565b604082019050919050565b600060208201905081810360008301526156cf81615693565b9050919050565b7f4e487b7100000000000000000000000000000000000000000000000000000000600052601160045260246000fd5b60006157108261447d565b91507fffffffffffffffffffffffffffffffffffffffffffffffffffffffffffffffff8203615742576157416156d6565b5b600182019050919050565b7f4e6f20736520656e636f6e74726f20756e6120636f6e73756c74612070726f6760008201527f72616d61646120636f6e206c6f73206461746f7320657370656369666963616460208201527f6f73000000000000000000000000000000000000000000000000000000000000604082015250565b60006157cf604283614685565b91506157da8261574d565b606082019050919050565b600060208201905081810360008301526157fe816157c2565b9050919050565b7f536f6c6f20656c2061646d696e6973747261646f72207469656e65207065726d60008201527f69736f73207061726120656a65637574617220657374612066756e63696f6e00602082015250565b6000615861603f83614685565b915061586c82615805565b604082019050919050565b6000602082019050818103600083015261589081615854565b9050919050565b7f6c612063697461206e6f20657869737465206f206e6f20686179207065726d6960008201527f736f7320737566696369656e7465730000000000000000000000000000000000602082015250565b60006158f3602f83614685565b91506158fe82615897565b604082019050919050565b60006020820190508181036000830152615922816158e6565b9050919050565b7f4c6120636c696e69636120736f6c6f20617469656e646520656e747265206c6160008201527f7320383a30302079206c61732031383a30302e00000000000000000000000000602082015250565b6000615985603383614685565b915061599082615929565b604082019050919050565b600060208201905081810360008301526159b481615978565b9050919050565b7f4e6f2073652070756564656e2070726f6772616d617220636974617320616e7460008201527f6572696f72657320612065737465206d6f6d656e746f2e000000000000000000602082015250565b6000615a17603783614685565b9150615a22826159bb565b604082019050919050565b60006020820190508181036000830152615a4681615a0a565b9050919050565b600081905092915050565b60008190508160005260206000209050919050565b60008154615a7a816155e4565b615a848186615a4d565b94506001821660008114615a9f5760018114615ab057615ae3565b60ff19831686528186019350615ae3565b615ab985615a58565b60005b83811015615adb57815481890152600182019150602081019050615abc565b838801955050505b50505092915050565b6000615af88284615a6d565b915081905092915050565b7f456c2070616369656e7465206e6f207469656e6520756e206d656469636f206160008201527f7369676e61646f00000000000000000000000000000000000000000000000000602082015250565b6000615b5f602783614685565b9150615b6a82615b03565b604082019050919050565b60006020820190508181036000830152615b8e81615b52565b9050919050565b600061ffff82169050919050565b6000615bae82615b95565b9150615bb983615b95565b925082821015615bcc57615bcb6156d6565b5b828203905092915050565b7f4e6f2068617920687565636f206c696272652070617261206c6120636974612060008201527f656e20656c20686f726172696f20736f6c6963697461646f207061726120656c60208201527f2070616369656e746520737567657269646f2e00000000000000000000000000604082015250565b6000615c59605383614685565b9150615c6482615bd7565b606082019050919050565b60006020820190508181036000830152615c8881615c4c565b9050919050565b7f457374652070616369656e74652079612065737461207265676973747261646f600082015250565b6000615cc5602083614685565b9150615cd082615c8f565b602082019050919050565b60006020820190508181036000830152615cf481615cb8565b9050919050565b7f536f6c6f20656c2061646d696e6973747261646f722c20656c206d656469636f60008201527f20617369676e61646f206f20656c2070726f70696f2070616369656e7465207060208201527f756564656e206f6274656e6572206573746f73206461746f7300000000000000604082015250565b6000615d7d605983614685565b9150615d8882615cfb565b606082019050919050565b60006020820190508181036000830152615dac81615d70565b9050919050565b7f4e6f20686179206d656469636f7320646973706f6e69626c6573000000000000600082015250565b6000615de9601a83614685565b9150615df482615db3565b602082019050919050565b60006020820190508181036000830152615e1881615ddc565b905091905056fea2646970667358221220a85c84f91d930eeb3a7a579c763f2bea0adc03d6a91bce796ab5a76f865dfb6a64736f6c634300080d0033",
  "immutableReferences": {},
  "source": "// SPDX-License-Identifier: MIT\r\npragma solidity >=0.4.22 <0.9.0;\r\n\r\ncontract HistoriaClinica {\r\n    mapping(string => Paciente) public pacientes;\r\n    Medico[] public medicos;\r\n    Enfermero[] public enfermeros;\r\n     Cita[] public citas;\r\n    Consulta[] public consultas;\r\n\r\n    address public owner;\r\n\r\n    constructor() {\r\n        owner = msg.sender; // el primer usuario en crear el contrato se convierte en el owner o admin\r\n    }\r\n\r\n    enum tipo_consulta {\r\n        urgencias,\r\n        especialidad\r\n    }\r\n    enum tipo_organizacion {\r\n        publica,\r\n        privada\r\n    }\r\n    enum estado_consulta {\r\n        programada,cancelada,cerrada\r\n    }\r\n\r\n    struct Persona {\r\n        address direccionPublica;\r\n        string DNI;\r\n    }\r\n\r\n    struct Paciente {\r\n        Persona datos;\r\n        string centro_sanitario;\r\n        uint medico_asignado;\r\n        string datos_paciente;\r\n    }\r\n\r\n    struct Medico {\r\n        Persona datos; //Herencia\r\n        string especialidad;\r\n        string centro_sanitario;\r\n        uint numero_pacientes;\r\n    }\r\n\r\n    struct Enfermero {\r\n        Persona datos; //Herencia\r\n        string especialidad;\r\n        string centro_sanitario;\r\n    }\r\n    \r\n    struct Consulta {\r\n        Paciente paciente;\r\n        Medico medico;\r\n        uint8 hora;\r\n        uint256 fecha;\r\n        string datos_consulta;\r\n        estado_consulta estado;\r\n        tipo_consulta tipo;\r\n    }\r\n\r\n    struct Cita {\r\n        Paciente paciente;\r\n        Medico medico;\r\n        uint fecha;\r\n        uint8 hora;\r\n        string datos_cita;\r\n        tipo_consulta tipoConsulta;\r\n    }\r\n\r\nfunction registrarPaciente(string memory _DNI, string memory _centroSanitario, string memory _datosPaciente) public {\r\n    require(pacientes[_DNI].datos.direccionPublica == address(0), \"Este paciente ya esta registrado\");\r\n    Persona memory datosPersonales = Persona({\r\n    direccionPublica: msg.sender,\r\n    DNI: _DNI\r\n});\r\n\r\npacientes[_DNI] = Paciente({\r\n    centro_sanitario: _centroSanitario,\r\n    datos: datosPersonales,\r\n    medico_asignado: type(uint256).max, //an no tiene mdico asignado\r\n    datos_paciente: _datosPaciente\r\n});\r\nasignarMedico(_DNI);\r\n\r\n}\r\n\r\n    function registrarMedico(address _direccionMedico, string memory _DNI, string memory _especialidad, string memory _centro_sanitario) public {\r\n    require(msg.sender == owner, \"Solo el administrador tiene permisos para ejecutar esta funcion\");\r\n        Persona memory datosPersonales = Persona(_direccionMedico,_DNI);\r\n        medicos.push(Medico({\r\n        centro_sanitario: _centro_sanitario,\r\n        datos:datosPersonales,\r\n        especialidad: _especialidad,\r\n        numero_pacientes:0\r\n    }));\r\n}\r\n\r\n function registrarEnfermero(address _direccionEnfermero ,string memory _DNI, string memory _especialidad, string memory _centro_sanitario) public {\r\n        require(msg.sender == owner, \"Solo el administrador tiene permisos para ejecutar esta funcion\");\r\n        Persona memory datosPersonales = Persona (_direccionEnfermero,_DNI);\r\n        enfermeros.push(Enfermero({\r\n        especialidad: _especialidad,\r\n        centro_sanitario: _centro_sanitario,\r\n        datos : datosPersonales\r\n    }));\r\n\r\n    }\r\n\r\n    function asignarMedico(string memory _DNI) public returns (uint) {\r\n        // Comprobamos si hay mdicos disponibles\r\n         require(medicos.length > 0, \"No hay medicos disponibles\");\r\n        uint i = 0;\r\n        Paciente memory p = pacientes[_DNI]; //Buscamos el indice del paciente por DNI\r\n        string memory nombreCentroSanitario = p.centro_sanitario; // Obtenemos centro sanitario del paciente\r\n        uint indiceMedicoConMenosPacientes; //Posicion del array del medico con menos pacientes\r\n        uint256 minimoPacientes = type(uint256).max;\r\n        while (i < medicos.length) {\r\n            //Comprobamos especialidad, centro sanitario, y obtenemos el mdico con menos pacientes asignados\r\n            if (\r\n                keccak256(bytes(medicos[i].especialidad)) ==\r\n                keccak256(bytes(\"General\")) &&\r\n                keccak256(bytes(medicos[i].centro_sanitario)) ==\r\n                keccak256(bytes(nombreCentroSanitario)) &&\r\n                medicos[i].numero_pacientes < minimoPacientes\r\n            ) {\r\n                minimoPacientes = medicos[i].numero_pacientes;\r\n                indiceMedicoConMenosPacientes = i; //Mdico vlido encontrado\r\n            }\r\n            i++;\r\n        }\r\n        medicos[indiceMedicoConMenosPacientes].numero_pacientes++; //Aumentamos pacientes de ese mdico\r\n        pacientes[_DNI].medico_asignado=indiceMedicoConMenosPacientes; //Asignamos mdico al paciente\r\n        return indiceMedicoConMenosPacientes;\r\n    }\r\n\r\n    \r\n //Paciente pide una cita\r\nfunction solicitarCita(string memory _DNI, uint256 _fecha, uint8 _hora, string memory _datos_consulta, string memory _datos_cita, tipo_consulta _tipoConsulta) public {\r\n    require(pacientes[_DNI].medico_asignado < type(uint256).max, \"El paciente no tiene un medico asignado\");\r\n    require(_hora >= 8 && _hora <= 18, \"La clinica solo atiende entre las 8:00 y las 18:00.\");\r\n    require(_fecha >= block.timestamp, \"No se pueden programar citas anteriores a este momento.\");\r\n\r\n    bool huecoLibre = true;\r\n    Paciente memory paciente = pacientes[_DNI];\r\n    Medico memory medico = medicos[paciente.medico_asignado]; //Medico que el paciente tiene asignado\r\n    for (uint i = 0; i < citas.length && citas[i].fecha>block.timestamp; i++) { \r\n        //Comprobamos que sea el medico que tiene asignado el paciente \r\n        if(citas[i].medico.datos.direccionPublica == medico.datos.direccionPublica){ \r\n        //Comprobamos que haya un rango de 15 minutos disponibles despues de la cita\r\n        if (citas[i].fecha == _fecha && citas[i].hora == _hora || citas[i].fecha == _fecha && citas[i].hora > _hora - 15 minutes) {\r\n            huecoLibre = false;\r\n            }\r\n            }\r\n    }\r\n        if (huecoLibre) {\r\n    //Asignamos la nueva cita\r\n        citas.push(\r\n        Cita({\r\n            medico: medico,\r\n            paciente: paciente,\r\n            fecha: _fecha,\r\n            hora: _hora,\r\n            datos_cita:_datos_cita,\r\n            tipoConsulta: _tipoConsulta\r\n        }));\r\n\r\n    //Creamos la consulta\r\n        consultas.push(\r\n        Consulta({\r\n        paciente:paciente,\r\n        medico:medico,\r\n        fecha: _fecha,\r\n        hora:_hora,\r\n        datos_consulta:_datos_consulta,\r\n        estado: estado_consulta.programada,\r\n        tipo: _tipoConsulta\r\n    }));\r\n\r\n    } else {\r\n        revert(\"No hay hueco libre para la cita en el horario solicitado para el paciente sugerido.\");\r\n    }\r\n\r\n}\r\n \r\nfunction atenderConsulta (string memory _DNI, uint _fecha, uint _hora, string memory _datos_consulta) public {\r\n    Paciente memory paciente = pacientes[_DNI];\r\n    require(msg.sender ==  medicos[pacientes[_DNI].medico_asignado].datos.direccionPublica, \"Solo el medico puede atender la consulta\"); \r\n    bool consultaEncontrada = false;\r\n    for(uint i = 0; i < consultas.length; i++) {\r\n        if(consultas[i].fecha == _fecha && consultas[i].hora == _hora && keccak256(bytes(paciente.datos.DNI)) == keccak256(bytes(_DNI))) {\r\n            consultaEncontrada = true;\r\n            consultas[i].datos_consulta = _datos_consulta;\r\n            consultas[i].estado = estado_consulta.cerrada; //consulta cerrada\r\n        }\r\n    }\r\n    require(consultaEncontrada == true, \"No se encontro una consulta programada con los datos especificados\");\r\n}\r\n\r\nfunction modificarCita(uint8 indice, Medico memory _medico, string memory _datos_cita, Paciente memory _paciente, uint _nuevaFecha, uint8 _nuevaHora, tipo_consulta _nuevoTipoConsulta) public {\r\n    require((indice < citas.length) && (msg.sender == _medico.datos.direccionPublica || msg.sender == _paciente.datos.direccionPublica), \"la cita no existe o no hay permisos suficientes\");\r\n    require(_nuevaHora >= 8 && _nuevaHora <= 18, \"La clinica solo atiende entre las 8:00 y las 18:00.\");\r\n    require(_nuevaFecha >= block.timestamp, \"No se pueden programar citas anteriores a este momento.\");\r\n    //Actualizamos datos de la futura consulta mdica\r\n     for (uint i = 0; i < consultas.length; i++) {\r\n        if (consultas[i].fecha == citas[indice].fecha &&\r\n            consultas[i].hora == citas[indice].hora &&\r\n            keccak256(bytes(consultas[i].paciente.datos.DNI)) == keccak256(bytes(_paciente.datos.DNI))) {\r\n            consultas[i].fecha= _nuevaFecha;\r\n            consultas[i].hora= _nuevaHora;\r\n            consultas[i].fecha= _nuevaFecha;\r\n            consultas[i].tipo= _nuevoTipoConsulta;\r\n}\r\n     }\r\n    citas[indice].fecha=_nuevaFecha;\r\n    citas[indice].hora=_nuevaHora;\r\n    citas[indice].datos_cita=_datos_cita;\r\n    citas[indice].tipoConsulta = _nuevoTipoConsulta;\r\n    \r\n}\r\n//Medico crea consulta (especialidad o no)\r\nfunction crearConsulta(Consulta memory nuevaConsulta) public {\r\n    consultas.push(nuevaConsulta);\r\n}\r\n\r\nfunction obtenerMedicos() public view returns (Medico[] memory) {\r\n        require(msg.sender == owner, \"Solo el administrador tiene permisos para ejecutar esta funcion\");\r\n        return medicos;\r\n    }\r\n\r\n    function obtenerEnfermeros() public view returns (Enfermero[] memory) {\r\n        require(msg.sender == owner, \"Solo el administrador tiene permisos para ejecutar esta funcion\");\r\n        return enfermeros;\r\n    }\r\nfunction obtenerDatosPaciente(string memory _DNI) public view returns (Paciente memory) {\r\n        require(\r\n        msg.sender == owner || msg.sender == pacientes[_DNI].datos.direccionPublica || msg.sender == medicos[pacientes[_DNI].medico_asignado].datos.direccionPublica,\r\n        \"Solo el administrador, el medico asignado o el propio paciente pueden obtener estos datos\"\r\n    );\r\n    return pacientes[_DNI];\r\n}\r\n\r\n}\r\n\r\n",
  "sourcePath": "C:\\Users\\pablo\\OneDrive - Universidad de Castilla-La Mancha\\4\\TFG\\ProyectoHistoriaClinica\\contracts\\HistoriaClinica.sol",
  "compiler": {
    "name": "solc",
    "version": "0.8.13+commit.abaa5c0e.Emscripten.clang"
  },
  "schemaVersion": "3.4.15",
  "updatedAt": "2023-11-16T15:49:58.204Z",
  "networkType": "ethereum",
  "devdoc": {
    "kind": "dev",
    "methods": {},
    "version": 1
  },
  "userdoc": {
    "kind": "user",
    "methods": {},
    "version": 1
  }
}