{
  "contractName": "HistoriaClinica",
  "abi": [
    {
      "inputs": [],
      "stateMutability": "nonpayable",
      "type": "constructor"
    },
    {
      "inputs": [
        {
          "internalType": "uint256",
          "name": "",
          "type": "uint256"
        }
      ],
      "name": "citas",
      "outputs": [
        {
          "components": [
            {
              "components": [
                {
                  "internalType": "address",
                  "name": "direccionPublica",
                  "type": "address"
                },
                {
                  "internalType": "string",
                  "name": "DNI",
                  "type": "string"
                }
              ],
              "internalType": "struct HistoriaClinica.Persona",
              "name": "datos",
              "type": "tuple"
            },
            {
              "internalType": "string",
              "name": "centro_sanitario",
              "type": "string"
            },
            {
              "internalType": "uint256",
              "name": "medico_asignado",
              "type": "uint256"
            },
            {
              "internalType": "string",
              "name": "datos_paciente",
              "type": "string"
            }
          ],
          "internalType": "struct HistoriaClinica.Paciente",
          "name": "paciente",
          "type": "tuple"
        },
        {
          "components": [
            {
              "components": [
                {
                  "internalType": "address",
                  "name": "direccionPublica",
                  "type": "address"
                },
                {
                  "internalType": "string",
                  "name": "DNI",
                  "type": "string"
                }
              ],
              "internalType": "struct HistoriaClinica.Persona",
              "name": "datos",
              "type": "tuple"
            },
            {
              "internalType": "string",
              "name": "especialidad",
              "type": "string"
            },
            {
              "internalType": "string",
              "name": "centro_sanitario",
              "type": "string"
            },
            {
              "internalType": "uint256",
              "name": "numero_pacientes",
              "type": "uint256"
            }
          ],
          "internalType": "struct HistoriaClinica.Medico",
          "name": "medico",
          "type": "tuple"
        },
        {
          "internalType": "uint256",
          "name": "fecha",
          "type": "uint256"
        },
        {
          "internalType": "uint8",
          "name": "hora",
          "type": "uint8"
        },
        {
          "internalType": "string",
          "name": "datos_cita",
          "type": "string"
        },
        {
          "internalType": "enum HistoriaClinica.tipo_consulta",
          "name": "tipoConsulta",
          "type": "uint8"
        }
      ],
      "stateMutability": "view",
      "type": "function",
      "constant": true
    },
    {
      "inputs": [
        {
          "internalType": "uint256",
          "name": "",
          "type": "uint256"
        }
      ],
      "name": "consultas",
      "outputs": [
        {
          "components": [
            {
              "components": [
                {
                  "internalType": "address",
                  "name": "direccionPublica",
                  "type": "address"
                },
                {
                  "internalType": "string",
                  "name": "DNI",
                  "type": "string"
                }
              ],
              "internalType": "struct HistoriaClinica.Persona",
              "name": "datos",
              "type": "tuple"
            },
            {
              "internalType": "string",
              "name": "centro_sanitario",
              "type": "string"
            },
            {
              "internalType": "uint256",
              "name": "medico_asignado",
              "type": "uint256"
            },
            {
              "internalType": "string",
              "name": "datos_paciente",
              "type": "string"
            }
          ],
          "internalType": "struct HistoriaClinica.Paciente",
          "name": "paciente",
          "type": "tuple"
        },
        {
          "components": [
            {
              "components": [
                {
                  "internalType": "address",
                  "name": "direccionPublica",
                  "type": "address"
                },
                {
                  "internalType": "string",
                  "name": "DNI",
                  "type": "string"
                }
              ],
              "internalType": "struct HistoriaClinica.Persona",
              "name": "datos",
              "type": "tuple"
            },
            {
              "internalType": "string",
              "name": "especialidad",
              "type": "string"
            },
            {
              "internalType": "string",
              "name": "centro_sanitario",
              "type": "string"
            },
            {
              "internalType": "uint256",
              "name": "numero_pacientes",
              "type": "uint256"
            }
          ],
          "internalType": "struct HistoriaClinica.Medico",
          "name": "medico",
          "type": "tuple"
        },
        {
          "internalType": "uint8",
          "name": "hora",
          "type": "uint8"
        },
        {
          "internalType": "uint256",
          "name": "fecha",
          "type": "uint256"
        },
        {
          "internalType": "string",
          "name": "datos_consulta",
          "type": "string"
        },
        {
          "internalType": "enum HistoriaClinica.estado_consulta",
          "name": "estado",
          "type": "uint8"
        },
        {
          "internalType": "enum HistoriaClinica.tipo_consulta",
          "name": "tipo",
          "type": "uint8"
        }
      ],
      "stateMutability": "view",
      "type": "function",
      "constant": true
    },
    {
      "inputs": [
        {
          "internalType": "uint256",
          "name": "",
          "type": "uint256"
        }
      ],
      "name": "enfermeros",
      "outputs": [
        {
          "components": [
            {
              "internalType": "address",
              "name": "direccionPublica",
              "type": "address"
            },
            {
              "internalType": "string",
              "name": "DNI",
              "type": "string"
            }
          ],
          "internalType": "struct HistoriaClinica.Persona",
          "name": "datos",
          "type": "tuple"
        },
        {
          "internalType": "string",
          "name": "especialidad",
          "type": "string"
        },
        {
          "internalType": "string",
          "name": "centro_sanitario",
          "type": "string"
        }
      ],
      "stateMutability": "view",
      "type": "function",
      "constant": true
    },
    {
      "inputs": [
        {
          "internalType": "uint256",
          "name": "",
          "type": "uint256"
        }
      ],
      "name": "medicos",
      "outputs": [
        {
          "components": [
            {
              "internalType": "address",
              "name": "direccionPublica",
              "type": "address"
            },
            {
              "internalType": "string",
              "name": "DNI",
              "type": "string"
            }
          ],
          "internalType": "struct HistoriaClinica.Persona",
          "name": "datos",
          "type": "tuple"
        },
        {
          "internalType": "string",
          "name": "especialidad",
          "type": "string"
        },
        {
          "internalType": "string",
          "name": "centro_sanitario",
          "type": "string"
        },
        {
          "internalType": "uint256",
          "name": "numero_pacientes",
          "type": "uint256"
        }
      ],
      "stateMutability": "view",
      "type": "function",
      "constant": true
    },
    {
      "inputs": [],
      "name": "owner",
      "outputs": [
        {
          "internalType": "address",
          "name": "",
          "type": "address"
        }
      ],
      "stateMutability": "view",
      "type": "function",
      "constant": true
    },
    {
      "inputs": [
        {
          "internalType": "string",
          "name": "",
          "type": "string"
        }
      ],
      "name": "pacientes",
      "outputs": [
        {
          "components": [
            {
              "internalType": "address",
              "name": "direccionPublica",
              "type": "address"
            },
            {
              "internalType": "string",
              "name": "DNI",
              "type": "string"
            }
          ],
          "internalType": "struct HistoriaClinica.Persona",
          "name": "datos",
          "type": "tuple"
        },
        {
          "internalType": "string",
          "name": "centro_sanitario",
          "type": "string"
        },
        {
          "internalType": "uint256",
          "name": "medico_asignado",
          "type": "uint256"
        },
        {
          "internalType": "string",
          "name": "datos_paciente",
          "type": "string"
        }
      ],
      "stateMutability": "view",
      "type": "function",
      "constant": true
    },
    {
      "inputs": [
        {
          "internalType": "string",
          "name": "_DNI",
          "type": "string"
        },
        {
          "internalType": "string",
          "name": "_centroSanitario",
          "type": "string"
        },
        {
          "internalType": "string",
          "name": "_datosPaciente",
          "type": "string"
        }
      ],
      "name": "registrarPaciente",
      "outputs": [],
      "stateMutability": "nonpayable",
      "type": "function"
    },
    {
      "inputs": [
        {
          "internalType": "address",
          "name": "_direccionMedico",
          "type": "address"
        },
        {
          "internalType": "string",
          "name": "_DNI",
          "type": "string"
        },
        {
          "internalType": "string",
          "name": "_especialidad",
          "type": "string"
        },
        {
          "internalType": "string",
          "name": "_centro_sanitario",
          "type": "string"
        }
      ],
      "name": "registrarMedico",
      "outputs": [],
      "stateMutability": "nonpayable",
      "type": "function"
    },
    {
      "inputs": [
        {
          "internalType": "address",
          "name": "_direccionEnfermero",
          "type": "address"
        },
        {
          "internalType": "string",
          "name": "_DNI",
          "type": "string"
        },
        {
          "internalType": "string",
          "name": "_especialidad",
          "type": "string"
        },
        {
          "internalType": "string",
          "name": "_centro_sanitario",
          "type": "string"
        }
      ],
      "name": "registrarEnfermero",
      "outputs": [],
      "stateMutability": "nonpayable",
      "type": "function"
    },
    {
      "inputs": [
        {
          "internalType": "string",
          "name": "_DNI",
          "type": "string"
        }
      ],
      "name": "asignarMedico",
      "outputs": [
        {
          "internalType": "uint256",
          "name": "",
          "type": "uint256"
        }
      ],
      "stateMutability": "nonpayable",
      "type": "function"
    },
    {
      "inputs": [
        {
          "internalType": "string",
          "name": "_DNI",
          "type": "string"
        },
        {
          "internalType": "uint256",
          "name": "_fecha",
          "type": "uint256"
        },
        {
          "internalType": "uint8",
          "name": "_hora",
          "type": "uint8"
        },
        {
          "internalType": "string",
          "name": "_datos_consulta",
          "type": "string"
        },
        {
          "internalType": "string",
          "name": "_datos_cita",
          "type": "string"
        },
        {
          "internalType": "enum HistoriaClinica.tipo_consulta",
          "name": "_tipoConsulta",
          "type": "uint8"
        }
      ],
      "name": "solicitarCita",
      "outputs": [],
      "stateMutability": "nonpayable",
      "type": "function"
    },
    {
      "inputs": [
        {
          "internalType": "string",
          "name": "_DNI",
          "type": "string"
        },
        {
          "internalType": "uint256",
          "name": "_fecha",
          "type": "uint256"
        },
        {
          "internalType": "uint256",
          "name": "_hora",
          "type": "uint256"
        },
        {
          "internalType": "string",
          "name": "_datos_consulta",
          "type": "string"
        }
      ],
      "name": "atenderConsulta",
      "outputs": [],
      "stateMutability": "nonpayable",
      "type": "function"
    },
    {
      "inputs": [
        {
          "internalType": "uint8",
          "name": "indice",
          "type": "uint8"
        },
        {
          "components": [
            {
              "components": [
                {
                  "internalType": "address",
                  "name": "direccionPublica",
                  "type": "address"
                },
                {
                  "internalType": "string",
                  "name": "DNI",
                  "type": "string"
                }
              ],
              "internalType": "struct HistoriaClinica.Persona",
              "name": "datos",
              "type": "tuple"
            },
            {
              "internalType": "string",
              "name": "especialidad",
              "type": "string"
            },
            {
              "internalType": "string",
              "name": "centro_sanitario",
              "type": "string"
            },
            {
              "internalType": "uint256",
              "name": "numero_pacientes",
              "type": "uint256"
            }
          ],
          "internalType": "struct HistoriaClinica.Medico",
          "name": "_medico",
          "type": "tuple"
        },
        {
          "internalType": "string",
          "name": "_datos_cita",
          "type": "string"
        },
        {
          "components": [
            {
              "components": [
                {
                  "internalType": "address",
                  "name": "direccionPublica",
                  "type": "address"
                },
                {
                  "internalType": "string",
                  "name": "DNI",
                  "type": "string"
                }
              ],
              "internalType": "struct HistoriaClinica.Persona",
              "name": "datos",
              "type": "tuple"
            },
            {
              "internalType": "string",
              "name": "centro_sanitario",
              "type": "string"
            },
            {
              "internalType": "uint256",
              "name": "medico_asignado",
              "type": "uint256"
            },
            {
              "internalType": "string",
              "name": "datos_paciente",
              "type": "string"
            }
          ],
          "internalType": "struct HistoriaClinica.Paciente",
          "name": "_paciente",
          "type": "tuple"
        },
        {
          "internalType": "uint256",
          "name": "_nuevaFecha",
          "type": "uint256"
        },
        {
          "internalType": "uint8",
          "name": "_nuevaHora",
          "type": "uint8"
        },
        {
          "internalType": "enum HistoriaClinica.tipo_consulta",
          "name": "_nuevoTipoConsulta",
          "type": "uint8"
        }
      ],
      "name": "modificarCita",
      "outputs": [],
      "stateMutability": "nonpayable",
      "type": "function"
    },
    {
      "inputs": [
        {
          "components": [
            {
              "components": [
                {
                  "components": [
                    {
                      "internalType": "address",
                      "name": "direccionPublica",
                      "type": "address"
                    },
                    {
                      "internalType": "string",
                      "name": "DNI",
                      "type": "string"
                    }
                  ],
                  "internalType": "struct HistoriaClinica.Persona",
                  "name": "datos",
                  "type": "tuple"
                },
                {
                  "internalType": "string",
                  "name": "centro_sanitario",
                  "type": "string"
                },
                {
                  "internalType": "uint256",
                  "name": "medico_asignado",
                  "type": "uint256"
                },
                {
                  "internalType": "string",
                  "name": "datos_paciente",
                  "type": "string"
                }
              ],
              "internalType": "struct HistoriaClinica.Paciente",
              "name": "paciente",
              "type": "tuple"
            },
            {
              "components": [
                {
                  "components": [
                    {
                      "internalType": "address",
                      "name": "direccionPublica",
                      "type": "address"
                    },
                    {
                      "internalType": "string",
                      "name": "DNI",
                      "type": "string"
                    }
                  ],
                  "internalType": "struct HistoriaClinica.Persona",
                  "name": "datos",
                  "type": "tuple"
                },
                {
                  "internalType": "string",
                  "name": "especialidad",
                  "type": "string"
                },
                {
                  "internalType": "string",
                  "name": "centro_sanitario",
                  "type": "string"
                },
                {
                  "internalType": "uint256",
                  "name": "numero_pacientes",
                  "type": "uint256"
                }
              ],
              "internalType": "struct HistoriaClinica.Medico",
              "name": "medico",
              "type": "tuple"
            },
            {
              "internalType": "uint8",
              "name": "hora",
              "type": "uint8"
            },
            {
              "internalType": "uint256",
              "name": "fecha",
              "type": "uint256"
            },
            {
              "internalType": "string",
              "name": "datos_consulta",
              "type": "string"
            },
            {
              "internalType": "enum HistoriaClinica.estado_consulta",
              "name": "estado",
              "type": "uint8"
            },
            {
              "internalType": "enum HistoriaClinica.tipo_consulta",
              "name": "tipo",
              "type": "uint8"
            }
          ],
          "internalType": "struct HistoriaClinica.Consulta",
          "name": "nuevaConsulta",
          "type": "tuple"
        }
      ],
      "name": "crearConsulta",
      "outputs": [],
      "stateMutability": "nonpayable",
      "type": "function"
    }
  ],
  "bytecode": "0x608060405234801561001057600080fd5b5033600560006101000a81548173ffffffffffffffffffffffffffffffffffffffff021916908373ffffffffffffffffffffffffffffffffffffffff160217905550614fc6806100616000396000f3fe608060405234801561001057600080fd5b50600436106100ea5760003560e01c80638da5cb5b1161008c578063db8a982011610066578063db8a982014610251578063de67678114610283578063f12591081461029f578063f6652a67146102cf576100ea565b80638da5cb5b146101fb578063a6e85a1f14610219578063ca1cde8f14610235576100ea565b8063358e64d0116100c8578063358e64d01461015a5780634fef72281461017657806352509b8d146101925780637513e79c146101c5576100ea565b80631b01921a146100ef5780632c1a929d1461010b5780633550242f1461013e575b600080fd5b61010960048036038101906101049190613995565b610304565b005b61012560048036038101906101209190613a34565b6107c0565b6040516101359493929190613bc0565b60405180910390f35b61015860048036038101906101539190613c46565b610a02565b005b610174600480360381019061016f919061409a565b610bb9565b005b610190600480360381019061018b91906140e3565b610e0e565b005b6101ac60048036038101906101a791906141d9565b61129d565b6040516101bc9493929190614222565b60405180910390f35b6101df60048036038101906101da9190613a34565b6114e5565b6040516101f29796959493929190614478565b60405180910390f35b610203611a4e565b604051610210919061450b565b60405180910390f35b610233600480360381019061022e9190614526565b611a74565b005b61024f600480360381019061024a9190614607565b61277f565b005b61026b60048036038101906102669190613a34565b612986565b60405161027a939291906146ae565b60405180910390f35b61029d60048036038101906102989190613c46565b612bc2565b005b6102b960048036038101906102b491906141d9565b612d8a565b6040516102c691906146fa565b60405180910390f35b6102e960048036038101906102e49190613a34565b61320c565b6040516102fb96959493929190614715565b60405180910390f35b6000808560405161031591906147c7565b9081526020016040518091039020604051806080016040529081600082016040518060400160405290816000820160009054906101000a900473ffffffffffffffffffffffffffffffffffffffff1673ffffffffffffffffffffffffffffffffffffffff1673ffffffffffffffffffffffffffffffffffffffff1681526020016001820180546103a49061480d565b80601f01602080910402602001604051908101604052809291908181526020018280546103d09061480d565b801561041d5780601f106103f25761010080835404028352916020019161041d565b820191906000526020600020905b81548152906001019060200180831161040057829003601f168201915b505050505081525050815260200160028201805461043a9061480d565b80601f01602080910402602001604051908101604052809291908181526020018280546104669061480d565b80156104b35780601f10610488576101008083540402835291602001916104b3565b820191906000526020600020905b81548152906001019060200180831161049657829003601f168201915b50505050508152602001600382015481526020016004820180546104d69061480d565b80601f01602080910402602001604051908101604052809291908181526020018280546105029061480d565b801561054f5780601f106105245761010080835404028352916020019161054f565b820191906000526020600020905b81548152906001019060200180831161053257829003601f168201915b5050505050815250509050600160008660405161056c91906147c7565b9081526020016040518091039020600301548154811061058f5761058e61483e565b5b906000526020600020906005020160000160000160009054906101000a900473ffffffffffffffffffffffffffffffffffffffff1673ffffffffffffffffffffffffffffffffffffffff163373ffffffffffffffffffffffffffffffffffffffff1614610631576040517f08c379a0000000000000000000000000000000000000000000000000000000008152600401610628906148df565b60405180910390fd5b6000805b6004805490508110156107705785600482815481106106575761065661483e565b5b90600052602060002090600e0201600b01541480156106aa575084600482815481106106865761068561483e565b5b90600052602060002090600e0201600a0160009054906101000a900460ff1660ff16145b80156106cb5750868051906020012083600001516020015180519060200120145b1561075d576001915083600482815481106106e9576106e861483e565b5b90600052602060002090600e0201600c01908051906020019061070d929190613762565b506002600482815481106107245761072361483e565b5b90600052602060002090600e0201600d0160006101000a81548160ff02191690836002811115610757576107566143b9565b5b02179055505b80806107689061492e565b915050610635565b5060011515811515146107b8576040517f08c379a00000000000000000000000000000000000000000000000000000000081526004016107af90614a0e565b60405180910390fd5b505050505050565b600181815481106107d057600080fd5b9060005260206000209060050201600091509050806000016040518060400160405290816000820160009054906101000a900473ffffffffffffffffffffffffffffffffffffffff1673ffffffffffffffffffffffffffffffffffffffff1673ffffffffffffffffffffffffffffffffffffffff1681526020016001820180546108599061480d565b80601f01602080910402602001604051908101604052809291908181526020018280546108859061480d565b80156108d25780601f106108a7576101008083540402835291602001916108d2565b820191906000526020600020905b8154815290600101906020018083116108b557829003601f168201915b505050505081525050908060020180546108eb9061480d565b80601f01602080910402602001604051908101604052809291908181526020018280546109179061480d565b80156109645780601f1061093957610100808354040283529160200191610964565b820191906000526020600020905b81548152906001019060200180831161094757829003601f168201915b5050505050908060030180546109799061480d565b80601f01602080910402602001604051908101604052809291908181526020018280546109a59061480d565b80156109f25780601f106109c7576101008083540402835291602001916109f2565b820191906000526020600020905b8154815290600101906020018083116109d557829003601f168201915b5050505050908060040154905084565b600560009054906101000a900473ffffffffffffffffffffffffffffffffffffffff1673ffffffffffffffffffffffffffffffffffffffff163373ffffffffffffffffffffffffffffffffffffffff1614610a92576040517f08c379a0000000000000000000000000000000000000000000000000000000008152600401610a8990614aa0565b60405180910390fd5b600060405180604001604052808673ffffffffffffffffffffffffffffffffffffffff1681526020018581525090506002604051806060016040528083815260200185815260200184815250908060018154018082558091505060019003906000526020600020906004020160009091909190915060008201518160000160008201518160000160006101000a81548173ffffffffffffffffffffffffffffffffffffffff021916908373ffffffffffffffffffffffffffffffffffffffff1602179055506020820151816001019080519060200190610b73929190613762565b5050506020820151816002019080519060200190610b92929190613762565b506040820151816003019080519060200190610baf929190613762565b5050505050505050565b60048190806001815401808255809150506001900390600052602060002090600e020160009091909190915060008201518160000160008201518160000160008201518160000160006101000a81548173ffffffffffffffffffffffffffffffffffffffff021916908373ffffffffffffffffffffffffffffffffffffffff1602179055506020820151816001019080519060200190610c5a929190613762565b5050506020820151816002019080519060200190610c79929190613762565b50604082015181600301556060820151816004019080519060200190610ca0929190613762565b50505060208201518160050160008201518160000160008201518160000160006101000a81548173ffffffffffffffffffffffffffffffffffffffff021916908373ffffffffffffffffffffffffffffffffffffffff1602179055506020820151816001019080519060200190610d18929190613762565b5050506020820151816002019080519060200190610d37929190613762565b506040820151816003019080519060200190610d54929190613762565b50606082015181600401555050604082015181600a0160006101000a81548160ff021916908360ff160217905550606082015181600b0155608082015181600c019080519060200190610da8929190613762565b5060a082015181600d0160006101000a81548160ff02191690836002811115610dd457610dd36143b9565b5b021790555060c082015181600d0160016101000a81548160ff02191690836001811115610e0457610e036143b9565b5b0217905550505050565b6003805490508760ff16108015610e96575085600001516000015173ffffffffffffffffffffffffffffffffffffffff163373ffffffffffffffffffffffffffffffffffffffff161480610e95575083600001516000015173ffffffffffffffffffffffffffffffffffffffff163373ffffffffffffffffffffffffffffffffffffffff16145b5b610ed5576040517f08c379a0000000000000000000000000000000000000000000000000000000008152600401610ecc90614b32565b60405180910390fd5b60088260ff1610158015610eed575060128260ff1611155b610f2c576040517f08c379a0000000000000000000000000000000000000000000000000000000008152600401610f2390614bc4565b60405180910390fd5b42831015610f6f576040517f08c379a0000000000000000000000000000000000000000000000000000000008152600401610f6690614c56565b60405180910390fd5b60005b6004805490508110156111985760038860ff1681548110610f9657610f9561483e565b5b90600052602060002090600e0201600a015460048281548110610fbc57610fbb61483e565b5b90600052602060002090600e0201600b0154148015611047575060038860ff1681548110610fed57610fec61483e565b5b90600052602060002090600e0201600b0160009054906101000a900460ff1660ff16600482815481106110235761102261483e565b5b90600052602060002090600e0201600a0160009054906101000a900460ff1660ff16145b80156110a0575084600001516020015180519060200120600482815481106110725761107161483e565b5b90600052602060002090600e02016000016000016001016040516110969190614d15565b6040518091039020145b156111855783600482815481106110ba576110b961483e565b5b90600052602060002090600e0201600b018190555082600482815481106110e4576110e361483e565b5b90600052602060002090600e0201600a0160006101000a81548160ff021916908360ff16021790555083600482815481106111225761112161483e565b5b90600052602060002090600e0201600b0181905550816004828154811061114c5761114b61483e565b5b90600052602060002090600e0201600d0160016101000a81548160ff0219169083600181111561117f5761117e6143b9565b5b02179055505b80806111909061492e565b915050610f72565b508260038860ff16815481106111b1576111b061483e565b5b90600052602060002090600e0201600a01819055508160038860ff16815481106111de576111dd61483e565b5b90600052602060002090600e0201600b0160006101000a81548160ff021916908360ff1602179055508460038860ff168154811061121f5761121e61483e565b5b90600052602060002090600e0201600c019080519060200190611243929190613762565b508060038860ff168154811061125c5761125b61483e565b5b90600052602060002090600e0201600d0160006101000a81548160ff0219169083600181111561128f5761128e6143b9565b5b021790555050505050505050565b600081805160208101820180518482526020830160208501208183528095505050505050600091509050806000016040518060400160405290816000820160009054906101000a900473ffffffffffffffffffffffffffffffffffffffff1673ffffffffffffffffffffffffffffffffffffffff1673ffffffffffffffffffffffffffffffffffffffff16815260200160018201805461133c9061480d565b80601f01602080910402602001604051908101604052809291908181526020018280546113689061480d565b80156113b55780601f1061138a576101008083540402835291602001916113b5565b820191906000526020600020905b81548152906001019060200180831161139857829003601f168201915b505050505081525050908060020180546113ce9061480d565b80601f01602080910402602001604051908101604052809291908181526020018280546113fa9061480d565b80156114475780601f1061141c57610100808354040283529160200191611447565b820191906000526020600020905b81548152906001019060200180831161142a57829003601f168201915b5050505050908060030154908060040180546114629061480d565b80601f016020809104026020016040519081016040528092919081815260200182805461148e9061480d565b80156114db5780601f106114b0576101008083540402835291602001916114db565b820191906000526020600020905b8154815290600101906020018083116114be57829003601f168201915b5050505050905084565b600481815481106114f557600080fd5b90600052602060002090600e020160009150905080600001604051806080016040529081600082016040518060400160405290816000820160009054906101000a900473ffffffffffffffffffffffffffffffffffffffff1673ffffffffffffffffffffffffffffffffffffffff1673ffffffffffffffffffffffffffffffffffffffff16815260200160018201805461158e9061480d565b80601f01602080910402602001604051908101604052809291908181526020018280546115ba9061480d565b80156116075780601f106115dc57610100808354040283529160200191611607565b820191906000526020600020905b8154815290600101906020018083116115ea57829003601f168201915b50505050508152505081526020016002820180546116249061480d565b80601f01602080910402602001604051908101604052809291908181526020018280546116509061480d565b801561169d5780601f106116725761010080835404028352916020019161169d565b820191906000526020600020905b81548152906001019060200180831161168057829003601f168201915b50505050508152602001600382015481526020016004820180546116c09061480d565b80601f01602080910402602001604051908101604052809291908181526020018280546116ec9061480d565b80156117395780601f1061170e57610100808354040283529160200191611739565b820191906000526020600020905b81548152906001019060200180831161171c57829003601f168201915b5050505050815250509080600501604051806080016040529081600082016040518060400160405290816000820160009054906101000a900473ffffffffffffffffffffffffffffffffffffffff1673ffffffffffffffffffffffffffffffffffffffff1673ffffffffffffffffffffffffffffffffffffffff1681526020016001820180546117c89061480d565b80601f01602080910402602001604051908101604052809291908181526020018280546117f49061480d565b80156118415780601f1061181657610100808354040283529160200191611841565b820191906000526020600020905b81548152906001019060200180831161182457829003601f168201915b505050505081525050815260200160028201805461185e9061480d565b80601f016020809104026020016040519081016040528092919081815260200182805461188a9061480d565b80156118d75780601f106118ac576101008083540402835291602001916118d7565b820191906000526020600020905b8154815290600101906020018083116118ba57829003601f168201915b505050505081526020016003820180546118f09061480d565b80601f016020809104026020016040519081016040528092919081815260200182805461191c9061480d565b80156119695780601f1061193e57610100808354040283529160200191611969565b820191906000526020600020905b81548152906001019060200180831161194c57829003601f168201915b505050505081526020016004820154815250509080600a0160009054906101000a900460ff169080600b01549080600c0180546119a59061480d565b80601f01602080910402602001604051908101604052809291908181526020018280546119d19061480d565b8015611a1e5780601f106119f357610100808354040283529160200191611a1e565b820191906000526020600020905b815481529060010190602001808311611a0157829003601f168201915b50505050509080600d0160009054906101000a900460ff169080600d0160019054906101000a900460ff16905087565b600560009054906101000a900473ffffffffffffffffffffffffffffffffffffffff1681565b7fffffffffffffffffffffffffffffffffffffffffffffffffffffffffffffffff600087604051611aa591906147c7565b90815260200160405180910390206003015410611af7576040517f08c379a0000000000000000000000000000000000000000000000000000000008152600401611aee90614d9e565b60405180910390fd5b60088460ff1610158015611b0f575060128460ff1611155b611b4e576040517f08c379a0000000000000000000000000000000000000000000000000000000008152600401611b4590614bc4565b60405180910390fd5b42851015611b91576040517f08c379a0000000000000000000000000000000000000000000000000000000008152600401611b8890614c56565b60405180910390fd5b60006001905060008088604051611ba891906147c7565b9081526020016040518091039020604051806080016040529081600082016040518060400160405290816000820160009054906101000a900473ffffffffffffffffffffffffffffffffffffffff1673ffffffffffffffffffffffffffffffffffffffff1673ffffffffffffffffffffffffffffffffffffffff168152602001600182018054611c379061480d565b80601f0160208091040260200160405190810160405280929190818152602001828054611c639061480d565b8015611cb05780601f10611c8557610100808354040283529160200191611cb0565b820191906000526020600020905b815481529060010190602001808311611c9357829003601f168201915b5050505050815250508152602001600282018054611ccd9061480d565b80601f0160208091040260200160405190810160405280929190818152602001828054611cf99061480d565b8015611d465780601f10611d1b57610100808354040283529160200191611d46565b820191906000526020600020905b815481529060010190602001808311611d2957829003601f168201915b5050505050815260200160038201548152602001600482018054611d699061480d565b80601f0160208091040260200160405190810160405280929190818152602001828054611d959061480d565b8015611de25780601f10611db757610100808354040283529160200191611de2565b820191906000526020600020905b815481529060010190602001808311611dc557829003601f168201915b505050505081525050905060006001826040015181548110611e0757611e0661483e565b5b9060005260206000209060050201604051806080016040529081600082016040518060400160405290816000820160009054906101000a900473ffffffffffffffffffffffffffffffffffffffff1673ffffffffffffffffffffffffffffffffffffffff1673ffffffffffffffffffffffffffffffffffffffff168152602001600182018054611e969061480d565b80601f0160208091040260200160405190810160405280929190818152602001828054611ec29061480d565b8015611f0f5780601f10611ee457610100808354040283529160200191611f0f565b820191906000526020600020905b815481529060010190602001808311611ef257829003601f168201915b5050505050815250508152602001600282018054611f2c9061480d565b80601f0160208091040260200160405190810160405280929190818152602001828054611f589061480d565b8015611fa55780601f10611f7a57610100808354040283529160200191611fa5565b820191906000526020600020905b815481529060010190602001808311611f8857829003601f168201915b50505050508152602001600382018054611fbe9061480d565b80601f0160208091040260200160405190810160405280929190818152602001828054611fea9061480d565b80156120375780601f1061200c57610100808354040283529160200191612037565b820191906000526020600020905b81548152906001019060200180831161201a57829003601f168201915b50505050508152602001600482015481525050905060005b60038054905081108015612087575042600382815481106120735761207261483e565b5b90600052602060002090600e0201600a0154115b1561221e5781600001516000015173ffffffffffffffffffffffffffffffffffffffff16600382815481106120bf576120be61483e565b5b90600052602060002090600e020160050160000160000160009054906101000a900473ffffffffffffffffffffffffffffffffffffffff1673ffffffffffffffffffffffffffffffffffffffff160361220b5788600382815481106121275761212661483e565b5b90600052602060002090600e0201600a015414801561217d57508760ff16600382815481106121595761215861483e565b5b90600052602060002090600e0201600b0160009054906101000a900460ff1660ff16145b80612200575088600382815481106121985761219761483e565b5b90600052602060002090600e0201600a01541480156121ff57506103848860ff166121c39190614dcc565b61ffff16600382815481106121db576121da61483e565b5b90600052602060002090600e0201600b0160009054906101000a900460ff1660ff16115b5b1561220a57600093505b5b80806122169061492e565b91505061204f565b5082156127395760036040518060c001604052808481526020018381526020018a81526020018960ff168152602001878152602001866001811115612266576122656143b9565b5b81525090806001815401808255809150506001900390600052602060002090600e020160009091909190915060008201518160000160008201518160000160008201518160000160006101000a81548173ffffffffffffffffffffffffffffffffffffffff021916908373ffffffffffffffffffffffffffffffffffffffff1602179055506020820151816001019080519060200190612307929190613762565b5050506020820151816002019080519060200190612326929190613762565b5060408201518160030155606082015181600401908051906020019061234d929190613762565b50505060208201518160050160008201518160000160008201518160000160006101000a81548173ffffffffffffffffffffffffffffffffffffffff021916908373ffffffffffffffffffffffffffffffffffffffff16021790555060208201518160010190805190602001906123c5929190613762565b50505060208201518160020190805190602001906123e4929190613762565b506040820151816003019080519060200190612401929190613762565b50606082015181600401555050604082015181600a0155606082015181600b0160006101000a81548160ff021916908360ff160217905550608082015181600c019080519060200190612455929190613762565b5060a082015181600d0160006101000a81548160ff02191690836001811115612481576124806143b9565b5b0217905550505060046040518060e001604052808481526020018381526020018960ff1681526020018a8152602001888152602001600060028111156124ca576124c96143b9565b5b81526020018660018111156124e2576124e16143b9565b5b81525090806001815401808255809150506001900390600052602060002090600e020160009091909190915060008201518160000160008201518160000160008201518160000160006101000a81548173ffffffffffffffffffffffffffffffffffffffff021916908373ffffffffffffffffffffffffffffffffffffffff1602179055506020820151816001019080519060200190612583929190613762565b50505060208201518160020190805190602001906125a2929190613762565b506040820151816003015560608201518160040190805190602001906125c9929190613762565b50505060208201518160050160008201518160000160008201518160000160006101000a81548173ffffffffffffffffffffffffffffffffffffffff021916908373ffffffffffffffffffffffffffffffffffffffff1602179055506020820151816001019080519060200190612641929190613762565b5050506020820151816002019080519060200190612660929190613762565b50604082015181600301908051906020019061267d929190613762565b50606082015181600401555050604082015181600a0160006101000a81548160ff021916908360ff160217905550606082015181600b0155608082015181600c0190805190602001906126d1929190613762565b5060a082015181600d0160006101000a81548160ff021916908360028111156126fd576126fc6143b9565b5b021790555060c082015181600d0160016101000a81548160ff0219169083600181111561272d5761272c6143b9565b5b02179055505050612774565b6040517f08c379a000000000000000000000000000000000000000000000000000000000815260040161276b90614e98565b60405180910390fd5b505050505050505050565b600073ffffffffffffffffffffffffffffffffffffffff166000846040516127a791906147c7565b908152602001604051809103902060000160000160009054906101000a900473ffffffffffffffffffffffffffffffffffffffff1673ffffffffffffffffffffffffffffffffffffffff1614612832576040517f08c379a000000000000000000000000000000000000000000000000000000000815260040161282990614f04565b60405180910390fd5b600060405180604001604052803373ffffffffffffffffffffffffffffffffffffffff16815260200185815250905060405180608001604052808281526020018481526020017fffffffffffffffffffffffffffffffffffffffffffffffffffffffffffffffff8152602001838152506000856040516128b291906147c7565b908152602001604051809103902060008201518160000160008201518160000160006101000a81548173ffffffffffffffffffffffffffffffffffffffff021916908373ffffffffffffffffffffffffffffffffffffffff160217905550602082015181600101908051906020019061292c929190613762565b505050602082015181600201908051906020019061294b929190613762565b50604082015181600301556060820151816004019080519060200190612972929190613762565b5090505061297f84612d8a565b5050505050565b6002818154811061299657600080fd5b9060005260206000209060040201600091509050806000016040518060400160405290816000820160009054906101000a900473ffffffffffffffffffffffffffffffffffffffff1673ffffffffffffffffffffffffffffffffffffffff1673ffffffffffffffffffffffffffffffffffffffff168152602001600182018054612a1f9061480d565b80601f0160208091040260200160405190810160405280929190818152602001828054612a4b9061480d565b8015612a985780601f10612a6d57610100808354040283529160200191612a98565b820191906000526020600020905b815481529060010190602001808311612a7b57829003601f168201915b50505050508152505090806002018054612ab19061480d565b80601f0160208091040260200160405190810160405280929190818152602001828054612add9061480d565b8015612b2a5780601f10612aff57610100808354040283529160200191612b2a565b820191906000526020600020905b815481529060010190602001808311612b0d57829003601f168201915b505050505090806003018054612b3f9061480d565b80601f0160208091040260200160405190810160405280929190818152602001828054612b6b9061480d565b8015612bb85780601f10612b8d57610100808354040283529160200191612bb8565b820191906000526020600020905b815481529060010190602001808311612b9b57829003601f168201915b5050505050905083565b600560009054906101000a900473ffffffffffffffffffffffffffffffffffffffff1673ffffffffffffffffffffffffffffffffffffffff163373ffffffffffffffffffffffffffffffffffffffff1614612c52576040517f08c379a0000000000000000000000000000000000000000000000000000000008152600401612c4990614aa0565b60405180910390fd5b600060405180604001604052808673ffffffffffffffffffffffffffffffffffffffff168152602001858152509050600160405180608001604052808381526020018581526020018481526020016000815250908060018154018082558091505060019003906000526020600020906005020160009091909190915060008201518160000160008201518160000160006101000a81548173ffffffffffffffffffffffffffffffffffffffff021916908373ffffffffffffffffffffffffffffffffffffffff1602179055506020820151816001019080519060200190612d3a929190613762565b5050506020820151816002019080519060200190612d59929190613762565b506040820151816003019080519060200190612d76929190613762565b506060820151816004015550505050505050565b60008060018054905011612dd3576040517f08c379a0000000000000000000000000000000000000000000000000000000008152600401612dca90614f70565b60405180910390fd5b6000808084604051612de591906147c7565b9081526020016040518091039020604051806080016040529081600082016040518060400160405290816000820160009054906101000a900473ffffffffffffffffffffffffffffffffffffffff1673ffffffffffffffffffffffffffffffffffffffff1673ffffffffffffffffffffffffffffffffffffffff168152602001600182018054612e749061480d565b80601f0160208091040260200160405190810160405280929190818152602001828054612ea09061480d565b8015612eed5780601f10612ec257610100808354040283529160200191612eed565b820191906000526020600020905b815481529060010190602001808311612ed057829003601f168201915b5050505050815250508152602001600282018054612f0a9061480d565b80601f0160208091040260200160405190810160405280929190818152602001828054612f369061480d565b8015612f835780601f10612f5857610100808354040283529160200191612f83565b820191906000526020600020905b815481529060010190602001808311612f6657829003601f168201915b5050505050815260200160038201548152602001600482018054612fa69061480d565b80601f0160208091040260200160405190810160405280929190818152602001828054612fd29061480d565b801561301f5780601f10612ff45761010080835404028352916020019161301f565b820191906000526020600020905b81548152906001019060200180831161300257829003601f168201915b50505050508152505090506000816020015190506000807fffffffffffffffffffffffffffffffffffffffffffffffffffffffffffffffff90505b60018054905085101561319e576040518060400160405280600781526020017f47656e6572616c0000000000000000000000000000000000000000000000000081525080519060200120600186815481106130b8576130b761483e565b5b90600052602060002090600502016002016040516130d69190614d15565b604051809103902014801561312a57508280519060200120600186815481106131025761310161483e565b5b90600052602060002090600502016003016040516131209190614d15565b6040518091039020145b801561315a575080600186815481106131465761314561483e565b5b906000526020600020906005020160040154105b1561318b57600185815481106131735761317261483e565b5b90600052602060002090600502016004015490508491505b84806131969061492e565b95505061305a565b600182815481106131b2576131b161483e565b5b906000526020600020906005020160040160008154809291906131d49061492e565b9190505550816000886040516131ea91906147c7565b9081526020016040518091039020600301819055508195505050505050919050565b6003818154811061321c57600080fd5b90600052602060002090600e020160009150905080600001604051806080016040529081600082016040518060400160405290816000820160009054906101000a900473ffffffffffffffffffffffffffffffffffffffff1673ffffffffffffffffffffffffffffffffffffffff1673ffffffffffffffffffffffffffffffffffffffff1681526020016001820180546132b59061480d565b80601f01602080910402602001604051908101604052809291908181526020018280546132e19061480d565b801561332e5780601f106133035761010080835404028352916020019161332e565b820191906000526020600020905b81548152906001019060200180831161331157829003601f168201915b505050505081525050815260200160028201805461334b9061480d565b80601f01602080910402602001604051908101604052809291908181526020018280546133779061480d565b80156133c45780601f10613399576101008083540402835291602001916133c4565b820191906000526020600020905b8154815290600101906020018083116133a757829003601f168201915b50505050508152602001600382015481526020016004820180546133e79061480d565b80601f01602080910402602001604051908101604052809291908181526020018280546134139061480d565b80156134605780601f1061343557610100808354040283529160200191613460565b820191906000526020600020905b81548152906001019060200180831161344357829003601f168201915b5050505050815250509080600501604051806080016040529081600082016040518060400160405290816000820160009054906101000a900473ffffffffffffffffffffffffffffffffffffffff1673ffffffffffffffffffffffffffffffffffffffff1673ffffffffffffffffffffffffffffffffffffffff1681526020016001820180546134ef9061480d565b80601f016020809104026020016040519081016040528092919081815260200182805461351b9061480d565b80156135685780601f1061353d57610100808354040283529160200191613568565b820191906000526020600020905b81548152906001019060200180831161354b57829003601f168201915b50505050508152505081526020016002820180546135859061480d565b80601f01602080910402602001604051908101604052809291908181526020018280546135b19061480d565b80156135fe5780601f106135d3576101008083540402835291602001916135fe565b820191906000526020600020905b8154815290600101906020018083116135e157829003601f168201915b505050505081526020016003820180546136179061480d565b80601f01602080910402602001604051908101604052809291908181526020018280546136439061480d565b80156136905780601f1061366557610100808354040283529160200191613690565b820191906000526020600020905b81548152906001019060200180831161367357829003601f168201915b505050505081526020016004820154815250509080600a01549080600b0160009054906101000a900460ff169080600c0180546136cc9061480d565b80601f01602080910402602001604051908101604052809291908181526020018280546136f89061480d565b80156137455780601f1061371a57610100808354040283529160200191613745565b820191906000526020600020905b81548152906001019060200180831161372857829003601f168201915b50505050509080600d0160009054906101000a900460ff16905086565b82805461376e9061480d565b90600052602060002090601f01602090048101928261379057600085556137d7565b82601f106137a957805160ff19168380011785556137d7565b828001600101855582156137d7579182015b828111156137d65782518255916020019190600101906137bb565b5b5090506137e491906137e8565b5090565b5b808211156138015760008160009055506001016137e9565b5090565b6000604051905090565b600080fd5b600080fd5b600080fd5b600080fd5b6000601f19601f8301169050919050565b7f4e487b7100000000000000000000000000000000000000000000000000000000600052604160045260246000fd5b61386c82613823565b810181811067ffffffffffffffff8211171561388b5761388a613834565b5b80604052505050565b600061389e613805565b90506138aa8282613863565b919050565b600067ffffffffffffffff8211156138ca576138c9613834565b5b6138d382613823565b9050602081019050919050565b82818337600083830152505050565b60006139026138fd846138af565b613894565b90508281526020810184848401111561391e5761391d61381e565b5b6139298482856138e0565b509392505050565b600082601f83011261394657613945613819565b5b81356139568482602086016138ef565b91505092915050565b6000819050919050565b6139728161395f565b811461397d57600080fd5b50565b60008135905061398f81613969565b92915050565b600080600080608085870312156139af576139ae61380f565b5b600085013567ffffffffffffffff8111156139cd576139cc613814565b5b6139d987828801613931565b94505060206139ea87828801613980565b93505060406139fb87828801613980565b925050606085013567ffffffffffffffff811115613a1c57613a1b613814565b5b613a2887828801613931565b91505092959194509250565b600060208284031215613a4a57613a4961380f565b5b6000613a5884828501613980565b91505092915050565b600073ffffffffffffffffffffffffffffffffffffffff82169050919050565b6000613a8c82613a61565b9050919050565b613a9c81613a81565b82525050565b600081519050919050565b600082825260208201905092915050565b60005b83811015613adc578082015181840152602081019050613ac1565b83811115613aeb576000848401525b50505050565b6000613afc82613aa2565b613b068185613aad565b9350613b16818560208601613abe565b613b1f81613823565b840191505092915050565b6000604083016000830151613b426000860182613a93565b5060208301518482036020860152613b5a8282613af1565b9150508091505092915050565b600082825260208201905092915050565b6000613b8382613aa2565b613b8d8185613b67565b9350613b9d818560208601613abe565b613ba681613823565b840191505092915050565b613bba8161395f565b82525050565b60006080820190508181036000830152613bda8187613b2a565b90508181036020830152613bee8186613b78565b90508181036040830152613c028185613b78565b9050613c116060830184613bb1565b95945050505050565b613c2381613a81565b8114613c2e57600080fd5b50565b600081359050613c4081613c1a565b92915050565b60008060008060808587031215613c6057613c5f61380f565b5b6000613c6e87828801613c31565b945050602085013567ffffffffffffffff811115613c8f57613c8e613814565b5b613c9b87828801613931565b935050604085013567ffffffffffffffff811115613cbc57613cbb613814565b5b613cc887828801613931565b925050606085013567ffffffffffffffff811115613ce957613ce8613814565b5b613cf587828801613931565b91505092959194509250565b600080fd5b600080fd5b600060408284031215613d2157613d20613d01565b5b613d2b6040613894565b90506000613d3b84828501613c31565b600083015250602082013567ffffffffffffffff811115613d5f57613d5e613d06565b5b613d6b84828501613931565b60208301525092915050565b600060808284031215613d8d57613d8c613d01565b5b613d976080613894565b9050600082013567ffffffffffffffff811115613db757613db6613d06565b5b613dc384828501613d0b565b600083015250602082013567ffffffffffffffff811115613de757613de6613d06565b5b613df384828501613931565b6020830152506040613e0784828501613980565b604083015250606082013567ffffffffffffffff811115613e2b57613e2a613d06565b5b613e3784828501613931565b60608301525092915050565b600060808284031215613e5957613e58613d01565b5b613e636080613894565b9050600082013567ffffffffffffffff811115613e8357613e82613d06565b5b613e8f84828501613d0b565b600083015250602082013567ffffffffffffffff811115613eb357613eb2613d06565b5b613ebf84828501613931565b602083015250604082013567ffffffffffffffff811115613ee357613ee2613d06565b5b613eef84828501613931565b6040830152506060613f0384828501613980565b60608301525092915050565b600060ff82169050919050565b613f2581613f0f565b8114613f3057600080fd5b50565b600081359050613f4281613f1c565b92915050565b60038110613f5557600080fd5b50565b600081359050613f6781613f48565b92915050565b60028110613f7a57600080fd5b50565b600081359050613f8c81613f6d565b92915050565b600060e08284031215613fa857613fa7613d01565b5b613fb260e0613894565b9050600082013567ffffffffffffffff811115613fd257613fd1613d06565b5b613fde84828501613d77565b600083015250602082013567ffffffffffffffff81111561400257614001613d06565b5b61400e84828501613e43565b602083015250604061402284828501613f33565b604083015250606061403684828501613980565b606083015250608082013567ffffffffffffffff81111561405a57614059613d06565b5b61406684828501613931565b60808301525060a061407a84828501613f58565b60a08301525060c061408e84828501613f7d565b60c08301525092915050565b6000602082840312156140b0576140af61380f565b5b600082013567ffffffffffffffff8111156140ce576140cd613814565b5b6140da84828501613f92565b91505092915050565b600080600080600080600060e0888a0312156141025761410161380f565b5b60006141108a828b01613f33565b975050602088013567ffffffffffffffff81111561413157614130613814565b5b61413d8a828b01613e43565b965050604088013567ffffffffffffffff81111561415e5761415d613814565b5b61416a8a828b01613931565b955050606088013567ffffffffffffffff81111561418b5761418a613814565b5b6141978a828b01613d77565b94505060806141a88a828b01613980565b93505060a06141b98a828b01613f33565b92505060c06141ca8a828b01613f7d565b91505092959891949750929550565b6000602082840312156141ef576141ee61380f565b5b600082013567ffffffffffffffff81111561420d5761420c613814565b5b61421984828501613931565b91505092915050565b6000608082019050818103600083015261423c8187613b2a565b905081810360208301526142508186613b78565b905061425f6040830185613bb1565b81810360608301526142718184613b78565b905095945050505050565b60006040830160008301516142946000860182613a93565b50602083015184820360208601526142ac8282613af1565b9150508091505092915050565b6142c28161395f565b82525050565b600060808301600083015184820360008601526142e5828261427c565b915050602083015184820360208601526142ff8282613af1565b915050604083015161431460408601826142b9565b506060830151848203606086015261432c8282613af1565b9150508091505092915050565b60006080830160008301518482036000860152614356828261427c565b915050602083015184820360208601526143708282613af1565b9150506040830151848203604086015261438a8282613af1565b915050606083015161439f60608601826142b9565b508091505092915050565b6143b381613f0f565b82525050565b7f4e487b7100000000000000000000000000000000000000000000000000000000600052602160045260246000fd5b600381106143f9576143f86143b9565b5b50565b600081905061440a826143e8565b919050565b600061441a826143fc565b9050919050565b61442a8161440f565b82525050565b60028110614441576144406143b9565b5b50565b600081905061445282614430565b919050565b600061446282614444565b9050919050565b61447281614457565b82525050565b600060e0820190508181036000830152614492818a6142c8565b905081810360208301526144a68189614339565b90506144b560408301886143aa565b6144c26060830187613bb1565b81810360808301526144d48186613b78565b90506144e360a0830185614421565b6144f060c0830184614469565b98975050505050505050565b61450581613a81565b82525050565b600060208201905061452060008301846144fc565b92915050565b60008060008060008060c087890312156145435761454261380f565b5b600087013567ffffffffffffffff81111561456157614560613814565b5b61456d89828a01613931565b965050602061457e89828a01613980565b955050604061458f89828a01613f33565b945050606087013567ffffffffffffffff8111156145b0576145af613814565b5b6145bc89828a01613931565b935050608087013567ffffffffffffffff8111156145dd576145dc613814565b5b6145e989828a01613931565b92505060a06145fa89828a01613f7d565b9150509295509295509295565b6000806000606084860312156146205761461f61380f565b5b600084013567ffffffffffffffff81111561463e5761463d613814565b5b61464a86828701613931565b935050602084013567ffffffffffffffff81111561466b5761466a613814565b5b61467786828701613931565b925050604084013567ffffffffffffffff81111561469857614697613814565b5b6146a486828701613931565b9150509250925092565b600060608201905081810360008301526146c88186613b2a565b905081810360208301526146dc8185613b78565b905081810360408301526146f08184613b78565b9050949350505050565b600060208201905061470f6000830184613bb1565b92915050565b600060c082019050818103600083015261472f81896142c8565b905081810360208301526147438188614339565b90506147526040830187613bb1565b61475f60608301866143aa565b81810360808301526147718185613b78565b905061478060a0830184614469565b979650505050505050565b600081905092915050565b60006147a182613aa2565b6147ab818561478b565b93506147bb818560208601613abe565b80840191505092915050565b60006147d38284614796565b915081905092915050565b7f4e487b7100000000000000000000000000000000000000000000000000000000600052602260045260246000fd5b6000600282049050600182168061482557607f821691505b602082108103614838576148376147de565b5b50919050565b7f4e487b7100000000000000000000000000000000000000000000000000000000600052603260045260246000fd5b7f536f6c6f20656c206d656469636f207075656465206174656e646572206c612060008201527f636f6e73756c7461000000000000000000000000000000000000000000000000602082015250565b60006148c9602883613b67565b91506148d48261486d565b604082019050919050565b600060208201905081810360008301526148f8816148bc565b9050919050565b7f4e487b7100000000000000000000000000000000000000000000000000000000600052601160045260246000fd5b60006149398261395f565b91507fffffffffffffffffffffffffffffffffffffffffffffffffffffffffffffffff820361496b5761496a6148ff565b5b600182019050919050565b7f4e6f20736520656e636f6e74726f20756e6120636f6e73756c74612070726f6760008201527f72616d61646120636f6e206c6f73206461746f7320657370656369666963616460208201527f6f73000000000000000000000000000000000000000000000000000000000000604082015250565b60006149f8604283613b67565b9150614a0382614976565b606082019050919050565b60006020820190508181036000830152614a27816149eb565b9050919050565b7f536f6c6f20656c2061646d696e6973747261646f72207469656e65207065726d60008201527f69736f73207061726120656a65637574617220657374612066756e63696f6e00602082015250565b6000614a8a603f83613b67565b9150614a9582614a2e565b604082019050919050565b60006020820190508181036000830152614ab981614a7d565b9050919050565b7f6c612063697461206e6f20657869737465206f206e6f20686179207065726d6960008201527f736f7320737566696369656e7465730000000000000000000000000000000000602082015250565b6000614b1c602f83613b67565b9150614b2782614ac0565b604082019050919050565b60006020820190508181036000830152614b4b81614b0f565b9050919050565b7f4c6120636c696e69636120736f6c6f20617469656e646520656e747265206c6160008201527f7320383a30302079206c61732031383a30302e00000000000000000000000000602082015250565b6000614bae603383613b67565b9150614bb982614b52565b604082019050919050565b60006020820190508181036000830152614bdd81614ba1565b9050919050565b7f4e6f2073652070756564656e2070726f6772616d617220636974617320616e7460008201527f6572696f72657320612065737465206d6f6d656e746f2e000000000000000000602082015250565b6000614c40603783613b67565b9150614c4b82614be4565b604082019050919050565b60006020820190508181036000830152614c6f81614c33565b9050919050565b600081905092915050565b60008190508160005260206000209050919050565b60008154614ca38161480d565b614cad8186614c76565b94506001821660008114614cc85760018114614cd957614d0c565b60ff19831686528186019350614d0c565b614ce285614c81565b60005b83811015614d0457815481890152600182019150602081019050614ce5565b838801955050505b50505092915050565b6000614d218284614c96565b915081905092915050565b7f456c2070616369656e7465206e6f207469656e6520756e206d656469636f206160008201527f7369676e61646f00000000000000000000000000000000000000000000000000602082015250565b6000614d88602783613b67565b9150614d9382614d2c565b604082019050919050565b60006020820190508181036000830152614db781614d7b565b9050919050565b600061ffff82169050919050565b6000614dd782614dbe565b9150614de283614dbe565b925082821015614df557614df46148ff565b5b828203905092915050565b7f4e6f2068617920687565636f206c696272652070617261206c6120636974612060008201527f656e20656c20686f726172696f20736f6c6963697461646f207061726120656c60208201527f2070616369656e746520737567657269646f2e00000000000000000000000000604082015250565b6000614e82605383613b67565b9150614e8d82614e00565b606082019050919050565b60006020820190508181036000830152614eb181614e75565b9050919050565b7f457374652070616369656e74652079612065737461207265676973747261646f600082015250565b6000614eee602083613b67565b9150614ef982614eb8565b602082019050919050565b60006020820190508181036000830152614f1d81614ee1565b9050919050565b7f4e6f20686179206d656469636f7320646973706f6e69626c6573000000000000600082015250565b6000614f5a601a83613b67565b9150614f6582614f24565b602082019050919050565b60006020820190508181036000830152614f8981614f4d565b905091905056fea2646970667358221220f5bc1b5c34659cf2e5522f8e7f4b91684c6a337d0fd04d7d9ff601475348ef2b64736f6c634300080d0033",
  "immutableReferences": {},
  "source": "// SPDX-License-Identifier: MIT\r\npragma solidity >=0.4.22 <0.9.0;\r\n\r\ncontract HistoriaClinica {\r\n    mapping(string => Paciente) public pacientes;\r\n    Medico[] public medicos;\r\n    Enfermero[] public enfermeros;\r\n     Cita[] public citas;\r\n    Consulta[] public consultas;\r\n\r\n    address public owner;\r\n\r\n    constructor() {\r\n        owner = msg.sender; // el primer usuario en crear el contrato se convierte en el owner o admin\r\n    }\r\n\r\n    enum tipo_consulta {\r\n        urgencias,\r\n        especialidad\r\n    }\r\n    enum tipo_organizacion {\r\n        publica,\r\n        privada\r\n    }\r\n    enum estado_consulta {\r\n        programada,cancelada,cerrada\r\n    }\r\n\r\n    struct Persona {\r\n        address direccionPublica;\r\n        string DNI;\r\n    }\r\n\r\n    struct Paciente {\r\n        Persona datos;\r\n        string centro_sanitario;\r\n        uint medico_asignado;\r\n        string datos_paciente;\r\n    }\r\n\r\n    struct Medico {\r\n        Persona datos; //Herencia\r\n        string especialidad;\r\n        string centro_sanitario;\r\n        uint numero_pacientes;\r\n    }\r\n\r\n    struct Enfermero {\r\n        Persona datos; //Herencia\r\n        string especialidad;\r\n        string centro_sanitario;\r\n    }\r\n    \r\n    struct Consulta {\r\n        Paciente paciente;\r\n        Medico medico;\r\n        uint8 hora;\r\n        uint256 fecha;\r\n        string datos_consulta;\r\n        estado_consulta estado;\r\n        tipo_consulta tipo;\r\n    }\r\n\r\n    struct Cita {\r\n        Paciente paciente;\r\n        Medico medico;\r\n        uint fecha;\r\n        uint8 hora;\r\n        string datos_cita;\r\n        tipo_consulta tipoConsulta;\r\n    }\r\n\r\nfunction registrarPaciente(string memory _DNI, string memory _centroSanitario, string memory _datosPaciente) public {\r\n    require(pacientes[_DNI].datos.direccionPublica == address(0), \"Este paciente ya esta registrado\");\r\n    Persona memory datosPersonales = Persona({\r\n    direccionPublica: msg.sender,\r\n    DNI: _DNI\r\n});\r\n\r\npacientes[_DNI] = Paciente({\r\n    centro_sanitario: _centroSanitario,\r\n    datos: datosPersonales,\r\n    medico_asignado: type(uint256).max, //an no tiene mdico asignado\r\n    datos_paciente: _datosPaciente\r\n});\r\nasignarMedico(_DNI);\r\n\r\n}\r\n\r\n    function registrarMedico(address _direccionMedico, string memory _DNI, string memory _especialidad, string memory _centro_sanitario) public {\r\n    require(msg.sender == owner, \"Solo el administrador tiene permisos para ejecutar esta funcion\");\r\n        Persona memory datosPersonales = Persona(_direccionMedico,_DNI);\r\n        medicos.push(Medico({\r\n        centro_sanitario: _centro_sanitario,\r\n        datos:datosPersonales,\r\n        especialidad: _especialidad,\r\n        numero_pacientes:0\r\n    }));\r\n}\r\n\r\n function registrarEnfermero(address _direccionEnfermero ,string memory _DNI, string memory _especialidad, string memory _centro_sanitario) public {\r\n        require(msg.sender == owner, \"Solo el administrador tiene permisos para ejecutar esta funcion\");\r\n        Persona memory datosPersonales = Persona (_direccionEnfermero,_DNI);\r\n        enfermeros.push(Enfermero({\r\n        especialidad: _especialidad,\r\n        centro_sanitario: _centro_sanitario,\r\n        datos : datosPersonales\r\n    }));\r\n\r\n    }\r\n\r\n    function asignarMedico(string memory _DNI) public returns (uint) {\r\n        // Comprobamos si hay mdicos disponibles\r\n         require(medicos.length > 0, \"No hay medicos disponibles\");\r\n        uint i = 0;\r\n        Paciente memory p = pacientes[_DNI]; //Buscamos el indice del paciente por DNI\r\n        string memory nombreCentroSanitario = p.centro_sanitario; // Obtenemos centro sanitario del paciente\r\n        uint indiceMedicoConMenosPacientes; //Posicion del array del medico con menos pacientes\r\n        uint256 minimoPacientes = type(uint256).max;\r\n        while (i < medicos.length) {\r\n            //Comprobamos especialidad, centro sanitario, y obtenemos el mdico con menos pacientes asignados\r\n            if (\r\n                keccak256(bytes(medicos[i].especialidad)) ==\r\n                keccak256(bytes(\"General\")) &&\r\n                keccak256(bytes(medicos[i].centro_sanitario)) ==\r\n                keccak256(bytes(nombreCentroSanitario)) &&\r\n                medicos[i].numero_pacientes < minimoPacientes\r\n            ) {\r\n                minimoPacientes = medicos[i].numero_pacientes;\r\n                indiceMedicoConMenosPacientes = i; //Mdico vlido encontrado\r\n            }\r\n            i++;\r\n        }\r\n        medicos[indiceMedicoConMenosPacientes].numero_pacientes++; //Aumentamos pacientes de ese mdico\r\n        pacientes[_DNI].medico_asignado=indiceMedicoConMenosPacientes; //Asignamos mdico al paciente\r\n        return indiceMedicoConMenosPacientes;\r\n    }\r\n\r\n    \r\n //Paciente pide una cita\r\nfunction solicitarCita(string memory _DNI, uint256 _fecha, uint8 _hora, string memory _datos_consulta, string memory _datos_cita, tipo_consulta _tipoConsulta) public {\r\n    require(pacientes[_DNI].medico_asignado < type(uint256).max, \"El paciente no tiene un medico asignado\");\r\n    require(_hora >= 8 && _hora <= 18, \"La clinica solo atiende entre las 8:00 y las 18:00.\");\r\n    require(_fecha >= block.timestamp, \"No se pueden programar citas anteriores a este momento.\");\r\n\r\n    bool huecoLibre = true;\r\n    Paciente memory paciente = pacientes[_DNI];\r\n    Medico memory medico = medicos[paciente.medico_asignado]; //Medico que el paciente tiene asignado\r\n    for (uint i = 0; i < citas.length && citas[i].fecha>block.timestamp; i++) { \r\n        //Comprobamos que sea el medico que tiene asignado el paciente \r\n        if(citas[i].medico.datos.direccionPublica == medico.datos.direccionPublica){ \r\n        //Comprobamos que haya un rango de 15 minutos disponibles despues de la cita\r\n        if (citas[i].fecha == _fecha && citas[i].hora == _hora || citas[i].fecha == _fecha && citas[i].hora > _hora - 15 minutes) {\r\n            huecoLibre = false;\r\n            }\r\n            }\r\n    }\r\n        if (huecoLibre) {\r\n    //Asignamos la nueva cita\r\n        citas.push(\r\n        Cita({\r\n            medico: medico,\r\n            paciente: paciente,\r\n            fecha: _fecha,\r\n            hora: _hora,\r\n            datos_cita:_datos_cita,\r\n            tipoConsulta: _tipoConsulta\r\n        }));\r\n\r\n    //Creamos la consulta\r\n        consultas.push(\r\n        Consulta({\r\n        paciente:paciente,\r\n        medico:medico,\r\n        fecha: _fecha,\r\n        hora:_hora,\r\n        datos_consulta:_datos_consulta,\r\n        estado: estado_consulta.programada,\r\n        tipo: _tipoConsulta\r\n    }));\r\n\r\n    } else {\r\n        revert(\"No hay hueco libre para la cita en el horario solicitado para el paciente sugerido.\");\r\n    }\r\n\r\n}\r\n \r\nfunction atenderConsulta (string memory _DNI, uint _fecha, uint _hora, string memory _datos_consulta) public {\r\n    Paciente memory paciente = pacientes[_DNI];\r\n    require(msg.sender ==  medicos[pacientes[_DNI].medico_asignado].datos.direccionPublica, \"Solo el medico puede atender la consulta\"); \r\n    bool consultaEncontrada = false;\r\n    for(uint i = 0; i < consultas.length; i++) {\r\n        if(consultas[i].fecha == _fecha && consultas[i].hora == _hora && keccak256(bytes(paciente.datos.DNI)) == keccak256(bytes(_DNI))) {\r\n            consultaEncontrada = true;\r\n            consultas[i].datos_consulta = _datos_consulta;\r\n            consultas[i].estado = estado_consulta.cerrada; //consulta cerrada\r\n        }\r\n    }\r\n    require(consultaEncontrada == true, \"No se encontro una consulta programada con los datos especificados\");\r\n}\r\n\r\nfunction modificarCita(uint8 indice, Medico memory _medico, string memory _datos_cita, Paciente memory _paciente, uint _nuevaFecha, uint8 _nuevaHora, tipo_consulta _nuevoTipoConsulta) public {\r\n    require((indice < citas.length) && (msg.sender == _medico.datos.direccionPublica || msg.sender == _paciente.datos.direccionPublica), \"la cita no existe o no hay permisos suficientes\");\r\n    require(_nuevaHora >= 8 && _nuevaHora <= 18, \"La clinica solo atiende entre las 8:00 y las 18:00.\");\r\n    require(_nuevaFecha >= block.timestamp, \"No se pueden programar citas anteriores a este momento.\");\r\n    //Actualizamos datos de la futura consulta mdica\r\n     for (uint i = 0; i < consultas.length; i++) {\r\n        if (consultas[i].fecha == citas[indice].fecha &&\r\n            consultas[i].hora == citas[indice].hora &&\r\n            keccak256(bytes(consultas[i].paciente.datos.DNI)) == keccak256(bytes(_paciente.datos.DNI))) {\r\n            consultas[i].fecha= _nuevaFecha;\r\n            consultas[i].hora= _nuevaHora;\r\n            consultas[i].fecha= _nuevaFecha;\r\n            consultas[i].tipo= _nuevoTipoConsulta;\r\n}\r\n     }\r\n    citas[indice].fecha=_nuevaFecha;\r\n    citas[indice].hora=_nuevaHora;\r\n    citas[indice].datos_cita=_datos_cita;\r\n    citas[indice].tipoConsulta = _nuevoTipoConsulta;\r\n    \r\n}\r\n//Medico crea consulta (especialidad o no)\r\nfunction crearConsulta(Consulta memory nuevaConsulta) public {\r\n    consultas.push(nuevaConsulta);\r\n}\r\n}\r\n\r\n",
  "sourcePath": "C:\\Users\\pablo\\OneDrive - Universidad de Castilla-La Mancha\\4\\TFG\\ProyectoHistoriaClinica\\contracts\\HistoriaClinica.sol",
  "compiler": {
    "name": "solc",
    "version": "0.8.13+commit.abaa5c0e.Emscripten.clang"
  },
  "schemaVersion": "3.4.15",
  "updatedAt": "2023-11-11T19:04:48.067Z",
  "networkType": "ethereum",
  "devdoc": {
    "kind": "dev",
    "methods": {},
    "version": 1
  },
  "userdoc": {
    "kind": "user",
    "methods": {},
    "version": 1
  }
}