{
  "contractName": "HistoriaClinica",
  "abi": [
    {
      "inputs": [],
      "stateMutability": "nonpayable",
      "type": "constructor"
    },
    {
      "inputs": [
        {
          "internalType": "uint256",
          "name": "",
          "type": "uint256"
        }
      ],
      "name": "citas",
      "outputs": [
        {
          "components": [
            {
              "components": [
                {
                  "internalType": "address",
                  "name": "direccionPublica",
                  "type": "address"
                },
                {
                  "internalType": "string",
                  "name": "DNI",
                  "type": "string"
                }
              ],
              "internalType": "struct HistoriaClinica.Persona",
              "name": "datos",
              "type": "tuple"
            },
            {
              "internalType": "string",
              "name": "centro_sanitario",
              "type": "string"
            },
            {
              "internalType": "uint64",
              "name": "medico_asignado",
              "type": "uint64"
            },
            {
              "internalType": "string",
              "name": "datos_paciente",
              "type": "string"
            }
          ],
          "internalType": "struct HistoriaClinica.Paciente",
          "name": "paciente",
          "type": "tuple"
        },
        {
          "components": [
            {
              "components": [
                {
                  "internalType": "address",
                  "name": "direccionPublica",
                  "type": "address"
                },
                {
                  "internalType": "string",
                  "name": "DNI",
                  "type": "string"
                }
              ],
              "internalType": "struct HistoriaClinica.Persona",
              "name": "datos",
              "type": "tuple"
            },
            {
              "internalType": "string",
              "name": "especialidad",
              "type": "string"
            },
            {
              "internalType": "string",
              "name": "centro_sanitario",
              "type": "string"
            },
            {
              "internalType": "uint64",
              "name": "numero_pacientes",
              "type": "uint64"
            }
          ],
          "internalType": "struct HistoriaClinica.Medico",
          "name": "medico",
          "type": "tuple"
        },
        {
          "internalType": "uint256",
          "name": "fecha",
          "type": "uint256"
        },
        {
          "internalType": "uint8",
          "name": "hora",
          "type": "uint8"
        },
        {
          "internalType": "string",
          "name": "datos_cita",
          "type": "string"
        },
        {
          "internalType": "enum HistoriaClinica.tipo_consulta",
          "name": "tipoConsulta",
          "type": "uint8"
        }
      ],
      "stateMutability": "view",
      "type": "function",
      "constant": true
    },
    {
      "inputs": [
        {
          "internalType": "uint256",
          "name": "",
          "type": "uint256"
        }
      ],
      "name": "consultas",
      "outputs": [
        {
          "components": [
            {
              "components": [
                {
                  "internalType": "address",
                  "name": "direccionPublica",
                  "type": "address"
                },
                {
                  "internalType": "string",
                  "name": "DNI",
                  "type": "string"
                }
              ],
              "internalType": "struct HistoriaClinica.Persona",
              "name": "datos",
              "type": "tuple"
            },
            {
              "internalType": "string",
              "name": "centro_sanitario",
              "type": "string"
            },
            {
              "internalType": "uint64",
              "name": "medico_asignado",
              "type": "uint64"
            },
            {
              "internalType": "string",
              "name": "datos_paciente",
              "type": "string"
            }
          ],
          "internalType": "struct HistoriaClinica.Paciente",
          "name": "paciente",
          "type": "tuple"
        },
        {
          "components": [
            {
              "components": [
                {
                  "internalType": "address",
                  "name": "direccionPublica",
                  "type": "address"
                },
                {
                  "internalType": "string",
                  "name": "DNI",
                  "type": "string"
                }
              ],
              "internalType": "struct HistoriaClinica.Persona",
              "name": "datos",
              "type": "tuple"
            },
            {
              "internalType": "string",
              "name": "especialidad",
              "type": "string"
            },
            {
              "internalType": "string",
              "name": "centro_sanitario",
              "type": "string"
            },
            {
              "internalType": "uint64",
              "name": "numero_pacientes",
              "type": "uint64"
            }
          ],
          "internalType": "struct HistoriaClinica.Medico",
          "name": "medico",
          "type": "tuple"
        },
        {
          "internalType": "uint8",
          "name": "hora",
          "type": "uint8"
        },
        {
          "internalType": "uint256",
          "name": "fecha",
          "type": "uint256"
        },
        {
          "internalType": "string",
          "name": "datos_consulta",
          "type": "string"
        },
        {
          "internalType": "enum HistoriaClinica.estado_consulta",
          "name": "estado",
          "type": "uint8"
        },
        {
          "internalType": "enum HistoriaClinica.tipo_consulta",
          "name": "tipo",
          "type": "uint8"
        }
      ],
      "stateMutability": "view",
      "type": "function",
      "constant": true
    },
    {
      "inputs": [
        {
          "internalType": "uint256",
          "name": "",
          "type": "uint256"
        }
      ],
      "name": "enfermeros",
      "outputs": [
        {
          "components": [
            {
              "internalType": "address",
              "name": "direccionPublica",
              "type": "address"
            },
            {
              "internalType": "string",
              "name": "DNI",
              "type": "string"
            }
          ],
          "internalType": "struct HistoriaClinica.Persona",
          "name": "datos",
          "type": "tuple"
        },
        {
          "internalType": "string",
          "name": "especialidad",
          "type": "string"
        },
        {
          "internalType": "string",
          "name": "centro_sanitario",
          "type": "string"
        }
      ],
      "stateMutability": "view",
      "type": "function",
      "constant": true
    },
    {
      "inputs": [
        {
          "internalType": "uint256",
          "name": "",
          "type": "uint256"
        }
      ],
      "name": "medicos",
      "outputs": [
        {
          "components": [
            {
              "internalType": "address",
              "name": "direccionPublica",
              "type": "address"
            },
            {
              "internalType": "string",
              "name": "DNI",
              "type": "string"
            }
          ],
          "internalType": "struct HistoriaClinica.Persona",
          "name": "datos",
          "type": "tuple"
        },
        {
          "internalType": "string",
          "name": "especialidad",
          "type": "string"
        },
        {
          "internalType": "string",
          "name": "centro_sanitario",
          "type": "string"
        },
        {
          "internalType": "uint64",
          "name": "numero_pacientes",
          "type": "uint64"
        }
      ],
      "stateMutability": "view",
      "type": "function",
      "constant": true
    },
    {
      "inputs": [],
      "name": "owner",
      "outputs": [
        {
          "internalType": "address",
          "name": "",
          "type": "address"
        }
      ],
      "stateMutability": "view",
      "type": "function",
      "constant": true
    },
    {
      "inputs": [
        {
          "internalType": "string",
          "name": "",
          "type": "string"
        }
      ],
      "name": "pacientes",
      "outputs": [
        {
          "components": [
            {
              "internalType": "address",
              "name": "direccionPublica",
              "type": "address"
            },
            {
              "internalType": "string",
              "name": "DNI",
              "type": "string"
            }
          ],
          "internalType": "struct HistoriaClinica.Persona",
          "name": "datos",
          "type": "tuple"
        },
        {
          "internalType": "string",
          "name": "centro_sanitario",
          "type": "string"
        },
        {
          "internalType": "uint64",
          "name": "medico_asignado",
          "type": "uint64"
        },
        {
          "internalType": "string",
          "name": "datos_paciente",
          "type": "string"
        }
      ],
      "stateMutability": "view",
      "type": "function",
      "constant": true
    },
    {
      "inputs": [
        {
          "internalType": "string",
          "name": "_DNI",
          "type": "string"
        },
        {
          "internalType": "string",
          "name": "_centroSanitario",
          "type": "string"
        },
        {
          "internalType": "string",
          "name": "_datosPaciente",
          "type": "string"
        },
        {
          "internalType": "address",
          "name": "_direccionPaciente",
          "type": "address"
        }
      ],
      "name": "registrarPaciente",
      "outputs": [],
      "stateMutability": "nonpayable",
      "type": "function"
    },
    {
      "inputs": [
        {
          "internalType": "address",
          "name": "_direccionMedico",
          "type": "address"
        },
        {
          "internalType": "string",
          "name": "_DNI",
          "type": "string"
        },
        {
          "internalType": "string",
          "name": "_especialidad",
          "type": "string"
        },
        {
          "internalType": "string",
          "name": "_centro_sanitario",
          "type": "string"
        }
      ],
      "name": "registrarMedico",
      "outputs": [],
      "stateMutability": "nonpayable",
      "type": "function"
    },
    {
      "inputs": [
        {
          "internalType": "address",
          "name": "_direccionEnfermero",
          "type": "address"
        },
        {
          "internalType": "string",
          "name": "_DNI",
          "type": "string"
        },
        {
          "internalType": "string",
          "name": "_especialidad",
          "type": "string"
        },
        {
          "internalType": "string",
          "name": "_centro_sanitario",
          "type": "string"
        }
      ],
      "name": "registrarEnfermero",
      "outputs": [],
      "stateMutability": "nonpayable",
      "type": "function"
    },
    {
      "inputs": [
        {
          "internalType": "string",
          "name": "_DNI",
          "type": "string"
        }
      ],
      "name": "asignarMedico",
      "outputs": [
        {
          "internalType": "uint64",
          "name": "",
          "type": "uint64"
        }
      ],
      "stateMutability": "nonpayable",
      "type": "function"
    },
    {
      "inputs": [
        {
          "internalType": "string",
          "name": "_DNI",
          "type": "string"
        },
        {
          "internalType": "uint256",
          "name": "_fecha",
          "type": "uint256"
        },
        {
          "internalType": "uint8",
          "name": "_hora",
          "type": "uint8"
        },
        {
          "internalType": "string",
          "name": "_datos_cita",
          "type": "string"
        },
        {
          "internalType": "enum HistoriaClinica.tipo_consulta",
          "name": "_tipoConsulta",
          "type": "uint8"
        }
      ],
      "name": "solicitarCita",
      "outputs": [],
      "stateMutability": "nonpayable",
      "type": "function"
    },
    {
      "inputs": [
        {
          "internalType": "string",
          "name": "_DNI",
          "type": "string"
        },
        {
          "internalType": "uint256",
          "name": "_fecha",
          "type": "uint256"
        },
        {
          "internalType": "uint8",
          "name": "_hora",
          "type": "uint8"
        },
        {
          "internalType": "string",
          "name": "_datos_consulta",
          "type": "string"
        }
      ],
      "name": "atenderConsulta",
      "outputs": [],
      "stateMutability": "nonpayable",
      "type": "function"
    },
    {
      "inputs": [
        {
          "internalType": "uint64",
          "name": "indice",
          "type": "uint64"
        },
        {
          "internalType": "string",
          "name": "_datos_cita",
          "type": "string"
        },
        {
          "components": [
            {
              "components": [
                {
                  "internalType": "address",
                  "name": "direccionPublica",
                  "type": "address"
                },
                {
                  "internalType": "string",
                  "name": "DNI",
                  "type": "string"
                }
              ],
              "internalType": "struct HistoriaClinica.Persona",
              "name": "datos",
              "type": "tuple"
            },
            {
              "internalType": "string",
              "name": "centro_sanitario",
              "type": "string"
            },
            {
              "internalType": "uint64",
              "name": "medico_asignado",
              "type": "uint64"
            },
            {
              "internalType": "string",
              "name": "datos_paciente",
              "type": "string"
            }
          ],
          "internalType": "struct HistoriaClinica.Paciente",
          "name": "_paciente",
          "type": "tuple"
        },
        {
          "internalType": "uint256",
          "name": "_nuevaFecha",
          "type": "uint256"
        },
        {
          "internalType": "uint8",
          "name": "_nuevaHora",
          "type": "uint8"
        },
        {
          "internalType": "enum HistoriaClinica.tipo_consulta",
          "name": "_nuevoTipoConsulta",
          "type": "uint8"
        }
      ],
      "name": "modificarCita",
      "outputs": [],
      "stateMutability": "nonpayable",
      "type": "function"
    },
    {
      "inputs": [],
      "name": "obtenerCitas",
      "outputs": [
        {
          "components": [
            {
              "components": [
                {
                  "components": [
                    {
                      "internalType": "address",
                      "name": "direccionPublica",
                      "type": "address"
                    },
                    {
                      "internalType": "string",
                      "name": "DNI",
                      "type": "string"
                    }
                  ],
                  "internalType": "struct HistoriaClinica.Persona",
                  "name": "datos",
                  "type": "tuple"
                },
                {
                  "internalType": "string",
                  "name": "centro_sanitario",
                  "type": "string"
                },
                {
                  "internalType": "uint64",
                  "name": "medico_asignado",
                  "type": "uint64"
                },
                {
                  "internalType": "string",
                  "name": "datos_paciente",
                  "type": "string"
                }
              ],
              "internalType": "struct HistoriaClinica.Paciente",
              "name": "paciente",
              "type": "tuple"
            },
            {
              "components": [
                {
                  "components": [
                    {
                      "internalType": "address",
                      "name": "direccionPublica",
                      "type": "address"
                    },
                    {
                      "internalType": "string",
                      "name": "DNI",
                      "type": "string"
                    }
                  ],
                  "internalType": "struct HistoriaClinica.Persona",
                  "name": "datos",
                  "type": "tuple"
                },
                {
                  "internalType": "string",
                  "name": "especialidad",
                  "type": "string"
                },
                {
                  "internalType": "string",
                  "name": "centro_sanitario",
                  "type": "string"
                },
                {
                  "internalType": "uint64",
                  "name": "numero_pacientes",
                  "type": "uint64"
                }
              ],
              "internalType": "struct HistoriaClinica.Medico",
              "name": "medico",
              "type": "tuple"
            },
            {
              "internalType": "uint256",
              "name": "fecha",
              "type": "uint256"
            },
            {
              "internalType": "uint8",
              "name": "hora",
              "type": "uint8"
            },
            {
              "internalType": "string",
              "name": "datos_cita",
              "type": "string"
            },
            {
              "internalType": "enum HistoriaClinica.tipo_consulta",
              "name": "tipoConsulta",
              "type": "uint8"
            }
          ],
          "internalType": "struct HistoriaClinica.Cita[]",
          "name": "",
          "type": "tuple[]"
        }
      ],
      "stateMutability": "view",
      "type": "function",
      "constant": true
    },
    {
      "inputs": [],
      "name": "obtenerConsultas",
      "outputs": [
        {
          "components": [
            {
              "components": [
                {
                  "components": [
                    {
                      "internalType": "address",
                      "name": "direccionPublica",
                      "type": "address"
                    },
                    {
                      "internalType": "string",
                      "name": "DNI",
                      "type": "string"
                    }
                  ],
                  "internalType": "struct HistoriaClinica.Persona",
                  "name": "datos",
                  "type": "tuple"
                },
                {
                  "internalType": "string",
                  "name": "centro_sanitario",
                  "type": "string"
                },
                {
                  "internalType": "uint64",
                  "name": "medico_asignado",
                  "type": "uint64"
                },
                {
                  "internalType": "string",
                  "name": "datos_paciente",
                  "type": "string"
                }
              ],
              "internalType": "struct HistoriaClinica.Paciente",
              "name": "paciente",
              "type": "tuple"
            },
            {
              "components": [
                {
                  "components": [
                    {
                      "internalType": "address",
                      "name": "direccionPublica",
                      "type": "address"
                    },
                    {
                      "internalType": "string",
                      "name": "DNI",
                      "type": "string"
                    }
                  ],
                  "internalType": "struct HistoriaClinica.Persona",
                  "name": "datos",
                  "type": "tuple"
                },
                {
                  "internalType": "string",
                  "name": "especialidad",
                  "type": "string"
                },
                {
                  "internalType": "string",
                  "name": "centro_sanitario",
                  "type": "string"
                },
                {
                  "internalType": "uint64",
                  "name": "numero_pacientes",
                  "type": "uint64"
                }
              ],
              "internalType": "struct HistoriaClinica.Medico",
              "name": "medico",
              "type": "tuple"
            },
            {
              "internalType": "uint8",
              "name": "hora",
              "type": "uint8"
            },
            {
              "internalType": "uint256",
              "name": "fecha",
              "type": "uint256"
            },
            {
              "internalType": "string",
              "name": "datos_consulta",
              "type": "string"
            },
            {
              "internalType": "enum HistoriaClinica.estado_consulta",
              "name": "estado",
              "type": "uint8"
            },
            {
              "internalType": "enum HistoriaClinica.tipo_consulta",
              "name": "tipo",
              "type": "uint8"
            }
          ],
          "internalType": "struct HistoriaClinica.Consulta[]",
          "name": "",
          "type": "tuple[]"
        }
      ],
      "stateMutability": "view",
      "type": "function",
      "constant": true
    },
    {
      "inputs": [
        {
          "internalType": "string",
          "name": "_DNI",
          "type": "string"
        }
      ],
      "name": "obtenerDatosPaciente",
      "outputs": [
        {
          "components": [
            {
              "components": [
                {
                  "internalType": "address",
                  "name": "direccionPublica",
                  "type": "address"
                },
                {
                  "internalType": "string",
                  "name": "DNI",
                  "type": "string"
                }
              ],
              "internalType": "struct HistoriaClinica.Persona",
              "name": "datos",
              "type": "tuple"
            },
            {
              "internalType": "string",
              "name": "centro_sanitario",
              "type": "string"
            },
            {
              "internalType": "uint64",
              "name": "medico_asignado",
              "type": "uint64"
            },
            {
              "internalType": "string",
              "name": "datos_paciente",
              "type": "string"
            }
          ],
          "internalType": "struct HistoriaClinica.Paciente",
          "name": "",
          "type": "tuple"
        }
      ],
      "stateMutability": "view",
      "type": "function",
      "constant": true
    }
  ],
  "bytecode": "0x608060405234801561001057600080fd5b50600580546001600160a01b031916331790556151f5806100326000396000f3fe608060405234801561001057600080fd5b50600436106101005760003560e01c8063c48ce02b11610097578063db8a982011610066578063db8a98201461026a578063de6767811461028c578063f12591081461029f578063f6652a67146102cb57600080fd5b8063c48ce02b1461020f578063c90df63914610222578063cbcc336d14610237578063cdafc91a1461024a57600080fd5b806366422b7d116100d357806366422b7d1461017c5780637513e79c146101915780637859062b146101b75780638da5cb5b146101ca57600080fd5b80632c1a929d146101055780633550242f1461013157806340baea2a1461014657806352509b8d14610159575b600080fd5b610118610113366004614505565b6102f0565b60405161012894939291906145d5565b60405180910390f35b61014461013f366004614779565b610502565b005b610144610154366004614823565b6106d8565b61016c610167366004614872565b610c2e565b60405161012894939291906148a7565b610184610e41565b6040516101289190614a1c565b6101a461019f366004614505565b6113d4565b6040516101289796959493929190614b1c565b6101446101c5366004614b8d565b6118c7565b6005546101ea9073ffffffffffffffffffffffffffffffffffffffff1681565b60405173ffffffffffffffffffffffffffffffffffffffff9091168152602001610128565b61014461021d366004614c4d565b611ad9565b61022a61202b565b6040516101289190614db3565b610144610245366004614e92565b61257c565b61025d610258366004614872565b61330c565b6040516101289190614f21565b61027d610278366004614505565b61356e565b60405161012893929190614f3b565b61014461029a366004614779565b613770565b6102b26102ad366004614872565b613985565b60405167ffffffffffffffff9091168152602001610128565b6102de6102d9366004614505565b613f82565b60405161012896959493929190614f7e565b6001818154811061030057600080fd5b600091825260209182902060408051808201909152600590920201805473ffffffffffffffffffffffffffffffffffffffff168252600181018054919450919284929084019161034f90614fd6565b80601f016020809104026020016040519081016040528092919081815260200182805461037b90614fd6565b80156103c85780601f1061039d576101008083540402835291602001916103c8565b820191906000526020600020905b8154815290600101906020018083116103ab57829003601f168201915b505050505081525050908060020180546103e190614fd6565b80601f016020809104026020016040519081016040528092919081815260200182805461040d90614fd6565b801561045a5780601f1061042f5761010080835404028352916020019161045a565b820191906000526020600020905b81548152906001019060200180831161043d57829003601f168201915b50505050509080600301805461046f90614fd6565b80601f016020809104026020016040519081016040528092919081815260200182805461049b90614fd6565b80156104e85780601f106104bd576101008083540402835291602001916104e8565b820191906000526020600020905b8154815290600101906020018083116104cb57829003601f168201915b5050506004909301549192505067ffffffffffffffff1684565b60055473ffffffffffffffffffffffffffffffffffffffff1633146105ae576040517f08c379a000000000000000000000000000000000000000000000000000000000815260206004820152603f60248201527f536f6c6f20656c2061646d696e6973747261646f72207469656e65207065726d60448201527f69736f73207061726120656a65637574617220657374612066756e63696f6e0060648201526084015b60405180910390fd5b60408051808201825273ffffffffffffffffffffffffffffffffffffffff86811682526020808301879052835160608101855283815280820187905293840185905260028054600181018255600091909152845180517f405787fa12a823e0f2b7631cc41b3ba8828b3321ca811111fa75cd3aa3bb5ace600490930292830180547fffffffffffffffffffffffff0000000000000000000000000000000000000000169190951617845580830151805195969591938593610697937f405787fa12a823e0f2b7631cc41b3ba8828b3321ca811111fa75cd3aa3bb5acf909101929091019061446c565b50505060208281015180516106b2926002850192019061446c565b50604082015180516106ce91600384019160209091019061446c565b5050505050505050565b600080856040516106e99190615029565b9081526040805191829003602001822060c08301909152805473ffffffffffffffffffffffffffffffffffffffff1660808301908152600182018054849291849160a08501919061073990614fd6565b80601f016020809104026020016040519081016040528092919081815260200182805461076590614fd6565b80156107b25780601f10610787576101008083540402835291602001916107b2565b820191906000526020600020905b81548152906001019060200180831161079557829003601f168201915b50505050508152505081526020016002820180546107cf90614fd6565b80601f01602080910402602001604051908101604052809291908181526020018280546107fb90614fd6565b80156108485780601f1061081d57610100808354040283529160200191610848565b820191906000526020600020905b81548152906001019060200180831161082b57829003601f168201915b5050509183525050600382015467ffffffffffffffff16602082015260048201805460409092019161087990614fd6565b80601f01602080910402602001604051908101604052809291908181526020018280546108a590614fd6565b80156108f25780601f106108c7576101008083540402835291602001916108f2565b820191906000526020600020905b8154815290600101906020018083116108d557829003601f168201915b5050505050815250509050600160008660405161090f9190615029565b90815260405190819003602001902060030154815467ffffffffffffffff90911690811061093f5761093f615045565b600091825260209091206005909102015473ffffffffffffffffffffffffffffffffffffffff1633146109f4576040517f08c379a000000000000000000000000000000000000000000000000000000000815260206004820152602860248201527f536f6c6f20656c206d656469636f207075656465206174656e646572206c612060448201527f636f6e73756c746100000000000000000000000000000000000000000000000060648201526084016105a5565b6000805b60045467ffffffffffffffff82161015610b6d578560048267ffffffffffffffff1681548110610a2a57610a2a615045565b90600052602060002090600e0201600b0154148015610a7e57508460ff1660048267ffffffffffffffff1681548110610a6557610a65615045565b60009182526020909120600a600e90920201015460ff16145b8015610a9f5750868051906020012083600001516020015180519060200120145b15610b5b57600191508360048267ffffffffffffffff1681548110610ac657610ac6615045565b90600052602060002090600e0201600c019080519060200190610aea92919061446c565b50600260048267ffffffffffffffff1681548110610b0a57610b0a615045565b60009182526020909120600d600e909202010180547fffffffffffffffffffffffffffffffffffffffffffffffffffffffffffffff00166001836002811115610b5557610b556149c9565b02179055505b80610b65816150a3565b9150506109f8565b50600181151514610c26576040517f08c379a000000000000000000000000000000000000000000000000000000000815260206004820152604260248201527f4e6f20736520656e636f6e74726f20756e6120636f6e73756c74612070726f6760448201527f72616d61646120636f6e206c6f73206461746f7320657370656369666963616460648201527f6f73000000000000000000000000000000000000000000000000000000000000608482015260a4016105a5565b505050505050565b805160208183018101805160008252928201938201939093209190925260408051808201909152815473ffffffffffffffffffffffffffffffffffffffff16815260018201805492939192849284019190610c8890614fd6565b80601f0160208091040260200160405190810160405280929190818152602001828054610cb490614fd6565b8015610d015780601f10610cd657610100808354040283529160200191610d01565b820191906000526020600020905b815481529060010190602001808311610ce457829003601f168201915b50505050508152505090806002018054610d1a90614fd6565b80601f0160208091040260200160405190810160405280929190818152602001828054610d4690614fd6565b8015610d935780601f10610d6857610100808354040283529160200191610d93565b820191906000526020600020905b815481529060010190602001808311610d7657829003601f168201915b5050506003840154600485018054949567ffffffffffffffff909216949193509150610dbe90614fd6565b80601f0160208091040260200160405190810160405280929190818152602001828054610dea90614fd6565b8015610e375780601f10610e0c57610100808354040283529160200191610e37565b820191906000526020600020905b815481529060010190602001808311610e1a57829003601f168201915b5050505050905084565b60606004805480602002602001604051908101604052809291908181526020016000905b828210156113cb57600084815260209020604080516101a08101909152600e8402909101805473ffffffffffffffffffffffffffffffffffffffff166101608301908152600182018054849260e08401928592849291849161018088019190610ecd90614fd6565b80601f0160208091040260200160405190810160405280929190818152602001828054610ef990614fd6565b8015610f465780601f10610f1b57610100808354040283529160200191610f46565b820191906000526020600020905b815481529060010190602001808311610f2957829003601f168201915b5050505050815250508152602001600282018054610f6390614fd6565b80601f0160208091040260200160405190810160405280929190818152602001828054610f8f90614fd6565b8015610fdc5780601f10610fb157610100808354040283529160200191610fdc565b820191906000526020600020905b815481529060010190602001808311610fbf57829003601f168201915b5050509183525050600382015467ffffffffffffffff16602082015260048201805460409092019161100d90614fd6565b80601f016020809104026020016040519081016040528092919081815260200182805461103990614fd6565b80156110865780601f1061105b57610100808354040283529160200191611086565b820191906000526020600020905b81548152906001019060200180831161106957829003601f168201915b5050509190925250505081526040805160c0810190915260058301805473ffffffffffffffffffffffffffffffffffffffff1660808301908152600685018054602090950194849291849160a0850191906110e090614fd6565b80601f016020809104026020016040519081016040528092919081815260200182805461110c90614fd6565b80156111595780601f1061112e57610100808354040283529160200191611159565b820191906000526020600020905b81548152906001019060200180831161113c57829003601f168201915b505050505081525050815260200160028201805461117690614fd6565b80601f01602080910402602001604051908101604052809291908181526020018280546111a290614fd6565b80156111ef5780601f106111c4576101008083540402835291602001916111ef565b820191906000526020600020905b8154815290600101906020018083116111d257829003601f168201915b5050505050815260200160038201805461120890614fd6565b80601f016020809104026020016040519081016040528092919081815260200182805461123490614fd6565b80156112815780601f1061125657610100808354040283529160200191611281565b820191906000526020600020905b81548152906001019060200180831161126457829003601f168201915b50505091835250506004919091015467ffffffffffffffff16602091820152908252600a83015460ff1690820152600b8201546040820152600c820180546060909201916112ce90614fd6565b80601f01602080910402602001604051908101604052809291908181526020018280546112fa90614fd6565b80156113475780601f1061131c57610100808354040283529160200191611347565b820191906000526020600020905b81548152906001019060200180831161132a57829003601f168201915b5050509183525050600d82015460209091019060ff16600281111561136e5761136e6149c9565b600281111561137f5761137f6149c9565b8152602001600d820160019054906101000a900460ff1660018111156113a7576113a76149c9565b60018111156113b8576113b86149c9565b8152505081526020019060010190610e65565b50505050905090565b600481815481106113e457600080fd5b600091825260209091206040805160c08101909152600e90920201805473ffffffffffffffffffffffffffffffffffffffff16608083019081526001820180549294508492849291849160a08501919061143d90614fd6565b80601f016020809104026020016040519081016040528092919081815260200182805461146990614fd6565b80156114b65780601f1061148b576101008083540402835291602001916114b6565b820191906000526020600020905b81548152906001019060200180831161149957829003601f168201915b50505050508152505081526020016002820180546114d390614fd6565b80601f01602080910402602001604051908101604052809291908181526020018280546114ff90614fd6565b801561154c5780601f106115215761010080835404028352916020019161154c565b820191906000526020600020905b81548152906001019060200180831161152f57829003601f168201915b5050509183525050600382015467ffffffffffffffff16602082015260048201805460409092019161157d90614fd6565b80601f01602080910402602001604051908101604052809291908181526020018280546115a990614fd6565b80156115f65780601f106115cb576101008083540402835291602001916115f6565b820191906000526020600020905b8154815290600101906020018083116115d957829003601f168201915b5050509190925250506040805160c0810190915260058401805473ffffffffffffffffffffffffffffffffffffffff166080830190815260068601805495969593945091928492849160a08501919061164e90614fd6565b80601f016020809104026020016040519081016040528092919081815260200182805461167a90614fd6565b80156116c75780601f1061169c576101008083540402835291602001916116c7565b820191906000526020600020905b8154815290600101906020018083116116aa57829003601f168201915b50505050508152505081526020016002820180546116e490614fd6565b80601f016020809104026020016040519081016040528092919081815260200182805461171090614fd6565b801561175d5780601f106117325761010080835404028352916020019161175d565b820191906000526020600020905b81548152906001019060200180831161174057829003601f168201915b5050505050815260200160038201805461177690614fd6565b80601f01602080910402602001604051908101604052809291908181526020018280546117a290614fd6565b80156117ef5780601f106117c4576101008083540402835291602001916117ef565b820191906000526020600020905b8154815290600101906020018083116117d257829003601f168201915b50505091835250506004919091015467ffffffffffffffff16602090910152600a820154600b830154600c84018054939460ff9093169391929161183290614fd6565b80601f016020809104026020016040519081016040528092919081815260200182805461185e90614fd6565b80156118ab5780601f10611880576101008083540402835291602001916118ab565b820191906000526020600020905b81548152906001019060200180831161188e57829003601f168201915b505050600d909301549192505060ff8082169161010090041687565b600073ffffffffffffffffffffffffffffffffffffffff166000856040516118ef9190615029565b9081526040519081900360200190205473ffffffffffffffffffffffffffffffffffffffff161461197c576040517f08c379a000000000000000000000000000000000000000000000000000000000815260206004820181905260248201527f457374652070616369656e74652079612065737461207265676973747261646f60448201526064016105a5565b600060405180604001604052808373ffffffffffffffffffffffffffffffffffffffff168152602001868152509050604051806080016040528082815260200185815260200167ffffffffffffffff80168152602001848152506000866040516119e69190615029565b908152604051602091819003820190208251805182547fffffffffffffffffffffffff00000000000000000000000000000000000000001673ffffffffffffffffffffffffffffffffffffffff909116178255808301518051929391928492611a5692600185019291019061446c565b5050506020828101518051611a71926002850192019061446c565b5060408201516003820180547fffffffffffffffffffffffffffffffffffffffffffffffff00000000000000001667ffffffffffffffff90921691909117905560608201518051611acc91600484019160209091019061446c565b50905050610c2685613985565b60035467ffffffffffffffff8716108015611b5b57506001846040015167ffffffffffffffff1681548110611b1057611b10615045565b600091825260209091206005909102015473ffffffffffffffffffffffffffffffffffffffff16331480611b5b575083515173ffffffffffffffffffffffffffffffffffffffff1633145b611be7576040517f08c379a000000000000000000000000000000000000000000000000000000000815260206004820152602f60248201527f6c612063697461206e6f20657869737465206f206e6f20686179207065726d6960448201527f736f7320737566696369656e746573000000000000000000000000000000000060648201526084016105a5565b42831015611c77576040517f08c379a000000000000000000000000000000000000000000000000000000000815260206004820152603760248201527f4e6f2073652070756564656e2070726f6772616d617220636974617320616e7460448201527f6572696f72657320612065737465206d6f6d656e746f2e00000000000000000060648201526084016105a5565b60005b60045467ffffffffffffffff82161015611ef85760038767ffffffffffffffff1681548110611cab57611cab615045565b90600052602060002090600e0201600a015460048267ffffffffffffffff1681548110611cda57611cda615045565b90600052602060002090600e0201600b0154148015611d62575060038767ffffffffffffffff1681548110611d1157611d11615045565b60009182526020909120600b600e9092020101546004805460ff9092169167ffffffffffffffff8416908110611d4957611d49615045565b60009182526020909120600a600e90920201015460ff16145b8015611dc457508460000151602001518051906020012060048267ffffffffffffffff1681548110611d9657611d96615045565b90600052602060002090600e0201600001600001600101604051611dba91906150ca565b6040518091039020145b15611ee6578360048267ffffffffffffffff1681548110611de757611de7615045565b90600052602060002090600e0201600b01819055508260048267ffffffffffffffff1681548110611e1a57611e1a615045565b90600052602060002090600e0201600a0160006101000a81548160ff021916908360ff1602179055508360048267ffffffffffffffff1681548110611e6157611e61615045565b90600052602060002090600e0201600b01819055508160048267ffffffffffffffff1681548110611e9457611e94615045565b60009182526020909120600d600e909202010180547fffffffffffffffffffffffffffffffffffffffffffffffffffffffffffff00ff16610100836001811115611ee057611ee06149c9565b02179055505b80611ef0816150a3565b915050611c7a565b508260038767ffffffffffffffff1681548110611f1757611f17615045565b90600052602060002090600e0201600a01819055508160038767ffffffffffffffff1681548110611f4a57611f4a615045565b90600052602060002090600e0201600b0160006101000a81548160ff021916908360ff1602179055508460038767ffffffffffffffff1681548110611f9157611f91615045565b90600052602060002090600e0201600c019080519060200190611fb592919061446c565b508060038767ffffffffffffffff1681548110611fd457611fd4615045565b60009182526020909120600d600e909202010180547fffffffffffffffffffffffffffffffffffffffffffffffffffffffffffffff00166001838181111561201e5761201e6149c9565b0217905550505050505050565b60606003805480602002602001604051908101604052809291908181526020016000905b828210156113cb57600084815260209020604080516101808101909152600e8402909101805473ffffffffffffffffffffffffffffffffffffffff166101408301908152600182018054849260c084019285928492918491610160880191906120b790614fd6565b80601f01602080910402602001604051908101604052809291908181526020018280546120e390614fd6565b80156121305780601f1061210557610100808354040283529160200191612130565b820191906000526020600020905b81548152906001019060200180831161211357829003601f168201915b505050505081525050815260200160028201805461214d90614fd6565b80601f016020809104026020016040519081016040528092919081815260200182805461217990614fd6565b80156121c65780601f1061219b576101008083540402835291602001916121c6565b820191906000526020600020905b8154815290600101906020018083116121a957829003601f168201915b5050509183525050600382015467ffffffffffffffff1660208201526004820180546040909201916121f790614fd6565b80601f016020809104026020016040519081016040528092919081815260200182805461222390614fd6565b80156122705780601f1061224557610100808354040283529160200191612270565b820191906000526020600020905b81548152906001019060200180831161225357829003601f168201915b5050509190925250505081526040805160c0810190915260058301805473ffffffffffffffffffffffffffffffffffffffff1660808301908152600685018054602090950194849291849160a0850191906122ca90614fd6565b80601f01602080910402602001604051908101604052809291908181526020018280546122f690614fd6565b80156123435780601f1061231857610100808354040283529160200191612343565b820191906000526020600020905b81548152906001019060200180831161232657829003601f168201915b505050505081525050815260200160028201805461236090614fd6565b80601f016020809104026020016040519081016040528092919081815260200182805461238c90614fd6565b80156123d95780601f106123ae576101008083540402835291602001916123d9565b820191906000526020600020905b8154815290600101906020018083116123bc57829003601f168201915b505050505081526020016003820180546123f290614fd6565b80601f016020809104026020016040519081016040528092919081815260200182805461241e90614fd6565b801561246b5780601f106124405761010080835404028352916020019161246b565b820191906000526020600020905b81548152906001019060200180831161244e57829003601f168201915b50505091835250506004919091015467ffffffffffffffff16602091820152908252600a83015490820152600b82015460ff166040820152600c820180546060909201916124b890614fd6565b80601f01602080910402602001604051908101604052809291908181526020018280546124e490614fd6565b80156125315780601f1061250657610100808354040283529160200191612531565b820191906000526020600020905b81548152906001019060200180831161251457829003601f168201915b5050509183525050600d82015460209091019060ff166001811115612558576125586149c9565b6001811115612569576125696149c9565b815250508152602001906001019061204f565b67ffffffffffffffff80166000866040516125979190615029565b9081526040519081900360200190206003015467ffffffffffffffff1610612641576040517f08c379a000000000000000000000000000000000000000000000000000000000815260206004820152602760248201527f456c2070616369656e7465206e6f207469656e6520756e206d656469636f206160448201527f7369676e61646f0000000000000000000000000000000000000000000000000060648201526084016105a5565b428410156126d1576040517f08c379a000000000000000000000000000000000000000000000000000000000815260206004820152603760248201527f4e6f2073652070756564656e2070726f6772616d617220636974617320616e7460448201527f6572696f72657320612065737465206d6f6d656e746f2e00000000000000000060648201526084016105a5565b600060019050600080876040516126e89190615029565b9081526040805191829003602001822060c08301909152805473ffffffffffffffffffffffffffffffffffffffff1660808301908152600182018054849291849160a08501919061273890614fd6565b80601f016020809104026020016040519081016040528092919081815260200182805461276490614fd6565b80156127b15780601f10612786576101008083540402835291602001916127b1565b820191906000526020600020905b81548152906001019060200180831161279457829003601f168201915b50505050508152505081526020016002820180546127ce90614fd6565b80601f01602080910402602001604051908101604052809291908181526020018280546127fa90614fd6565b80156128475780601f1061281c57610100808354040283529160200191612847565b820191906000526020600020905b81548152906001019060200180831161282a57829003601f168201915b5050509183525050600382015467ffffffffffffffff16602082015260048201805460409092019161287890614fd6565b80601f01602080910402602001604051908101604052809291908181526020018280546128a490614fd6565b80156128f15780601f106128c6576101008083540402835291602001916128f1565b820191906000526020600020905b8154815290600101906020018083116128d457829003601f168201915b505050505081525050905060006001826040015167ffffffffffffffff168154811061291f5761291f615045565b600091825260209091206040805160c08101909152600590920201805473ffffffffffffffffffffffffffffffffffffffff1660808301908152600182018054849291849160a08501919061297390614fd6565b80601f016020809104026020016040519081016040528092919081815260200182805461299f90614fd6565b80156129ec5780601f106129c1576101008083540402835291602001916129ec565b820191906000526020600020905b8154815290600101906020018083116129cf57829003601f168201915b5050505050815250508152602001600282018054612a0990614fd6565b80601f0160208091040260200160405190810160405280929190818152602001828054612a3590614fd6565b8015612a825780601f10612a5757610100808354040283529160200191612a82565b820191906000526020600020905b815481529060010190602001808311612a6557829003601f168201915b50505050508152602001600382018054612a9b90614fd6565b80601f0160208091040260200160405190810160405280929190818152602001828054612ac790614fd6565b8015612b145780601f10612ae957610100808354040283529160200191612b14565b820191906000526020600020905b815481529060010190602001808311612af757829003601f168201915b50505091835250506004919091015467ffffffffffffffff16602090910152905060005b60035467ffffffffffffffff8216108015612b8057504260038267ffffffffffffffff1681548110612b6c57612b6c615045565b90600052602060002090600e0201600a0154115b15612d055781600001516000015173ffffffffffffffffffffffffffffffffffffffff1660038267ffffffffffffffff1681548110612bc157612bc1615045565b600091825260209091206005600e90920201015473ffffffffffffffffffffffffffffffffffffffff1603612cf3578760038267ffffffffffffffff1681548110612c0e57612c0e615045565b90600052602060002090600e0201600a0154148015612c6257508660ff1660038267ffffffffffffffff1681548110612c4957612c49615045565b60009182526020909120600b600e90920201015460ff16145b80612ce957508760038267ffffffffffffffff1681548110612c8657612c86615045565b90600052602060002090600e0201600a0154148015612ce95750612caf61038460ff891661519c565b61ffff1660038267ffffffffffffffff1681548110612cd057612cd0615045565b60009182526020909120600b600e90920201015460ff16115b15612cf357600093505b80612cfd816150a3565b915050612b38565b5082156106ce5760036040518060c001604052808481526020018381526020018981526020018860ff168152602001878152602001866001811115612d4c57612d4c6149c9565b90528154600180820184556000938452602093849020835180518051600e90950290920180547fffffffffffffffffffffffff00000000000000000000000000000000000000001673ffffffffffffffffffffffffffffffffffffffff90951694909417845581860151805195969495919486948593612dd49391850192919091019061446c565b5050506020828101518051612def926002850192019061446c565b5060408201516003820180547fffffffffffffffffffffffffffffffffffffffffffffffff00000000000000001667ffffffffffffffff90921691909117905560608201518051612e4a91600484019160209091019061446c565b505050602082810151805180516005850180547fffffffffffffffffffffffff00000000000000000000000000000000000000001673ffffffffffffffffffffffffffffffffffffffff909216919091178155818401518051939491938492612eba92600689019291019061446c565b5050506020828101518051612ed5926002850192019061446c565b5060408201518051612ef191600384019160209091019061446c565b5060609182015160049190910180547fffffffffffffffffffffffffffffffffffffffffffffffff00000000000000001667ffffffffffffffff9092169190911790556040830151600a830155820151600b820180547fffffffffffffffffffffffffffffffffffffffffffffffffffffffffffffff001660ff90921691909117905560808201518051612f8f91600c84019160209091019061446c565b5060a0820151600d820180547fffffffffffffffffffffffffffffffffffffffffffffffffffffffffffffff001660018381811115612fd057612fd06149c9565b0217905550505060046040518060e001604052808481526020018381526020018860ff16815260200189815260200187815260200160006002811115613018576130186149c9565b815260200186600181111561302f5761302f6149c9565b90528154600180820184556000938452602093849020835180518051600e90950290920180547fffffffffffffffffffffffff00000000000000000000000000000000000000001673ffffffffffffffffffffffffffffffffffffffff909516949094178455818601518051959694959194869485936130b79391850192919091019061446c565b50505060208281015180516130d2926002850192019061446c565b5060408201516003820180547fffffffffffffffffffffffffffffffffffffffffffffffff00000000000000001667ffffffffffffffff9092169190911790556060820151805161312d91600484019160209091019061446c565b505050602082810151805180516005850180547fffffffffffffffffffffffff00000000000000000000000000000000000000001673ffffffffffffffffffffffffffffffffffffffff90921691909117815581840151805193949193849261319d92600689019291019061446c565b50505060208281015180516131b8926002850192019061446c565b50604082015180516131d491600384019160209091019061446c565b5060609182015160049190910180547fffffffffffffffffffffffffffffffffffffffffffffffff00000000000000001667ffffffffffffffff9092169190911790556040830151600a830180547fffffffffffffffffffffffffffffffffffffffffffffffffffffffffffffff001660ff909216919091179055820151600b8201556080820151805161327291600c84019160209091019061446c565b5060a0820151600d820180547fffffffffffffffffffffffffffffffffffffffffffffffffffffffffffffff001660018360028111156132b4576132b46149c9565b021790555060c0820151600d820180547fffffffffffffffffffffffffffffffffffffffffffffffffffffffffffff00ff166101008360018111156132fb576132fb6149c9565b021790555050505050505050505050565b6133456040805160c08101909152600060808201908152606060a083015281908152606060208201819052600060408301529081015290565b6000826040516133559190615029565b9081526040805191829003602001822060c08301909152805473ffffffffffffffffffffffffffffffffffffffff1660808301908152600182018054849291849160a0850191906133a590614fd6565b80601f01602080910402602001604051908101604052809291908181526020018280546133d190614fd6565b801561341e5780601f106133f35761010080835404028352916020019161341e565b820191906000526020600020905b81548152906001019060200180831161340157829003601f168201915b505050505081525050815260200160028201805461343b90614fd6565b80601f016020809104026020016040519081016040528092919081815260200182805461346790614fd6565b80156134b45780601f10613489576101008083540402835291602001916134b4565b820191906000526020600020905b81548152906001019060200180831161349757829003601f168201915b5050509183525050600382015467ffffffffffffffff1660208201526004820180546040909201916134e590614fd6565b80601f016020809104026020016040519081016040528092919081815260200182805461351190614fd6565b801561355e5780601f106135335761010080835404028352916020019161355e565b820191906000526020600020905b81548152906001019060200180831161354157829003601f168201915b5050505050815250509050919050565b6002818154811061357e57600080fd5b600091825260209182902060408051808201909152600490920201805473ffffffffffffffffffffffffffffffffffffffff16825260018101805491945091928492908401916135cd90614fd6565b80601f01602080910402602001604051908101604052809291908181526020018280546135f990614fd6565b80156136465780601f1061361b57610100808354040283529160200191613646565b820191906000526020600020905b81548152906001019060200180831161362957829003601f168201915b5050505050815250509080600201805461365f90614fd6565b80601f016020809104026020016040519081016040528092919081815260200182805461368b90614fd6565b80156136d85780601f106136ad576101008083540402835291602001916136d8565b820191906000526020600020905b8154815290600101906020018083116136bb57829003601f168201915b5050505050908060030180546136ed90614fd6565b80601f016020809104026020016040519081016040528092919081815260200182805461371990614fd6565b80156137665780601f1061373b57610100808354040283529160200191613766565b820191906000526020600020905b81548152906001019060200180831161374957829003601f168201915b5050505050905083565b60055473ffffffffffffffffffffffffffffffffffffffff163314613817576040517f08c379a000000000000000000000000000000000000000000000000000000000815260206004820152603f60248201527f536f6c6f20656c2061646d696e6973747261646f72207469656e65207065726d60448201527f69736f73207061726120656a65637574617220657374612066756e63696f6e0060648201526084016105a5565b60408051808201825273ffffffffffffffffffffffffffffffffffffffff8681168252602080830187905283516080810185528381528082018790529384018590526000606085018190526001805480820182559152845180517fb10e2d527612073b26eecdfd717e6a320cf44b4afac2b0732d9fcbe2b7fa0cf6600590930292830180547fffffffffffffffffffffffff0000000000000000000000000000000000000000169190951617845580830151805195969591938593613904937fb10e2d527612073b26eecdfd717e6a320cf44b4afac2b0732d9fcbe2b7fa0cf7909101929091019061446c565b505050602082810151805161391f926002850192019061446c565b506040820151805161393b91600384019160209091019061446c565b5060609190910151600490910180547fffffffffffffffffffffffffffffffffffffffffffffffff00000000000000001667ffffffffffffffff9092169190911790555050505050565b6001546000906139f1576040517f08c379a000000000000000000000000000000000000000000000000000000000815260206004820152601a60248201527f4e6f20686179206d656469636f7320646973706f6e69626c657300000000000060448201526064016105a5565b6000808084604051613a039190615029565b9081526040805191829003602001822060c08301909152805473ffffffffffffffffffffffffffffffffffffffff1660808301908152600182018054849291849160a085019190613a5390614fd6565b80601f0160208091040260200160405190810160405280929190818152602001828054613a7f90614fd6565b8015613acc5780601f10613aa157610100808354040283529160200191613acc565b820191906000526020600020905b815481529060010190602001808311613aaf57829003601f168201915b5050505050815250508152602001600282018054613ae990614fd6565b80601f0160208091040260200160405190810160405280929190818152602001828054613b1590614fd6565b8015613b625780601f10613b3757610100808354040283529160200191613b62565b820191906000526020600020905b815481529060010190602001808311613b4557829003601f168201915b5050509183525050600382015467ffffffffffffffff166020820152600482018054604090920191613b9390614fd6565b80601f0160208091040260200160405190810160405280929190818152602001828054613bbf90614fd6565b8015613c0c5780601f10613be157610100808354040283529160200191613c0c565b820191906000526020600020905b815481529060010190602001808311613bef57829003601f168201915b505050919092525050506020810151909150600067ffffffffffffffff5b60015467ffffffffffffffff86161015613dd65760408051808201909152600781527f47656e6572616c00000000000000000000000000000000000000000000000000602090910152600180547f5a238724f4923a504a7bc7b1da49b8ad37187664eb292980fef19a3441928b2c919067ffffffffffffffff8816908110613cb457613cb4615045565b9060005260206000209060050201600201604051613cd291906150ca565b6040518091039020148015613d2f5750828051906020012060018667ffffffffffffffff1681548110613d0757613d07615045565b9060005260206000209060050201600301604051613d2591906150ca565b6040518091039020145b8015613d7e57508067ffffffffffffffff1660018667ffffffffffffffff1681548110613d5e57613d5e615045565b600091825260209091206004600590920201015467ffffffffffffffff16105b15613dc45760018567ffffffffffffffff1681548110613da057613da0615045565b600091825260209091206004600590920201015485925067ffffffffffffffff1690505b84613dce816150a3565b955050613c2a565b828051906020012060018367ffffffffffffffff1681548110613dfb57613dfb615045565b9060005260206000209060050201600301604051613e1991906150ca565b604051809103902014613eb057604080517f08c379a00000000000000000000000000000000000000000000000000000000081526020600482015260248101919091527f456c206d656469636f206e6f2070657274656e65636520616c206d69736d6f2060448201527f63656e74726f2073616e69746172696f2071756520656c2070616369656e746560648201526084016105a5565b60018267ffffffffffffffff1681548110613ecd57613ecd615045565b600091825260208220600460059092020101805467ffffffffffffffff1691613ef5836150a3565b91906101000a81548167ffffffffffffffff021916908367ffffffffffffffff1602179055505081600088604051613f2d9190615029565b908152604051908190036020019020600301805467ffffffffffffffff929092167fffffffffffffffffffffffffffffffffffffffffffffffff00000000000000009092169190911790555095945050505050565b60038181548110613f9257600080fd5b600091825260209091206040805160c08101909152600e90920201805473ffffffffffffffffffffffffffffffffffffffff16608083019081526001820180549294508492849291849160a085019190613feb90614fd6565b80601f016020809104026020016040519081016040528092919081815260200182805461401790614fd6565b80156140645780601f1061403957610100808354040283529160200191614064565b820191906000526020600020905b81548152906001019060200180831161404757829003601f168201915b505050505081525050815260200160028201805461408190614fd6565b80601f01602080910402602001604051908101604052809291908181526020018280546140ad90614fd6565b80156140fa5780601f106140cf576101008083540402835291602001916140fa565b820191906000526020600020905b8154815290600101906020018083116140dd57829003601f168201915b5050509183525050600382015467ffffffffffffffff16602082015260048201805460409092019161412b90614fd6565b80601f016020809104026020016040519081016040528092919081815260200182805461415790614fd6565b80156141a45780601f10614179576101008083540402835291602001916141a4565b820191906000526020600020905b81548152906001019060200180831161418757829003601f168201915b5050509190925250506040805160c0810190915260058401805473ffffffffffffffffffffffffffffffffffffffff166080830190815260068601805495969593945091928492849160a0850191906141fc90614fd6565b80601f016020809104026020016040519081016040528092919081815260200182805461422890614fd6565b80156142755780601f1061424a57610100808354040283529160200191614275565b820191906000526020600020905b81548152906001019060200180831161425857829003601f168201915b505050505081525050815260200160028201805461429290614fd6565b80601f01602080910402602001604051908101604052809291908181526020018280546142be90614fd6565b801561430b5780601f106142e05761010080835404028352916020019161430b565b820191906000526020600020905b8154815290600101906020018083116142ee57829003601f168201915b5050505050815260200160038201805461432490614fd6565b80601f016020809104026020016040519081016040528092919081815260200182805461435090614fd6565b801561439d5780601f106143725761010080835404028352916020019161439d565b820191906000526020600020905b81548152906001019060200180831161438057829003601f168201915b50505091835250506004919091015467ffffffffffffffff16602090910152600a820154600b830154600c840180549394929360ff90921692916143e090614fd6565b80601f016020809104026020016040519081016040528092919081815260200182805461440c90614fd6565b80156144595780601f1061442e57610100808354040283529160200191614459565b820191906000526020600020905b81548152906001019060200180831161443c57829003601f168201915b505050600d909301549192505060ff1686565b82805461447890614fd6565b90600052602060002090601f01602090048101928261449a57600085556144e0565b82601f106144b357805160ff19168380011785556144e0565b828001600101855582156144e0579182015b828111156144e05782518255916020019190600101906144c5565b506144ec9291506144f0565b5090565b5b808211156144ec57600081556001016144f1565b60006020828403121561451757600080fd5b5035919050565b60005b83811015614539578181015183820152602001614521565b83811115614548576000848401525b50505050565b6000815180845261456681602086016020860161451e565b601f017fffffffffffffffffffffffffffffffffffffffffffffffffffffffffffffffe0169290920160200192915050565b73ffffffffffffffffffffffffffffffffffffffff815116825260006020820151604060208501526145cd604085018261454e565b949350505050565b6080815260006145e86080830187614598565b82810360208401526145fa818761454e565b9050828103604084015261460e818661454e565b91505067ffffffffffffffff8316606083015295945050505050565b803573ffffffffffffffffffffffffffffffffffffffff8116811461464e57600080fd5b919050565b7f4e487b7100000000000000000000000000000000000000000000000000000000600052604160045260246000fd5b6040516080810167ffffffffffffffff811182821017156146a5576146a5614653565b60405290565b6040805190810167ffffffffffffffff811182821017156146a5576146a5614653565b600082601f8301126146df57600080fd5b813567ffffffffffffffff808211156146fa576146fa614653565b604051601f83017fffffffffffffffffffffffffffffffffffffffffffffffffffffffffffffffe0908116603f0116810190828211818310171561474057614740614653565b8160405283815286602085880101111561475957600080fd5b836020870160208301376000602085830101528094505050505092915050565b6000806000806080858703121561478f57600080fd5b6147988561462a565b9350602085013567ffffffffffffffff808211156147b557600080fd5b6147c1888389016146ce565b945060408701359150808211156147d757600080fd5b6147e3888389016146ce565b935060608701359150808211156147f957600080fd5b50614806878288016146ce565b91505092959194509250565b803560ff8116811461464e57600080fd5b6000806000806080858703121561483957600080fd5b843567ffffffffffffffff8082111561485157600080fd5b61485d888389016146ce565b9550602087013594506147e360408801614812565b60006020828403121561488457600080fd5b813567ffffffffffffffff81111561489b57600080fd5b6145cd848285016146ce565b6080815260006148ba6080830187614598565b82810360208401526148cc818761454e565b905067ffffffffffffffff8516604084015282810360608401526148f0818561454e565b979650505050505050565b60008151608084526149106080850182614598565b905060208301518482036020860152614929828261454e565b91505067ffffffffffffffff604084015116604085015260608301518482036060860152614957828261454e565b95945050505050565b60008151608084526149756080850182614598565b90506020830151848203602086015261498e828261454e565b915050604083015184820360408601526149a8828261454e565b91505067ffffffffffffffff60608401511660608501528091505092915050565b7f4e487b7100000000000000000000000000000000000000000000000000000000600052602160045260246000fd5b60038110614a0857614a086149c9565b9052565b60028110614a0857614a086149c9565b60006020808301818452808551808352604092508286019150828160051b87010184880160005b83811015614b0e577fffffffffffffffffffffffffffffffffffffffffffffffffffffffffffffffc0898403018552815160e08151818652614a87828701826148fb565b915050888201518582038a870152614a9f8282614960565b91505060ff888301511688860152606080830151818701525060808083015186830382880152614acf838261454e565b9250505060a080830151614ae5828801826149f8565b505060c09182015191614afa86820184614a0c565b509588019593505090860190600101614a43565b509098975050505050505050565b60e081526000614b2f60e083018a6148fb565b8281036020840152614b41818a614960565b905060ff881660408401528660608401528281036080840152614b64818761454e565b915050614b7460a08301856149f8565b614b8160c0830184614a0c565b98975050505050505050565b60008060008060808587031215614ba357600080fd5b843567ffffffffffffffff80821115614bbb57600080fd5b614bc7888389016146ce565b95506020870135915080821115614bdd57600080fd5b614be9888389016146ce565b94506040870135915080821115614bff57600080fd5b50614c0c878288016146ce565b925050614c1b6060860161462a565b905092959194509250565b803567ffffffffffffffff8116811461464e57600080fd5b80356002811061464e57600080fd5b60008060008060008060c08789031215614c6657600080fd5b614c6f87614c26565b9550602087013567ffffffffffffffff80821115614c8c57600080fd5b614c988a838b016146ce565b96506040890135915080821115614cae57600080fd5b908801906080828b031215614cc257600080fd5b614cca614682565b823582811115614cd957600080fd5b83016040818d031215614ceb57600080fd5b614cf36146ab565b614cfc8261462a565b8152602082013584811115614d1057600080fd5b614d1c8e8285016146ce565b6020830152508083525050602083013582811115614d3957600080fd5b614d458c8286016146ce565b602083015250614d5760408401614c26565b6040820152606083013582811115614d6e57600080fd5b614d7a8c8286016146ce565b60608301525080965050505060608701359250614d9960808801614812565b9150614da760a08801614c3e565b90509295509295509295565b60006020808301818452808551808352604092508286019150828160051b87010184880160005b83811015614b0e577fffffffffffffffffffffffffffffffffffffffffffffffffffffffffffffffc0898403018552815160c08151818652614e1e828701826148fb565b915050888201518582038a870152614e368282614960565b9150508782015188860152606060ff8184015116818701525060808083015186830382880152614e66838261454e565b9250505060a0808301519250614e7e81870184614a0c565b509588019593505090860190600101614dda565b600080600080600060a08688031215614eaa57600080fd5b853567ffffffffffffffff80821115614ec257600080fd5b614ece89838a016146ce565b965060208801359550614ee360408901614812565b94506060880135915080821115614ef957600080fd5b50614f06888289016146ce565b925050614f1560808701614c3e565b90509295509295909350565b602081526000614f3460208301846148fb565b9392505050565b606081526000614f4e6060830186614598565b8281036020840152614f60818661454e565b90508281036040840152614f74818561454e565b9695505050505050565b60c081526000614f9160c08301896148fb565b8281036020840152614fa38189614960565b905086604084015260ff861660608401528281036080840152614fc6818661454e565b9150506148f060a0830184614a0c565b600181811c90821680614fea57607f821691505b602082108103615023577f4e487b7100000000000000000000000000000000000000000000000000000000600052602260045260246000fd5b50919050565b6000825161503b81846020870161451e565b9190910192915050565b7f4e487b7100000000000000000000000000000000000000000000000000000000600052603260045260246000fd5b7f4e487b7100000000000000000000000000000000000000000000000000000000600052601160045260246000fd5b600067ffffffffffffffff8083168181036150c0576150c0615074565b6001019392505050565b600080835481600182811c9150808316806150e657607f831692505b6020808410820361511e577f4e487b710000000000000000000000000000000000000000000000000000000086526022600452602486fd5b81801561513257600181146151615761518e565b7fffffffffffffffffffffffffffffffffffffffffffffffffffffffffffffff0086168952848901965061518e565b60008a81526020902060005b868110156151865781548b82015290850190830161516d565b505084890196505b509498975050505050505050565b600061ffff838116908316818110156151b7576151b7615074565b03939250505056fea26469706673582212209fbc89ffc283bc51ff1f2d9de5d413b921c500b1f79fe82cc18dc3967bfc7f1964736f6c634300080d0033",
  "immutableReferences": {},
  "source": "// SPDX-License-Identifier: MIT\r\npragma solidity >=0.4.22 <0.9.0;\r\n\r\ncontract HistoriaClinica {\r\n    mapping(string => Paciente) public pacientes;\r\n    Medico[] public medicos;\r\n    Enfermero[] public enfermeros;\r\n     Cita[] public citas;\r\n    Consulta[] public consultas;\r\n\r\n    address public owner;\r\n\r\n    constructor() {\r\n        owner = msg.sender; // el primer usuario en crear el contrato se convierte en el owner o admin\r\n    }\r\n    enum tipo_consulta {\r\n        urgencias,\r\n        especialidad\r\n    }\r\n    enum estado_consulta {\r\n        programada,cancelada,cerrada\r\n    }\r\n\r\n    struct Persona {\r\n        address direccionPublica;\r\n        string DNI;\r\n    }\r\n\r\n    struct Paciente {\r\n        Persona datos;\r\n        string centro_sanitario;\r\n        uint64 medico_asignado;\r\n        string datos_paciente;\r\n    }\r\n\r\n    struct Medico {\r\n        Persona datos; //Herencia\r\n        string especialidad;\r\n        string centro_sanitario;\r\n        uint64 numero_pacientes;\r\n    }\r\n\r\n    struct Enfermero {\r\n        Persona datos; //Herencia\r\n        string especialidad;\r\n        string centro_sanitario;\r\n    }\r\n    \r\n    struct Consulta {\r\n        Paciente paciente;\r\n        Medico medico;\r\n        uint8 hora;\r\n        uint256 fecha;\r\n        string datos_consulta;\r\n        estado_consulta estado;\r\n        tipo_consulta tipo;\r\n    }\r\n\r\n    struct Cita {\r\n        Paciente paciente;\r\n        Medico medico;\r\n        uint fecha;\r\n        uint8 hora;\r\n        string datos_cita;\r\n        tipo_consulta tipoConsulta;\r\n    }\r\n    modifier soloAdmin() {\r\n        require(msg.sender == owner, \"Solo el administrador tiene permisos para ejecutar esta funcion\");\r\n        _;\r\n    }\r\nfunction registrarPaciente(string memory _DNI, string memory _centroSanitario, string memory _datosPaciente, address _direccionPaciente) public {\r\n    require(pacientes[_DNI].datos.direccionPublica == address(0), \"Este paciente ya esta registrado\");\r\n    Persona memory datosPersonales = Persona({\r\n    direccionPublica: _direccionPaciente,\r\n    DNI: _DNI\r\n});\r\n\r\npacientes[_DNI] = Paciente({\r\n    centro_sanitario: _centroSanitario,\r\n    datos: datosPersonales,\r\n    medico_asignado: type(uint64).max, //an no tiene mdico asignado\r\n    datos_paciente: _datosPaciente\r\n});\r\nasignarMedico(_DNI);\r\n\r\n}\r\n    function registrarMedico(address _direccionMedico, string memory _DNI, string memory _especialidad, string memory _centro_sanitario) public soloAdmin() {\r\n        Persona memory datosPersonales = Persona(_direccionMedico,_DNI);\r\n        medicos.push(Medico({\r\n        centro_sanitario: _centro_sanitario,\r\n        datos:datosPersonales,\r\n        especialidad: _especialidad,\r\n        numero_pacientes:0\r\n    }));\r\n}\r\n\r\n function registrarEnfermero(address _direccionEnfermero ,string memory _DNI, string memory _especialidad, string memory _centro_sanitario) public soloAdmin() {\r\n        Persona memory datosPersonales = Persona (_direccionEnfermero,_DNI);\r\n        enfermeros.push(Enfermero({\r\n        especialidad: _especialidad,\r\n        centro_sanitario: _centro_sanitario,\r\n        datos : datosPersonales\r\n    }));\r\n\r\n    }\r\n\r\n    function asignarMedico(string memory _DNI) public returns (uint64) {\r\n        // Comprobamos si hay mdicos disponibles\r\n         require(medicos.length > 0, \"No hay medicos disponibles\");\r\n        uint64 i = 0;\r\n        Paciente memory p = pacientes[_DNI]; //Buscamos el indice del paciente por DNI\r\n        string memory nombreCentroSanitario = p.centro_sanitario; // Obtenemos centro sanitario del paciente\r\n        uint64 indiceMedicoConMenosPacientes; //Posicion del array del medico con menos pacientes\r\n        uint64 minimoPacientes = type(uint64).max;\r\n        while (i < medicos.length) {\r\n            //Comprobamos especialidad, centro sanitario, y obtenemos el mdico con menos pacientes asignados\r\n            if (\r\n                keccak256(bytes(medicos[i].especialidad)) ==\r\n                keccak256(bytes(\"General\")) &&\r\n                keccak256(bytes(medicos[i].centro_sanitario)) ==\r\n                keccak256(bytes(nombreCentroSanitario)) &&\r\n                medicos[i].numero_pacientes < minimoPacientes\r\n            ) {\r\n                minimoPacientes = medicos[i].numero_pacientes;\r\n                indiceMedicoConMenosPacientes = i; //Mdico vlido encontrado\r\n            }\r\n            i++;\r\n        }\r\n        require(\r\n        keccak256(bytes(medicos[indiceMedicoConMenosPacientes].centro_sanitario)) == \r\n        keccak256(bytes(nombreCentroSanitario)),\r\n        \"El medico no pertenece al mismo centro sanitario que el paciente\"\r\n    );\r\n        medicos[indiceMedicoConMenosPacientes].numero_pacientes++; //Aumentamos pacientes de ese mdico\r\n        pacientes[_DNI].medico_asignado=indiceMedicoConMenosPacientes; //Asignamos mdico al paciente\r\n        return indiceMedicoConMenosPacientes;\r\n    }\r\n\r\n    function solicitarCita(string memory _DNI, uint256 _fecha, uint8 _hora, string memory _datos_cita, tipo_consulta _tipoConsulta) public {\r\n    require(pacientes[_DNI].medico_asignado < type(uint64).max, \"El paciente no tiene un medico asignado\");\r\n    require(_fecha >= block.timestamp, \"No se pueden programar citas anteriores a este momento.\");\r\n\r\n    bool huecoLibre = true;\r\n    Paciente memory paciente = pacientes[_DNI];\r\n    Medico memory medico = medicos[paciente.medico_asignado]; //Medico que el paciente tiene asignado\r\n    for (uint64 i = 0; i < citas.length && citas[i].fecha>block.timestamp; i++) { \r\n        //Comprobamos que sea el medico que tiene asignado el paciente \r\n        if(citas[i].medico.datos.direccionPublica == medico.datos.direccionPublica){ \r\n        //Comprobamos que haya un rango de 15 minutos disponibles despues de la cita\r\n        if (citas[i].fecha == _fecha && citas[i].hora == _hora || citas[i].fecha == _fecha && citas[i].hora > _hora - 15 minutes) {\r\n            huecoLibre = false;\r\n            }\r\n            }\r\n    }\r\n        if (huecoLibre) {\r\n    //Asignamos la nueva cita\r\n        citas.push(\r\n        Cita({\r\n            medico: medico,\r\n            paciente: paciente,\r\n            fecha: _fecha,\r\n            hora: _hora,\r\n            datos_cita:_datos_cita,\r\n            tipoConsulta: _tipoConsulta\r\n        }));\r\n\r\n    //Creamos la consulta\r\n        consultas.push(\r\n        Consulta({\r\n        paciente:paciente,\r\n        medico:medico,\r\n        fecha: _fecha,\r\n        hora:_hora,\r\n        datos_consulta:_datos_cita,\r\n        estado: estado_consulta.programada,\r\n        tipo: _tipoConsulta\r\n    }));\r\n}\r\n    }\r\nfunction atenderConsulta (string memory _DNI, uint _fecha, uint8 _hora, string memory _datos_consulta) public {\r\n    Paciente memory paciente = pacientes[_DNI];\r\n    require(msg.sender ==  medicos[pacientes[_DNI].medico_asignado].datos.direccionPublica, \"Solo el medico puede atender la consulta\"); \r\n    bool consultaEncontrada = false;\r\n    for(uint64 i = 0; i < consultas.length; i++) {\r\n        if(consultas[i].fecha == _fecha && consultas[i].hora == _hora && keccak256(bytes(paciente.datos.DNI)) == keccak256(bytes(_DNI))) {\r\n            consultaEncontrada = true;\r\n            consultas[i].datos_consulta = _datos_consulta;\r\n            consultas[i].estado = estado_consulta.cerrada; //consulta cerrada\r\n        }\r\n    }\r\n    require(consultaEncontrada == true, \"No se encontro una consulta programada con los datos especificados\");\r\n}\r\n\r\nfunction modificarCita(uint64 indice, string memory _datos_cita, Paciente memory _paciente, uint _nuevaFecha, uint8 _nuevaHora, tipo_consulta _nuevoTipoConsulta) public {\r\n    require((indice < citas.length) && (msg.sender == medicos[_paciente.medico_asignado].datos.direccionPublica || msg.sender == _paciente.datos.direccionPublica), \"la cita no existe o no hay permisos suficientes\");\r\n    require(_nuevaFecha >= block.timestamp, \"No se pueden programar citas anteriores a este momento.\");\r\n    //Actualizamos datos de la futura consulta mdica\r\n     for (uint64 i = 0; i < consultas.length; i++) {\r\n        if (consultas[i].fecha == citas[indice].fecha &&\r\n            consultas[i].hora == citas[indice].hora &&\r\n            keccak256(bytes(consultas[i].paciente.datos.DNI)) == keccak256(bytes(_paciente.datos.DNI))) {\r\n            consultas[i].fecha= _nuevaFecha;\r\n            consultas[i].hora= _nuevaHora;\r\n            consultas[i].fecha= _nuevaFecha;\r\n            consultas[i].tipo= _nuevoTipoConsulta;\r\n}\r\n     }\r\n    citas[indice].fecha=_nuevaFecha;\r\n    citas[indice].hora=_nuevaHora;\r\n    citas[indice].datos_cita=_datos_cita;\r\n    citas[indice].tipoConsulta = _nuevoTipoConsulta;\r\n}\r\nfunction obtenerCitas() public view returns (Cita[] memory) {\r\n        return citas;\r\n    }\r\n    function obtenerConsultas() public view returns (Consulta[] memory) {\r\n        return consultas;\r\n    }\r\nfunction obtenerDatosPaciente(string memory _DNI) public view returns (Paciente memory) {\r\n    return pacientes[_DNI];\r\n}\r\n}",
  "sourcePath": "C:\\Users\\pablo\\OneDrive - Universidad de Castilla-La Mancha\\4\\TFG\\ProyectoHistoriaClinica\\contracts\\HistoriaClinica.sol",
  "compiler": {
    "name": "solc",
    "version": "0.8.13+commit.abaa5c0e.Emscripten.clang"
  },
  "schemaVersion": "3.4.15",
  "updatedAt": "2023-11-25T19:42:45.912Z",
  "networkType": "ethereum",
  "devdoc": {
    "kind": "dev",
    "methods": {},
    "version": 1
  },
  "userdoc": {
    "kind": "user",
    "methods": {},
    "version": 1
  }
}