{
  "contractName": "HistoriaClinica",
  "abi": [
    {
      "inputs": [],
      "stateMutability": "nonpayable",
      "type": "constructor"
    },
    {
      "inputs": [
        {
          "internalType": "uint256",
          "name": "",
          "type": "uint256"
        }
      ],
      "name": "citas",
      "outputs": [
        {
          "components": [
            {
              "components": [
                {
                  "internalType": "address",
                  "name": "direccionPublica",
                  "type": "address"
                },
                {
                  "internalType": "string",
                  "name": "DNI",
                  "type": "string"
                }
              ],
              "internalType": "struct HistoriaClinica.Persona",
              "name": "datos",
              "type": "tuple"
            },
            {
              "internalType": "string",
              "name": "centro_sanitario",
              "type": "string"
            },
            {
              "internalType": "uint256",
              "name": "medico_asignado",
              "type": "uint256"
            },
            {
              "internalType": "string",
              "name": "datos_paciente",
              "type": "string"
            }
          ],
          "internalType": "struct HistoriaClinica.Paciente",
          "name": "paciente",
          "type": "tuple"
        },
        {
          "components": [
            {
              "components": [
                {
                  "internalType": "address",
                  "name": "direccionPublica",
                  "type": "address"
                },
                {
                  "internalType": "string",
                  "name": "DNI",
                  "type": "string"
                }
              ],
              "internalType": "struct HistoriaClinica.Persona",
              "name": "datos",
              "type": "tuple"
            },
            {
              "internalType": "string",
              "name": "especialidad",
              "type": "string"
            },
            {
              "internalType": "string",
              "name": "centro_sanitario",
              "type": "string"
            },
            {
              "internalType": "uint256",
              "name": "numero_pacientes",
              "type": "uint256"
            }
          ],
          "internalType": "struct HistoriaClinica.Medico",
          "name": "medico",
          "type": "tuple"
        },
        {
          "internalType": "uint256",
          "name": "fecha",
          "type": "uint256"
        },
        {
          "internalType": "uint8",
          "name": "hora",
          "type": "uint8"
        },
        {
          "internalType": "string",
          "name": "datos_cita",
          "type": "string"
        },
        {
          "internalType": "enum HistoriaClinica.tipo_consulta",
          "name": "tipoConsulta",
          "type": "uint8"
        }
      ],
      "stateMutability": "view",
      "type": "function",
      "constant": true
    },
    {
      "inputs": [
        {
          "internalType": "uint256",
          "name": "",
          "type": "uint256"
        }
      ],
      "name": "consultas",
      "outputs": [
        {
          "components": [
            {
              "components": [
                {
                  "internalType": "address",
                  "name": "direccionPublica",
                  "type": "address"
                },
                {
                  "internalType": "string",
                  "name": "DNI",
                  "type": "string"
                }
              ],
              "internalType": "struct HistoriaClinica.Persona",
              "name": "datos",
              "type": "tuple"
            },
            {
              "internalType": "string",
              "name": "centro_sanitario",
              "type": "string"
            },
            {
              "internalType": "uint256",
              "name": "medico_asignado",
              "type": "uint256"
            },
            {
              "internalType": "string",
              "name": "datos_paciente",
              "type": "string"
            }
          ],
          "internalType": "struct HistoriaClinica.Paciente",
          "name": "paciente",
          "type": "tuple"
        },
        {
          "components": [
            {
              "components": [
                {
                  "internalType": "address",
                  "name": "direccionPublica",
                  "type": "address"
                },
                {
                  "internalType": "string",
                  "name": "DNI",
                  "type": "string"
                }
              ],
              "internalType": "struct HistoriaClinica.Persona",
              "name": "datos",
              "type": "tuple"
            },
            {
              "internalType": "string",
              "name": "especialidad",
              "type": "string"
            },
            {
              "internalType": "string",
              "name": "centro_sanitario",
              "type": "string"
            },
            {
              "internalType": "uint256",
              "name": "numero_pacientes",
              "type": "uint256"
            }
          ],
          "internalType": "struct HistoriaClinica.Medico",
          "name": "medico",
          "type": "tuple"
        },
        {
          "internalType": "uint8",
          "name": "hora",
          "type": "uint8"
        },
        {
          "internalType": "uint256",
          "name": "fecha",
          "type": "uint256"
        },
        {
          "internalType": "string",
          "name": "datos_consulta",
          "type": "string"
        },
        {
          "internalType": "enum HistoriaClinica.estado_consulta",
          "name": "estado",
          "type": "uint8"
        },
        {
          "internalType": "enum HistoriaClinica.tipo_consulta",
          "name": "tipo",
          "type": "uint8"
        }
      ],
      "stateMutability": "view",
      "type": "function",
      "constant": true
    },
    {
      "inputs": [
        {
          "internalType": "uint256",
          "name": "",
          "type": "uint256"
        }
      ],
      "name": "enfermeros",
      "outputs": [
        {
          "components": [
            {
              "internalType": "address",
              "name": "direccionPublica",
              "type": "address"
            },
            {
              "internalType": "string",
              "name": "DNI",
              "type": "string"
            }
          ],
          "internalType": "struct HistoriaClinica.Persona",
          "name": "datos",
          "type": "tuple"
        },
        {
          "internalType": "string",
          "name": "especialidad",
          "type": "string"
        },
        {
          "internalType": "string",
          "name": "centro_sanitario",
          "type": "string"
        }
      ],
      "stateMutability": "view",
      "type": "function",
      "constant": true
    },
    {
      "inputs": [
        {
          "internalType": "uint256",
          "name": "",
          "type": "uint256"
        }
      ],
      "name": "medicos",
      "outputs": [
        {
          "components": [
            {
              "internalType": "address",
              "name": "direccionPublica",
              "type": "address"
            },
            {
              "internalType": "string",
              "name": "DNI",
              "type": "string"
            }
          ],
          "internalType": "struct HistoriaClinica.Persona",
          "name": "datos",
          "type": "tuple"
        },
        {
          "internalType": "string",
          "name": "especialidad",
          "type": "string"
        },
        {
          "internalType": "string",
          "name": "centro_sanitario",
          "type": "string"
        },
        {
          "internalType": "uint256",
          "name": "numero_pacientes",
          "type": "uint256"
        }
      ],
      "stateMutability": "view",
      "type": "function",
      "constant": true
    },
    {
      "inputs": [],
      "name": "owner",
      "outputs": [
        {
          "internalType": "address",
          "name": "",
          "type": "address"
        }
      ],
      "stateMutability": "view",
      "type": "function",
      "constant": true
    },
    {
      "inputs": [
        {
          "internalType": "string",
          "name": "",
          "type": "string"
        }
      ],
      "name": "pacientes",
      "outputs": [
        {
          "components": [
            {
              "internalType": "address",
              "name": "direccionPublica",
              "type": "address"
            },
            {
              "internalType": "string",
              "name": "DNI",
              "type": "string"
            }
          ],
          "internalType": "struct HistoriaClinica.Persona",
          "name": "datos",
          "type": "tuple"
        },
        {
          "internalType": "string",
          "name": "centro_sanitario",
          "type": "string"
        },
        {
          "internalType": "uint256",
          "name": "medico_asignado",
          "type": "uint256"
        },
        {
          "internalType": "string",
          "name": "datos_paciente",
          "type": "string"
        }
      ],
      "stateMutability": "view",
      "type": "function",
      "constant": true
    },
    {
      "inputs": [
        {
          "internalType": "string",
          "name": "_DNI",
          "type": "string"
        },
        {
          "internalType": "string",
          "name": "_centroSanitario",
          "type": "string"
        },
        {
          "internalType": "string",
          "name": "_datosPaciente",
          "type": "string"
        }
      ],
      "name": "registrarPaciente",
      "outputs": [],
      "stateMutability": "nonpayable",
      "type": "function"
    },
    {
      "inputs": [
        {
          "internalType": "address",
          "name": "_direccionMedico",
          "type": "address"
        },
        {
          "internalType": "string",
          "name": "_DNI",
          "type": "string"
        },
        {
          "internalType": "string",
          "name": "_especialidad",
          "type": "string"
        },
        {
          "internalType": "string",
          "name": "_centro_sanitario",
          "type": "string"
        }
      ],
      "name": "registrarMedico",
      "outputs": [],
      "stateMutability": "nonpayable",
      "type": "function"
    },
    {
      "inputs": [
        {
          "internalType": "address",
          "name": "_direccionEnfermero",
          "type": "address"
        },
        {
          "internalType": "string",
          "name": "_DNI",
          "type": "string"
        },
        {
          "internalType": "string",
          "name": "_especialidad",
          "type": "string"
        },
        {
          "internalType": "string",
          "name": "_centro_sanitario",
          "type": "string"
        }
      ],
      "name": "registrarEnfermero",
      "outputs": [],
      "stateMutability": "nonpayable",
      "type": "function"
    },
    {
      "inputs": [
        {
          "internalType": "string",
          "name": "_DNI",
          "type": "string"
        }
      ],
      "name": "asignarMedico",
      "outputs": [
        {
          "internalType": "uint256",
          "name": "",
          "type": "uint256"
        }
      ],
      "stateMutability": "nonpayable",
      "type": "function"
    },
    {
      "inputs": [
        {
          "internalType": "string",
          "name": "_DNI",
          "type": "string"
        },
        {
          "internalType": "uint256",
          "name": "_fecha",
          "type": "uint256"
        },
        {
          "internalType": "uint8",
          "name": "_hora",
          "type": "uint8"
        },
        {
          "internalType": "string",
          "name": "_datos_cita",
          "type": "string"
        },
        {
          "internalType": "enum HistoriaClinica.tipo_consulta",
          "name": "_tipoConsulta",
          "type": "uint8"
        }
      ],
      "name": "solicitarCita",
      "outputs": [],
      "stateMutability": "nonpayable",
      "type": "function"
    },
    {
      "inputs": [
        {
          "internalType": "string",
          "name": "_DNI",
          "type": "string"
        },
        {
          "internalType": "uint256",
          "name": "_fecha",
          "type": "uint256"
        },
        {
          "internalType": "uint256",
          "name": "_hora",
          "type": "uint256"
        },
        {
          "internalType": "string",
          "name": "_datos_consulta",
          "type": "string"
        }
      ],
      "name": "atenderConsulta",
      "outputs": [],
      "stateMutability": "nonpayable",
      "type": "function"
    },
    {
      "inputs": [
        {
          "internalType": "uint8",
          "name": "indice",
          "type": "uint8"
        },
        {
          "components": [
            {
              "components": [
                {
                  "internalType": "address",
                  "name": "direccionPublica",
                  "type": "address"
                },
                {
                  "internalType": "string",
                  "name": "DNI",
                  "type": "string"
                }
              ],
              "internalType": "struct HistoriaClinica.Persona",
              "name": "datos",
              "type": "tuple"
            },
            {
              "internalType": "string",
              "name": "especialidad",
              "type": "string"
            },
            {
              "internalType": "string",
              "name": "centro_sanitario",
              "type": "string"
            },
            {
              "internalType": "uint256",
              "name": "numero_pacientes",
              "type": "uint256"
            }
          ],
          "internalType": "struct HistoriaClinica.Medico",
          "name": "_medico",
          "type": "tuple"
        },
        {
          "internalType": "string",
          "name": "_datos_cita",
          "type": "string"
        },
        {
          "components": [
            {
              "components": [
                {
                  "internalType": "address",
                  "name": "direccionPublica",
                  "type": "address"
                },
                {
                  "internalType": "string",
                  "name": "DNI",
                  "type": "string"
                }
              ],
              "internalType": "struct HistoriaClinica.Persona",
              "name": "datos",
              "type": "tuple"
            },
            {
              "internalType": "string",
              "name": "centro_sanitario",
              "type": "string"
            },
            {
              "internalType": "uint256",
              "name": "medico_asignado",
              "type": "uint256"
            },
            {
              "internalType": "string",
              "name": "datos_paciente",
              "type": "string"
            }
          ],
          "internalType": "struct HistoriaClinica.Paciente",
          "name": "_paciente",
          "type": "tuple"
        },
        {
          "internalType": "uint256",
          "name": "_nuevaFecha",
          "type": "uint256"
        },
        {
          "internalType": "uint8",
          "name": "_nuevaHora",
          "type": "uint8"
        },
        {
          "internalType": "enum HistoriaClinica.tipo_consulta",
          "name": "_nuevoTipoConsulta",
          "type": "uint8"
        }
      ],
      "name": "modificarCita",
      "outputs": [],
      "stateMutability": "nonpayable",
      "type": "function"
    },
    {
      "inputs": [
        {
          "components": [
            {
              "components": [
                {
                  "components": [
                    {
                      "internalType": "address",
                      "name": "direccionPublica",
                      "type": "address"
                    },
                    {
                      "internalType": "string",
                      "name": "DNI",
                      "type": "string"
                    }
                  ],
                  "internalType": "struct HistoriaClinica.Persona",
                  "name": "datos",
                  "type": "tuple"
                },
                {
                  "internalType": "string",
                  "name": "centro_sanitario",
                  "type": "string"
                },
                {
                  "internalType": "uint256",
                  "name": "medico_asignado",
                  "type": "uint256"
                },
                {
                  "internalType": "string",
                  "name": "datos_paciente",
                  "type": "string"
                }
              ],
              "internalType": "struct HistoriaClinica.Paciente",
              "name": "paciente",
              "type": "tuple"
            },
            {
              "components": [
                {
                  "components": [
                    {
                      "internalType": "address",
                      "name": "direccionPublica",
                      "type": "address"
                    },
                    {
                      "internalType": "string",
                      "name": "DNI",
                      "type": "string"
                    }
                  ],
                  "internalType": "struct HistoriaClinica.Persona",
                  "name": "datos",
                  "type": "tuple"
                },
                {
                  "internalType": "string",
                  "name": "especialidad",
                  "type": "string"
                },
                {
                  "internalType": "string",
                  "name": "centro_sanitario",
                  "type": "string"
                },
                {
                  "internalType": "uint256",
                  "name": "numero_pacientes",
                  "type": "uint256"
                }
              ],
              "internalType": "struct HistoriaClinica.Medico",
              "name": "medico",
              "type": "tuple"
            },
            {
              "internalType": "uint8",
              "name": "hora",
              "type": "uint8"
            },
            {
              "internalType": "uint256",
              "name": "fecha",
              "type": "uint256"
            },
            {
              "internalType": "string",
              "name": "datos_consulta",
              "type": "string"
            },
            {
              "internalType": "enum HistoriaClinica.estado_consulta",
              "name": "estado",
              "type": "uint8"
            },
            {
              "internalType": "enum HistoriaClinica.tipo_consulta",
              "name": "tipo",
              "type": "uint8"
            }
          ],
          "internalType": "struct HistoriaClinica.Consulta",
          "name": "nuevaConsulta",
          "type": "tuple"
        }
      ],
      "name": "crearConsulta",
      "outputs": [],
      "stateMutability": "nonpayable",
      "type": "function"
    },
    {
      "inputs": [],
      "name": "obtenerMedicos",
      "outputs": [
        {
          "components": [
            {
              "components": [
                {
                  "internalType": "address",
                  "name": "direccionPublica",
                  "type": "address"
                },
                {
                  "internalType": "string",
                  "name": "DNI",
                  "type": "string"
                }
              ],
              "internalType": "struct HistoriaClinica.Persona",
              "name": "datos",
              "type": "tuple"
            },
            {
              "internalType": "string",
              "name": "especialidad",
              "type": "string"
            },
            {
              "internalType": "string",
              "name": "centro_sanitario",
              "type": "string"
            },
            {
              "internalType": "uint256",
              "name": "numero_pacientes",
              "type": "uint256"
            }
          ],
          "internalType": "struct HistoriaClinica.Medico[]",
          "name": "",
          "type": "tuple[]"
        }
      ],
      "stateMutability": "view",
      "type": "function",
      "constant": true
    },
    {
      "inputs": [],
      "name": "obtenerEnfermeros",
      "outputs": [
        {
          "components": [
            {
              "components": [
                {
                  "internalType": "address",
                  "name": "direccionPublica",
                  "type": "address"
                },
                {
                  "internalType": "string",
                  "name": "DNI",
                  "type": "string"
                }
              ],
              "internalType": "struct HistoriaClinica.Persona",
              "name": "datos",
              "type": "tuple"
            },
            {
              "internalType": "string",
              "name": "especialidad",
              "type": "string"
            },
            {
              "internalType": "string",
              "name": "centro_sanitario",
              "type": "string"
            }
          ],
          "internalType": "struct HistoriaClinica.Enfermero[]",
          "name": "",
          "type": "tuple[]"
        }
      ],
      "stateMutability": "view",
      "type": "function",
      "constant": true
    },
    {
      "inputs": [
        {
          "internalType": "string",
          "name": "_DNI",
          "type": "string"
        }
      ],
      "name": "obtenerDatosPaciente",
      "outputs": [
        {
          "components": [
            {
              "components": [
                {
                  "internalType": "address",
                  "name": "direccionPublica",
                  "type": "address"
                },
                {
                  "internalType": "string",
                  "name": "DNI",
                  "type": "string"
                }
              ],
              "internalType": "struct HistoriaClinica.Persona",
              "name": "datos",
              "type": "tuple"
            },
            {
              "internalType": "string",
              "name": "centro_sanitario",
              "type": "string"
            },
            {
              "internalType": "uint256",
              "name": "medico_asignado",
              "type": "uint256"
            },
            {
              "internalType": "string",
              "name": "datos_paciente",
              "type": "string"
            }
          ],
          "internalType": "struct HistoriaClinica.Paciente",
          "name": "",
          "type": "tuple"
        }
      ],
      "stateMutability": "view",
      "type": "function",
      "constant": true
    }
  ],
  "bytecode": "0x608060405234801561001057600080fd5b50600580546001600160a01b031916331790556148d3806100326000396000f3fe608060405234801561001057600080fd5b506004361061011b5760003560e01c806394ee77bd116100b2578063cdafc91a11610081578063de67678111610066578063de676781146102a0578063f1259108146102b3578063f6652a67146102d457600080fd5b8063cdafc91a1461025e578063db8a98201461027e57600080fd5b806394ee77bd1461020e578063bdb7990014610223578063ca1cde8f14610238578063cbcc336d1461024b57600080fd5b80634fef7228116100ee5780634fef72281461018757806352509b8d1461019a5780637513e79c146101bd5780638da5cb5b146101e357600080fd5b80631b01921a146101205780632c1a929d146101355780633550242f14610161578063358e64d014610174575b600080fd5b61013361012e366004613cfd565b6102f9565b005b610148610143366004613d74565b610797565b6040516101589493929190613e19565b60405180910390f35b61013361016f366004613e80565b610992565b6101336101823660046140e1565b610b24565b6101336101953660046141d3565b610d44565b6101ad6101a8366004614297565b6111e0565b60405161015894939291906142cc565b6101d06101cb366004613d74565b6113d6565b60405161015897969594939291906143fa565b6005546101f6906001600160a01b031681565b6040516001600160a01b039091168152602001610158565b61021661189a565b6040516101589190614474565b61022b611b5a565b60405161015891906144d6565b610133610246366004614577565b611e07565b6101336102593660046145ff565b611f8a565b61027161026c366004614297565b612b85565b604051610158919061468e565b61029161028c366004613d74565b612eff565b604051610158939291906146a8565b6101336102ae366004613e80565b6130f4565b6102c66102c1366004614297565b613294565b604051908152602001610158565b6102e76102e2366004613d74565b6136ba565b604051610158969594939291906146eb565b6000808560405161030a9190614743565b9081526040805191829003602001822060c0830190915280546001600160a01b031660808301908152600182018054849291849160a08501919061034d9061475f565b80601f01602080910402602001604051908101604052809291908181526020018280546103799061475f565b80156103c65780601f1061039b576101008083540402835291602001916103c6565b820191906000526020600020905b8154815290600101906020018083116103a957829003601f168201915b50505050508152505081526020016002820180546103e39061475f565b80601f016020809104026020016040519081016040528092919081815260200182805461040f9061475f565b801561045c5780601f106104315761010080835404028352916020019161045c565b820191906000526020600020905b81548152906001019060200180831161043f57829003601f168201915b505050505081526020016003820154815260200160048201805461047f9061475f565b80601f01602080910402602001604051908101604052809291908181526020018280546104ab9061475f565b80156104f85780601f106104cd576101008083540402835291602001916104f8565b820191906000526020600020905b8154815290600101906020018083116104db57829003601f168201915b505050505081525050905060016000866040516105159190614743565b9081526020016040518091039020600301548154811061053757610537614799565b60009182526020909120600590910201546001600160a01b031633146105ca5760405162461bcd60e51b815260206004820152602860248201527f536f6c6f20656c206d656469636f207075656465206174656e646572206c612060448201527f636f6e73756c746100000000000000000000000000000000000000000000000060648201526084015b60405180910390fd5b6000805b6004548110156106f05785600482815481106105ec576105ec614799565b90600052602060002090600e0201600b01541480156106335750846004828154811061061a5761061a614799565b60009182526020909120600a600e90920201015460ff16145b80156106545750868051906020012083600001516020015180519060200120145b156106de5760019150836004828154811061067157610671614799565b90600052602060002090600e0201600c019080519060200190610695929190613b75565b506002600482815481106106ab576106ab614799565b60009182526020909120600d600e9092020101805460ff191660018360028111156106d8576106d86143d0565b02179055505b806106e8816147c5565b9150506105ce565b5060018115151461078f5760405162461bcd60e51b815260206004820152604260248201527f4e6f20736520656e636f6e74726f20756e6120636f6e73756c74612070726f6760448201527f72616d61646120636f6e206c6f73206461746f7320657370656369666963616460648201527f6f73000000000000000000000000000000000000000000000000000000000000608482015260a4016105c1565b505050505050565b600181815481106107a757600080fd5b60009182526020918290206040805180820190915260059092020180546001600160a01b0316825260018101805491945091928492908401916107e99061475f565b80601f01602080910402602001604051908101604052809291908181526020018280546108159061475f565b80156108625780601f1061083757610100808354040283529160200191610862565b820191906000526020600020905b81548152906001019060200180831161084557829003601f168201915b5050505050815250509080600201805461087b9061475f565b80601f01602080910402602001604051908101604052809291908181526020018280546108a79061475f565b80156108f45780601f106108c9576101008083540402835291602001916108f4565b820191906000526020600020905b8154815290600101906020018083116108d757829003601f168201915b5050505050908060030180546109099061475f565b80601f01602080910402602001604051908101604052809291908181526020018280546109359061475f565b80156109825780601f1061095757610100808354040283529160200191610982565b820191906000526020600020905b81548152906001019060200180831161096557829003601f168201915b5050505050908060040154905084565b6005546001600160a01b03163314610a125760405162461bcd60e51b815260206004820152603f60248201527f536f6c6f20656c2061646d696e6973747261646f72207469656e65207065726d60448201527f69736f73207061726120656a65637574617220657374612066756e63696f6e0060648201526084016105c1565b6040805180820182526001600160a01b0386811682526020808301879052835160608101855283815280820187905293840185905260028054600181018255600091909152845180517f405787fa12a823e0f2b7631cc41b3ba8828b3321ca811111fa75cd3aa3bb5ace6004909302928301805473ffffffffffffffffffffffffffffffffffffffff19169190951617845580830151805195969591938593610ae3937f405787fa12a823e0f2b7631cc41b3ba8828b3321ca811111fa75cd3aa3bb5acf9091019290910190613b75565b5050506020828101518051610afe9260028501920190613b75565b5060408201518051610b1a916003840191602090910190613b75565b5050505050505050565b60048054600181018255600091909152815180518051600e9093027f8a35acfbc15ff81a39ae7d344fd709f28e8600b4aa8c65c6b64bfe7fe36bd19b810180546001600160a01b0390951673ffffffffffffffffffffffffffffffffffffffff19909516949094178455602082810151805187969594869490938593610bd1937f8a35acfbc15ff81a39ae7d344fd709f28e8600b4aa8c65c6b64bfe7fe36bd19c90930192910190613b75565b5050506020828101518051610bec9260028501920190613b75565b506040820151600382015560608201518051610c12916004840191602090910190613b75565b5050506020828101518051805160058501805473ffffffffffffffffffffffffffffffffffffffff19166001600160a01b03909216919091178155818401518051939491938492610c6a926006890192910190613b75565b5050506020828101518051610c859260028501920190613b75565b5060408201518051610ca1916003840191602090910190613b75565b50606091820151600491909101556040830151600a8301805460ff191660ff909216919091179055820151600b82015560808201518051610cec91600c840191602090910190613b75565b5060a0820151600d8201805460ff19166001836002811115610d1057610d106143d0565b021790555060c0820151600d8201805461ff001916610100836001811115610d3a57610d3a6143d0565b0217905550505050565b60035460ff8816108015610d7657508551516001600160a01b0316331480610d7657508351516001600160a01b031633145b610de85760405162461bcd60e51b815260206004820152602f60248201527f6c612063697461206e6f20657869737465206f206e6f20686179207065726d6960448201527f736f7320737566696369656e746573000000000000000000000000000000000060648201526084016105c1565b60088260ff1610158015610e00575060128260ff1611155b610e725760405162461bcd60e51b815260206004820152603360248201527f4c6120636c696e69636120736f6c6f20617469656e646520656e747265206c6160448201527f7320383a30302079206c61732031383a30302e0000000000000000000000000060648201526084016105c1565b42831015610ee85760405162461bcd60e51b815260206004820152603760248201527f4e6f2073652070756564656e2070726f6772616d617220636974617320616e7460448201527f6572696f72657320612065737465206d6f6d656e746f2e00000000000000000060648201526084016105c1565b60005b6004548110156110ee5760038860ff1681548110610f0b57610f0b614799565b90600052602060002090600e0201600a015460048281548110610f3057610f30614799565b90600052602060002090600e0201600b0154148015610fa7575060038860ff1681548110610f6057610f60614799565b60009182526020909120600b600e9092020101546004805460ff9092169183908110610f8e57610f8e614799565b60009182526020909120600a600e90920201015460ff16145b8015610fff57508460000151602001518051906020012060048281548110610fd157610fd1614799565b90600052602060002090600e0201600001600001600101604051610ff591906147df565b6040518091039020145b156110dc57836004828154811061101857611018614799565b90600052602060002090600e0201600b0181905550826004828154811061104157611041614799565b90600052602060002090600e0201600a0160006101000a81548160ff021916908360ff160217905550836004828154811061107e5761107e614799565b90600052602060002090600e0201600b018190555081600482815481106110a7576110a7614799565b60009182526020909120600d600e9092020101805461ff0019166101008360018111156110d6576110d66143d0565b02179055505b806110e6816147c5565b915050610eeb565b508260038860ff168154811061110657611106614799565b90600052602060002090600e0201600a01819055508160038860ff168154811061113257611132614799565b60009182526020909120600e90910201600b01805460ff191660ff9283161790556003805487928a1690811061116a5761116a614799565b90600052602060002090600e0201600c01908051906020019061118e929190613b75565b508060038860ff16815481106111a6576111a6614799565b60009182526020909120600d600e9092020101805460ff1916600183818111156111d2576111d26143d0565b021790555050505050505050565b80516020818301810180516000825292820193820193909320919092526040805180820190915281546001600160a01b031681526001820180549293919284928401919061122d9061475f565b80601f01602080910402602001604051908101604052809291908181526020018280546112599061475f565b80156112a65780601f1061127b576101008083540402835291602001916112a6565b820191906000526020600020905b81548152906001019060200180831161128957829003601f168201915b505050505081525050908060020180546112bf9061475f565b80601f01602080910402602001604051908101604052809291908181526020018280546112eb9061475f565b80156113385780601f1061130d57610100808354040283529160200191611338565b820191906000526020600020905b81548152906001019060200180831161131b57829003601f168201915b5050505050908060030154908060040180546113539061475f565b80601f016020809104026020016040519081016040528092919081815260200182805461137f9061475f565b80156113cc5780601f106113a1576101008083540402835291602001916113cc565b820191906000526020600020905b8154815290600101906020018083116113af57829003601f168201915b5050505050905084565b600481815481106113e657600080fd5b600091825260209091206040805160c08101909152600e9092020180546001600160a01b0316608083019081526001820180549294508492849291849160a0850191906114329061475f565b80601f016020809104026020016040519081016040528092919081815260200182805461145e9061475f565b80156114ab5780601f10611480576101008083540402835291602001916114ab565b820191906000526020600020905b81548152906001019060200180831161148e57829003601f168201915b50505050508152505081526020016002820180546114c89061475f565b80601f01602080910402602001604051908101604052809291908181526020018280546114f49061475f565b80156115415780601f1061151657610100808354040283529160200191611541565b820191906000526020600020905b81548152906001019060200180831161152457829003601f168201915b50505050508152602001600382015481526020016004820180546115649061475f565b80601f01602080910402602001604051908101604052809291908181526020018280546115909061475f565b80156115dd5780601f106115b2576101008083540402835291602001916115dd565b820191906000526020600020905b8154815290600101906020018083116115c057829003601f168201915b5050509190925250506040805160c081019091526005840180546001600160a01b03166080830190815260068601805495969593945091928492849160a0850191906116289061475f565b80601f01602080910402602001604051908101604052809291908181526020018280546116549061475f565b80156116a15780601f10611676576101008083540402835291602001916116a1565b820191906000526020600020905b81548152906001019060200180831161168457829003601f168201915b50505050508152505081526020016002820180546116be9061475f565b80601f01602080910402602001604051908101604052809291908181526020018280546116ea9061475f565b80156117375780601f1061170c57610100808354040283529160200191611737565b820191906000526020600020905b81548152906001019060200180831161171a57829003601f168201915b505050505081526020016003820180546117509061475f565b80601f016020809104026020016040519081016040528092919081815260200182805461177c9061475f565b80156117c95780601f1061179e576101008083540402835291602001916117c9565b820191906000526020600020905b8154815290600101906020018083116117ac57829003601f168201915b505050505081526020016004820154815250509080600a0160009054906101000a900460ff169080600b01549080600c0180546118059061475f565b80601f01602080910402602001604051908101604052809291908181526020018280546118319061475f565b801561187e5780601f106118535761010080835404028352916020019161187e565b820191906000526020600020905b81548152906001019060200180831161186157829003601f168201915b505050600d909301549192505060ff8082169161010090041687565b6005546060906001600160a01b0316331461191d5760405162461bcd60e51b815260206004820152603f60248201527f536f6c6f20656c2061646d696e6973747261646f72207469656e65207065726d60448201527f69736f73207061726120656a65637574617220657374612066756e63696f6e0060648201526084016105c1565b6001805480602002602001604051908101604052809291908181526020016000905b82821015611b51576000848152602090206040805160c081019091526005840290910180546001600160a01b031660808301908152600182018054849291849160a08501919061198e9061475f565b80601f01602080910402602001604051908101604052809291908181526020018280546119ba9061475f565b8015611a075780601f106119dc57610100808354040283529160200191611a07565b820191906000526020600020905b8154815290600101906020018083116119ea57829003601f168201915b5050505050815250508152602001600282018054611a249061475f565b80601f0160208091040260200160405190810160405280929190818152602001828054611a509061475f565b8015611a9d5780601f10611a7257610100808354040283529160200191611a9d565b820191906000526020600020905b815481529060010190602001808311611a8057829003601f168201915b50505050508152602001600382018054611ab69061475f565b80601f0160208091040260200160405190810160405280929190818152602001828054611ae29061475f565b8015611b2f5780601f10611b0457610100808354040283529160200191611b2f565b820191906000526020600020905b815481529060010190602001808311611b1257829003601f168201915b505050505081526020016004820154815250508152602001906001019061193f565b50505050905090565b6005546060906001600160a01b03163314611bdd5760405162461bcd60e51b815260206004820152603f60248201527f536f6c6f20656c2061646d696e6973747261646f72207469656e65207065726d60448201527f69736f73207061726120656a65637574617220657374612066756e63696f6e0060648201526084016105c1565b6002805480602002602001604051908101604052809291908181526020016000905b82821015611b51576000848152602090206040805160a081019091526004840290910180546001600160a01b0316606083019081526001820180548492918491608085019190611c4e9061475f565b80601f0160208091040260200160405190810160405280929190818152602001828054611c7a9061475f565b8015611cc75780601f10611c9c57610100808354040283529160200191611cc7565b820191906000526020600020905b815481529060010190602001808311611caa57829003601f168201915b5050505050815250508152602001600282018054611ce49061475f565b80601f0160208091040260200160405190810160405280929190818152602001828054611d109061475f565b8015611d5d5780601f10611d3257610100808354040283529160200191611d5d565b820191906000526020600020905b815481529060010190602001808311611d4057829003601f168201915b50505050508152602001600382018054611d769061475f565b80601f0160208091040260200160405190810160405280929190818152602001828054611da29061475f565b8015611def5780601f10611dc457610100808354040283529160200191611def565b820191906000526020600020905b815481529060010190602001808311611dd257829003601f168201915b50505050508152505081526020019060010190611bff565b60006001600160a01b0316600084604051611e229190614743565b908152604051908190036020019020546001600160a01b031614611e885760405162461bcd60e51b815260206004820181905260248201527f457374652070616369656e74652079612065737461207265676973747261646f60448201526064016105c1565b60006040518060400160405280336001600160a01b031681526020018581525090506040518060800160405280828152602001848152602001600019815260200183815250600085604051611edd9190614743565b9081526040516020918190038201902082518051825473ffffffffffffffffffffffffffffffffffffffff19166001600160a01b03909116178255808301518051929391928492611f35926001850192910190613b75565b5050506020828101518051611f509260028501920190613b75565b506040820151600382015560608201518051611f76916004840191602090910190613b75565b50905050611f8384613294565b5050505050565b600019600086604051611f9d9190614743565b908152602001604051809103902060030154106120225760405162461bcd60e51b815260206004820152602760248201527f456c2070616369656e7465206e6f207469656e6520756e206d656469636f206160448201527f7369676e61646f0000000000000000000000000000000000000000000000000060648201526084016105c1565b60088360ff161015801561203a575060128360ff1611155b6120ac5760405162461bcd60e51b815260206004820152603360248201527f4c6120636c696e69636120736f6c6f20617469656e646520656e747265206c6160448201527f7320383a30302079206c61732031383a30302e0000000000000000000000000060648201526084016105c1565b428410156121225760405162461bcd60e51b815260206004820152603760248201527f4e6f2073652070756564656e2070726f6772616d617220636974617320616e7460448201527f6572696f72657320612065737465206d6f6d656e746f2e00000000000000000060648201526084016105c1565b600060019050600080876040516121399190614743565b9081526040805191829003602001822060c0830190915280546001600160a01b031660808301908152600182018054849291849160a08501919061217c9061475f565b80601f01602080910402602001604051908101604052809291908181526020018280546121a89061475f565b80156121f55780601f106121ca576101008083540402835291602001916121f5565b820191906000526020600020905b8154815290600101906020018083116121d857829003601f168201915b50505050508152505081526020016002820180546122129061475f565b80601f016020809104026020016040519081016040528092919081815260200182805461223e9061475f565b801561228b5780601f106122605761010080835404028352916020019161228b565b820191906000526020600020905b81548152906001019060200180831161226e57829003601f168201915b50505050508152602001600382015481526020016004820180546122ae9061475f565b80601f01602080910402602001604051908101604052809291908181526020018280546122da9061475f565b80156123275780601f106122fc57610100808354040283529160200191612327565b820191906000526020600020905b81548152906001019060200180831161230a57829003601f168201915b50505050508152505090506000600182604001518154811061234b5761234b614799565b600091825260209091206040805160c0810190915260059092020180546001600160a01b031660808301908152600182018054849291849160a0850191906123929061475f565b80601f01602080910402602001604051908101604052809291908181526020018280546123be9061475f565b801561240b5780601f106123e05761010080835404028352916020019161240b565b820191906000526020600020905b8154815290600101906020018083116123ee57829003601f168201915b50505050508152505081526020016002820180546124289061475f565b80601f01602080910402602001604051908101604052809291908181526020018280546124549061475f565b80156124a15780601f10612476576101008083540402835291602001916124a1565b820191906000526020600020905b81548152906001019060200180831161248457829003601f168201915b505050505081526020016003820180546124ba9061475f565b80601f01602080910402602001604051908101604052809291908181526020018280546124e69061475f565b80156125335780601f1061250857610100808354040283529160200191612533565b820191906000526020600020905b81548152906001019060200180831161251657829003601f168201915b50505050508152602001600482015481525050905060005b6003548110801561257f5750426003828154811061256b5761256b614799565b90600052602060002090600e0201600a0154115b156126b8578160000151600001516001600160a01b0316600382815481106125a9576125a9614799565b600091825260209091206005600e9092020101546001600160a01b0316036126a65787600382815481106125df576125df614799565b90600052602060002090600e0201600a015414801561262957508660ff166003828154811061261057612610614799565b60009182526020909120600b600e90920201015460ff16145b8061269c5750876003828154811061264357612643614799565b90600052602060002090600e0201600a015414801561269c575061266c61038460ff891661487a565b61ffff166003828154811061268357612683614799565b60009182526020909120600b600e90920201015460ff16115b156126a657600093505b806126b0816147c5565b91505061254b565b508215612af15760036040518060c001604052808481526020018381526020018981526020018860ff1681526020018781526020018660018111156126ff576126ff6143d0565b90528154600180820184556000938452602093849020835180518051600e909502909201805473ffffffffffffffffffffffffffffffffffffffff19166001600160a01b039095169490941784558186015180519596949591948694859361276f93918501929190910190613b75565b505050602082810151805161278a9260028501920190613b75565b5060408201516003820155606082015180516127b0916004840191602090910190613b75565b5050506020828101518051805160058501805473ffffffffffffffffffffffffffffffffffffffff19166001600160a01b03909216919091178155818401518051939491938492612808926006890192910190613b75565b50505060208281015180516128239260028501920190613b75565b506040820151805161283f916003840191602090910190613b75565b50606091820151600491909101556040830151600a830155820151600b8201805460ff191660ff9092169190911790556080820151805161288a91600c840191602090910190613b75565b5060a0820151600d8201805460ff1916600183818111156128ad576128ad6143d0565b0217905550505060046040518060e001604052808481526020018381526020018860ff168152602001898152602001878152602001600060028111156128f5576128f56143d0565b815260200186600181111561290c5761290c6143d0565b90528154600180820184556000938452602093849020835180518051600e909502909201805473ffffffffffffffffffffffffffffffffffffffff19166001600160a01b039095169490941784558186015180519596949591948694859361297c93918501929190910190613b75565b50505060208281015180516129979260028501920190613b75565b5060408201516003820155606082015180516129bd916004840191602090910190613b75565b5050506020828101518051805160058501805473ffffffffffffffffffffffffffffffffffffffff19166001600160a01b03909216919091178155818401518051939491938492612a15926006890192910190613b75565b5050506020828101518051612a309260028501920190613b75565b5060408201518051612a4c916003840191602090910190613b75565b50606091820151600491909101556040830151600a8301805460ff191660ff909216919091179055820151600b82015560808201518051612a9791600c840191602090910190613b75565b5060a0820151600d8201805460ff19166001836002811115612abb57612abb6143d0565b021790555060c0820151600d8201805461ff001916610100836001811115612ae557612ae56143d0565b02179055505050610b1a565b60405162461bcd60e51b815260206004820152605360248201527f4e6f2068617920687565636f206c696272652070617261206c6120636974612060448201527f656e20656c20686f726172696f20736f6c6963697461646f207061726120656c60648201527f2070616369656e746520737567657269646f2e00000000000000000000000000608482015260a4016105c1565b612bc06040805160c08101909152600060808201908152606060a0830152819081526020016060815260200160008152602001606081525090565b6005546001600160a01b0316331480612c025750600082604051612be49190614743565b90815260405190819003602001902054336001600160a01b03909116145b80612c5957506001600083604051612c1a9190614743565b90815260200160405180910390206003015481548110612c3c57612c3c614799565b60009182526020909120600590910201546001600160a01b031633145b612cf15760405162461bcd60e51b815260206004820152605960248201527f536f6c6f20656c2061646d696e6973747261646f722c20656c206d656469636f60448201527f20617369676e61646f206f20656c2070726f70696f2070616369656e7465207060648201527f756564656e206f6274656e6572206573746f73206461746f7300000000000000608482015260a4016105c1565b600082604051612d019190614743565b9081526040805191829003602001822060c0830190915280546001600160a01b031660808301908152600182018054849291849160a085019190612d449061475f565b80601f0160208091040260200160405190810160405280929190818152602001828054612d709061475f565b8015612dbd5780601f10612d9257610100808354040283529160200191612dbd565b820191906000526020600020905b815481529060010190602001808311612da057829003601f168201915b5050505050815250508152602001600282018054612dda9061475f565b80601f0160208091040260200160405190810160405280929190818152602001828054612e069061475f565b8015612e535780601f10612e2857610100808354040283529160200191612e53565b820191906000526020600020905b815481529060010190602001808311612e3657829003601f168201915b5050505050815260200160038201548152602001600482018054612e769061475f565b80601f0160208091040260200160405190810160405280929190818152602001828054612ea29061475f565b8015612eef5780601f10612ec457610100808354040283529160200191612eef565b820191906000526020600020905b815481529060010190602001808311612ed257829003601f168201915b5050505050815250509050919050565b60028181548110612f0f57600080fd5b60009182526020918290206040805180820190915260049092020180546001600160a01b031682526001810180549194509192849290840191612f519061475f565b80601f0160208091040260200160405190810160405280929190818152602001828054612f7d9061475f565b8015612fca5780601f10612f9f57610100808354040283529160200191612fca565b820191906000526020600020905b815481529060010190602001808311612fad57829003601f168201915b50505050508152505090806002018054612fe39061475f565b80601f016020809104026020016040519081016040528092919081815260200182805461300f9061475f565b801561305c5780601f106130315761010080835404028352916020019161305c565b820191906000526020600020905b81548152906001019060200180831161303f57829003601f168201915b5050505050908060030180546130719061475f565b80601f016020809104026020016040519081016040528092919081815260200182805461309d9061475f565b80156130ea5780601f106130bf576101008083540402835291602001916130ea565b820191906000526020600020905b8154815290600101906020018083116130cd57829003601f168201915b5050505050905083565b6005546001600160a01b031633146131745760405162461bcd60e51b815260206004820152603f60248201527f536f6c6f20656c2061646d696e6973747261646f72207469656e65207065726d60448201527f69736f73207061726120656a65637574617220657374612066756e63696f6e0060648201526084016105c1565b6040805180820182526001600160a01b038681168252602080830187905283516080810185528381528082018790529384018590526000606085018190526001805480820182559152845180517fb10e2d527612073b26eecdfd717e6a320cf44b4afac2b0732d9fcbe2b7fa0cf66005909302928301805473ffffffffffffffffffffffffffffffffffffffff19169190951617845580830151805195969591938593613249937fb10e2d527612073b26eecdfd717e6a320cf44b4afac2b0732d9fcbe2b7fa0cf79091019290910190613b75565b50505060208281015180516132649260028501920190613b75565b5060408201518051613280916003840191602090910190613b75565b506060820151816004015550505050505050565b6001546000906132e65760405162461bcd60e51b815260206004820152601a60248201527f4e6f20686179206d656469636f7320646973706f6e69626c657300000000000060448201526064016105c1565b60008080846040516132f89190614743565b9081526040805191829003602001822060c0830190915280546001600160a01b031660808301908152600182018054849291849160a08501919061333b9061475f565b80601f01602080910402602001604051908101604052809291908181526020018280546133679061475f565b80156133b45780601f10613389576101008083540402835291602001916133b4565b820191906000526020600020905b81548152906001019060200180831161339757829003601f168201915b50505050508152505081526020016002820180546133d19061475f565b80601f01602080910402602001604051908101604052809291908181526020018280546133fd9061475f565b801561344a5780601f1061341f5761010080835404028352916020019161344a565b820191906000526020600020905b81548152906001019060200180831161342d57829003601f168201915b505050505081526020016003820154815260200160048201805461346d9061475f565b80601f01602080910402602001604051908101604052809291908181526020018280546134999061475f565b80156134e65780601f106134bb576101008083540402835291602001916134e6565b820191906000526020600020905b8154815290600101906020018083116134c957829003601f168201915b50505091909252505050602081015190915060006000195b6001548510156136565760408051808201909152600781527f47656e6572616c00000000000000000000000000000000000000000000000000602090910152600180547f5a238724f4923a504a7bc7b1da49b8ad37187664eb292980fef19a3441928b2c91908790811061357457613574614799565b906000526020600020906005020160020160405161359291906147df565b60405180910390201480156135e557508280519060200120600186815481106135bd576135bd614799565b90600052602060002090600502016003016040516135db91906147df565b6040518091039020145b80156136145750806001868154811061360057613600614799565b906000526020600020906005020160040154105b15613644576001858154811061362c5761362c614799565b90600052602060002090600502016004015490508491505b8461364e816147c5565b9550506134fe565b6001828154811061366957613669614799565b600091825260208220600460059092020101805491613687836147c5565b91905055508160008860405161369d9190614743565b908152604051908190036020019020600301555095945050505050565b600381815481106136ca57600080fd5b600091825260209091206040805160c08101909152600e9092020180546001600160a01b0316608083019081526001820180549294508492849291849160a0850191906137169061475f565b80601f01602080910402602001604051908101604052809291908181526020018280546137429061475f565b801561378f5780601f106137645761010080835404028352916020019161378f565b820191906000526020600020905b81548152906001019060200180831161377257829003601f168201915b50505050508152505081526020016002820180546137ac9061475f565b80601f01602080910402602001604051908101604052809291908181526020018280546137d89061475f565b80156138255780601f106137fa57610100808354040283529160200191613825565b820191906000526020600020905b81548152906001019060200180831161380857829003601f168201915b50505050508152602001600382015481526020016004820180546138489061475f565b80601f01602080910402602001604051908101604052809291908181526020018280546138749061475f565b80156138c15780601f10613896576101008083540402835291602001916138c1565b820191906000526020600020905b8154815290600101906020018083116138a457829003601f168201915b5050509190925250506040805160c081019091526005840180546001600160a01b03166080830190815260068601805495969593945091928492849160a08501919061390c9061475f565b80601f01602080910402602001604051908101604052809291908181526020018280546139389061475f565b80156139855780601f1061395a57610100808354040283529160200191613985565b820191906000526020600020905b81548152906001019060200180831161396857829003601f168201915b50505050508152505081526020016002820180546139a29061475f565b80601f01602080910402602001604051908101604052809291908181526020018280546139ce9061475f565b8015613a1b5780601f106139f057610100808354040283529160200191613a1b565b820191906000526020600020905b8154815290600101906020018083116139fe57829003601f168201915b50505050508152602001600382018054613a349061475f565b80601f0160208091040260200160405190810160405280929190818152602001828054613a609061475f565b8015613aad5780601f10613a8257610100808354040283529160200191613aad565b820191906000526020600020905b815481529060010190602001808311613a9057829003601f168201915b505050505081526020016004820154815250509080600a01549080600b0160009054906101000a900460ff169080600c018054613ae99061475f565b80601f0160208091040260200160405190810160405280929190818152602001828054613b159061475f565b8015613b625780601f10613b3757610100808354040283529160200191613b62565b820191906000526020600020905b815481529060010190602001808311613b4557829003601f168201915b505050600d909301549192505060ff1686565b828054613b819061475f565b90600052602060002090601f016020900481019282613ba35760008555613be9565b82601f10613bbc57805160ff1916838001178555613be9565b82800160010185558215613be9579182015b82811115613be9578251825591602001919060010190613bce565b50613bf5929150613bf9565b5090565b5b80821115613bf55760008155600101613bfa565b634e487b7160e01b600052604160045260246000fd5b6040516080810167ffffffffffffffff81118282101715613c4757613c47613c0e565b60405290565b60405160e0810167ffffffffffffffff81118282101715613c4757613c47613c0e565b600082601f830112613c8157600080fd5b813567ffffffffffffffff80821115613c9c57613c9c613c0e565b604051601f8301601f19908116603f01168101908282118183101715613cc457613cc4613c0e565b81604052838152866020858801011115613cdd57600080fd5b836020870160208301376000602085830101528094505050505092915050565b60008060008060808587031215613d1357600080fd5b843567ffffffffffffffff80821115613d2b57600080fd5b613d3788838901613c70565b955060208701359450604087013593506060870135915080821115613d5b57600080fd5b50613d6887828801613c70565b91505092959194509250565b600060208284031215613d8657600080fd5b5035919050565b60005b83811015613da8578181015183820152602001613d90565b83811115613db7576000848401525b50505050565b60008151808452613dd5816020860160208601613d8d565b601f01601f19169290920160200192915050565b6001600160a01b0381511682526000602082015160406020850152613e116040850182613dbd565b949350505050565b608081526000613e2c6080830187613de9565b8281036020840152613e3e8187613dbd565b90508281036040840152613e528186613dbd565b91505082606083015295945050505050565b80356001600160a01b0381168114613e7b57600080fd5b919050565b60008060008060808587031215613e9657600080fd5b613e9f85613e64565b9350602085013567ffffffffffffffff80821115613ebc57600080fd5b613ec888838901613c70565b94506040870135915080821115613ede57600080fd5b613eea88838901613c70565b93506060870135915080821115613d5b57600080fd5b600060408284031215613f1257600080fd5b6040516040810167ffffffffffffffff8282108183111715613f3657613f36613c0e565b81604052829350613f4685613e64565b83526020850135915080821115613f5c57600080fd5b50613f6985828601613c70565b6020830152505092915050565b600060808284031215613f8857600080fd5b613f90613c24565b9050813567ffffffffffffffff80821115613faa57600080fd5b613fb685838601613f00565b83526020840135915080821115613fcc57600080fd5b613fd885838601613c70565b6020840152604084013560408401526060840135915080821115613ffb57600080fd5b5061400884828501613c70565b60608301525092915050565b60006080828403121561402657600080fd5b61402e613c24565b9050813567ffffffffffffffff8082111561404857600080fd5b61405485838601613f00565b8352602084013591508082111561406a57600080fd5b61407685838601613c70565b6020840152604084013591508082111561408f57600080fd5b5061409c84828501613c70565b6040830152506060820135606082015292915050565b803560ff81168114613e7b57600080fd5b803560038110613e7b57600080fd5b803560028110613e7b57600080fd5b6000602082840312156140f357600080fd5b813567ffffffffffffffff8082111561410b57600080fd5b9083019060e0828603121561411f57600080fd5b614127613c4d565b82358281111561413657600080fd5b61414287828601613f76565b82525060208301358281111561415757600080fd5b61416387828601614014565b602083015250614175604084016140b2565b60408201526060830135606082015260808301358281111561419657600080fd5b6141a287828601613c70565b6080830152506141b460a084016140c3565b60a08201526141c560c084016140d2565b60c082015295945050505050565b600080600080600080600060e0888a0312156141ee57600080fd5b6141f7886140b2565b9650602088013567ffffffffffffffff8082111561421457600080fd5b6142208b838c01614014565b975060408a013591508082111561423657600080fd5b6142428b838c01613c70565b965060608a013591508082111561425857600080fd5b506142658a828b01613f76565b9450506080880135925061427b60a089016140b2565b915061428960c089016140d2565b905092959891949750929550565b6000602082840312156142a957600080fd5b813567ffffffffffffffff8111156142c057600080fd5b613e1184828501613c70565b6080815260006142df6080830187613de9565b82810360208401526142f18187613dbd565b9050846040840152828103606084015261430b8185613dbd565b979650505050505050565b600081516080845261432b6080850182613de9565b9050602083015184820360208601526143448282613dbd565b91505060408301516040850152606083015184820360608601526143688282613dbd565b95945050505050565b60008151608084526143866080850182613de9565b90506020830151848203602086015261439f8282613dbd565b915050604083015184820360408601526143b98282613dbd565b915050606083015160608501528091505092915050565b634e487b7160e01b600052602160045260246000fd5b600281106143f6576143f66143d0565b9052565b60e08152600061440d60e083018a614316565b828103602084015261441f818a614371565b905060ff8816604084015286606084015282810360808401526144428187613dbd565b91505060038410614455576144556143d0565b8360a083015261446860c08301846143e6565b98975050505050505050565b6000602080830181845280855180835260408601915060408160051b870101925083870160005b828110156144c957603f198886030184526144b7858351614371565b9450928501929085019060010161449b565b5092979650505050505050565b60006020808301818452808551808352604092508286019150828160051b87010184880160005b8381101561456957603f1989840301855281516060815181865261452382870182613de9565b915050888201518582038a87015261453b8282613dbd565b915050878201519150848103888601526145558183613dbd565b9689019694505050908601906001016144fd565b509098975050505050505050565b60008060006060848603121561458c57600080fd5b833567ffffffffffffffff808211156145a457600080fd5b6145b087838801613c70565b945060208601359150808211156145c657600080fd5b6145d287838801613c70565b935060408601359150808211156145e857600080fd5b506145f586828701613c70565b9150509250925092565b600080600080600060a0868803121561461757600080fd5b853567ffffffffffffffff8082111561462f57600080fd5b61463b89838a01613c70565b965060208801359550614650604089016140b2565b9450606088013591508082111561466657600080fd5b5061467388828901613c70565b925050614682608087016140d2565b90509295509295909350565b6020815260006146a16020830184614316565b9392505050565b6060815260006146bb6060830186613de9565b82810360208401526146cd8186613dbd565b905082810360408401526146e18185613dbd565b9695505050505050565b60c0815260006146fe60c0830189614316565b82810360208401526147108189614371565b905086604084015260ff8616606084015282810360808401526147338186613dbd565b91505061430b60a08301846143e6565b60008251614755818460208701613d8d565b9190910192915050565b600181811c9082168061477357607f821691505b60208210810361479357634e487b7160e01b600052602260045260246000fd5b50919050565b634e487b7160e01b600052603260045260246000fd5b634e487b7160e01b600052601160045260246000fd5b600060001982036147d8576147d86147af565b5060010190565b600080835481600182811c9150808316806147fb57607f831692505b6020808410820361481a57634e487b7160e01b86526022600452602486fd5b81801561482e576001811461483f5761486c565b60ff1986168952848901965061486c565b60008a81526020902060005b868110156148645781548b82015290850190830161484b565b505084890196505b509498975050505050505050565b600061ffff83811690831681811015614895576148956147af565b03939250505056fea264697066735822122088cb3d54ae5113d3ed1473c2a1bd5058ed08225a4fd7d6d03e775510cd93151a64736f6c634300080d0033",
  "immutableReferences": {},
  "source": "// SPDX-License-Identifier: MIT\r\npragma solidity >=0.4.22 <0.9.0;\r\n\r\ncontract HistoriaClinica {\r\n    mapping(string => Paciente) public pacientes;\r\n    Medico[] public medicos;\r\n    Enfermero[] public enfermeros;\r\n     Cita[] public citas;\r\n    Consulta[] public consultas;\r\n\r\n    address public owner;\r\n\r\n    constructor() {\r\n        owner = msg.sender; // el primer usuario en crear el contrato se convierte en el owner o admin\r\n    }\r\n\r\n    enum tipo_consulta {\r\n        urgencias,\r\n        especialidad\r\n    }\r\n    enum tipo_organizacion {\r\n        publica,\r\n        privada\r\n    }\r\n    enum estado_consulta {\r\n        programada,cancelada,cerrada\r\n    }\r\n\r\n    struct Persona {\r\n        address direccionPublica;\r\n        string DNI;\r\n    }\r\n\r\n    struct Paciente {\r\n        Persona datos;\r\n        string centro_sanitario;\r\n        uint medico_asignado;\r\n        string datos_paciente;\r\n    }\r\n\r\n    struct Medico {\r\n        Persona datos; //Herencia\r\n        string especialidad;\r\n        string centro_sanitario;\r\n        uint numero_pacientes;\r\n    }\r\n\r\n    struct Enfermero {\r\n        Persona datos; //Herencia\r\n        string especialidad;\r\n        string centro_sanitario;\r\n    }\r\n    \r\n    struct Consulta {\r\n        Paciente paciente;\r\n        Medico medico;\r\n        uint8 hora;\r\n        uint256 fecha;\r\n        string datos_consulta;\r\n        estado_consulta estado;\r\n        tipo_consulta tipo;\r\n    }\r\n\r\n    struct Cita {\r\n        Paciente paciente;\r\n        Medico medico;\r\n        uint fecha;\r\n        uint8 hora;\r\n        string datos_cita;\r\n        tipo_consulta tipoConsulta;\r\n    }\r\n    modifier soloAdmin() {\r\n        require(msg.sender == owner, \"Solo el administrador tiene permisos para ejecutar esta funcion\");\r\n        _;\r\n    }\r\nfunction registrarPaciente(string memory _DNI, string memory _centroSanitario, string memory _datosPaciente) public {\r\n    require(pacientes[_DNI].datos.direccionPublica == address(0), \"Este paciente ya esta registrado\");\r\n    Persona memory datosPersonales = Persona({\r\n    direccionPublica: msg.sender,\r\n    DNI: _DNI\r\n});\r\n\r\npacientes[_DNI] = Paciente({\r\n    centro_sanitario: _centroSanitario,\r\n    datos: datosPersonales,\r\n    medico_asignado: type(uint256).max, //an no tiene mdico asignado\r\n    datos_paciente: _datosPaciente\r\n});\r\nasignarMedico(_DNI);\r\n\r\n}\r\n\r\n    function registrarMedico(address _direccionMedico, string memory _DNI, string memory _especialidad, string memory _centro_sanitario) public soloAdmin() {\r\n        Persona memory datosPersonales = Persona(_direccionMedico,_DNI);\r\n        medicos.push(Medico({\r\n        centro_sanitario: _centro_sanitario,\r\n        datos:datosPersonales,\r\n        especialidad: _especialidad,\r\n        numero_pacientes:0\r\n    }));\r\n}\r\n\r\n function registrarEnfermero(address _direccionEnfermero ,string memory _DNI, string memory _especialidad, string memory _centro_sanitario) public soloAdmin() {\r\n        Persona memory datosPersonales = Persona (_direccionEnfermero,_DNI);\r\n        enfermeros.push(Enfermero({\r\n        especialidad: _especialidad,\r\n        centro_sanitario: _centro_sanitario,\r\n        datos : datosPersonales\r\n    }));\r\n\r\n    }\r\n\r\n    function asignarMedico(string memory _DNI) public returns (uint) {\r\n        // Comprobamos si hay mdicos disponibles\r\n         require(medicos.length > 0, \"No hay medicos disponibles\");\r\n        uint i = 0;\r\n        Paciente memory p = pacientes[_DNI]; //Buscamos el indice del paciente por DNI\r\n        string memory nombreCentroSanitario = p.centro_sanitario; // Obtenemos centro sanitario del paciente\r\n        uint indiceMedicoConMenosPacientes; //Posicion del array del medico con menos pacientes\r\n        uint256 minimoPacientes = type(uint256).max;\r\n        while (i < medicos.length) {\r\n            //Comprobamos especialidad, centro sanitario, y obtenemos el mdico con menos pacientes asignados\r\n            if (\r\n                keccak256(bytes(medicos[i].especialidad)) ==\r\n                keccak256(bytes(\"General\")) &&\r\n                keccak256(bytes(medicos[i].centro_sanitario)) ==\r\n                keccak256(bytes(nombreCentroSanitario)) &&\r\n                medicos[i].numero_pacientes < minimoPacientes\r\n            ) {\r\n                minimoPacientes = medicos[i].numero_pacientes;\r\n                indiceMedicoConMenosPacientes = i; //Mdico vlido encontrado\r\n            }\r\n            i++;\r\n        }\r\n        medicos[indiceMedicoConMenosPacientes].numero_pacientes++; //Aumentamos pacientes de ese mdico\r\n        pacientes[_DNI].medico_asignado=indiceMedicoConMenosPacientes; //Asignamos mdico al paciente\r\n        return indiceMedicoConMenosPacientes;\r\n    }\r\n\r\n    function solicitarCita(string memory _DNI, uint256 _fecha, uint8 _hora, string memory _datos_cita, tipo_consulta _tipoConsulta) public {\r\n    require(pacientes[_DNI].medico_asignado < type(uint256).max, \"El paciente no tiene un medico asignado\");\r\n    require(_hora >= 8 && _hora <= 18, \"La clinica solo atiende entre las 8:00 y las 18:00.\");\r\n    require(_fecha >= block.timestamp, \"No se pueden programar citas anteriores a este momento.\");\r\n\r\n    bool huecoLibre = true;\r\n    Paciente memory paciente = pacientes[_DNI];\r\n    Medico memory medico = medicos[paciente.medico_asignado]; //Medico que el paciente tiene asignado\r\n    for (uint i = 0; i < citas.length && citas[i].fecha>block.timestamp; i++) { \r\n        //Comprobamos que sea el medico que tiene asignado el paciente \r\n        if(citas[i].medico.datos.direccionPublica == medico.datos.direccionPublica){ \r\n        //Comprobamos que haya un rango de 15 minutos disponibles despues de la cita\r\n        if (citas[i].fecha == _fecha && citas[i].hora == _hora || citas[i].fecha == _fecha && citas[i].hora > _hora - 15 minutes) {\r\n            huecoLibre = false;\r\n            }\r\n            }\r\n    }\r\n        if (huecoLibre) {\r\n    //Asignamos la nueva cita\r\n        citas.push(\r\n        Cita({\r\n            medico: medico,\r\n            paciente: paciente,\r\n            fecha: _fecha,\r\n            hora: _hora,\r\n            datos_cita:_datos_cita,\r\n            tipoConsulta: _tipoConsulta\r\n        }));\r\n\r\n    //Creamos la consulta\r\n        consultas.push(\r\n        Consulta({\r\n        paciente:paciente,\r\n        medico:medico,\r\n        fecha: _fecha,\r\n        hora:_hora,\r\n        datos_consulta:_datos_cita,\r\n        estado: estado_consulta.programada,\r\n        tipo: _tipoConsulta\r\n    }));\r\n\r\n    } else {\r\n        revert(\"No hay hueco libre para la cita en el horario solicitado para el paciente sugerido.\");\r\n    }\r\n\r\n}\r\nfunction atenderConsulta (string memory _DNI, uint _fecha, uint _hora, string memory _datos_consulta) public {\r\n    Paciente memory paciente = pacientes[_DNI];\r\n    require(msg.sender ==  medicos[pacientes[_DNI].medico_asignado].datos.direccionPublica, \"Solo el medico puede atender la consulta\"); \r\n    bool consultaEncontrada = false;\r\n    for(uint i = 0; i < consultas.length; i++) {\r\n        if(consultas[i].fecha == _fecha && consultas[i].hora == _hora && keccak256(bytes(paciente.datos.DNI)) == keccak256(bytes(_DNI))) {\r\n            consultaEncontrada = true;\r\n            consultas[i].datos_consulta = _datos_consulta;\r\n            consultas[i].estado = estado_consulta.cerrada; //consulta cerrada\r\n        }\r\n    }\r\n    require(consultaEncontrada == true, \"No se encontro una consulta programada con los datos especificados\");\r\n}\r\n\r\nfunction modificarCita(uint8 indice, Medico memory _medico, string memory _datos_cita, Paciente memory _paciente, uint _nuevaFecha, uint8 _nuevaHora, tipo_consulta _nuevoTipoConsulta) public {\r\n    require((indice < citas.length) && (msg.sender == _medico.datos.direccionPublica || msg.sender == _paciente.datos.direccionPublica), \"la cita no existe o no hay permisos suficientes\");\r\n    require(_nuevaHora >= 8 && _nuevaHora <= 18, \"La clinica solo atiende entre las 8:00 y las 18:00.\");\r\n    require(_nuevaFecha >= block.timestamp, \"No se pueden programar citas anteriores a este momento.\");\r\n    //Actualizamos datos de la futura consulta mdica\r\n     for (uint i = 0; i < consultas.length; i++) {\r\n        if (consultas[i].fecha == citas[indice].fecha &&\r\n            consultas[i].hora == citas[indice].hora &&\r\n            keccak256(bytes(consultas[i].paciente.datos.DNI)) == keccak256(bytes(_paciente.datos.DNI))) {\r\n            consultas[i].fecha= _nuevaFecha;\r\n            consultas[i].hora= _nuevaHora;\r\n            consultas[i].fecha= _nuevaFecha;\r\n            consultas[i].tipo= _nuevoTipoConsulta;\r\n}\r\n     }\r\n    citas[indice].fecha=_nuevaFecha;\r\n    citas[indice].hora=_nuevaHora;\r\n    citas[indice].datos_cita=_datos_cita;\r\n    citas[indice].tipoConsulta = _nuevoTipoConsulta;\r\n}\r\n//Medico crea consulta (especialidad o no)\r\nfunction crearConsulta(Consulta memory nuevaConsulta) public {\r\n    consultas.push(nuevaConsulta);\r\n}\r\n\r\nfunction obtenerMedicos() public view soloAdmin returns (Medico[] memory) {\r\n        return medicos;\r\n    }\r\n    function obtenerEnfermeros() public view soloAdmin returns (Enfermero[] memory) {\r\n        return enfermeros;\r\n    }\r\nfunction obtenerDatosPaciente(string memory _DNI) public view returns (Paciente memory) {\r\n        require(\r\n        msg.sender == owner || msg.sender == pacientes[_DNI].datos.direccionPublica || msg.sender == medicos[pacientes[_DNI].medico_asignado].datos.direccionPublica,\r\n        \"Solo el administrador, el medico asignado o el propio paciente pueden obtener estos datos\"\r\n    );\r\n    return pacientes[_DNI];\r\n}\r\n}",
  "sourcePath": "C:\\Users\\pablo\\OneDrive - Universidad de Castilla-La Mancha\\4\\TFG\\ProyectoHistoriaClinica\\contracts\\HistoriaClinica.sol",
  "compiler": {
    "name": "solc",
    "version": "0.8.13+commit.abaa5c0e.Emscripten.clang"
  },
  "schemaVersion": "3.4.15",
  "updatedAt": "2023-11-21T02:17:01.551Z",
  "networkType": "ethereum",
  "devdoc": {
    "kind": "dev",
    "methods": {},
    "version": 1
  },
  "userdoc": {
    "kind": "user",
    "methods": {},
    "version": 1
  }
}