{
  "contractName": "HistoriaClinica",
  "abi": [
    {
      "inputs": [],
      "stateMutability": "nonpayable",
      "type": "constructor"
    },
    {
      "inputs": [
        {
          "internalType": "uint256",
          "name": "",
          "type": "uint256"
        }
      ],
      "name": "citas",
      "outputs": [
        {
          "components": [
            {
              "components": [
                {
                  "internalType": "address",
                  "name": "direccionPublica",
                  "type": "address"
                },
                {
                  "internalType": "string",
                  "name": "DNI",
                  "type": "string"
                }
              ],
              "internalType": "struct HistoriaClinica.Persona",
              "name": "datos",
              "type": "tuple"
            },
            {
              "internalType": "string",
              "name": "centro_sanitario",
              "type": "string"
            },
            {
              "internalType": "uint64",
              "name": "medico_asignado",
              "type": "uint64"
            },
            {
              "internalType": "string",
              "name": "datos_paciente",
              "type": "string"
            }
          ],
          "internalType": "struct HistoriaClinica.Paciente",
          "name": "paciente",
          "type": "tuple"
        },
        {
          "components": [
            {
              "components": [
                {
                  "internalType": "address",
                  "name": "direccionPublica",
                  "type": "address"
                },
                {
                  "internalType": "string",
                  "name": "DNI",
                  "type": "string"
                }
              ],
              "internalType": "struct HistoriaClinica.Persona",
              "name": "datos",
              "type": "tuple"
            },
            {
              "internalType": "string",
              "name": "especialidad",
              "type": "string"
            },
            {
              "internalType": "string",
              "name": "centro_sanitario",
              "type": "string"
            },
            {
              "internalType": "uint64",
              "name": "numero_pacientes",
              "type": "uint64"
            }
          ],
          "internalType": "struct HistoriaClinica.Medico",
          "name": "medico",
          "type": "tuple"
        },
        {
          "internalType": "uint256",
          "name": "fecha",
          "type": "uint256"
        },
        {
          "internalType": "uint8",
          "name": "hora",
          "type": "uint8"
        },
        {
          "internalType": "string",
          "name": "datos_cita",
          "type": "string"
        },
        {
          "internalType": "enum HistoriaClinica.tipo_consulta",
          "name": "tipoConsulta",
          "type": "uint8"
        }
      ],
      "stateMutability": "view",
      "type": "function",
      "constant": true
    },
    {
      "inputs": [
        {
          "internalType": "uint256",
          "name": "",
          "type": "uint256"
        }
      ],
      "name": "consultas",
      "outputs": [
        {
          "components": [
            {
              "components": [
                {
                  "internalType": "address",
                  "name": "direccionPublica",
                  "type": "address"
                },
                {
                  "internalType": "string",
                  "name": "DNI",
                  "type": "string"
                }
              ],
              "internalType": "struct HistoriaClinica.Persona",
              "name": "datos",
              "type": "tuple"
            },
            {
              "internalType": "string",
              "name": "centro_sanitario",
              "type": "string"
            },
            {
              "internalType": "uint64",
              "name": "medico_asignado",
              "type": "uint64"
            },
            {
              "internalType": "string",
              "name": "datos_paciente",
              "type": "string"
            }
          ],
          "internalType": "struct HistoriaClinica.Paciente",
          "name": "paciente",
          "type": "tuple"
        },
        {
          "components": [
            {
              "components": [
                {
                  "internalType": "address",
                  "name": "direccionPublica",
                  "type": "address"
                },
                {
                  "internalType": "string",
                  "name": "DNI",
                  "type": "string"
                }
              ],
              "internalType": "struct HistoriaClinica.Persona",
              "name": "datos",
              "type": "tuple"
            },
            {
              "internalType": "string",
              "name": "especialidad",
              "type": "string"
            },
            {
              "internalType": "string",
              "name": "centro_sanitario",
              "type": "string"
            },
            {
              "internalType": "uint64",
              "name": "numero_pacientes",
              "type": "uint64"
            }
          ],
          "internalType": "struct HistoriaClinica.Medico",
          "name": "medico",
          "type": "tuple"
        },
        {
          "internalType": "uint8",
          "name": "hora",
          "type": "uint8"
        },
        {
          "internalType": "uint256",
          "name": "fecha",
          "type": "uint256"
        },
        {
          "internalType": "string",
          "name": "datos_consulta",
          "type": "string"
        },
        {
          "internalType": "enum HistoriaClinica.estado_consulta",
          "name": "estado",
          "type": "uint8"
        },
        {
          "internalType": "enum HistoriaClinica.tipo_consulta",
          "name": "tipo",
          "type": "uint8"
        }
      ],
      "stateMutability": "view",
      "type": "function",
      "constant": true
    },
    {
      "inputs": [
        {
          "internalType": "uint256",
          "name": "",
          "type": "uint256"
        }
      ],
      "name": "enfermeros",
      "outputs": [
        {
          "components": [
            {
              "internalType": "address",
              "name": "direccionPublica",
              "type": "address"
            },
            {
              "internalType": "string",
              "name": "DNI",
              "type": "string"
            }
          ],
          "internalType": "struct HistoriaClinica.Persona",
          "name": "datos",
          "type": "tuple"
        },
        {
          "internalType": "string",
          "name": "especialidad",
          "type": "string"
        },
        {
          "internalType": "string",
          "name": "centro_sanitario",
          "type": "string"
        }
      ],
      "stateMutability": "view",
      "type": "function",
      "constant": true
    },
    {
      "inputs": [
        {
          "internalType": "uint256",
          "name": "",
          "type": "uint256"
        }
      ],
      "name": "medicos",
      "outputs": [
        {
          "components": [
            {
              "internalType": "address",
              "name": "direccionPublica",
              "type": "address"
            },
            {
              "internalType": "string",
              "name": "DNI",
              "type": "string"
            }
          ],
          "internalType": "struct HistoriaClinica.Persona",
          "name": "datos",
          "type": "tuple"
        },
        {
          "internalType": "string",
          "name": "especialidad",
          "type": "string"
        },
        {
          "internalType": "string",
          "name": "centro_sanitario",
          "type": "string"
        },
        {
          "internalType": "uint64",
          "name": "numero_pacientes",
          "type": "uint64"
        }
      ],
      "stateMutability": "view",
      "type": "function",
      "constant": true
    },
    {
      "inputs": [],
      "name": "owner",
      "outputs": [
        {
          "internalType": "address",
          "name": "",
          "type": "address"
        }
      ],
      "stateMutability": "view",
      "type": "function",
      "constant": true
    },
    {
      "inputs": [
        {
          "internalType": "string",
          "name": "",
          "type": "string"
        }
      ],
      "name": "pacientes",
      "outputs": [
        {
          "components": [
            {
              "internalType": "address",
              "name": "direccionPublica",
              "type": "address"
            },
            {
              "internalType": "string",
              "name": "DNI",
              "type": "string"
            }
          ],
          "internalType": "struct HistoriaClinica.Persona",
          "name": "datos",
          "type": "tuple"
        },
        {
          "internalType": "string",
          "name": "centro_sanitario",
          "type": "string"
        },
        {
          "internalType": "uint64",
          "name": "medico_asignado",
          "type": "uint64"
        },
        {
          "internalType": "string",
          "name": "datos_paciente",
          "type": "string"
        }
      ],
      "stateMutability": "view",
      "type": "function",
      "constant": true
    },
    {
      "inputs": [
        {
          "internalType": "string",
          "name": "_DNI",
          "type": "string"
        },
        {
          "internalType": "string",
          "name": "_centroSanitario",
          "type": "string"
        },
        {
          "internalType": "string",
          "name": "_datosPaciente",
          "type": "string"
        },
        {
          "internalType": "address",
          "name": "_direccionPaciente",
          "type": "address"
        }
      ],
      "name": "registrarPaciente",
      "outputs": [],
      "stateMutability": "nonpayable",
      "type": "function"
    },
    {
      "inputs": [
        {
          "internalType": "address",
          "name": "_direccionMedico",
          "type": "address"
        },
        {
          "internalType": "string",
          "name": "_DNI",
          "type": "string"
        },
        {
          "internalType": "string",
          "name": "_especialidad",
          "type": "string"
        },
        {
          "internalType": "string",
          "name": "_centro_sanitario",
          "type": "string"
        }
      ],
      "name": "registrarMedico",
      "outputs": [],
      "stateMutability": "nonpayable",
      "type": "function"
    },
    {
      "inputs": [
        {
          "internalType": "address",
          "name": "_direccionEnfermero",
          "type": "address"
        },
        {
          "internalType": "string",
          "name": "_DNI",
          "type": "string"
        },
        {
          "internalType": "string",
          "name": "_especialidad",
          "type": "string"
        },
        {
          "internalType": "string",
          "name": "_centro_sanitario",
          "type": "string"
        }
      ],
      "name": "registrarEnfermero",
      "outputs": [],
      "stateMutability": "nonpayable",
      "type": "function"
    },
    {
      "inputs": [
        {
          "internalType": "string",
          "name": "_DNI",
          "type": "string"
        },
        {
          "internalType": "uint256",
          "name": "_fecha",
          "type": "uint256"
        },
        {
          "internalType": "uint8",
          "name": "_hora",
          "type": "uint8"
        },
        {
          "internalType": "string",
          "name": "_datos_cita",
          "type": "string"
        },
        {
          "internalType": "enum HistoriaClinica.tipo_consulta",
          "name": "_tipoConsulta",
          "type": "uint8"
        }
      ],
      "name": "solicitarCita",
      "outputs": [],
      "stateMutability": "nonpayable",
      "type": "function"
    },
    {
      "inputs": [
        {
          "internalType": "string",
          "name": "_DNI",
          "type": "string"
        },
        {
          "internalType": "uint256",
          "name": "_fecha",
          "type": "uint256"
        },
        {
          "internalType": "uint8",
          "name": "_hora",
          "type": "uint8"
        },
        {
          "internalType": "string",
          "name": "_datos_consulta",
          "type": "string"
        }
      ],
      "name": "atenderConsulta",
      "outputs": [],
      "stateMutability": "nonpayable",
      "type": "function"
    },
    {
      "inputs": [
        {
          "internalType": "uint64",
          "name": "indice",
          "type": "uint64"
        },
        {
          "internalType": "string",
          "name": "_datos_cita",
          "type": "string"
        },
        {
          "components": [
            {
              "components": [
                {
                  "internalType": "address",
                  "name": "direccionPublica",
                  "type": "address"
                },
                {
                  "internalType": "string",
                  "name": "DNI",
                  "type": "string"
                }
              ],
              "internalType": "struct HistoriaClinica.Persona",
              "name": "datos",
              "type": "tuple"
            },
            {
              "internalType": "string",
              "name": "centro_sanitario",
              "type": "string"
            },
            {
              "internalType": "uint64",
              "name": "medico_asignado",
              "type": "uint64"
            },
            {
              "internalType": "string",
              "name": "datos_paciente",
              "type": "string"
            }
          ],
          "internalType": "struct HistoriaClinica.Paciente",
          "name": "_paciente",
          "type": "tuple"
        },
        {
          "internalType": "uint256",
          "name": "_nuevaFecha",
          "type": "uint256"
        },
        {
          "internalType": "uint8",
          "name": "_nuevaHora",
          "type": "uint8"
        },
        {
          "internalType": "enum HistoriaClinica.tipo_consulta",
          "name": "_nuevoTipoConsulta",
          "type": "uint8"
        }
      ],
      "name": "modificarCita",
      "outputs": [],
      "stateMutability": "nonpayable",
      "type": "function"
    },
    {
      "inputs": [],
      "name": "obtenerCitas",
      "outputs": [
        {
          "components": [
            {
              "components": [
                {
                  "components": [
                    {
                      "internalType": "address",
                      "name": "direccionPublica",
                      "type": "address"
                    },
                    {
                      "internalType": "string",
                      "name": "DNI",
                      "type": "string"
                    }
                  ],
                  "internalType": "struct HistoriaClinica.Persona",
                  "name": "datos",
                  "type": "tuple"
                },
                {
                  "internalType": "string",
                  "name": "centro_sanitario",
                  "type": "string"
                },
                {
                  "internalType": "uint64",
                  "name": "medico_asignado",
                  "type": "uint64"
                },
                {
                  "internalType": "string",
                  "name": "datos_paciente",
                  "type": "string"
                }
              ],
              "internalType": "struct HistoriaClinica.Paciente",
              "name": "paciente",
              "type": "tuple"
            },
            {
              "components": [
                {
                  "components": [
                    {
                      "internalType": "address",
                      "name": "direccionPublica",
                      "type": "address"
                    },
                    {
                      "internalType": "string",
                      "name": "DNI",
                      "type": "string"
                    }
                  ],
                  "internalType": "struct HistoriaClinica.Persona",
                  "name": "datos",
                  "type": "tuple"
                },
                {
                  "internalType": "string",
                  "name": "especialidad",
                  "type": "string"
                },
                {
                  "internalType": "string",
                  "name": "centro_sanitario",
                  "type": "string"
                },
                {
                  "internalType": "uint64",
                  "name": "numero_pacientes",
                  "type": "uint64"
                }
              ],
              "internalType": "struct HistoriaClinica.Medico",
              "name": "medico",
              "type": "tuple"
            },
            {
              "internalType": "uint256",
              "name": "fecha",
              "type": "uint256"
            },
            {
              "internalType": "uint8",
              "name": "hora",
              "type": "uint8"
            },
            {
              "internalType": "string",
              "name": "datos_cita",
              "type": "string"
            },
            {
              "internalType": "enum HistoriaClinica.tipo_consulta",
              "name": "tipoConsulta",
              "type": "uint8"
            }
          ],
          "internalType": "struct HistoriaClinica.Cita[]",
          "name": "",
          "type": "tuple[]"
        }
      ],
      "stateMutability": "view",
      "type": "function",
      "constant": true
    },
    {
      "inputs": [],
      "name": "obtenerConsultas",
      "outputs": [
        {
          "components": [
            {
              "components": [
                {
                  "components": [
                    {
                      "internalType": "address",
                      "name": "direccionPublica",
                      "type": "address"
                    },
                    {
                      "internalType": "string",
                      "name": "DNI",
                      "type": "string"
                    }
                  ],
                  "internalType": "struct HistoriaClinica.Persona",
                  "name": "datos",
                  "type": "tuple"
                },
                {
                  "internalType": "string",
                  "name": "centro_sanitario",
                  "type": "string"
                },
                {
                  "internalType": "uint64",
                  "name": "medico_asignado",
                  "type": "uint64"
                },
                {
                  "internalType": "string",
                  "name": "datos_paciente",
                  "type": "string"
                }
              ],
              "internalType": "struct HistoriaClinica.Paciente",
              "name": "paciente",
              "type": "tuple"
            },
            {
              "components": [
                {
                  "components": [
                    {
                      "internalType": "address",
                      "name": "direccionPublica",
                      "type": "address"
                    },
                    {
                      "internalType": "string",
                      "name": "DNI",
                      "type": "string"
                    }
                  ],
                  "internalType": "struct HistoriaClinica.Persona",
                  "name": "datos",
                  "type": "tuple"
                },
                {
                  "internalType": "string",
                  "name": "especialidad",
                  "type": "string"
                },
                {
                  "internalType": "string",
                  "name": "centro_sanitario",
                  "type": "string"
                },
                {
                  "internalType": "uint64",
                  "name": "numero_pacientes",
                  "type": "uint64"
                }
              ],
              "internalType": "struct HistoriaClinica.Medico",
              "name": "medico",
              "type": "tuple"
            },
            {
              "internalType": "uint8",
              "name": "hora",
              "type": "uint8"
            },
            {
              "internalType": "uint256",
              "name": "fecha",
              "type": "uint256"
            },
            {
              "internalType": "string",
              "name": "datos_consulta",
              "type": "string"
            },
            {
              "internalType": "enum HistoriaClinica.estado_consulta",
              "name": "estado",
              "type": "uint8"
            },
            {
              "internalType": "enum HistoriaClinica.tipo_consulta",
              "name": "tipo",
              "type": "uint8"
            }
          ],
          "internalType": "struct HistoriaClinica.Consulta[]",
          "name": "",
          "type": "tuple[]"
        }
      ],
      "stateMutability": "view",
      "type": "function",
      "constant": true
    },
    {
      "inputs": [
        {
          "internalType": "string",
          "name": "_DNI",
          "type": "string"
        }
      ],
      "name": "obtenerDatosPaciente",
      "outputs": [
        {
          "components": [
            {
              "components": [
                {
                  "internalType": "address",
                  "name": "direccionPublica",
                  "type": "address"
                },
                {
                  "internalType": "string",
                  "name": "DNI",
                  "type": "string"
                }
              ],
              "internalType": "struct HistoriaClinica.Persona",
              "name": "datos",
              "type": "tuple"
            },
            {
              "internalType": "string",
              "name": "centro_sanitario",
              "type": "string"
            },
            {
              "internalType": "uint64",
              "name": "medico_asignado",
              "type": "uint64"
            },
            {
              "internalType": "string",
              "name": "datos_paciente",
              "type": "string"
            }
          ],
          "internalType": "struct HistoriaClinica.Paciente",
          "name": "",
          "type": "tuple"
        }
      ],
      "stateMutability": "view",
      "type": "function",
      "constant": true
    }
  ],
  "bytecode": "0x608060405234801561001057600080fd5b50600580546001600160a01b03191633179055615265806100326000396000f3fe608060405234801561001057600080fd5b50600436106100f55760003560e01c80638da5cb5b11610097578063cdafc91a11610066578063cdafc91a1461023f578063db8a98201461025f578063de67678114610281578063f6652a671461029457600080fd5b80638da5cb5b146101bf578063c48ce02b14610204578063c90df63914610217578063cbcc336d1461022c57600080fd5b806352509b8d116100d357806352509b8d1461014e57806366422b7d146101715780637513e79c146101865780637859062b146101ac57600080fd5b80632c1a929d146100fa5780633550242f1461012657806340baea2a1461013b575b600080fd5b61010d610108366004614575565b6102b9565b60405161011d9493929190614645565b60405180910390f35b6101396101343660046147e9565b6104cb565b005b610139610149366004614893565b6106a1565b61016161015c3660046148e2565b610bf7565b60405161011d9493929190614917565b610179610e0a565b60405161011d9190614a8c565b610199610194366004614575565b61139d565b60405161011d9796959493929190614b8c565b6101396101ba366004614bfd565b611890565b6005546101df9073ffffffffffffffffffffffffffffffffffffffff1681565b60405173ffffffffffffffffffffffffffffffffffffffff909116815260200161011d565b610139610212366004614cbd565b611b49565b61021f61209b565b60405161011d9190614e23565b61013961023a366004614f02565b6125ec565b61025261024d3660046148e2565b61337c565b60405161011d9190614f91565b61027261026d366004614575565b6135de565b60405161011d93929190614fab565b61013961028f3660046147e9565b6137e0565b6102a76102a2366004614575565b6139f5565b60405161011d96959493929190614fee565b600181815481106102c957600080fd5b600091825260209182902060408051808201909152600590920201805473ffffffffffffffffffffffffffffffffffffffff168252600181018054919450919284929084019161031890615046565b80601f016020809104026020016040519081016040528092919081815260200182805461034490615046565b80156103915780601f1061036657610100808354040283529160200191610391565b820191906000526020600020905b81548152906001019060200180831161037457829003601f168201915b505050505081525050908060020180546103aa90615046565b80601f01602080910402602001604051908101604052809291908181526020018280546103d690615046565b80156104235780601f106103f857610100808354040283529160200191610423565b820191906000526020600020905b81548152906001019060200180831161040657829003601f168201915b50505050509080600301805461043890615046565b80601f016020809104026020016040519081016040528092919081815260200182805461046490615046565b80156104b15780601f10610486576101008083540402835291602001916104b1565b820191906000526020600020905b81548152906001019060200180831161049457829003601f168201915b5050506004909301549192505067ffffffffffffffff1684565b60055473ffffffffffffffffffffffffffffffffffffffff163314610577576040517f08c379a000000000000000000000000000000000000000000000000000000000815260206004820152603f60248201527f536f6c6f20656c2061646d696e6973747261646f72207469656e65207065726d60448201527f69736f73207061726120656a65637574617220657374612066756e63696f6e0060648201526084015b60405180910390fd5b60408051808201825273ffffffffffffffffffffffffffffffffffffffff86811682526020808301879052835160608101855283815280820187905293840185905260028054600181018255600091909152845180517f405787fa12a823e0f2b7631cc41b3ba8828b3321ca811111fa75cd3aa3bb5ace600490930292830180547fffffffffffffffffffffffff0000000000000000000000000000000000000000169190951617845580830151805195969591938593610660937f405787fa12a823e0f2b7631cc41b3ba8828b3321ca811111fa75cd3aa3bb5acf90910192909101906144dc565b505050602082810151805161067b92600285019201906144dc565b50604082015180516106979160038401916020909101906144dc565b5050505050505050565b600080856040516106b29190615099565b9081526040805191829003602001822060c08301909152805473ffffffffffffffffffffffffffffffffffffffff1660808301908152600182018054849291849160a08501919061070290615046565b80601f016020809104026020016040519081016040528092919081815260200182805461072e90615046565b801561077b5780601f106107505761010080835404028352916020019161077b565b820191906000526020600020905b81548152906001019060200180831161075e57829003601f168201915b505050505081525050815260200160028201805461079890615046565b80601f01602080910402602001604051908101604052809291908181526020018280546107c490615046565b80156108115780601f106107e657610100808354040283529160200191610811565b820191906000526020600020905b8154815290600101906020018083116107f457829003601f168201915b5050509183525050600382015467ffffffffffffffff16602082015260048201805460409092019161084290615046565b80601f016020809104026020016040519081016040528092919081815260200182805461086e90615046565b80156108bb5780601f10610890576101008083540402835291602001916108bb565b820191906000526020600020905b81548152906001019060200180831161089e57829003601f168201915b505050505081525050905060016000866040516108d89190615099565b90815260405190819003602001902060030154815467ffffffffffffffff909116908110610908576109086150b5565b600091825260209091206005909102015473ffffffffffffffffffffffffffffffffffffffff1633146109bd576040517f08c379a000000000000000000000000000000000000000000000000000000000815260206004820152602860248201527f536f6c6f20656c206d656469636f207075656465206174656e646572206c612060448201527f636f6e73756c7461000000000000000000000000000000000000000000000000606482015260840161056e565b6000805b60045467ffffffffffffffff82161015610b36578560048267ffffffffffffffff16815481106109f3576109f36150b5565b90600052602060002090600e0201600b0154148015610a4757508460ff1660048267ffffffffffffffff1681548110610a2e57610a2e6150b5565b60009182526020909120600a600e90920201015460ff16145b8015610a685750868051906020012083600001516020015180519060200120145b15610b2457600191508360048267ffffffffffffffff1681548110610a8f57610a8f6150b5565b90600052602060002090600e0201600c019080519060200190610ab39291906144dc565b50600260048267ffffffffffffffff1681548110610ad357610ad36150b5565b60009182526020909120600d600e909202010180547fffffffffffffffffffffffffffffffffffffffffffffffffffffffffffffff00166001836002811115610b1e57610b1e614a39565b02179055505b80610b2e81615113565b9150506109c1565b50600181151514610bef576040517f08c379a000000000000000000000000000000000000000000000000000000000815260206004820152604260248201527f4e6f20736520656e636f6e74726f20756e6120636f6e73756c74612070726f6760448201527f72616d61646120636f6e206c6f73206461746f7320657370656369666963616460648201527f6f73000000000000000000000000000000000000000000000000000000000000608482015260a40161056e565b505050505050565b805160208183018101805160008252928201938201939093209190925260408051808201909152815473ffffffffffffffffffffffffffffffffffffffff16815260018201805492939192849284019190610c5190615046565b80601f0160208091040260200160405190810160405280929190818152602001828054610c7d90615046565b8015610cca5780601f10610c9f57610100808354040283529160200191610cca565b820191906000526020600020905b815481529060010190602001808311610cad57829003601f168201915b50505050508152505090806002018054610ce390615046565b80601f0160208091040260200160405190810160405280929190818152602001828054610d0f90615046565b8015610d5c5780601f10610d3157610100808354040283529160200191610d5c565b820191906000526020600020905b815481529060010190602001808311610d3f57829003601f168201915b5050506003840154600485018054949567ffffffffffffffff909216949193509150610d8790615046565b80601f0160208091040260200160405190810160405280929190818152602001828054610db390615046565b8015610e005780601f10610dd557610100808354040283529160200191610e00565b820191906000526020600020905b815481529060010190602001808311610de357829003601f168201915b5050505050905084565b60606004805480602002602001604051908101604052809291908181526020016000905b8282101561139457600084815260209020604080516101a08101909152600e8402909101805473ffffffffffffffffffffffffffffffffffffffff166101608301908152600182018054849260e08401928592849291849161018088019190610e9690615046565b80601f0160208091040260200160405190810160405280929190818152602001828054610ec290615046565b8015610f0f5780601f10610ee457610100808354040283529160200191610f0f565b820191906000526020600020905b815481529060010190602001808311610ef257829003601f168201915b5050505050815250508152602001600282018054610f2c90615046565b80601f0160208091040260200160405190810160405280929190818152602001828054610f5890615046565b8015610fa55780601f10610f7a57610100808354040283529160200191610fa5565b820191906000526020600020905b815481529060010190602001808311610f8857829003601f168201915b5050509183525050600382015467ffffffffffffffff166020820152600482018054604090920191610fd690615046565b80601f016020809104026020016040519081016040528092919081815260200182805461100290615046565b801561104f5780601f106110245761010080835404028352916020019161104f565b820191906000526020600020905b81548152906001019060200180831161103257829003601f168201915b5050509190925250505081526040805160c0810190915260058301805473ffffffffffffffffffffffffffffffffffffffff1660808301908152600685018054602090950194849291849160a0850191906110a990615046565b80601f01602080910402602001604051908101604052809291908181526020018280546110d590615046565b80156111225780601f106110f757610100808354040283529160200191611122565b820191906000526020600020905b81548152906001019060200180831161110557829003601f168201915b505050505081525050815260200160028201805461113f90615046565b80601f016020809104026020016040519081016040528092919081815260200182805461116b90615046565b80156111b85780601f1061118d576101008083540402835291602001916111b8565b820191906000526020600020905b81548152906001019060200180831161119b57829003601f168201915b505050505081526020016003820180546111d190615046565b80601f01602080910402602001604051908101604052809291908181526020018280546111fd90615046565b801561124a5780601f1061121f5761010080835404028352916020019161124a565b820191906000526020600020905b81548152906001019060200180831161122d57829003601f168201915b50505091835250506004919091015467ffffffffffffffff16602091820152908252600a83015460ff1690820152600b8201546040820152600c8201805460609092019161129790615046565b80601f01602080910402602001604051908101604052809291908181526020018280546112c390615046565b80156113105780601f106112e557610100808354040283529160200191611310565b820191906000526020600020905b8154815290600101906020018083116112f357829003601f168201915b5050509183525050600d82015460209091019060ff16600281111561133757611337614a39565b600281111561134857611348614a39565b8152602001600d820160019054906101000a900460ff16600181111561137057611370614a39565b600181111561138157611381614a39565b8152505081526020019060010190610e2e565b50505050905090565b600481815481106113ad57600080fd5b600091825260209091206040805160c08101909152600e90920201805473ffffffffffffffffffffffffffffffffffffffff16608083019081526001820180549294508492849291849160a08501919061140690615046565b80601f016020809104026020016040519081016040528092919081815260200182805461143290615046565b801561147f5780601f106114545761010080835404028352916020019161147f565b820191906000526020600020905b81548152906001019060200180831161146257829003601f168201915b505050505081525050815260200160028201805461149c90615046565b80601f01602080910402602001604051908101604052809291908181526020018280546114c890615046565b80156115155780601f106114ea57610100808354040283529160200191611515565b820191906000526020600020905b8154815290600101906020018083116114f857829003601f168201915b5050509183525050600382015467ffffffffffffffff16602082015260048201805460409092019161154690615046565b80601f016020809104026020016040519081016040528092919081815260200182805461157290615046565b80156115bf5780601f10611594576101008083540402835291602001916115bf565b820191906000526020600020905b8154815290600101906020018083116115a257829003601f168201915b5050509190925250506040805160c0810190915260058401805473ffffffffffffffffffffffffffffffffffffffff166080830190815260068601805495969593945091928492849160a08501919061161790615046565b80601f016020809104026020016040519081016040528092919081815260200182805461164390615046565b80156116905780601f1061166557610100808354040283529160200191611690565b820191906000526020600020905b81548152906001019060200180831161167357829003601f168201915b50505050508152505081526020016002820180546116ad90615046565b80601f01602080910402602001604051908101604052809291908181526020018280546116d990615046565b80156117265780601f106116fb57610100808354040283529160200191611726565b820191906000526020600020905b81548152906001019060200180831161170957829003601f168201915b5050505050815260200160038201805461173f90615046565b80601f016020809104026020016040519081016040528092919081815260200182805461176b90615046565b80156117b85780601f1061178d576101008083540402835291602001916117b8565b820191906000526020600020905b81548152906001019060200180831161179b57829003601f168201915b50505091835250506004919091015467ffffffffffffffff16602090910152600a820154600b830154600c84018054939460ff909316939192916117fb90615046565b80601f016020809104026020016040519081016040528092919081815260200182805461182790615046565b80156118745780601f1061184957610100808354040283529160200191611874565b820191906000526020600020905b81548152906001019060200180831161185757829003601f168201915b505050600d909301549192505060ff8082169161010090041687565b60055473ffffffffffffffffffffffffffffffffffffffff163314611937576040517f08c379a000000000000000000000000000000000000000000000000000000000815260206004820152603f60248201527f536f6c6f20656c2061646d696e6973747261646f72207469656e65207065726d60448201527f69736f73207061726120656a65637574617220657374612066756e63696f6e00606482015260840161056e565b600073ffffffffffffffffffffffffffffffffffffffff1660008560405161195f9190615099565b9081526040519081900360200190205473ffffffffffffffffffffffffffffffffffffffff16146119ec576040517f08c379a000000000000000000000000000000000000000000000000000000000815260206004820181905260248201527f457374652070616369656e74652079612065737461207265676973747261646f604482015260640161056e565b600060405180604001604052808373ffffffffffffffffffffffffffffffffffffffff168152602001868152509050604051806080016040528082815260200185815260200167ffffffffffffffff8016815260200184815250600086604051611a569190615099565b908152604051602091819003820190208251805182547fffffffffffffffffffffffff00000000000000000000000000000000000000001673ffffffffffffffffffffffffffffffffffffffff909116178255808301518051929391928492611ac69260018501929101906144dc565b5050506020828101518051611ae192600285019201906144dc565b5060408201516003820180547fffffffffffffffffffffffffffffffffffffffffffffffff00000000000000001667ffffffffffffffff90921691909117905560608201518051611b3c9160048401916020909101906144dc565b50905050610bef85613edf565b60035467ffffffffffffffff8716108015611bcb57506001846040015167ffffffffffffffff1681548110611b8057611b806150b5565b600091825260209091206005909102015473ffffffffffffffffffffffffffffffffffffffff16331480611bcb575083515173ffffffffffffffffffffffffffffffffffffffff1633145b611c57576040517f08c379a000000000000000000000000000000000000000000000000000000000815260206004820152602f60248201527f6c612063697461206e6f20657869737465206f206e6f20686179207065726d6960448201527f736f7320737566696369656e7465730000000000000000000000000000000000606482015260840161056e565b42831015611ce7576040517f08c379a000000000000000000000000000000000000000000000000000000000815260206004820152603760248201527f4e6f2073652070756564656e2070726f6772616d617220636974617320616e7460448201527f6572696f72657320612065737465206d6f6d656e746f2e000000000000000000606482015260840161056e565b60005b60045467ffffffffffffffff82161015611f685760038767ffffffffffffffff1681548110611d1b57611d1b6150b5565b90600052602060002090600e0201600a015460048267ffffffffffffffff1681548110611d4a57611d4a6150b5565b90600052602060002090600e0201600b0154148015611dd2575060038767ffffffffffffffff1681548110611d8157611d816150b5565b60009182526020909120600b600e9092020101546004805460ff9092169167ffffffffffffffff8416908110611db957611db96150b5565b60009182526020909120600a600e90920201015460ff16145b8015611e3457508460000151602001518051906020012060048267ffffffffffffffff1681548110611e0657611e066150b5565b90600052602060002090600e0201600001600001600101604051611e2a919061513a565b6040518091039020145b15611f56578360048267ffffffffffffffff1681548110611e5757611e576150b5565b90600052602060002090600e0201600b01819055508260048267ffffffffffffffff1681548110611e8a57611e8a6150b5565b90600052602060002090600e0201600a0160006101000a81548160ff021916908360ff1602179055508360048267ffffffffffffffff1681548110611ed157611ed16150b5565b90600052602060002090600e0201600b01819055508160048267ffffffffffffffff1681548110611f0457611f046150b5565b60009182526020909120600d600e909202010180547fffffffffffffffffffffffffffffffffffffffffffffffffffffffffffff00ff16610100836001811115611f5057611f50614a39565b02179055505b80611f6081615113565b915050611cea565b508260038767ffffffffffffffff1681548110611f8757611f876150b5565b90600052602060002090600e0201600a01819055508160038767ffffffffffffffff1681548110611fba57611fba6150b5565b90600052602060002090600e0201600b0160006101000a81548160ff021916908360ff1602179055508460038767ffffffffffffffff1681548110612001576120016150b5565b90600052602060002090600e0201600c0190805190602001906120259291906144dc565b508060038767ffffffffffffffff1681548110612044576120446150b5565b60009182526020909120600d600e909202010180547fffffffffffffffffffffffffffffffffffffffffffffffffffffffffffffff00166001838181111561208e5761208e614a39565b0217905550505050505050565b60606003805480602002602001604051908101604052809291908181526020016000905b8282101561139457600084815260209020604080516101808101909152600e8402909101805473ffffffffffffffffffffffffffffffffffffffff166101408301908152600182018054849260c0840192859284929184916101608801919061212790615046565b80601f016020809104026020016040519081016040528092919081815260200182805461215390615046565b80156121a05780601f10612175576101008083540402835291602001916121a0565b820191906000526020600020905b81548152906001019060200180831161218357829003601f168201915b50505050508152505081526020016002820180546121bd90615046565b80601f01602080910402602001604051908101604052809291908181526020018280546121e990615046565b80156122365780601f1061220b57610100808354040283529160200191612236565b820191906000526020600020905b81548152906001019060200180831161221957829003601f168201915b5050509183525050600382015467ffffffffffffffff16602082015260048201805460409092019161226790615046565b80601f016020809104026020016040519081016040528092919081815260200182805461229390615046565b80156122e05780601f106122b5576101008083540402835291602001916122e0565b820191906000526020600020905b8154815290600101906020018083116122c357829003601f168201915b5050509190925250505081526040805160c0810190915260058301805473ffffffffffffffffffffffffffffffffffffffff1660808301908152600685018054602090950194849291849160a08501919061233a90615046565b80601f016020809104026020016040519081016040528092919081815260200182805461236690615046565b80156123b35780601f10612388576101008083540402835291602001916123b3565b820191906000526020600020905b81548152906001019060200180831161239657829003601f168201915b50505050508152505081526020016002820180546123d090615046565b80601f01602080910402602001604051908101604052809291908181526020018280546123fc90615046565b80156124495780601f1061241e57610100808354040283529160200191612449565b820191906000526020600020905b81548152906001019060200180831161242c57829003601f168201915b5050505050815260200160038201805461246290615046565b80601f016020809104026020016040519081016040528092919081815260200182805461248e90615046565b80156124db5780601f106124b0576101008083540402835291602001916124db565b820191906000526020600020905b8154815290600101906020018083116124be57829003601f168201915b50505091835250506004919091015467ffffffffffffffff16602091820152908252600a83015490820152600b82015460ff166040820152600c8201805460609092019161252890615046565b80601f016020809104026020016040519081016040528092919081815260200182805461255490615046565b80156125a15780601f10612576576101008083540402835291602001916125a1565b820191906000526020600020905b81548152906001019060200180831161258457829003601f168201915b5050509183525050600d82015460209091019060ff1660018111156125c8576125c8614a39565b60018111156125d9576125d9614a39565b81525050815260200190600101906120bf565b67ffffffffffffffff80166000866040516126079190615099565b9081526040519081900360200190206003015467ffffffffffffffff16106126b1576040517f08c379a000000000000000000000000000000000000000000000000000000000815260206004820152602760248201527f456c2070616369656e7465206e6f207469656e6520756e206d656469636f206160448201527f7369676e61646f00000000000000000000000000000000000000000000000000606482015260840161056e565b42841015612741576040517f08c379a000000000000000000000000000000000000000000000000000000000815260206004820152603760248201527f4e6f2073652070756564656e2070726f6772616d617220636974617320616e7460448201527f6572696f72657320612065737465206d6f6d656e746f2e000000000000000000606482015260840161056e565b600060019050600080876040516127589190615099565b9081526040805191829003602001822060c08301909152805473ffffffffffffffffffffffffffffffffffffffff1660808301908152600182018054849291849160a0850191906127a890615046565b80601f01602080910402602001604051908101604052809291908181526020018280546127d490615046565b80156128215780601f106127f657610100808354040283529160200191612821565b820191906000526020600020905b81548152906001019060200180831161280457829003601f168201915b505050505081525050815260200160028201805461283e90615046565b80601f016020809104026020016040519081016040528092919081815260200182805461286a90615046565b80156128b75780601f1061288c576101008083540402835291602001916128b7565b820191906000526020600020905b81548152906001019060200180831161289a57829003601f168201915b5050509183525050600382015467ffffffffffffffff1660208201526004820180546040909201916128e890615046565b80601f016020809104026020016040519081016040528092919081815260200182805461291490615046565b80156129615780601f1061293657610100808354040283529160200191612961565b820191906000526020600020905b81548152906001019060200180831161294457829003601f168201915b505050505081525050905060006001826040015167ffffffffffffffff168154811061298f5761298f6150b5565b600091825260209091206040805160c08101909152600590920201805473ffffffffffffffffffffffffffffffffffffffff1660808301908152600182018054849291849160a0850191906129e390615046565b80601f0160208091040260200160405190810160405280929190818152602001828054612a0f90615046565b8015612a5c5780601f10612a3157610100808354040283529160200191612a5c565b820191906000526020600020905b815481529060010190602001808311612a3f57829003601f168201915b5050505050815250508152602001600282018054612a7990615046565b80601f0160208091040260200160405190810160405280929190818152602001828054612aa590615046565b8015612af25780601f10612ac757610100808354040283529160200191612af2565b820191906000526020600020905b815481529060010190602001808311612ad557829003601f168201915b50505050508152602001600382018054612b0b90615046565b80601f0160208091040260200160405190810160405280929190818152602001828054612b3790615046565b8015612b845780601f10612b5957610100808354040283529160200191612b84565b820191906000526020600020905b815481529060010190602001808311612b6757829003601f168201915b50505091835250506004919091015467ffffffffffffffff16602090910152905060005b60035467ffffffffffffffff8216108015612bf057504260038267ffffffffffffffff1681548110612bdc57612bdc6150b5565b90600052602060002090600e0201600a0154115b15612d755781600001516000015173ffffffffffffffffffffffffffffffffffffffff1660038267ffffffffffffffff1681548110612c3157612c316150b5565b600091825260209091206005600e90920201015473ffffffffffffffffffffffffffffffffffffffff1603612d63578760038267ffffffffffffffff1681548110612c7e57612c7e6150b5565b90600052602060002090600e0201600a0154148015612cd257508660ff1660038267ffffffffffffffff1681548110612cb957612cb96150b5565b60009182526020909120600b600e90920201015460ff16145b80612d5957508760038267ffffffffffffffff1681548110612cf657612cf66150b5565b90600052602060002090600e0201600a0154148015612d595750612d1f61038460ff891661520c565b61ffff1660038267ffffffffffffffff1681548110612d4057612d406150b5565b60009182526020909120600b600e90920201015460ff16115b15612d6357600093505b80612d6d81615113565b915050612ba8565b5082156106975760036040518060c001604052808481526020018381526020018981526020018860ff168152602001878152602001866001811115612dbc57612dbc614a39565b90528154600180820184556000938452602093849020835180518051600e90950290920180547fffffffffffffffffffffffff00000000000000000000000000000000000000001673ffffffffffffffffffffffffffffffffffffffff90951694909417845581860151805195969495919486948593612e44939185019291909101906144dc565b5050506020828101518051612e5f92600285019201906144dc565b5060408201516003820180547fffffffffffffffffffffffffffffffffffffffffffffffff00000000000000001667ffffffffffffffff90921691909117905560608201518051612eba9160048401916020909101906144dc565b505050602082810151805180516005850180547fffffffffffffffffffffffff00000000000000000000000000000000000000001673ffffffffffffffffffffffffffffffffffffffff909216919091178155818401518051939491938492612f2a9260068901929101906144dc565b5050506020828101518051612f4592600285019201906144dc565b5060408201518051612f619160038401916020909101906144dc565b5060609182015160049190910180547fffffffffffffffffffffffffffffffffffffffffffffffff00000000000000001667ffffffffffffffff9092169190911790556040830151600a830155820151600b820180547fffffffffffffffffffffffffffffffffffffffffffffffffffffffffffffff001660ff90921691909117905560808201518051612fff91600c8401916020909101906144dc565b5060a0820151600d820180547fffffffffffffffffffffffffffffffffffffffffffffffffffffffffffffff00166001838181111561304057613040614a39565b0217905550505060046040518060e001604052808481526020018381526020018860ff1681526020018981526020018781526020016000600281111561308857613088614a39565b815260200186600181111561309f5761309f614a39565b90528154600180820184556000938452602093849020835180518051600e90950290920180547fffffffffffffffffffffffff00000000000000000000000000000000000000001673ffffffffffffffffffffffffffffffffffffffff90951694909417845581860151805195969495919486948593613127939185019291909101906144dc565b505050602082810151805161314292600285019201906144dc565b5060408201516003820180547fffffffffffffffffffffffffffffffffffffffffffffffff00000000000000001667ffffffffffffffff9092169190911790556060820151805161319d9160048401916020909101906144dc565b505050602082810151805180516005850180547fffffffffffffffffffffffff00000000000000000000000000000000000000001673ffffffffffffffffffffffffffffffffffffffff90921691909117815581840151805193949193849261320d9260068901929101906144dc565b505050602082810151805161322892600285019201906144dc565b50604082015180516132449160038401916020909101906144dc565b5060609182015160049190910180547fffffffffffffffffffffffffffffffffffffffffffffffff00000000000000001667ffffffffffffffff9092169190911790556040830151600a830180547fffffffffffffffffffffffffffffffffffffffffffffffffffffffffffffff001660ff909216919091179055820151600b820155608082015180516132e291600c8401916020909101906144dc565b5060a0820151600d820180547fffffffffffffffffffffffffffffffffffffffffffffffffffffffffffffff0016600183600281111561332457613324614a39565b021790555060c0820151600d820180547fffffffffffffffffffffffffffffffffffffffffffffffffffffffffffff00ff1661010083600181111561336b5761336b614a39565b021790555050505050505050505050565b6133b56040805160c08101909152600060808201908152606060a083015281908152606060208201819052600060408301529081015290565b6000826040516133c59190615099565b9081526040805191829003602001822060c08301909152805473ffffffffffffffffffffffffffffffffffffffff1660808301908152600182018054849291849160a08501919061341590615046565b80601f016020809104026020016040519081016040528092919081815260200182805461344190615046565b801561348e5780601f106134635761010080835404028352916020019161348e565b820191906000526020600020905b81548152906001019060200180831161347157829003601f168201915b50505050508152505081526020016002820180546134ab90615046565b80601f01602080910402602001604051908101604052809291908181526020018280546134d790615046565b80156135245780601f106134f957610100808354040283529160200191613524565b820191906000526020600020905b81548152906001019060200180831161350757829003601f168201915b5050509183525050600382015467ffffffffffffffff16602082015260048201805460409092019161355590615046565b80601f016020809104026020016040519081016040528092919081815260200182805461358190615046565b80156135ce5780601f106135a3576101008083540402835291602001916135ce565b820191906000526020600020905b8154815290600101906020018083116135b157829003601f168201915b5050505050815250509050919050565b600281815481106135ee57600080fd5b600091825260209182902060408051808201909152600490920201805473ffffffffffffffffffffffffffffffffffffffff168252600181018054919450919284929084019161363d90615046565b80601f016020809104026020016040519081016040528092919081815260200182805461366990615046565b80156136b65780601f1061368b576101008083540402835291602001916136b6565b820191906000526020600020905b81548152906001019060200180831161369957829003601f168201915b505050505081525050908060020180546136cf90615046565b80601f01602080910402602001604051908101604052809291908181526020018280546136fb90615046565b80156137485780601f1061371d57610100808354040283529160200191613748565b820191906000526020600020905b81548152906001019060200180831161372b57829003601f168201915b50505050509080600301805461375d90615046565b80601f016020809104026020016040519081016040528092919081815260200182805461378990615046565b80156137d65780601f106137ab576101008083540402835291602001916137d6565b820191906000526020600020905b8154815290600101906020018083116137b957829003601f168201915b5050505050905083565b60055473ffffffffffffffffffffffffffffffffffffffff163314613887576040517f08c379a000000000000000000000000000000000000000000000000000000000815260206004820152603f60248201527f536f6c6f20656c2061646d696e6973747261646f72207469656e65207065726d60448201527f69736f73207061726120656a65637574617220657374612066756e63696f6e00606482015260840161056e565b60408051808201825273ffffffffffffffffffffffffffffffffffffffff8681168252602080830187905283516080810185528381528082018790529384018590526000606085018190526001805480820182559152845180517fb10e2d527612073b26eecdfd717e6a320cf44b4afac2b0732d9fcbe2b7fa0cf6600590930292830180547fffffffffffffffffffffffff0000000000000000000000000000000000000000169190951617845580830151805195969591938593613974937fb10e2d527612073b26eecdfd717e6a320cf44b4afac2b0732d9fcbe2b7fa0cf790910192909101906144dc565b505050602082810151805161398f92600285019201906144dc565b50604082015180516139ab9160038401916020909101906144dc565b5060609190910151600490910180547fffffffffffffffffffffffffffffffffffffffffffffffff00000000000000001667ffffffffffffffff9092169190911790555050505050565b60038181548110613a0557600080fd5b600091825260209091206040805160c08101909152600e90920201805473ffffffffffffffffffffffffffffffffffffffff16608083019081526001820180549294508492849291849160a085019190613a5e90615046565b80601f0160208091040260200160405190810160405280929190818152602001828054613a8a90615046565b8015613ad75780601f10613aac57610100808354040283529160200191613ad7565b820191906000526020600020905b815481529060010190602001808311613aba57829003601f168201915b5050505050815250508152602001600282018054613af490615046565b80601f0160208091040260200160405190810160405280929190818152602001828054613b2090615046565b8015613b6d5780601f10613b4257610100808354040283529160200191613b6d565b820191906000526020600020905b815481529060010190602001808311613b5057829003601f168201915b5050509183525050600382015467ffffffffffffffff166020820152600482018054604090920191613b9e90615046565b80601f0160208091040260200160405190810160405280929190818152602001828054613bca90615046565b8015613c175780601f10613bec57610100808354040283529160200191613c17565b820191906000526020600020905b815481529060010190602001808311613bfa57829003601f168201915b5050509190925250506040805160c0810190915260058401805473ffffffffffffffffffffffffffffffffffffffff166080830190815260068601805495969593945091928492849160a085019190613c6f90615046565b80601f0160208091040260200160405190810160405280929190818152602001828054613c9b90615046565b8015613ce85780601f10613cbd57610100808354040283529160200191613ce8565b820191906000526020600020905b815481529060010190602001808311613ccb57829003601f168201915b5050505050815250508152602001600282018054613d0590615046565b80601f0160208091040260200160405190810160405280929190818152602001828054613d3190615046565b8015613d7e5780601f10613d5357610100808354040283529160200191613d7e565b820191906000526020600020905b815481529060010190602001808311613d6157829003601f168201915b50505050508152602001600382018054613d9790615046565b80601f0160208091040260200160405190810160405280929190818152602001828054613dc390615046565b8015613e105780601f10613de557610100808354040283529160200191613e10565b820191906000526020600020905b815481529060010190602001808311613df357829003601f168201915b50505091835250506004919091015467ffffffffffffffff16602090910152600a820154600b830154600c840180549394929360ff9092169291613e5390615046565b80601f0160208091040260200160405190810160405280929190818152602001828054613e7f90615046565b8015613ecc5780601f10613ea157610100808354040283529160200191613ecc565b820191906000526020600020905b815481529060010190602001808311613eaf57829003601f168201915b505050600d909301549192505060ff1686565b600154600090613f4b576040517f08c379a000000000000000000000000000000000000000000000000000000000815260206004820152601a60248201527f4e6f20686179206d656469636f7320646973706f6e69626c6573000000000000604482015260640161056e565b6000808084604051613f5d9190615099565b9081526040805191829003602001822060c08301909152805473ffffffffffffffffffffffffffffffffffffffff1660808301908152600182018054849291849160a085019190613fad90615046565b80601f0160208091040260200160405190810160405280929190818152602001828054613fd990615046565b80156140265780601f10613ffb57610100808354040283529160200191614026565b820191906000526020600020905b81548152906001019060200180831161400957829003601f168201915b505050505081525050815260200160028201805461404390615046565b80601f016020809104026020016040519081016040528092919081815260200182805461406f90615046565b80156140bc5780601f10614091576101008083540402835291602001916140bc565b820191906000526020600020905b81548152906001019060200180831161409f57829003601f168201915b5050509183525050600382015467ffffffffffffffff1660208201526004820180546040909201916140ed90615046565b80601f016020809104026020016040519081016040528092919081815260200182805461411990615046565b80156141665780601f1061413b57610100808354040283529160200191614166565b820191906000526020600020905b81548152906001019060200180831161414957829003601f168201915b505050919092525050506020810151909150600067ffffffffffffffff5b60015467ffffffffffffffff861610156143305760408051808201909152600781527f47656e6572616c00000000000000000000000000000000000000000000000000602090910152600180547f5a238724f4923a504a7bc7b1da49b8ad37187664eb292980fef19a3441928b2c919067ffffffffffffffff881690811061420e5761420e6150b5565b906000526020600020906005020160020160405161422c919061513a565b60405180910390201480156142895750828051906020012060018667ffffffffffffffff1681548110614261576142616150b5565b906000526020600020906005020160030160405161427f919061513a565b6040518091039020145b80156142d857508067ffffffffffffffff1660018667ffffffffffffffff16815481106142b8576142b86150b5565b600091825260209091206004600590920201015467ffffffffffffffff16105b1561431e5760018567ffffffffffffffff16815481106142fa576142fa6150b5565b600091825260209091206004600590920201015485925067ffffffffffffffff1690505b8461432881615113565b955050614184565b828051906020012060018367ffffffffffffffff1681548110614355576143556150b5565b9060005260206000209060050201600301604051614373919061513a565b60405180910390201461440a57604080517f08c379a00000000000000000000000000000000000000000000000000000000081526020600482015260248101919091527f456c206d656469636f206e6f2070657274656e65636520616c206d69736d6f2060448201527f63656e74726f2073616e69746172696f2071756520656c2070616369656e7465606482015260840161056e565b60018267ffffffffffffffff1681548110614427576144276150b5565b600091825260208220600460059092020101805467ffffffffffffffff169161444f83615113565b91906101000a81548167ffffffffffffffff021916908367ffffffffffffffff16021790555050816000886040516144879190615099565b908152604051908190036020019020600301805467ffffffffffffffff929092167fffffffffffffffffffffffffffffffffffffffffffffffff00000000000000009092169190911790555095945050505050565b8280546144e890615046565b90600052602060002090601f01602090048101928261450a5760008555614550565b82601f1061452357805160ff1916838001178555614550565b82800160010185558215614550579182015b82811115614550578251825591602001919060010190614535565b5061455c929150614560565b5090565b5b8082111561455c5760008155600101614561565b60006020828403121561458757600080fd5b5035919050565b60005b838110156145a9578181015183820152602001614591565b838111156145b8576000848401525b50505050565b600081518084526145d681602086016020860161458e565b601f017fffffffffffffffffffffffffffffffffffffffffffffffffffffffffffffffe0169290920160200192915050565b73ffffffffffffffffffffffffffffffffffffffff8151168252600060208201516040602085015261463d60408501826145be565b949350505050565b6080815260006146586080830187614608565b828103602084015261466a81876145be565b9050828103604084015261467e81866145be565b91505067ffffffffffffffff8316606083015295945050505050565b803573ffffffffffffffffffffffffffffffffffffffff811681146146be57600080fd5b919050565b7f4e487b7100000000000000000000000000000000000000000000000000000000600052604160045260246000fd5b6040516080810167ffffffffffffffff81118282101715614715576147156146c3565b60405290565b6040805190810167ffffffffffffffff81118282101715614715576147156146c3565b600082601f83011261474f57600080fd5b813567ffffffffffffffff8082111561476a5761476a6146c3565b604051601f83017fffffffffffffffffffffffffffffffffffffffffffffffffffffffffffffffe0908116603f011681019082821181831017156147b0576147b06146c3565b816040528381528660208588010111156147c957600080fd5b836020870160208301376000602085830101528094505050505092915050565b600080600080608085870312156147ff57600080fd5b6148088561469a565b9350602085013567ffffffffffffffff8082111561482557600080fd5b6148318883890161473e565b9450604087013591508082111561484757600080fd5b6148538883890161473e565b9350606087013591508082111561486957600080fd5b506148768782880161473e565b91505092959194509250565b803560ff811681146146be57600080fd5b600080600080608085870312156148a957600080fd5b843567ffffffffffffffff808211156148c157600080fd5b6148cd8883890161473e565b95506020870135945061485360408801614882565b6000602082840312156148f457600080fd5b813567ffffffffffffffff81111561490b57600080fd5b61463d8482850161473e565b60808152600061492a6080830187614608565b828103602084015261493c81876145be565b905067ffffffffffffffff85166040840152828103606084015261496081856145be565b979650505050505050565b60008151608084526149806080850182614608565b90506020830151848203602086015261499982826145be565b91505067ffffffffffffffff6040840151166040850152606083015184820360608601526149c782826145be565b95945050505050565b60008151608084526149e56080850182614608565b9050602083015184820360208601526149fe82826145be565b91505060408301518482036040860152614a1882826145be565b91505067ffffffffffffffff60608401511660608501528091505092915050565b7f4e487b7100000000000000000000000000000000000000000000000000000000600052602160045260246000fd5b60038110614a7857614a78614a39565b9052565b60028110614a7857614a78614a39565b60006020808301818452808551808352604092508286019150828160051b87010184880160005b83811015614b7e577fffffffffffffffffffffffffffffffffffffffffffffffffffffffffffffffc0898403018552815160e08151818652614af78287018261496b565b915050888201518582038a870152614b0f82826149d0565b91505060ff888301511688860152606080830151818701525060808083015186830382880152614b3f83826145be565b9250505060a080830151614b5582880182614a68565b505060c09182015191614b6a86820184614a7c565b509588019593505090860190600101614ab3565b509098975050505050505050565b60e081526000614b9f60e083018a61496b565b8281036020840152614bb1818a6149d0565b905060ff881660408401528660608401528281036080840152614bd481876145be565b915050614be460a0830185614a68565b614bf160c0830184614a7c565b98975050505050505050565b60008060008060808587031215614c1357600080fd5b843567ffffffffffffffff80821115614c2b57600080fd5b614c378883890161473e565b95506020870135915080821115614c4d57600080fd5b614c598883890161473e565b94506040870135915080821115614c6f57600080fd5b50614c7c8782880161473e565b925050614c8b6060860161469a565b905092959194509250565b803567ffffffffffffffff811681146146be57600080fd5b8035600281106146be57600080fd5b60008060008060008060c08789031215614cd657600080fd5b614cdf87614c96565b9550602087013567ffffffffffffffff80821115614cfc57600080fd5b614d088a838b0161473e565b96506040890135915080821115614d1e57600080fd5b908801906080828b031215614d3257600080fd5b614d3a6146f2565b823582811115614d4957600080fd5b83016040818d031215614d5b57600080fd5b614d6361471b565b614d6c8261469a565b8152602082013584811115614d8057600080fd5b614d8c8e82850161473e565b6020830152508083525050602083013582811115614da957600080fd5b614db58c82860161473e565b602083015250614dc760408401614c96565b6040820152606083013582811115614dde57600080fd5b614dea8c82860161473e565b60608301525080965050505060608701359250614e0960808801614882565b9150614e1760a08801614cae565b90509295509295509295565b60006020808301818452808551808352604092508286019150828160051b87010184880160005b83811015614b7e577fffffffffffffffffffffffffffffffffffffffffffffffffffffffffffffffc0898403018552815160c08151818652614e8e8287018261496b565b915050888201518582038a870152614ea682826149d0565b9150508782015188860152606060ff8184015116818701525060808083015186830382880152614ed683826145be565b9250505060a0808301519250614eee81870184614a7c565b509588019593505090860190600101614e4a565b600080600080600060a08688031215614f1a57600080fd5b853567ffffffffffffffff80821115614f3257600080fd5b614f3e89838a0161473e565b965060208801359550614f5360408901614882565b94506060880135915080821115614f6957600080fd5b50614f768882890161473e565b925050614f8560808701614cae565b90509295509295909350565b602081526000614fa4602083018461496b565b9392505050565b606081526000614fbe6060830186614608565b8281036020840152614fd081866145be565b90508281036040840152614fe481856145be565b9695505050505050565b60c08152600061500160c083018961496b565b828103602084015261501381896149d0565b905086604084015260ff86166060840152828103608084015261503681866145be565b91505061496060a0830184614a7c565b600181811c9082168061505a57607f821691505b602082108103615093577f4e487b7100000000000000000000000000000000000000000000000000000000600052602260045260246000fd5b50919050565b600082516150ab81846020870161458e565b9190910192915050565b7f4e487b7100000000000000000000000000000000000000000000000000000000600052603260045260246000fd5b7f4e487b7100000000000000000000000000000000000000000000000000000000600052601160045260246000fd5b600067ffffffffffffffff808316818103615130576151306150e4565b6001019392505050565b600080835481600182811c91508083168061515657607f831692505b6020808410820361518e577f4e487b710000000000000000000000000000000000000000000000000000000086526022600452602486fd5b8180156151a257600181146151d1576151fe565b7fffffffffffffffffffffffffffffffffffffffffffffffffffffffffffffff008616895284890196506151fe565b60008a81526020902060005b868110156151f65781548b8201529085019083016151dd565b505084890196505b509498975050505050505050565b600061ffff83811690831681811015615227576152276150e4565b03939250505056fea26469706673582212203f75427ea92cbcc3936ea45c22e8da10a1f83132e667d0a59e6f01bbe08db16264736f6c634300080d0033",
  "immutableReferences": {},
  "source": "// SPDX-License-Identifier: MIT\r\npragma solidity >=0.4.22 <0.9.0;\r\n\r\ncontract HistoriaClinica {\r\n    mapping(string => Paciente) public pacientes;\r\n    Medico[] public medicos;\r\n    Enfermero[] public enfermeros;\r\n     Cita[] public citas;\r\n    Consulta[] public consultas;\r\n\r\n    address public owner;\r\n\r\n    constructor() {\r\n        owner = msg.sender; // el primer usuario en crear el contrato se convierte en el owner o admin\r\n    }\r\n    enum tipo_consulta {\r\n        urgencias,\r\n        especialidad\r\n    }\r\n    enum estado_consulta {\r\n        programada,cancelada,cerrada\r\n    }\r\n\r\n    struct Persona {\r\n        address direccionPublica;\r\n        string DNI;\r\n    }\r\n\r\n    struct Paciente {\r\n        Persona datos;\r\n        string centro_sanitario;\r\n        uint64 medico_asignado;\r\n        string datos_paciente;\r\n    }\r\n\r\n    struct Medico {\r\n        Persona datos; //Herencia\r\n        string especialidad;\r\n        string centro_sanitario;\r\n        uint64 numero_pacientes;\r\n    }\r\n\r\n    struct Enfermero {\r\n        Persona datos; //Herencia\r\n        string especialidad;\r\n        string centro_sanitario;\r\n    }\r\n    \r\n    struct Consulta {\r\n        Paciente paciente;\r\n        Medico medico;\r\n        uint8 hora;\r\n        uint256 fecha;\r\n        string datos_consulta;\r\n        estado_consulta estado;\r\n        tipo_consulta tipo;\r\n    }\r\n\r\n    struct Cita {\r\n        Paciente paciente;\r\n        Medico medico;\r\n        uint fecha;\r\n        uint8 hora;\r\n        string datos_cita;\r\n        tipo_consulta tipoConsulta;\r\n    }\r\n    modifier soloAdmin() {\r\n        require(msg.sender == owner, \"Solo el administrador tiene permisos para ejecutar esta funcion\");\r\n        _;\r\n    }\r\nfunction registrarPaciente(string memory _DNI, string memory _centroSanitario, string memory _datosPaciente, address _direccionPaciente) public soloAdmin() {\r\n    require(pacientes[_DNI].datos.direccionPublica == address(0), \"Este paciente ya esta registrado\");\r\n    Persona memory datosPersonales = Persona({\r\n    direccionPublica: _direccionPaciente,\r\n    DNI: _DNI\r\n});\r\n\r\npacientes[_DNI] = Paciente({\r\n    centro_sanitario: _centroSanitario,\r\n    datos: datosPersonales,\r\n    medico_asignado: type(uint64).max, //an no tiene mdico asignado\r\n    datos_paciente: _datosPaciente\r\n});\r\nasignarMedico(_DNI);\r\n\r\n}\r\n    function registrarMedico(address _direccionMedico, string memory _DNI, string memory _especialidad, string memory _centro_sanitario) public soloAdmin() {\r\n        Persona memory datosPersonales = Persona(_direccionMedico,_DNI);\r\n        medicos.push(Medico({\r\n        centro_sanitario: _centro_sanitario,\r\n        datos:datosPersonales,\r\n        especialidad: _especialidad,\r\n        numero_pacientes:0\r\n    }));\r\n}\r\n\r\n function registrarEnfermero(address _direccionEnfermero ,string memory _DNI, string memory _especialidad, string memory _centro_sanitario) public soloAdmin() {\r\n        Persona memory datosPersonales = Persona (_direccionEnfermero,_DNI);\r\n        enfermeros.push(Enfermero({\r\n        especialidad: _especialidad,\r\n        centro_sanitario: _centro_sanitario,\r\n        datos : datosPersonales\r\n    }));\r\n\r\n    }\r\n\r\n    function asignarMedico(string memory _DNI) private returns (uint64) {\r\n        // Comprobamos si hay mdicos disponibles\r\n         require(medicos.length > 0, \"No hay medicos disponibles\");\r\n        uint64 i = 0;\r\n        Paciente memory p = pacientes[_DNI]; //Buscamos el indice del paciente por DNI\r\n        string memory nombreCentroSanitario = p.centro_sanitario; // Obtenemos centro sanitario del paciente\r\n        uint64 indiceMedicoConMenosPacientes; //Posicion del array del medico con menos pacientes\r\n        uint64 minimoPacientes = type(uint64).max;\r\n        while (i < medicos.length) {\r\n            //Comprobamos especialidad, centro sanitario, y obtenemos el mdico con menos pacientes asignados\r\n            if (\r\n                keccak256(bytes(medicos[i].especialidad)) ==\r\n                keccak256(bytes(\"General\")) &&\r\n                keccak256(bytes(medicos[i].centro_sanitario)) ==\r\n                keccak256(bytes(nombreCentroSanitario)) &&\r\n                medicos[i].numero_pacientes < minimoPacientes\r\n            ) {\r\n                minimoPacientes = medicos[i].numero_pacientes;\r\n                indiceMedicoConMenosPacientes = i; //Mdico vlido encontrado\r\n            }\r\n            i++;\r\n        }\r\n        require(\r\n        keccak256(bytes(medicos[indiceMedicoConMenosPacientes].centro_sanitario)) == \r\n        keccak256(bytes(nombreCentroSanitario)),\r\n        \"El medico no pertenece al mismo centro sanitario que el paciente\"\r\n    );\r\n        medicos[indiceMedicoConMenosPacientes].numero_pacientes++; //Aumentamos pacientes de ese mdico\r\n        pacientes[_DNI].medico_asignado=indiceMedicoConMenosPacientes; //Asignamos mdico al paciente\r\n        return indiceMedicoConMenosPacientes;\r\n    }\r\n\r\n    function solicitarCita(string memory _DNI, uint256 _fecha, uint8 _hora, string memory _datos_cita, tipo_consulta _tipoConsulta) public {\r\n    require(pacientes[_DNI].medico_asignado < type(uint64).max, \"El paciente no tiene un medico asignado\");\r\n    require(_fecha >= block.timestamp, \"No se pueden programar citas anteriores a este momento.\");\r\n\r\n    bool huecoLibre = true;\r\n    Paciente memory paciente = pacientes[_DNI];\r\n    Medico memory medico = medicos[paciente.medico_asignado]; //Medico que el paciente tiene asignado\r\n    for (uint64 i = 0; i < citas.length && citas[i].fecha>block.timestamp; i++) { \r\n        //Comprobamos que sea el medico que tiene asignado el paciente \r\n        if(citas[i].medico.datos.direccionPublica == medico.datos.direccionPublica){ \r\n        //Comprobamos que haya un rango de 15 minutos disponibles despues de la cita\r\n        if (citas[i].fecha == _fecha && citas[i].hora == _hora || citas[i].fecha == _fecha && citas[i].hora > _hora - 15 minutes) {\r\n            huecoLibre = false;\r\n            }\r\n            }\r\n    }\r\n        if (huecoLibre) {\r\n    //Asignamos la nueva cita\r\n        citas.push(\r\n        Cita({\r\n            medico: medico,\r\n            paciente: paciente,\r\n            fecha: _fecha,\r\n            hora: _hora,\r\n            datos_cita:_datos_cita,\r\n            tipoConsulta: _tipoConsulta\r\n        }));\r\n\r\n    //Creamos la consulta\r\n        consultas.push(\r\n        Consulta({\r\n        paciente:paciente,\r\n        medico:medico,\r\n        fecha: _fecha,\r\n        hora:_hora,\r\n        datos_consulta:_datos_cita,\r\n        estado: estado_consulta.programada,\r\n        tipo: _tipoConsulta\r\n    }));\r\n}\r\n    }\r\nfunction atenderConsulta (string memory _DNI, uint _fecha, uint8 _hora, string memory _datos_consulta) public {\r\n    Paciente memory paciente = pacientes[_DNI];\r\n    require(msg.sender ==  medicos[pacientes[_DNI].medico_asignado].datos.direccionPublica, \"Solo el medico puede atender la consulta\"); \r\n    bool consultaEncontrada = false;\r\n    for(uint64 i = 0; i < consultas.length; i++) {\r\n        if(consultas[i].fecha == _fecha && consultas[i].hora == _hora && keccak256(bytes(paciente.datos.DNI)) == keccak256(bytes(_DNI))) {\r\n            consultaEncontrada = true;\r\n            consultas[i].datos_consulta = _datos_consulta;\r\n            consultas[i].estado = estado_consulta.cerrada; //consulta cerrada\r\n        }\r\n    }\r\n    require(consultaEncontrada == true, \"No se encontro una consulta programada con los datos especificados\");\r\n}\r\n\r\nfunction modificarCita(uint64 indice, string memory _datos_cita, Paciente memory _paciente, uint _nuevaFecha, uint8 _nuevaHora, tipo_consulta _nuevoTipoConsulta) public {\r\n    require((indice < citas.length) && (msg.sender == medicos[_paciente.medico_asignado].datos.direccionPublica || msg.sender == _paciente.datos.direccionPublica), \"la cita no existe o no hay permisos suficientes\");\r\n    require(_nuevaFecha >= block.timestamp, \"No se pueden programar citas anteriores a este momento.\");\r\n    //Actualizamos datos de la futura consulta mdica\r\n     for (uint64 i = 0; i < consultas.length; i++) {\r\n        if (consultas[i].fecha == citas[indice].fecha &&\r\n            consultas[i].hora == citas[indice].hora &&\r\n            keccak256(bytes(consultas[i].paciente.datos.DNI)) == keccak256(bytes(_paciente.datos.DNI))) {\r\n            consultas[i].fecha= _nuevaFecha;\r\n            consultas[i].hora= _nuevaHora;\r\n            consultas[i].fecha= _nuevaFecha;\r\n            consultas[i].tipo= _nuevoTipoConsulta;\r\n}\r\n     }\r\n    citas[indice].fecha=_nuevaFecha;\r\n    citas[indice].hora=_nuevaHora;\r\n    citas[indice].datos_cita=_datos_cita;\r\n    citas[indice].tipoConsulta = _nuevoTipoConsulta;\r\n}\r\nfunction obtenerCitas() public view returns (Cita[] memory) {\r\n        return citas;\r\n    }\r\n    function obtenerConsultas() public view returns (Consulta[] memory) {\r\n        return consultas;\r\n    }\r\nfunction obtenerDatosPaciente(string memory _DNI) public view returns (Paciente memory) {\r\n    return pacientes[_DNI];\r\n}\r\n}",
  "sourcePath": "C:\\Users\\pablo\\OneDrive - Universidad de Castilla-La Mancha\\4\\TFG\\ProyectoHistoriaClinica\\contracts\\HistoriaClinica.sol",
  "compiler": {
    "name": "solc",
    "version": "0.8.13+commit.abaa5c0e.Emscripten.clang"
  },
  "schemaVersion": "3.4.15",
  "updatedAt": "2023-11-29T00:47:30.144Z",
  "networkType": "ethereum",
  "devdoc": {
    "kind": "dev",
    "methods": {},
    "version": 1
  },
  "userdoc": {
    "kind": "user",
    "methods": {},
    "version": 1
  }
}