{
  "contractName": "HistoriaClinica",
  "abi": [
    {
      "inputs": [],
      "stateMutability": "nonpayable",
      "type": "constructor"
    },
    {
      "inputs": [
        {
          "internalType": "uint256",
          "name": "",
          "type": "uint256"
        }
      ],
      "name": "citas",
      "outputs": [
        {
          "components": [
            {
              "components": [
                {
                  "internalType": "address",
                  "name": "direccionPublica",
                  "type": "address"
                },
                {
                  "internalType": "string",
                  "name": "DNI",
                  "type": "string"
                }
              ],
              "internalType": "struct HistoriaClinica.Persona",
              "name": "datos",
              "type": "tuple"
            },
            {
              "internalType": "string",
              "name": "centro_sanitario",
              "type": "string"
            },
            {
              "internalType": "uint256",
              "name": "medico_asignado",
              "type": "uint256"
            },
            {
              "internalType": "string",
              "name": "datos_paciente",
              "type": "string"
            }
          ],
          "internalType": "struct HistoriaClinica.Paciente",
          "name": "paciente",
          "type": "tuple"
        },
        {
          "components": [
            {
              "components": [
                {
                  "internalType": "address",
                  "name": "direccionPublica",
                  "type": "address"
                },
                {
                  "internalType": "string",
                  "name": "DNI",
                  "type": "string"
                }
              ],
              "internalType": "struct HistoriaClinica.Persona",
              "name": "datos",
              "type": "tuple"
            },
            {
              "internalType": "string",
              "name": "especialidad",
              "type": "string"
            },
            {
              "internalType": "string",
              "name": "centro_sanitario",
              "type": "string"
            },
            {
              "internalType": "uint256",
              "name": "numero_pacientes",
              "type": "uint256"
            }
          ],
          "internalType": "struct HistoriaClinica.Medico",
          "name": "medico",
          "type": "tuple"
        },
        {
          "internalType": "uint256",
          "name": "fecha",
          "type": "uint256"
        },
        {
          "internalType": "uint8",
          "name": "hora",
          "type": "uint8"
        },
        {
          "internalType": "string",
          "name": "datos_cita",
          "type": "string"
        },
        {
          "internalType": "enum HistoriaClinica.tipo_consulta",
          "name": "tipoConsulta",
          "type": "uint8"
        }
      ],
      "stateMutability": "view",
      "type": "function",
      "constant": true
    },
    {
      "inputs": [
        {
          "internalType": "uint256",
          "name": "",
          "type": "uint256"
        }
      ],
      "name": "consultas",
      "outputs": [
        {
          "components": [
            {
              "components": [
                {
                  "internalType": "address",
                  "name": "direccionPublica",
                  "type": "address"
                },
                {
                  "internalType": "string",
                  "name": "DNI",
                  "type": "string"
                }
              ],
              "internalType": "struct HistoriaClinica.Persona",
              "name": "datos",
              "type": "tuple"
            },
            {
              "internalType": "string",
              "name": "centro_sanitario",
              "type": "string"
            },
            {
              "internalType": "uint256",
              "name": "medico_asignado",
              "type": "uint256"
            },
            {
              "internalType": "string",
              "name": "datos_paciente",
              "type": "string"
            }
          ],
          "internalType": "struct HistoriaClinica.Paciente",
          "name": "paciente",
          "type": "tuple"
        },
        {
          "components": [
            {
              "components": [
                {
                  "internalType": "address",
                  "name": "direccionPublica",
                  "type": "address"
                },
                {
                  "internalType": "string",
                  "name": "DNI",
                  "type": "string"
                }
              ],
              "internalType": "struct HistoriaClinica.Persona",
              "name": "datos",
              "type": "tuple"
            },
            {
              "internalType": "string",
              "name": "especialidad",
              "type": "string"
            },
            {
              "internalType": "string",
              "name": "centro_sanitario",
              "type": "string"
            },
            {
              "internalType": "uint256",
              "name": "numero_pacientes",
              "type": "uint256"
            }
          ],
          "internalType": "struct HistoriaClinica.Medico",
          "name": "medico",
          "type": "tuple"
        },
        {
          "internalType": "uint8",
          "name": "hora",
          "type": "uint8"
        },
        {
          "internalType": "uint256",
          "name": "fecha",
          "type": "uint256"
        },
        {
          "internalType": "string",
          "name": "datos_consulta",
          "type": "string"
        },
        {
          "internalType": "enum HistoriaClinica.estado_consulta",
          "name": "estado",
          "type": "uint8"
        },
        {
          "internalType": "enum HistoriaClinica.tipo_consulta",
          "name": "tipo",
          "type": "uint8"
        }
      ],
      "stateMutability": "view",
      "type": "function",
      "constant": true
    },
    {
      "inputs": [
        {
          "internalType": "uint256",
          "name": "",
          "type": "uint256"
        }
      ],
      "name": "enfermeros",
      "outputs": [
        {
          "components": [
            {
              "internalType": "address",
              "name": "direccionPublica",
              "type": "address"
            },
            {
              "internalType": "string",
              "name": "DNI",
              "type": "string"
            }
          ],
          "internalType": "struct HistoriaClinica.Persona",
          "name": "datos",
          "type": "tuple"
        },
        {
          "internalType": "string",
          "name": "especialidad",
          "type": "string"
        },
        {
          "internalType": "string",
          "name": "centro_sanitario",
          "type": "string"
        }
      ],
      "stateMutability": "view",
      "type": "function",
      "constant": true
    },
    {
      "inputs": [
        {
          "internalType": "uint256",
          "name": "",
          "type": "uint256"
        }
      ],
      "name": "medicos",
      "outputs": [
        {
          "components": [
            {
              "internalType": "address",
              "name": "direccionPublica",
              "type": "address"
            },
            {
              "internalType": "string",
              "name": "DNI",
              "type": "string"
            }
          ],
          "internalType": "struct HistoriaClinica.Persona",
          "name": "datos",
          "type": "tuple"
        },
        {
          "internalType": "string",
          "name": "especialidad",
          "type": "string"
        },
        {
          "internalType": "string",
          "name": "centro_sanitario",
          "type": "string"
        },
        {
          "internalType": "uint256",
          "name": "numero_pacientes",
          "type": "uint256"
        }
      ],
      "stateMutability": "view",
      "type": "function",
      "constant": true
    },
    {
      "inputs": [],
      "name": "owner",
      "outputs": [
        {
          "internalType": "address",
          "name": "",
          "type": "address"
        }
      ],
      "stateMutability": "view",
      "type": "function",
      "constant": true
    },
    {
      "inputs": [
        {
          "internalType": "string",
          "name": "",
          "type": "string"
        }
      ],
      "name": "pacientes",
      "outputs": [
        {
          "components": [
            {
              "internalType": "address",
              "name": "direccionPublica",
              "type": "address"
            },
            {
              "internalType": "string",
              "name": "DNI",
              "type": "string"
            }
          ],
          "internalType": "struct HistoriaClinica.Persona",
          "name": "datos",
          "type": "tuple"
        },
        {
          "internalType": "string",
          "name": "centro_sanitario",
          "type": "string"
        },
        {
          "internalType": "uint256",
          "name": "medico_asignado",
          "type": "uint256"
        },
        {
          "internalType": "string",
          "name": "datos_paciente",
          "type": "string"
        }
      ],
      "stateMutability": "view",
      "type": "function",
      "constant": true
    },
    {
      "inputs": [
        {
          "internalType": "string",
          "name": "_DNI",
          "type": "string"
        },
        {
          "internalType": "string",
          "name": "_centroSanitario",
          "type": "string"
        },
        {
          "internalType": "string",
          "name": "_datosPaciente",
          "type": "string"
        }
      ],
      "name": "registrarPaciente",
      "outputs": [],
      "stateMutability": "nonpayable",
      "type": "function"
    },
    {
      "inputs": [
        {
          "internalType": "address",
          "name": "_direccionMedico",
          "type": "address"
        },
        {
          "internalType": "string",
          "name": "_DNI",
          "type": "string"
        },
        {
          "internalType": "string",
          "name": "_especialidad",
          "type": "string"
        },
        {
          "internalType": "string",
          "name": "_centro_sanitario",
          "type": "string"
        }
      ],
      "name": "registrarMedico",
      "outputs": [],
      "stateMutability": "nonpayable",
      "type": "function"
    },
    {
      "inputs": [
        {
          "internalType": "address",
          "name": "_direccionEnfermero",
          "type": "address"
        },
        {
          "internalType": "string",
          "name": "_DNI",
          "type": "string"
        },
        {
          "internalType": "string",
          "name": "_especialidad",
          "type": "string"
        },
        {
          "internalType": "string",
          "name": "_centro_sanitario",
          "type": "string"
        }
      ],
      "name": "registrarEnfermero",
      "outputs": [],
      "stateMutability": "nonpayable",
      "type": "function"
    },
    {
      "inputs": [
        {
          "internalType": "string",
          "name": "_DNI",
          "type": "string"
        }
      ],
      "name": "asignarMedico",
      "outputs": [
        {
          "internalType": "uint256",
          "name": "",
          "type": "uint256"
        }
      ],
      "stateMutability": "nonpayable",
      "type": "function"
    },
    {
      "inputs": [
        {
          "internalType": "string",
          "name": "_DNI",
          "type": "string"
        },
        {
          "internalType": "uint256",
          "name": "_fecha",
          "type": "uint256"
        },
        {
          "internalType": "uint8",
          "name": "_hora",
          "type": "uint8"
        },
        {
          "internalType": "string",
          "name": "_datos_cita",
          "type": "string"
        },
        {
          "internalType": "enum HistoriaClinica.tipo_consulta",
          "name": "_tipoConsulta",
          "type": "uint8"
        }
      ],
      "name": "solicitarCita",
      "outputs": [],
      "stateMutability": "nonpayable",
      "type": "function"
    },
    {
      "inputs": [
        {
          "internalType": "string",
          "name": "_DNI",
          "type": "string"
        },
        {
          "internalType": "uint256",
          "name": "_fecha",
          "type": "uint256"
        },
        {
          "internalType": "uint256",
          "name": "_hora",
          "type": "uint256"
        },
        {
          "internalType": "string",
          "name": "_datos_consulta",
          "type": "string"
        }
      ],
      "name": "atenderConsulta",
      "outputs": [],
      "stateMutability": "nonpayable",
      "type": "function"
    },
    {
      "inputs": [
        {
          "internalType": "uint8",
          "name": "indice",
          "type": "uint8"
        },
        {
          "components": [
            {
              "components": [
                {
                  "internalType": "address",
                  "name": "direccionPublica",
                  "type": "address"
                },
                {
                  "internalType": "string",
                  "name": "DNI",
                  "type": "string"
                }
              ],
              "internalType": "struct HistoriaClinica.Persona",
              "name": "datos",
              "type": "tuple"
            },
            {
              "internalType": "string",
              "name": "especialidad",
              "type": "string"
            },
            {
              "internalType": "string",
              "name": "centro_sanitario",
              "type": "string"
            },
            {
              "internalType": "uint256",
              "name": "numero_pacientes",
              "type": "uint256"
            }
          ],
          "internalType": "struct HistoriaClinica.Medico",
          "name": "_medico",
          "type": "tuple"
        },
        {
          "internalType": "string",
          "name": "_datos_cita",
          "type": "string"
        },
        {
          "components": [
            {
              "components": [
                {
                  "internalType": "address",
                  "name": "direccionPublica",
                  "type": "address"
                },
                {
                  "internalType": "string",
                  "name": "DNI",
                  "type": "string"
                }
              ],
              "internalType": "struct HistoriaClinica.Persona",
              "name": "datos",
              "type": "tuple"
            },
            {
              "internalType": "string",
              "name": "centro_sanitario",
              "type": "string"
            },
            {
              "internalType": "uint256",
              "name": "medico_asignado",
              "type": "uint256"
            },
            {
              "internalType": "string",
              "name": "datos_paciente",
              "type": "string"
            }
          ],
          "internalType": "struct HistoriaClinica.Paciente",
          "name": "_paciente",
          "type": "tuple"
        },
        {
          "internalType": "uint256",
          "name": "_nuevaFecha",
          "type": "uint256"
        },
        {
          "internalType": "uint8",
          "name": "_nuevaHora",
          "type": "uint8"
        },
        {
          "internalType": "enum HistoriaClinica.tipo_consulta",
          "name": "_nuevoTipoConsulta",
          "type": "uint8"
        }
      ],
      "name": "modificarCita",
      "outputs": [],
      "stateMutability": "nonpayable",
      "type": "function"
    },
    {
      "inputs": [
        {
          "components": [
            {
              "components": [
                {
                  "components": [
                    {
                      "internalType": "address",
                      "name": "direccionPublica",
                      "type": "address"
                    },
                    {
                      "internalType": "string",
                      "name": "DNI",
                      "type": "string"
                    }
                  ],
                  "internalType": "struct HistoriaClinica.Persona",
                  "name": "datos",
                  "type": "tuple"
                },
                {
                  "internalType": "string",
                  "name": "centro_sanitario",
                  "type": "string"
                },
                {
                  "internalType": "uint256",
                  "name": "medico_asignado",
                  "type": "uint256"
                },
                {
                  "internalType": "string",
                  "name": "datos_paciente",
                  "type": "string"
                }
              ],
              "internalType": "struct HistoriaClinica.Paciente",
              "name": "paciente",
              "type": "tuple"
            },
            {
              "components": [
                {
                  "components": [
                    {
                      "internalType": "address",
                      "name": "direccionPublica",
                      "type": "address"
                    },
                    {
                      "internalType": "string",
                      "name": "DNI",
                      "type": "string"
                    }
                  ],
                  "internalType": "struct HistoriaClinica.Persona",
                  "name": "datos",
                  "type": "tuple"
                },
                {
                  "internalType": "string",
                  "name": "especialidad",
                  "type": "string"
                },
                {
                  "internalType": "string",
                  "name": "centro_sanitario",
                  "type": "string"
                },
                {
                  "internalType": "uint256",
                  "name": "numero_pacientes",
                  "type": "uint256"
                }
              ],
              "internalType": "struct HistoriaClinica.Medico",
              "name": "medico",
              "type": "tuple"
            },
            {
              "internalType": "uint8",
              "name": "hora",
              "type": "uint8"
            },
            {
              "internalType": "uint256",
              "name": "fecha",
              "type": "uint256"
            },
            {
              "internalType": "string",
              "name": "datos_consulta",
              "type": "string"
            },
            {
              "internalType": "enum HistoriaClinica.estado_consulta",
              "name": "estado",
              "type": "uint8"
            },
            {
              "internalType": "enum HistoriaClinica.tipo_consulta",
              "name": "tipo",
              "type": "uint8"
            }
          ],
          "internalType": "struct HistoriaClinica.Consulta",
          "name": "nuevaConsulta",
          "type": "tuple"
        }
      ],
      "name": "crearConsulta",
      "outputs": [],
      "stateMutability": "nonpayable",
      "type": "function"
    },
    {
      "inputs": [],
      "name": "obtenerMedicos",
      "outputs": [
        {
          "components": [
            {
              "components": [
                {
                  "internalType": "address",
                  "name": "direccionPublica",
                  "type": "address"
                },
                {
                  "internalType": "string",
                  "name": "DNI",
                  "type": "string"
                }
              ],
              "internalType": "struct HistoriaClinica.Persona",
              "name": "datos",
              "type": "tuple"
            },
            {
              "internalType": "string",
              "name": "especialidad",
              "type": "string"
            },
            {
              "internalType": "string",
              "name": "centro_sanitario",
              "type": "string"
            },
            {
              "internalType": "uint256",
              "name": "numero_pacientes",
              "type": "uint256"
            }
          ],
          "internalType": "struct HistoriaClinica.Medico[]",
          "name": "",
          "type": "tuple[]"
        }
      ],
      "stateMutability": "view",
      "type": "function",
      "constant": true
    },
    {
      "inputs": [],
      "name": "obtenerEnfermeros",
      "outputs": [
        {
          "components": [
            {
              "components": [
                {
                  "internalType": "address",
                  "name": "direccionPublica",
                  "type": "address"
                },
                {
                  "internalType": "string",
                  "name": "DNI",
                  "type": "string"
                }
              ],
              "internalType": "struct HistoriaClinica.Persona",
              "name": "datos",
              "type": "tuple"
            },
            {
              "internalType": "string",
              "name": "especialidad",
              "type": "string"
            },
            {
              "internalType": "string",
              "name": "centro_sanitario",
              "type": "string"
            }
          ],
          "internalType": "struct HistoriaClinica.Enfermero[]",
          "name": "",
          "type": "tuple[]"
        }
      ],
      "stateMutability": "view",
      "type": "function",
      "constant": true
    },
    {
      "inputs": [
        {
          "internalType": "string",
          "name": "_DNI",
          "type": "string"
        }
      ],
      "name": "obtenerDatosPaciente",
      "outputs": [
        {
          "components": [
            {
              "components": [
                {
                  "internalType": "address",
                  "name": "direccionPublica",
                  "type": "address"
                },
                {
                  "internalType": "string",
                  "name": "DNI",
                  "type": "string"
                }
              ],
              "internalType": "struct HistoriaClinica.Persona",
              "name": "datos",
              "type": "tuple"
            },
            {
              "internalType": "string",
              "name": "centro_sanitario",
              "type": "string"
            },
            {
              "internalType": "uint256",
              "name": "medico_asignado",
              "type": "uint256"
            },
            {
              "internalType": "string",
              "name": "datos_paciente",
              "type": "string"
            }
          ],
          "internalType": "struct HistoriaClinica.Paciente",
          "name": "",
          "type": "tuple"
        }
      ],
      "stateMutability": "view",
      "type": "function",
      "constant": true
    }
  ],
  "bytecode": "0x608060405234801561001057600080fd5b5033600560006101000a81548173ffffffffffffffffffffffffffffffffffffffff021916908373ffffffffffffffffffffffffffffffffffffffff160217905550615e2680620000626000396000f3fe608060405234801561001057600080fd5b506004361061010b5760003560e01c806394ee77bd116100a2578063cdafc91a11610071578063cdafc91a146102ae578063db8a9820146102de578063de67678114610310578063f12591081461032c578063f6652a671461035c5761010b565b806394ee77bd1461023a578063bdb7990014610258578063ca1cde8f14610276578063cbcc336d146102925761010b565b80634fef7228116100de5780634fef72281461019757806352509b8d146101b35780637513e79c146101e65780638da5cb5b1461021c5761010b565b80631b01921a146101105780632c1a929d1461012c5780633550242f1461015f578063358e64d01461017b575b600080fd5b61012a600480360381019061012591906144b2565b610391565b005b61014660048036038101906101419190614551565b61084d565b60405161015694939291906146dd565b60405180910390f35b61017960048036038101906101749190614763565b610a8f565b005b61019560048036038101906101909190614bb7565b610c46565b005b6101b160048036038101906101ac9190614c00565b610e9b565b005b6101cd60048036038101906101c89190614cf6565b61132a565b6040516101dd9493929190614d3f565b60405180910390f35b61020060048036038101906101fb9190614551565b611572565b6040516102139796959493929190614f95565b60405180910390f35b610224611adb565b6040516102319190615028565b60405180910390f35b610242611b01565b60405161024f9190615176565b60405180910390f35b610260611e1a565b60405161026d91906152b8565b60405180910390f35b610290600480360381019061028b91906152da565b612129565b005b6102ac60048036038101906102a79190615381565b612330565b005b6102c860048036038101906102c39190614cf6565b61303a565b6040516102d59190615434565b60405180910390f35b6102f860048036038101906102f39190614551565b613445565b60405161030793929190615456565b60405180910390f35b61032a60048036038101906103259190614763565b613681565b005b61034660048036038101906103419190614cf6565b613849565b60405161035391906154a2565b60405180910390f35b61037660048036038101906103719190614551565b613ccb565b604051610388969594939291906154bd565b60405180910390f35b600080856040516103a2919061556f565b9081526020016040518091039020604051806080016040529081600082016040518060400160405290816000820160009054906101000a900473ffffffffffffffffffffffffffffffffffffffff1673ffffffffffffffffffffffffffffffffffffffff1673ffffffffffffffffffffffffffffffffffffffff168152602001600182018054610431906155b5565b80601f016020809104026020016040519081016040528092919081815260200182805461045d906155b5565b80156104aa5780601f1061047f576101008083540402835291602001916104aa565b820191906000526020600020905b81548152906001019060200180831161048d57829003601f168201915b50505050508152505081526020016002820180546104c7906155b5565b80601f01602080910402602001604051908101604052809291908181526020018280546104f3906155b5565b80156105405780601f1061051557610100808354040283529160200191610540565b820191906000526020600020905b81548152906001019060200180831161052357829003601f168201915b5050505050815260200160038201548152602001600482018054610563906155b5565b80601f016020809104026020016040519081016040528092919081815260200182805461058f906155b5565b80156105dc5780601f106105b1576101008083540402835291602001916105dc565b820191906000526020600020905b8154815290600101906020018083116105bf57829003601f168201915b505050505081525050905060016000866040516105f9919061556f565b9081526020016040518091039020600301548154811061061c5761061b6155e6565b5b906000526020600020906005020160000160000160009054906101000a900473ffffffffffffffffffffffffffffffffffffffff1673ffffffffffffffffffffffffffffffffffffffff163373ffffffffffffffffffffffffffffffffffffffff16146106be576040517f08c379a00000000000000000000000000000000000000000000000000000000081526004016106b590615687565b60405180910390fd5b6000805b6004805490508110156107fd5785600482815481106106e4576106e36155e6565b5b90600052602060002090600e0201600b015414801561073757508460048281548110610713576107126155e6565b5b90600052602060002090600e0201600a0160009054906101000a900460ff1660ff16145b80156107585750868051906020012083600001516020015180519060200120145b156107ea57600191508360048281548110610776576107756155e6565b5b90600052602060002090600e0201600c01908051906020019061079a929190614221565b506002600482815481106107b1576107b06155e6565b5b90600052602060002090600e0201600d0160006101000a81548160ff021916908360028111156107e4576107e3614ed6565b5b02179055505b80806107f5906156d6565b9150506106c2565b506001151581151514610845576040517f08c379a000000000000000000000000000000000000000000000000000000000815260040161083c906157b6565b60405180910390fd5b505050505050565b6001818154811061085d57600080fd5b9060005260206000209060050201600091509050806000016040518060400160405290816000820160009054906101000a900473ffffffffffffffffffffffffffffffffffffffff1673ffffffffffffffffffffffffffffffffffffffff1673ffffffffffffffffffffffffffffffffffffffff1681526020016001820180546108e6906155b5565b80601f0160208091040260200160405190810160405280929190818152602001828054610912906155b5565b801561095f5780601f106109345761010080835404028352916020019161095f565b820191906000526020600020905b81548152906001019060200180831161094257829003601f168201915b50505050508152505090806002018054610978906155b5565b80601f01602080910402602001604051908101604052809291908181526020018280546109a4906155b5565b80156109f15780601f106109c6576101008083540402835291602001916109f1565b820191906000526020600020905b8154815290600101906020018083116109d457829003601f168201915b505050505090806003018054610a06906155b5565b80601f0160208091040260200160405190810160405280929190818152602001828054610a32906155b5565b8015610a7f5780601f10610a5457610100808354040283529160200191610a7f565b820191906000526020600020905b815481529060010190602001808311610a6257829003601f168201915b5050505050908060040154905084565b600560009054906101000a900473ffffffffffffffffffffffffffffffffffffffff1673ffffffffffffffffffffffffffffffffffffffff163373ffffffffffffffffffffffffffffffffffffffff1614610b1f576040517f08c379a0000000000000000000000000000000000000000000000000000000008152600401610b1690615848565b60405180910390fd5b600060405180604001604052808673ffffffffffffffffffffffffffffffffffffffff1681526020018581525090506002604051806060016040528083815260200185815260200184815250908060018154018082558091505060019003906000526020600020906004020160009091909190915060008201518160000160008201518160000160006101000a81548173ffffffffffffffffffffffffffffffffffffffff021916908373ffffffffffffffffffffffffffffffffffffffff1602179055506020820151816001019080519060200190610c00929190614221565b5050506020820151816002019080519060200190610c1f929190614221565b506040820151816003019080519060200190610c3c929190614221565b5050505050505050565b60048190806001815401808255809150506001900390600052602060002090600e020160009091909190915060008201518160000160008201518160000160008201518160000160006101000a81548173ffffffffffffffffffffffffffffffffffffffff021916908373ffffffffffffffffffffffffffffffffffffffff1602179055506020820151816001019080519060200190610ce7929190614221565b5050506020820151816002019080519060200190610d06929190614221565b50604082015181600301556060820151816004019080519060200190610d2d929190614221565b50505060208201518160050160008201518160000160008201518160000160006101000a81548173ffffffffffffffffffffffffffffffffffffffff021916908373ffffffffffffffffffffffffffffffffffffffff1602179055506020820151816001019080519060200190610da5929190614221565b5050506020820151816002019080519060200190610dc4929190614221565b506040820151816003019080519060200190610de1929190614221565b50606082015181600401555050604082015181600a0160006101000a81548160ff021916908360ff160217905550606082015181600b0155608082015181600c019080519060200190610e35929190614221565b5060a082015181600d0160006101000a81548160ff02191690836002811115610e6157610e60614ed6565b5b021790555060c082015181600d0160016101000a81548160ff02191690836001811115610e9157610e90614ed6565b5b0217905550505050565b6003805490508760ff16108015610f23575085600001516000015173ffffffffffffffffffffffffffffffffffffffff163373ffffffffffffffffffffffffffffffffffffffff161480610f22575083600001516000015173ffffffffffffffffffffffffffffffffffffffff163373ffffffffffffffffffffffffffffffffffffffff16145b5b610f62576040517f08c379a0000000000000000000000000000000000000000000000000000000008152600401610f59906158da565b60405180910390fd5b60088260ff1610158015610f7a575060128260ff1611155b610fb9576040517f08c379a0000000000000000000000000000000000000000000000000000000008152600401610fb09061596c565b60405180910390fd5b42831015610ffc576040517f08c379a0000000000000000000000000000000000000000000000000000000008152600401610ff3906159fe565b60405180910390fd5b60005b6004805490508110156112255760038860ff1681548110611023576110226155e6565b5b90600052602060002090600e0201600a015460048281548110611049576110486155e6565b5b90600052602060002090600e0201600b01541480156110d4575060038860ff168154811061107a576110796155e6565b5b90600052602060002090600e0201600b0160009054906101000a900460ff1660ff16600482815481106110b0576110af6155e6565b5b90600052602060002090600e0201600a0160009054906101000a900460ff1660ff16145b801561112d575084600001516020015180519060200120600482815481106110ff576110fe6155e6565b5b90600052602060002090600e02016000016000016001016040516111239190615abd565b6040518091039020145b15611212578360048281548110611147576111466155e6565b5b90600052602060002090600e0201600b01819055508260048281548110611171576111706155e6565b5b90600052602060002090600e0201600a0160006101000a81548160ff021916908360ff16021790555083600482815481106111af576111ae6155e6565b5b90600052602060002090600e0201600b018190555081600482815481106111d9576111d86155e6565b5b90600052602060002090600e0201600d0160016101000a81548160ff0219169083600181111561120c5761120b614ed6565b5b02179055505b808061121d906156d6565b915050610fff565b508260038860ff168154811061123e5761123d6155e6565b5b90600052602060002090600e0201600a01819055508160038860ff168154811061126b5761126a6155e6565b5b90600052602060002090600e0201600b0160006101000a81548160ff021916908360ff1602179055508460038860ff16815481106112ac576112ab6155e6565b5b90600052602060002090600e0201600c0190805190602001906112d0929190614221565b508060038860ff16815481106112e9576112e86155e6565b5b90600052602060002090600e0201600d0160006101000a81548160ff0219169083600181111561131c5761131b614ed6565b5b021790555050505050505050565b600081805160208101820180518482526020830160208501208183528095505050505050600091509050806000016040518060400160405290816000820160009054906101000a900473ffffffffffffffffffffffffffffffffffffffff1673ffffffffffffffffffffffffffffffffffffffff1673ffffffffffffffffffffffffffffffffffffffff1681526020016001820180546113c9906155b5565b80601f01602080910402602001604051908101604052809291908181526020018280546113f5906155b5565b80156114425780601f1061141757610100808354040283529160200191611442565b820191906000526020600020905b81548152906001019060200180831161142557829003601f168201915b5050505050815250509080600201805461145b906155b5565b80601f0160208091040260200160405190810160405280929190818152602001828054611487906155b5565b80156114d45780601f106114a9576101008083540402835291602001916114d4565b820191906000526020600020905b8154815290600101906020018083116114b757829003601f168201915b5050505050908060030154908060040180546114ef906155b5565b80601f016020809104026020016040519081016040528092919081815260200182805461151b906155b5565b80156115685780601f1061153d57610100808354040283529160200191611568565b820191906000526020600020905b81548152906001019060200180831161154b57829003601f168201915b5050505050905084565b6004818154811061158257600080fd5b90600052602060002090600e020160009150905080600001604051806080016040529081600082016040518060400160405290816000820160009054906101000a900473ffffffffffffffffffffffffffffffffffffffff1673ffffffffffffffffffffffffffffffffffffffff1673ffffffffffffffffffffffffffffffffffffffff16815260200160018201805461161b906155b5565b80601f0160208091040260200160405190810160405280929190818152602001828054611647906155b5565b80156116945780601f1061166957610100808354040283529160200191611694565b820191906000526020600020905b81548152906001019060200180831161167757829003601f168201915b50505050508152505081526020016002820180546116b1906155b5565b80601f01602080910402602001604051908101604052809291908181526020018280546116dd906155b5565b801561172a5780601f106116ff5761010080835404028352916020019161172a565b820191906000526020600020905b81548152906001019060200180831161170d57829003601f168201915b505050505081526020016003820154815260200160048201805461174d906155b5565b80601f0160208091040260200160405190810160405280929190818152602001828054611779906155b5565b80156117c65780601f1061179b576101008083540402835291602001916117c6565b820191906000526020600020905b8154815290600101906020018083116117a957829003601f168201915b5050505050815250509080600501604051806080016040529081600082016040518060400160405290816000820160009054906101000a900473ffffffffffffffffffffffffffffffffffffffff1673ffffffffffffffffffffffffffffffffffffffff1673ffffffffffffffffffffffffffffffffffffffff168152602001600182018054611855906155b5565b80601f0160208091040260200160405190810160405280929190818152602001828054611881906155b5565b80156118ce5780601f106118a3576101008083540402835291602001916118ce565b820191906000526020600020905b8154815290600101906020018083116118b157829003601f168201915b50505050508152505081526020016002820180546118eb906155b5565b80601f0160208091040260200160405190810160405280929190818152602001828054611917906155b5565b80156119645780601f1061193957610100808354040283529160200191611964565b820191906000526020600020905b81548152906001019060200180831161194757829003601f168201915b5050505050815260200160038201805461197d906155b5565b80601f01602080910402602001604051908101604052809291908181526020018280546119a9906155b5565b80156119f65780601f106119cb576101008083540402835291602001916119f6565b820191906000526020600020905b8154815290600101906020018083116119d957829003601f168201915b505050505081526020016004820154815250509080600a0160009054906101000a900460ff169080600b01549080600c018054611a32906155b5565b80601f0160208091040260200160405190810160405280929190818152602001828054611a5e906155b5565b8015611aab5780601f10611a8057610100808354040283529160200191611aab565b820191906000526020600020905b815481529060010190602001808311611a8e57829003601f168201915b50505050509080600d0160009054906101000a900460ff169080600d0160019054906101000a900460ff16905087565b600560009054906101000a900473ffffffffffffffffffffffffffffffffffffffff1681565b6060600560009054906101000a900473ffffffffffffffffffffffffffffffffffffffff1673ffffffffffffffffffffffffffffffffffffffff163373ffffffffffffffffffffffffffffffffffffffff1614611b93576040517f08c379a0000000000000000000000000000000000000000000000000000000008152600401611b8a90615848565b60405180910390fd5b6001805480602002602001604051908101604052809291908181526020016000905b82821015611e115783829060005260206000209060050201604051806080016040529081600082016040518060400160405290816000820160009054906101000a900473ffffffffffffffffffffffffffffffffffffffff1673ffffffffffffffffffffffffffffffffffffffff1673ffffffffffffffffffffffffffffffffffffffff168152602001600182018054611c4e906155b5565b80601f0160208091040260200160405190810160405280929190818152602001828054611c7a906155b5565b8015611cc75780601f10611c9c57610100808354040283529160200191611cc7565b820191906000526020600020905b815481529060010190602001808311611caa57829003601f168201915b5050505050815250508152602001600282018054611ce4906155b5565b80601f0160208091040260200160405190810160405280929190818152602001828054611d10906155b5565b8015611d5d5780601f10611d3257610100808354040283529160200191611d5d565b820191906000526020600020905b815481529060010190602001808311611d4057829003601f168201915b50505050508152602001600382018054611d76906155b5565b80601f0160208091040260200160405190810160405280929190818152602001828054611da2906155b5565b8015611def5780601f10611dc457610100808354040283529160200191611def565b820191906000526020600020905b815481529060010190602001808311611dd257829003601f168201915b5050505050815260200160048201548152505081526020019060010190611bb5565b50505050905090565b6060600560009054906101000a900473ffffffffffffffffffffffffffffffffffffffff1673ffffffffffffffffffffffffffffffffffffffff163373ffffffffffffffffffffffffffffffffffffffff1614611eac576040517f08c379a0000000000000000000000000000000000000000000000000000000008152600401611ea390615848565b60405180910390fd5b6002805480602002602001604051908101604052809291908181526020016000905b828210156121205783829060005260206000209060040201604051806060016040529081600082016040518060400160405290816000820160009054906101000a900473ffffffffffffffffffffffffffffffffffffffff1673ffffffffffffffffffffffffffffffffffffffff1673ffffffffffffffffffffffffffffffffffffffff168152602001600182018054611f67906155b5565b80601f0160208091040260200160405190810160405280929190818152602001828054611f93906155b5565b8015611fe05780601f10611fb557610100808354040283529160200191611fe0565b820191906000526020600020905b815481529060010190602001808311611fc357829003601f168201915b5050505050815250508152602001600282018054611ffd906155b5565b80601f0160208091040260200160405190810160405280929190818152602001828054612029906155b5565b80156120765780601f1061204b57610100808354040283529160200191612076565b820191906000526020600020905b81548152906001019060200180831161205957829003601f168201915b5050505050815260200160038201805461208f906155b5565b80601f01602080910402602001604051908101604052809291908181526020018280546120bb906155b5565b80156121085780601f106120dd57610100808354040283529160200191612108565b820191906000526020600020905b8154815290600101906020018083116120eb57829003601f168201915b50505050508152505081526020019060010190611ece565b50505050905090565b600073ffffffffffffffffffffffffffffffffffffffff16600084604051612151919061556f565b908152602001604051809103902060000160000160009054906101000a900473ffffffffffffffffffffffffffffffffffffffff1673ffffffffffffffffffffffffffffffffffffffff16146121dc576040517f08c379a00000000000000000000000000000000000000000000000000000000081526004016121d390615b20565b60405180910390fd5b600060405180604001604052803373ffffffffffffffffffffffffffffffffffffffff16815260200185815250905060405180608001604052808281526020018481526020017fffffffffffffffffffffffffffffffffffffffffffffffffffffffffffffffff81526020018381525060008560405161225c919061556f565b908152602001604051809103902060008201518160000160008201518160000160006101000a81548173ffffffffffffffffffffffffffffffffffffffff021916908373ffffffffffffffffffffffffffffffffffffffff16021790555060208201518160010190805190602001906122d6929190614221565b50505060208201518160020190805190602001906122f5929190614221565b5060408201518160030155606082015181600401908051906020019061231c929190614221565b5090505061232984613849565b5050505050565b7fffffffffffffffffffffffffffffffffffffffffffffffffffffffffffffffff600086604051612361919061556f565b908152602001604051809103902060030154106123b3576040517f08c379a00000000000000000000000000000000000000000000000000000000081526004016123aa90615bb2565b60405180910390fd5b60088360ff16101580156123cb575060128360ff1611155b61240a576040517f08c379a00000000000000000000000000000000000000000000000000000000081526004016124019061596c565b60405180910390fd5b4284101561244d576040517f08c379a0000000000000000000000000000000000000000000000000000000008152600401612444906159fe565b60405180910390fd5b60006001905060008087604051612464919061556f565b9081526020016040518091039020604051806080016040529081600082016040518060400160405290816000820160009054906101000a900473ffffffffffffffffffffffffffffffffffffffff1673ffffffffffffffffffffffffffffffffffffffff1673ffffffffffffffffffffffffffffffffffffffff1681526020016001820180546124f3906155b5565b80601f016020809104026020016040519081016040528092919081815260200182805461251f906155b5565b801561256c5780601f106125415761010080835404028352916020019161256c565b820191906000526020600020905b81548152906001019060200180831161254f57829003601f168201915b5050505050815250508152602001600282018054612589906155b5565b80601f01602080910402602001604051908101604052809291908181526020018280546125b5906155b5565b80156126025780601f106125d757610100808354040283529160200191612602565b820191906000526020600020905b8154815290600101906020018083116125e557829003601f168201915b5050505050815260200160038201548152602001600482018054612625906155b5565b80601f0160208091040260200160405190810160405280929190818152602001828054612651906155b5565b801561269e5780601f106126735761010080835404028352916020019161269e565b820191906000526020600020905b81548152906001019060200180831161268157829003601f168201915b5050505050815250509050600060018260400151815481106126c3576126c26155e6565b5b9060005260206000209060050201604051806080016040529081600082016040518060400160405290816000820160009054906101000a900473ffffffffffffffffffffffffffffffffffffffff1673ffffffffffffffffffffffffffffffffffffffff1673ffffffffffffffffffffffffffffffffffffffff168152602001600182018054612752906155b5565b80601f016020809104026020016040519081016040528092919081815260200182805461277e906155b5565b80156127cb5780601f106127a0576101008083540402835291602001916127cb565b820191906000526020600020905b8154815290600101906020018083116127ae57829003601f168201915b50505050508152505081526020016002820180546127e8906155b5565b80601f0160208091040260200160405190810160405280929190818152602001828054612814906155b5565b80156128615780601f1061283657610100808354040283529160200191612861565b820191906000526020600020905b81548152906001019060200180831161284457829003601f168201915b5050505050815260200160038201805461287a906155b5565b80601f01602080910402602001604051908101604052809291908181526020018280546128a6906155b5565b80156128f35780601f106128c8576101008083540402835291602001916128f3565b820191906000526020600020905b8154815290600101906020018083116128d657829003601f168201915b50505050508152602001600482015481525050905060005b600380549050811080156129435750426003828154811061292f5761292e6155e6565b5b90600052602060002090600e0201600a0154115b15612ada5781600001516000015173ffffffffffffffffffffffffffffffffffffffff166003828154811061297b5761297a6155e6565b5b90600052602060002090600e020160050160000160000160009054906101000a900473ffffffffffffffffffffffffffffffffffffffff1673ffffffffffffffffffffffffffffffffffffffff1603612ac75787600382815481106129e3576129e26155e6565b5b90600052602060002090600e0201600a0154148015612a3957508660ff1660038281548110612a1557612a146155e6565b5b90600052602060002090600e0201600b0160009054906101000a900460ff1660ff16145b80612abc57508760038281548110612a5457612a536155e6565b5b90600052602060002090600e0201600a0154148015612abb57506103848760ff16612a7f9190615be0565b61ffff1660038281548110612a9757612a966155e6565b5b90600052602060002090600e0201600b0160009054906101000a900460ff1660ff16115b5b15612ac657600093505b5b8080612ad2906156d6565b91505061290b565b508215612ff55760036040518060c001604052808481526020018381526020018981526020018860ff168152602001878152602001866001811115612b2257612b21614ed6565b5b81525090806001815401808255809150506001900390600052602060002090600e020160009091909190915060008201518160000160008201518160000160008201518160000160006101000a81548173ffffffffffffffffffffffffffffffffffffffff021916908373ffffffffffffffffffffffffffffffffffffffff1602179055506020820151816001019080519060200190612bc3929190614221565b5050506020820151816002019080519060200190612be2929190614221565b50604082015181600301556060820151816004019080519060200190612c09929190614221565b50505060208201518160050160008201518160000160008201518160000160006101000a81548173ffffffffffffffffffffffffffffffffffffffff021916908373ffffffffffffffffffffffffffffffffffffffff1602179055506020820151816001019080519060200190612c81929190614221565b5050506020820151816002019080519060200190612ca0929190614221565b506040820151816003019080519060200190612cbd929190614221565b50606082015181600401555050604082015181600a0155606082015181600b0160006101000a81548160ff021916908360ff160217905550608082015181600c019080519060200190612d11929190614221565b5060a082015181600d0160006101000a81548160ff02191690836001811115612d3d57612d3c614ed6565b5b0217905550505060046040518060e001604052808481526020018381526020018860ff16815260200189815260200187815260200160006002811115612d8657612d85614ed6565b5b8152602001866001811115612d9e57612d9d614ed6565b5b81525090806001815401808255809150506001900390600052602060002090600e020160009091909190915060008201518160000160008201518160000160008201518160000160006101000a81548173ffffffffffffffffffffffffffffffffffffffff021916908373ffffffffffffffffffffffffffffffffffffffff1602179055506020820151816001019080519060200190612e3f929190614221565b5050506020820151816002019080519060200190612e5e929190614221565b50604082015181600301556060820151816004019080519060200190612e85929190614221565b50505060208201518160050160008201518160000160008201518160000160006101000a81548173ffffffffffffffffffffffffffffffffffffffff021916908373ffffffffffffffffffffffffffffffffffffffff1602179055506020820151816001019080519060200190612efd929190614221565b5050506020820151816002019080519060200190612f1c929190614221565b506040820151816003019080519060200190612f39929190614221565b50606082015181600401555050604082015181600a0160006101000a81548160ff021916908360ff160217905550606082015181600b0155608082015181600c019080519060200190612f8d929190614221565b5060a082015181600d0160006101000a81548160ff02191690836002811115612fb957612fb8614ed6565b5b021790555060c082015181600d0160016101000a81548160ff02191690836001811115612fe957612fe8614ed6565b5b02179055505050613030565b6040517f08c379a000000000000000000000000000000000000000000000000000000000815260040161302790615cac565b60405180910390fd5b5050505050505050565b6130426142a7565b600560009054906101000a900473ffffffffffffffffffffffffffffffffffffffff1673ffffffffffffffffffffffffffffffffffffffff163373ffffffffffffffffffffffffffffffffffffffff16148061310d57506000826040516130a9919061556f565b908152602001604051809103902060000160000160009054906101000a900473ffffffffffffffffffffffffffffffffffffffff1673ffffffffffffffffffffffffffffffffffffffff163373ffffffffffffffffffffffffffffffffffffffff16145b806131ac57506001600083604051613125919061556f565b90815260200160405180910390206003015481548110613148576131476155e6565b5b906000526020600020906005020160000160000160009054906101000a900473ffffffffffffffffffffffffffffffffffffffff1673ffffffffffffffffffffffffffffffffffffffff163373ffffffffffffffffffffffffffffffffffffffff16145b6131eb576040517f08c379a00000000000000000000000000000000000000000000000000000000081526004016131e290615d64565b60405180910390fd5b6000826040516131fb919061556f565b9081526020016040518091039020604051806080016040529081600082016040518060400160405290816000820160009054906101000a900473ffffffffffffffffffffffffffffffffffffffff1673ffffffffffffffffffffffffffffffffffffffff1673ffffffffffffffffffffffffffffffffffffffff16815260200160018201805461328a906155b5565b80601f01602080910402602001604051908101604052809291908181526020018280546132b6906155b5565b80156133035780601f106132d857610100808354040283529160200191613303565b820191906000526020600020905b8154815290600101906020018083116132e657829003601f168201915b5050505050815250508152602001600282018054613320906155b5565b80601f016020809104026020016040519081016040528092919081815260200182805461334c906155b5565b80156133995780601f1061336e57610100808354040283529160200191613399565b820191906000526020600020905b81548152906001019060200180831161337c57829003601f168201915b50505050508152602001600382015481526020016004820180546133bc906155b5565b80601f01602080910402602001604051908101604052809291908181526020018280546133e8906155b5565b80156134355780601f1061340a57610100808354040283529160200191613435565b820191906000526020600020905b81548152906001019060200180831161341857829003601f168201915b5050505050815250509050919050565b6002818154811061345557600080fd5b9060005260206000209060040201600091509050806000016040518060400160405290816000820160009054906101000a900473ffffffffffffffffffffffffffffffffffffffff1673ffffffffffffffffffffffffffffffffffffffff1673ffffffffffffffffffffffffffffffffffffffff1681526020016001820180546134de906155b5565b80601f016020809104026020016040519081016040528092919081815260200182805461350a906155b5565b80156135575780601f1061352c57610100808354040283529160200191613557565b820191906000526020600020905b81548152906001019060200180831161353a57829003601f168201915b50505050508152505090806002018054613570906155b5565b80601f016020809104026020016040519081016040528092919081815260200182805461359c906155b5565b80156135e95780601f106135be576101008083540402835291602001916135e9565b820191906000526020600020905b8154815290600101906020018083116135cc57829003601f168201915b5050505050908060030180546135fe906155b5565b80601f016020809104026020016040519081016040528092919081815260200182805461362a906155b5565b80156136775780601f1061364c57610100808354040283529160200191613677565b820191906000526020600020905b81548152906001019060200180831161365a57829003601f168201915b5050505050905083565b600560009054906101000a900473ffffffffffffffffffffffffffffffffffffffff1673ffffffffffffffffffffffffffffffffffffffff163373ffffffffffffffffffffffffffffffffffffffff1614613711576040517f08c379a000000000000000000000000000000000000000000000000000000000815260040161370890615848565b60405180910390fd5b600060405180604001604052808673ffffffffffffffffffffffffffffffffffffffff168152602001858152509050600160405180608001604052808381526020018581526020018481526020016000815250908060018154018082558091505060019003906000526020600020906005020160009091909190915060008201518160000160008201518160000160006101000a81548173ffffffffffffffffffffffffffffffffffffffff021916908373ffffffffffffffffffffffffffffffffffffffff16021790555060208201518160010190805190602001906137f9929190614221565b5050506020820151816002019080519060200190613818929190614221565b506040820151816003019080519060200190613835929190614221565b506060820151816004015550505050505050565b60008060018054905011613892576040517f08c379a000000000000000000000000000000000000000000000000000000000815260040161388990615dd0565b60405180910390fd5b60008080846040516138a4919061556f565b9081526020016040518091039020604051806080016040529081600082016040518060400160405290816000820160009054906101000a900473ffffffffffffffffffffffffffffffffffffffff1673ffffffffffffffffffffffffffffffffffffffff1673ffffffffffffffffffffffffffffffffffffffff168152602001600182018054613933906155b5565b80601f016020809104026020016040519081016040528092919081815260200182805461395f906155b5565b80156139ac5780601f10613981576101008083540402835291602001916139ac565b820191906000526020600020905b81548152906001019060200180831161398f57829003601f168201915b50505050508152505081526020016002820180546139c9906155b5565b80601f01602080910402602001604051908101604052809291908181526020018280546139f5906155b5565b8015613a425780601f10613a1757610100808354040283529160200191613a42565b820191906000526020600020905b815481529060010190602001808311613a2557829003601f168201915b5050505050815260200160038201548152602001600482018054613a65906155b5565b80601f0160208091040260200160405190810160405280929190818152602001828054613a91906155b5565b8015613ade5780601f10613ab357610100808354040283529160200191613ade565b820191906000526020600020905b815481529060010190602001808311613ac157829003601f168201915b50505050508152505090506000816020015190506000807fffffffffffffffffffffffffffffffffffffffffffffffffffffffffffffffff90505b600180549050851015613c5d576040518060400160405280600781526020017f47656e6572616c000000000000000000000000000000000000000000000000008152508051906020012060018681548110613b7757613b766155e6565b5b9060005260206000209060050201600201604051613b959190615abd565b6040518091039020148015613be95750828051906020012060018681548110613bc157613bc06155e6565b5b9060005260206000209060050201600301604051613bdf9190615abd565b6040518091039020145b8015613c1957508060018681548110613c0557613c046155e6565b5b906000526020600020906005020160040154105b15613c4a5760018581548110613c3257613c316155e6565b5b90600052602060002090600502016004015490508491505b8480613c55906156d6565b955050613b19565b60018281548110613c7157613c706155e6565b5b90600052602060002090600502016004016000815480929190613c93906156d6565b919050555081600088604051613ca9919061556f565b9081526020016040518091039020600301819055508195505050505050919050565b60038181548110613cdb57600080fd5b90600052602060002090600e020160009150905080600001604051806080016040529081600082016040518060400160405290816000820160009054906101000a900473ffffffffffffffffffffffffffffffffffffffff1673ffffffffffffffffffffffffffffffffffffffff1673ffffffffffffffffffffffffffffffffffffffff168152602001600182018054613d74906155b5565b80601f0160208091040260200160405190810160405280929190818152602001828054613da0906155b5565b8015613ded5780601f10613dc257610100808354040283529160200191613ded565b820191906000526020600020905b815481529060010190602001808311613dd057829003601f168201915b5050505050815250508152602001600282018054613e0a906155b5565b80601f0160208091040260200160405190810160405280929190818152602001828054613e36906155b5565b8015613e835780601f10613e5857610100808354040283529160200191613e83565b820191906000526020600020905b815481529060010190602001808311613e6657829003601f168201915b5050505050815260200160038201548152602001600482018054613ea6906155b5565b80601f0160208091040260200160405190810160405280929190818152602001828054613ed2906155b5565b8015613f1f5780601f10613ef457610100808354040283529160200191613f1f565b820191906000526020600020905b815481529060010190602001808311613f0257829003601f168201915b5050505050815250509080600501604051806080016040529081600082016040518060400160405290816000820160009054906101000a900473ffffffffffffffffffffffffffffffffffffffff1673ffffffffffffffffffffffffffffffffffffffff1673ffffffffffffffffffffffffffffffffffffffff168152602001600182018054613fae906155b5565b80601f0160208091040260200160405190810160405280929190818152602001828054613fda906155b5565b80156140275780601f10613ffc57610100808354040283529160200191614027565b820191906000526020600020905b81548152906001019060200180831161400a57829003601f168201915b5050505050815250508152602001600282018054614044906155b5565b80601f0160208091040260200160405190810160405280929190818152602001828054614070906155b5565b80156140bd5780601f10614092576101008083540402835291602001916140bd565b820191906000526020600020905b8154815290600101906020018083116140a057829003601f168201915b505050505081526020016003820180546140d6906155b5565b80601f0160208091040260200160405190810160405280929190818152602001828054614102906155b5565b801561414f5780601f106141245761010080835404028352916020019161414f565b820191906000526020600020905b81548152906001019060200180831161413257829003601f168201915b505050505081526020016004820154815250509080600a01549080600b0160009054906101000a900460ff169080600c01805461418b906155b5565b80601f01602080910402602001604051908101604052809291908181526020018280546141b7906155b5565b80156142045780601f106141d957610100808354040283529160200191614204565b820191906000526020600020905b8154815290600101906020018083116141e757829003601f168201915b50505050509080600d0160009054906101000a900460ff16905086565b82805461422d906155b5565b90600052602060002090601f01602090048101928261424f5760008555614296565b82601f1061426857805160ff1916838001178555614296565b82800160010185558215614296579182015b8281111561429557825182559160200191906001019061427a565b5b5090506142a391906142d5565b5090565b60405180608001604052806142ba6142f2565b81526020016060815260200160008152602001606081525090565b5b808211156142ee5760008160009055506001016142d6565b5090565b6040518060400160405280600073ffffffffffffffffffffffffffffffffffffffff168152602001606081525090565b6000604051905090565b600080fd5b600080fd5b600080fd5b600080fd5b6000601f19601f8301169050919050565b7f4e487b7100000000000000000000000000000000000000000000000000000000600052604160045260246000fd5b61438982614340565b810181811067ffffffffffffffff821117156143a8576143a7614351565b5b80604052505050565b60006143bb614322565b90506143c78282614380565b919050565b600067ffffffffffffffff8211156143e7576143e6614351565b5b6143f082614340565b9050602081019050919050565b82818337600083830152505050565b600061441f61441a846143cc565b6143b1565b90508281526020810184848401111561443b5761443a61433b565b5b6144468482856143fd565b509392505050565b600082601f83011261446357614462614336565b5b813561447384826020860161440c565b91505092915050565b6000819050919050565b61448f8161447c565b811461449a57600080fd5b50565b6000813590506144ac81614486565b92915050565b600080600080608085870312156144cc576144cb61432c565b5b600085013567ffffffffffffffff8111156144ea576144e9614331565b5b6144f68782880161444e565b94505060206145078782880161449d565b93505060406145188782880161449d565b925050606085013567ffffffffffffffff81111561453957614538614331565b5b6145458782880161444e565b91505092959194509250565b6000602082840312156145675761456661432c565b5b60006145758482850161449d565b91505092915050565b600073ffffffffffffffffffffffffffffffffffffffff82169050919050565b60006145a98261457e565b9050919050565b6145b98161459e565b82525050565b600081519050919050565b600082825260208201905092915050565b60005b838110156145f95780820151818401526020810190506145de565b83811115614608576000848401525b50505050565b6000614619826145bf565b61462381856145ca565b93506146338185602086016145db565b61463c81614340565b840191505092915050565b600060408301600083015161465f60008601826145b0565b5060208301518482036020860152614677828261460e565b9150508091505092915050565b600082825260208201905092915050565b60006146a0826145bf565b6146aa8185614684565b93506146ba8185602086016145db565b6146c381614340565b840191505092915050565b6146d78161447c565b82525050565b600060808201905081810360008301526146f78187614647565b9050818103602083015261470b8186614695565b9050818103604083015261471f8185614695565b905061472e60608301846146ce565b95945050505050565b6147408161459e565b811461474b57600080fd5b50565b60008135905061475d81614737565b92915050565b6000806000806080858703121561477d5761477c61432c565b5b600061478b8782880161474e565b945050602085013567ffffffffffffffff8111156147ac576147ab614331565b5b6147b88782880161444e565b935050604085013567ffffffffffffffff8111156147d9576147d8614331565b5b6147e58782880161444e565b925050606085013567ffffffffffffffff81111561480657614805614331565b5b6148128782880161444e565b91505092959194509250565b600080fd5b600080fd5b60006040828403121561483e5761483d61481e565b5b61484860406143b1565b905060006148588482850161474e565b600083015250602082013567ffffffffffffffff81111561487c5761487b614823565b5b6148888482850161444e565b60208301525092915050565b6000608082840312156148aa576148a961481e565b5b6148b460806143b1565b9050600082013567ffffffffffffffff8111156148d4576148d3614823565b5b6148e084828501614828565b600083015250602082013567ffffffffffffffff81111561490457614903614823565b5b6149108482850161444e565b60208301525060406149248482850161449d565b604083015250606082013567ffffffffffffffff81111561494857614947614823565b5b6149548482850161444e565b60608301525092915050565b6000608082840312156149765761497561481e565b5b61498060806143b1565b9050600082013567ffffffffffffffff8111156149a05761499f614823565b5b6149ac84828501614828565b600083015250602082013567ffffffffffffffff8111156149d0576149cf614823565b5b6149dc8482850161444e565b602083015250604082013567ffffffffffffffff811115614a00576149ff614823565b5b614a0c8482850161444e565b6040830152506060614a208482850161449d565b60608301525092915050565b600060ff82169050919050565b614a4281614a2c565b8114614a4d57600080fd5b50565b600081359050614a5f81614a39565b92915050565b60038110614a7257600080fd5b50565b600081359050614a8481614a65565b92915050565b60028110614a9757600080fd5b50565b600081359050614aa981614a8a565b92915050565b600060e08284031215614ac557614ac461481e565b5b614acf60e06143b1565b9050600082013567ffffffffffffffff811115614aef57614aee614823565b5b614afb84828501614894565b600083015250602082013567ffffffffffffffff811115614b1f57614b1e614823565b5b614b2b84828501614960565b6020830152506040614b3f84828501614a50565b6040830152506060614b538482850161449d565b606083015250608082013567ffffffffffffffff811115614b7757614b76614823565b5b614b838482850161444e565b60808301525060a0614b9784828501614a75565b60a08301525060c0614bab84828501614a9a565b60c08301525092915050565b600060208284031215614bcd57614bcc61432c565b5b600082013567ffffffffffffffff811115614beb57614bea614331565b5b614bf784828501614aaf565b91505092915050565b600080600080600080600060e0888a031215614c1f57614c1e61432c565b5b6000614c2d8a828b01614a50565b975050602088013567ffffffffffffffff811115614c4e57614c4d614331565b5b614c5a8a828b01614960565b965050604088013567ffffffffffffffff811115614c7b57614c7a614331565b5b614c878a828b0161444e565b955050606088013567ffffffffffffffff811115614ca857614ca7614331565b5b614cb48a828b01614894565b9450506080614cc58a828b0161449d565b93505060a0614cd68a828b01614a50565b92505060c0614ce78a828b01614a9a565b91505092959891949750929550565b600060208284031215614d0c57614d0b61432c565b5b600082013567ffffffffffffffff811115614d2a57614d29614331565b5b614d368482850161444e565b91505092915050565b60006080820190508181036000830152614d598187614647565b90508181036020830152614d6d8186614695565b9050614d7c60408301856146ce565b8181036060830152614d8e8184614695565b905095945050505050565b6000604083016000830151614db160008601826145b0565b5060208301518482036020860152614dc9828261460e565b9150508091505092915050565b614ddf8161447c565b82525050565b60006080830160008301518482036000860152614e028282614d99565b91505060208301518482036020860152614e1c828261460e565b9150506040830151614e316040860182614dd6565b5060608301518482036060860152614e49828261460e565b9150508091505092915050565b60006080830160008301518482036000860152614e738282614d99565b91505060208301518482036020860152614e8d828261460e565b91505060408301518482036040860152614ea7828261460e565b9150506060830151614ebc6060860182614dd6565b508091505092915050565b614ed081614a2c565b82525050565b7f4e487b7100000000000000000000000000000000000000000000000000000000600052602160045260246000fd5b60038110614f1657614f15614ed6565b5b50565b6000819050614f2782614f05565b919050565b6000614f3782614f19565b9050919050565b614f4781614f2c565b82525050565b60028110614f5e57614f5d614ed6565b5b50565b6000819050614f6f82614f4d565b919050565b6000614f7f82614f61565b9050919050565b614f8f81614f74565b82525050565b600060e0820190508181036000830152614faf818a614de5565b90508181036020830152614fc38189614e56565b9050614fd26040830188614ec7565b614fdf60608301876146ce565b8181036080830152614ff18186614695565b905061500060a0830185614f3e565b61500d60c0830184614f86565b98975050505050505050565b6150228161459e565b82525050565b600060208201905061503d6000830184615019565b92915050565b600081519050919050565b600082825260208201905092915050565b6000819050602082019050919050565b6000608083016000830151848203600086015261508c8282614d99565b915050602083015184820360208601526150a6828261460e565b915050604083015184820360408601526150c0828261460e565b91505060608301516150d56060860182614dd6565b508091505092915050565b60006150ec838361506f565b905092915050565b6000602082019050919050565b600061510c82615043565b615116818561504e565b9350836020820285016151288561505f565b8060005b85811015615164578484038952815161514585826150e0565b9450615150836150f4565b925060208a0199505060018101905061512c565b50829750879550505050505092915050565b600060208201905081810360008301526151908184615101565b905092915050565b600081519050919050565b600082825260208201905092915050565b6000819050602082019050919050565b600060608301600083015184820360008601526151e18282614d99565b915050602083015184820360208601526151fb828261460e565b91505060408301518482036040860152615215828261460e565b9150508091505092915050565b600061522e83836151c4565b905092915050565b6000602082019050919050565b600061524e82615198565b61525881856151a3565b93508360208202850161526a856151b4565b8060005b858110156152a657848403895281516152878582615222565b945061529283615236565b925060208a0199505060018101905061526e565b50829750879550505050505092915050565b600060208201905081810360008301526152d28184615243565b905092915050565b6000806000606084860312156152f3576152f261432c565b5b600084013567ffffffffffffffff81111561531157615310614331565b5b61531d8682870161444e565b935050602084013567ffffffffffffffff81111561533e5761533d614331565b5b61534a8682870161444e565b925050604084013567ffffffffffffffff81111561536b5761536a614331565b5b6153778682870161444e565b9150509250925092565b600080600080600060a0868803121561539d5761539c61432c565b5b600086013567ffffffffffffffff8111156153bb576153ba614331565b5b6153c78882890161444e565b95505060206153d88882890161449d565b94505060406153e988828901614a50565b935050606086013567ffffffffffffffff81111561540a57615409614331565b5b6154168882890161444e565b925050608061542788828901614a9a565b9150509295509295909350565b6000602082019050818103600083015261544e8184614de5565b905092915050565b600060608201905081810360008301526154708186614647565b905081810360208301526154848185614695565b905081810360408301526154988184614695565b9050949350505050565b60006020820190506154b760008301846146ce565b92915050565b600060c08201905081810360008301526154d78189614de5565b905081810360208301526154eb8188614e56565b90506154fa60408301876146ce565b6155076060830186614ec7565b81810360808301526155198185614695565b905061552860a0830184614f86565b979650505050505050565b600081905092915050565b6000615549826145bf565b6155538185615533565b93506155638185602086016145db565b80840191505092915050565b600061557b828461553e565b915081905092915050565b7f4e487b7100000000000000000000000000000000000000000000000000000000600052602260045260246000fd5b600060028204905060018216806155cd57607f821691505b6020821081036155e0576155df615586565b5b50919050565b7f4e487b7100000000000000000000000000000000000000000000000000000000600052603260045260246000fd5b7f536f6c6f20656c206d656469636f207075656465206174656e646572206c612060008201527f636f6e73756c7461000000000000000000000000000000000000000000000000602082015250565b6000615671602883614684565b915061567c82615615565b604082019050919050565b600060208201905081810360008301526156a081615664565b9050919050565b7f4e487b7100000000000000000000000000000000000000000000000000000000600052601160045260246000fd5b60006156e18261447c565b91507fffffffffffffffffffffffffffffffffffffffffffffffffffffffffffffffff8203615713576157126156a7565b5b600182019050919050565b7f4e6f20736520656e636f6e74726f20756e6120636f6e73756c74612070726f6760008201527f72616d61646120636f6e206c6f73206461746f7320657370656369666963616460208201527f6f73000000000000000000000000000000000000000000000000000000000000604082015250565b60006157a0604283614684565b91506157ab8261571e565b606082019050919050565b600060208201905081810360008301526157cf81615793565b9050919050565b7f536f6c6f20656c2061646d696e6973747261646f72207469656e65207065726d60008201527f69736f73207061726120656a65637574617220657374612066756e63696f6e00602082015250565b6000615832603f83614684565b915061583d826157d6565b604082019050919050565b6000602082019050818103600083015261586181615825565b9050919050565b7f6c612063697461206e6f20657869737465206f206e6f20686179207065726d6960008201527f736f7320737566696369656e7465730000000000000000000000000000000000602082015250565b60006158c4602f83614684565b91506158cf82615868565b604082019050919050565b600060208201905081810360008301526158f3816158b7565b9050919050565b7f4c6120636c696e69636120736f6c6f20617469656e646520656e747265206c6160008201527f7320383a30302079206c61732031383a30302e00000000000000000000000000602082015250565b6000615956603383614684565b9150615961826158fa565b604082019050919050565b6000602082019050818103600083015261598581615949565b9050919050565b7f4e6f2073652070756564656e2070726f6772616d617220636974617320616e7460008201527f6572696f72657320612065737465206d6f6d656e746f2e000000000000000000602082015250565b60006159e8603783614684565b91506159f38261598c565b604082019050919050565b60006020820190508181036000830152615a17816159db565b9050919050565b600081905092915050565b60008190508160005260206000209050919050565b60008154615a4b816155b5565b615a558186615a1e565b94506001821660008114615a705760018114615a8157615ab4565b60ff19831686528186019350615ab4565b615a8a85615a29565b60005b83811015615aac57815481890152600182019150602081019050615a8d565b838801955050505b50505092915050565b6000615ac98284615a3e565b915081905092915050565b7f457374652070616369656e74652079612065737461207265676973747261646f600082015250565b6000615b0a602083614684565b9150615b1582615ad4565b602082019050919050565b60006020820190508181036000830152615b3981615afd565b9050919050565b7f456c2070616369656e7465206e6f207469656e6520756e206d656469636f206160008201527f7369676e61646f00000000000000000000000000000000000000000000000000602082015250565b6000615b9c602783614684565b9150615ba782615b40565b604082019050919050565b60006020820190508181036000830152615bcb81615b8f565b9050919050565b600061ffff82169050919050565b6000615beb82615bd2565b9150615bf683615bd2565b925082821015615c0957615c086156a7565b5b828203905092915050565b7f4e6f2068617920687565636f206c696272652070617261206c6120636974612060008201527f656e20656c20686f726172696f20736f6c6963697461646f207061726120656c60208201527f2070616369656e746520737567657269646f2e00000000000000000000000000604082015250565b6000615c96605383614684565b9150615ca182615c14565b606082019050919050565b60006020820190508181036000830152615cc581615c89565b9050919050565b7f536f6c6f20656c2061646d696e6973747261646f722c20656c206d656469636f60008201527f20617369676e61646f206f20656c2070726f70696f2070616369656e7465207060208201527f756564656e206f6274656e6572206573746f73206461746f7300000000000000604082015250565b6000615d4e605983614684565b9150615d5982615ccc565b606082019050919050565b60006020820190508181036000830152615d7d81615d41565b9050919050565b7f4e6f20686179206d656469636f7320646973706f6e69626c6573000000000000600082015250565b6000615dba601a83614684565b9150615dc582615d84565b602082019050919050565b60006020820190508181036000830152615de981615dad565b905091905056fea2646970667358221220382c016096f8cde2efb3cf1feb146bafdf40f01e98c384a9efcb90db8614f3d264736f6c634300080d0033",
  "immutableReferences": {},
  "source": "// SPDX-License-Identifier: MIT\r\npragma solidity >=0.4.22 <0.9.0;\r\n\r\ncontract HistoriaClinica {\r\n    mapping(string => Paciente) public pacientes;\r\n    Medico[] public medicos;\r\n    Enfermero[] public enfermeros;\r\n     Cita[] public citas;\r\n    Consulta[] public consultas;\r\n\r\n    address public owner;\r\n\r\n    constructor() {\r\n        owner = msg.sender; // el primer usuario en crear el contrato se convierte en el owner o admin\r\n    }\r\n\r\n    enum tipo_consulta {\r\n        urgencias,\r\n        especialidad\r\n    }\r\n    enum tipo_organizacion {\r\n        publica,\r\n        privada\r\n    }\r\n    enum estado_consulta {\r\n        programada,cancelada,cerrada\r\n    }\r\n\r\n    struct Persona {\r\n        address direccionPublica;\r\n        string DNI;\r\n    }\r\n\r\n    struct Paciente {\r\n        Persona datos;\r\n        string centro_sanitario;\r\n        uint medico_asignado;\r\n        string datos_paciente;\r\n    }\r\n\r\n    struct Medico {\r\n        Persona datos; //Herencia\r\n        string especialidad;\r\n        string centro_sanitario;\r\n        uint numero_pacientes;\r\n    }\r\n\r\n    struct Enfermero {\r\n        Persona datos; //Herencia\r\n        string especialidad;\r\n        string centro_sanitario;\r\n    }\r\n    \r\n    struct Consulta {\r\n        Paciente paciente;\r\n        Medico medico;\r\n        uint8 hora;\r\n        uint256 fecha;\r\n        string datos_consulta;\r\n        estado_consulta estado;\r\n        tipo_consulta tipo;\r\n    }\r\n\r\n    struct Cita {\r\n        Paciente paciente;\r\n        Medico medico;\r\n        uint fecha;\r\n        uint8 hora;\r\n        string datos_cita;\r\n        tipo_consulta tipoConsulta;\r\n    }\r\n\r\nfunction registrarPaciente(string memory _DNI, string memory _centroSanitario, string memory _datosPaciente) public {\r\n    require(pacientes[_DNI].datos.direccionPublica == address(0), \"Este paciente ya esta registrado\");\r\n    Persona memory datosPersonales = Persona({\r\n    direccionPublica: msg.sender,\r\n    DNI: _DNI\r\n});\r\n\r\npacientes[_DNI] = Paciente({\r\n    centro_sanitario: _centroSanitario,\r\n    datos: datosPersonales,\r\n    medico_asignado: type(uint256).max, //an no tiene mdico asignado\r\n    datos_paciente: _datosPaciente\r\n});\r\nasignarMedico(_DNI);\r\n\r\n}\r\n\r\n    function registrarMedico(address _direccionMedico, string memory _DNI, string memory _especialidad, string memory _centro_sanitario) public {\r\n    require(msg.sender == owner, \"Solo el administrador tiene permisos para ejecutar esta funcion\");\r\n        Persona memory datosPersonales = Persona(_direccionMedico,_DNI);\r\n        medicos.push(Medico({\r\n        centro_sanitario: _centro_sanitario,\r\n        datos:datosPersonales,\r\n        especialidad: _especialidad,\r\n        numero_pacientes:0\r\n    }));\r\n}\r\n\r\n function registrarEnfermero(address _direccionEnfermero ,string memory _DNI, string memory _especialidad, string memory _centro_sanitario) public {\r\n        require(msg.sender == owner, \"Solo el administrador tiene permisos para ejecutar esta funcion\");\r\n        Persona memory datosPersonales = Persona (_direccionEnfermero,_DNI);\r\n        enfermeros.push(Enfermero({\r\n        especialidad: _especialidad,\r\n        centro_sanitario: _centro_sanitario,\r\n        datos : datosPersonales\r\n    }));\r\n\r\n    }\r\n\r\n    function asignarMedico(string memory _DNI) public returns (uint) {\r\n        // Comprobamos si hay mdicos disponibles\r\n         require(medicos.length > 0, \"No hay medicos disponibles\");\r\n        uint i = 0;\r\n        Paciente memory p = pacientes[_DNI]; //Buscamos el indice del paciente por DNI\r\n        string memory nombreCentroSanitario = p.centro_sanitario; // Obtenemos centro sanitario del paciente\r\n        uint indiceMedicoConMenosPacientes; //Posicion del array del medico con menos pacientes\r\n        uint256 minimoPacientes = type(uint256).max;\r\n        while (i < medicos.length) {\r\n            //Comprobamos especialidad, centro sanitario, y obtenemos el mdico con menos pacientes asignados\r\n            if (\r\n                keccak256(bytes(medicos[i].especialidad)) ==\r\n                keccak256(bytes(\"General\")) &&\r\n                keccak256(bytes(medicos[i].centro_sanitario)) ==\r\n                keccak256(bytes(nombreCentroSanitario)) &&\r\n                medicos[i].numero_pacientes < minimoPacientes\r\n            ) {\r\n                minimoPacientes = medicos[i].numero_pacientes;\r\n                indiceMedicoConMenosPacientes = i; //Mdico vlido encontrado\r\n            }\r\n            i++;\r\n        }\r\n        medicos[indiceMedicoConMenosPacientes].numero_pacientes++; //Aumentamos pacientes de ese mdico\r\n        pacientes[_DNI].medico_asignado=indiceMedicoConMenosPacientes; //Asignamos mdico al paciente\r\n        return indiceMedicoConMenosPacientes;\r\n    }\r\n\r\n    function solicitarCita(string memory _DNI, uint256 _fecha, uint8 _hora, string memory _datos_cita, tipo_consulta _tipoConsulta) public {\r\n    require(pacientes[_DNI].medico_asignado < type(uint256).max, \"El paciente no tiene un medico asignado\");\r\n    require(_hora >= 8 && _hora <= 18, \"La clinica solo atiende entre las 8:00 y las 18:00.\");\r\n    require(_fecha >= block.timestamp, \"No se pueden programar citas anteriores a este momento.\");\r\n\r\n    bool huecoLibre = true;\r\n    Paciente memory paciente = pacientes[_DNI];\r\n    Medico memory medico = medicos[paciente.medico_asignado]; //Medico que el paciente tiene asignado\r\n    for (uint i = 0; i < citas.length && citas[i].fecha>block.timestamp; i++) { \r\n        //Comprobamos que sea el medico que tiene asignado el paciente \r\n        if(citas[i].medico.datos.direccionPublica == medico.datos.direccionPublica){ \r\n        //Comprobamos que haya un rango de 15 minutos disponibles despues de la cita\r\n        if (citas[i].fecha == _fecha && citas[i].hora == _hora || citas[i].fecha == _fecha && citas[i].hora > _hora - 15 minutes) {\r\n            huecoLibre = false;\r\n            }\r\n            }\r\n    }\r\n        if (huecoLibre) {\r\n    //Asignamos la nueva cita\r\n        citas.push(\r\n        Cita({\r\n            medico: medico,\r\n            paciente: paciente,\r\n            fecha: _fecha,\r\n            hora: _hora,\r\n            datos_cita:_datos_cita,\r\n            tipoConsulta: _tipoConsulta\r\n        }));\r\n\r\n    //Creamos la consulta\r\n        consultas.push(\r\n        Consulta({\r\n        paciente:paciente,\r\n        medico:medico,\r\n        fecha: _fecha,\r\n        hora:_hora,\r\n        datos_consulta:_datos_cita,\r\n        estado: estado_consulta.programada,\r\n        tipo: _tipoConsulta\r\n    }));\r\n\r\n    } else {\r\n        revert(\"No hay hueco libre para la cita en el horario solicitado para el paciente sugerido.\");\r\n    }\r\n\r\n}\r\nfunction atenderConsulta (string memory _DNI, uint _fecha, uint _hora, string memory _datos_consulta) public {\r\n    Paciente memory paciente = pacientes[_DNI];\r\n    require(msg.sender ==  medicos[pacientes[_DNI].medico_asignado].datos.direccionPublica, \"Solo el medico puede atender la consulta\"); \r\n    bool consultaEncontrada = false;\r\n    for(uint i = 0; i < consultas.length; i++) {\r\n        if(consultas[i].fecha == _fecha && consultas[i].hora == _hora && keccak256(bytes(paciente.datos.DNI)) == keccak256(bytes(_DNI))) {\r\n            consultaEncontrada = true;\r\n            consultas[i].datos_consulta = _datos_consulta;\r\n            consultas[i].estado = estado_consulta.cerrada; //consulta cerrada\r\n        }\r\n    }\r\n    require(consultaEncontrada == true, \"No se encontro una consulta programada con los datos especificados\");\r\n}\r\n\r\nfunction modificarCita(uint8 indice, Medico memory _medico, string memory _datos_cita, Paciente memory _paciente, uint _nuevaFecha, uint8 _nuevaHora, tipo_consulta _nuevoTipoConsulta) public {\r\n    require((indice < citas.length) && (msg.sender == _medico.datos.direccionPublica || msg.sender == _paciente.datos.direccionPublica), \"la cita no existe o no hay permisos suficientes\");\r\n    require(_nuevaHora >= 8 && _nuevaHora <= 18, \"La clinica solo atiende entre las 8:00 y las 18:00.\");\r\n    require(_nuevaFecha >= block.timestamp, \"No se pueden programar citas anteriores a este momento.\");\r\n    //Actualizamos datos de la futura consulta mdica\r\n     for (uint i = 0; i < consultas.length; i++) {\r\n        if (consultas[i].fecha == citas[indice].fecha &&\r\n            consultas[i].hora == citas[indice].hora &&\r\n            keccak256(bytes(consultas[i].paciente.datos.DNI)) == keccak256(bytes(_paciente.datos.DNI))) {\r\n            consultas[i].fecha= _nuevaFecha;\r\n            consultas[i].hora= _nuevaHora;\r\n            consultas[i].fecha= _nuevaFecha;\r\n            consultas[i].tipo= _nuevoTipoConsulta;\r\n}\r\n     }\r\n    citas[indice].fecha=_nuevaFecha;\r\n    citas[indice].hora=_nuevaHora;\r\n    citas[indice].datos_cita=_datos_cita;\r\n    citas[indice].tipoConsulta = _nuevoTipoConsulta;\r\n}\r\n//Medico crea consulta (especialidad o no)\r\nfunction crearConsulta(Consulta memory nuevaConsulta) public {\r\n    consultas.push(nuevaConsulta);\r\n}\r\n\r\nfunction obtenerMedicos() public view returns (Medico[] memory) {\r\n        require(msg.sender == owner, \"Solo el administrador tiene permisos para ejecutar esta funcion\");\r\n        return medicos;\r\n    }\r\n    function obtenerEnfermeros() public view returns (Enfermero[] memory) {\r\n        require(msg.sender == owner, \"Solo el administrador tiene permisos para ejecutar esta funcion\");\r\n        return enfermeros;\r\n    }\r\nfunction obtenerDatosPaciente(string memory _DNI) public view returns (Paciente memory) {\r\n        require(\r\n        msg.sender == owner || msg.sender == pacientes[_DNI].datos.direccionPublica || msg.sender == medicos[pacientes[_DNI].medico_asignado].datos.direccionPublica,\r\n        \"Solo el administrador, el medico asignado o el propio paciente pueden obtener estos datos\"\r\n    );\r\n    return pacientes[_DNI];\r\n}\r\n}\r\n\r\n",
  "sourcePath": "C:\\Users\\pablo\\OneDrive - Universidad de Castilla-La Mancha\\4\\TFG\\ProyectoHistoriaClinica\\contracts\\HistoriaClinica.sol",
  "compiler": {
    "name": "solc",
    "version": "0.8.13+commit.abaa5c0e.Emscripten.clang"
  },
  "schemaVersion": "3.4.15",
  "updatedAt": "2023-11-20T01:01:28.145Z",
  "networkType": "ethereum",
  "devdoc": {
    "kind": "dev",
    "methods": {},
    "version": 1
  },
  "userdoc": {
    "kind": "user",
    "methods": {},
    "version": 1
  }
}